{
  "address": "0x39FfD23c810B36a72BdE798ca2FEa6D8a8560294",
  "abi": [
    {
      "inputs": [
        {
          "internalType": "address",
          "name": "_token0",
          "type": "address"
        },
        {
          "internalType": "address",
          "name": "_token1",
          "type": "address"
        }
      ],
      "name": "getPrices",
      "outputs": [
        {
          "internalType": "uint256",
          "name": "_price01",
          "type": "uint256"
        },
        {
          "internalType": "uint256",
          "name": "_price10",
          "type": "uint256"
        }
      ],
      "stateMutability": "view",
      "type": "function"
    },
    {
      "inputs": [
        {
          "internalType": "address",
          "name": "_token0",
          "type": "address"
        },
        {
          "internalType": "address",
          "name": "_token1",
          "type": "address"
        }
      ],
      "name": "getRatios",
      "outputs": [
        {
          "internalType": "uint256",
          "name": "_ratio01",
          "type": "uint256"
        },
        {
          "internalType": "uint256",
          "name": "_ratio10",
          "type": "uint256"
        }
      ],
      "stateMutability": "view",
      "type": "function"
    },
    {
      "inputs": [
        {
          "internalType": "address",
          "name": "_token",
          "type": "address"
        }
      ],
      "name": "getReserve",
      "outputs": [
        {
          "internalType": "uint256",
          "name": "_reserve",
          "type": "uint256"
        }
      ],
      "stateMutability": "view",
      "type": "function"
    },
    {
      "inputs": [
        {
          "internalType": "address",
          "name": "_token",
          "type": "address"
        },
        {
          "internalType": "uint256",
          "name": "_amount",
          "type": "uint256"
        }
      ],
      "name": "updaReserveAfterAddingLiquidity",
      "outputs": [],
      "stateMutability": "nonpayable",
      "type": "function"
    },
    {
      "inputs": [
        {
          "internalType": "address",
          "name": "_token",
          "type": "address"
        },
        {
          "internalType": "uint256",
          "name": "_amount",
          "type": "uint256"
        }
      ],
      "name": "updaReserveAfterRemovingLiquidity",
      "outputs": [],
      "stateMutability": "nonpayable",
      "type": "function"
    },
    {
      "inputs": [
        {
          "internalType": "address",
          "name": "_token0",
          "type": "address"
        },
        {
          "internalType": "address",
          "name": "_token1",
          "type": "address"
        },
        {
          "internalType": "uint256",
          "name": "_amount0",
          "type": "uint256"
        },
        {
          "internalType": "uint256",
          "name": "_amount1",
          "type": "uint256"
        }
      ],
      "name": "updateRatioAfterAddingLiquidity",
      "outputs": [],
      "stateMutability": "nonpayable",
      "type": "function"
    },
    {
      "inputs": [
        {
          "internalType": "address",
          "name": "_token0",
          "type": "address"
        },
        {
          "internalType": "address",
          "name": "_token1",
          "type": "address"
        },
        {
          "internalType": "uint256",
          "name": "_amount0",
          "type": "uint256"
        },
        {
          "internalType": "uint256",
          "name": "_amount1",
          "type": "uint256"
        }
      ],
      "name": "updateRatioAfterRemovingLiquidity",
      "outputs": [],
      "stateMutability": "nonpayable",
      "type": "function"
    }
  ],
  "transactionHash": "0xf7e6a53aa7b2f446c9966798b2c2868fe5e5fab16d5f090960054a3127bd9458",
  "args": [],
  "numDeployments": 1,
  "solcInputHash": "ab2cd7119b1b4a506ce49f0080ceb8a3",
  "bytecode": "0x608060405234801561001057600080fd5b5061071b806100206000396000f3fe608060405234801561001057600080fd5b506004361061007d5760003560e01c806388260d0c1161005b57806388260d0c146100d75780639492c2ca146100ea57806399483ecb14610136578063c9a396e91461014957600080fd5b80633890638b146100825780633cf7210d146100975780634552147f146100c4575b600080fd5b610095610090366004610530565b610180565b005b6100aa6100a5366004610572565b610284565b604080519283526020830191909152015b60405180910390f35b6100956100d23660046105a5565b61033b565b6100956100e53660046105a5565b6103c5565b6100aa6100f8366004610572565b6001600160a01b0391821660008181526001602081815260408084209590961683529384528482205490845284822092825291909252919020549091565b610095610144366004610530565b61045e565b6101726101573660046105cf565b6001600160a01b031660009081526020819052604090205490565b6040519081526020016100bb565b6001600160a01b038416158015906101a057506001600160a01b03831615155b6101c55760405162461bcd60e51b81526004016101bc906105f1565b60405180910390fd5b6000821180156101d55750600081115b6101f15760405162461bcd60e51b81526004016101bc90610628565b6001600160a01b0380851660008181526001602081815260408084209589168452948152848320549181528483209383529290925291909120546102358483610675565b61023f8483610675565b6001600160a01b0397881660008181526001602081815260408084209b909c168352998a528a8220908a528a8220928252919098529790962095909555505050915550565b6001600160a01b038083166000818152600160208181526040808420958716845294815284832054918152848320938352929092529182205482916102c89161068c565b6102da90670de0b6b3a76400006106ae565b6001600160a01b038085166000818152600160208181526040808420958b1684529481528483205491815284832093835292909252919091205461031e919061068c565b61033090670de0b6b3a76400006106ae565b915091509250929050565b6001600160a01b0382166103615760405162461bcd60e51b81526004016101bc906105f1565b600081116103815760405162461bcd60e51b81526004016101bc90610628565b6001600160a01b0382166000908152602081905260409020546103a48282610675565b6001600160a01b039093166000908152602081905260409020929092555050565b6001600160a01b03821661041b5760405162461bcd60e51b815260206004820152601760248201527f4e6f742076616c696420746f6b656e206164647265737300000000000000000060448201526064016101bc565b6000811161043b5760405162461bcd60e51b81526004016101bc90610628565b6001600160a01b0382166000908152602081905260409020546103a482826106cd565b6001600160a01b0384161580159061047e57506001600160a01b03831615155b61049a5760405162461bcd60e51b81526004016101bc906105f1565b6000821180156104aa5750600081115b6104c65760405162461bcd60e51b81526004016101bc90610628565b6001600160a01b03808516600081815260016020818152604080842095891684529481528483205491815284832093835292909252919091205461050a84836106cd565b61023f84836106cd565b80356001600160a01b038116811461052b57600080fd5b919050565b6000806000806080858703121561054657600080fd5b61054f85610514565b935061055d60208601610514565b93969395505050506040820135916060013590565b6000806040838503121561058557600080fd5b61058e83610514565b915061059c60208401610514565b90509250929050565b600080604083850312156105b857600080fd5b6105c183610514565b946020939093013593505050565b6000602082840312156105e157600080fd5b6105ea82610514565b9392505050565b60208082526018908201527f4e6f74722076616c696420746f6b656e20616464726573730000000000000000604082015260600190565b60208082526019908201527f4465626f6e643a204e6f206c69717569646974792073656e7400000000000000604082015260600190565b634e487b7160e01b600052601160045260246000fd5b6000828210156106875761068761065f565b500390565b6000826106a957634e487b7160e01b600052601260045260246000fd5b500490565b60008160001904831182151516156106c8576106c861065f565b500290565b600082198211156106e0576106e061065f565b50019056fea2646970667358221220c42d8e1195b46ce362731fa4cede035612791df4b7629a9a514f1156a6f53c6064736f6c634300080d0033",
  "devdoc": {
    "kind": "dev",
    "methods": {
      "getPrices(address,address)": {
        "details": "get prices of a token pair",
        "params": {
          "_price01": "price: ratio[_token1] / ratio[_token0]",
          "_price10": "price: ratio[_token0] / ratio[_token1]",
          "_token0": "address of the first token",
          "_token1": "address of the second token"
        }
      },
      "getRatios(address,address)": {
        "details": "get ratios of a token pair",
        "params": {
          "_ratio01": "ratio of token0: The amount of tokens _token0 in the pool (token0, token1)",
          "_ratio10": "ratio of token1: The amount of tokens _token1 in the pool (token0, token1)",
          "_token0": "address of the first token",
          "_token1": "address of the second token"
        }
      },
      "getReserve(address)": {
        "details": "get revserve of a token pair",
        "params": {
          "_reserve": "the total liquidity of _token in the APM",
          "_token": "address of the first token"
        }
      },
      "updaReserveAfterAddingLiquidity(address,uint256)": {
        "details": "update revserve of tokens after adding liquidity",
        "params": {
          "_amount": "amount of the tokens to add",
          "_token": "address of the token"
        }
      },
      "updaReserveAfterRemovingLiquidity(address,uint256)": {
        "details": "update revserve of tokens after removing liquidity",
        "params": {
          "_amount": "amount of the tokens to add",
          "_token": "address of the token"
        }
      },
      "updateRatioAfterAddingLiquidity(address,address,uint256,uint256)": {
        "details": "update rations of a token pair",
        "params": {
          "_amount0": "amount of first tokens to add",
          "_amount1": "amount of second tokens to add",
          "_token0": "address of the first token",
          "_token1": "address of the second token"
        }
      },
      "updateRatioAfterRemovingLiquidity(address,address,uint256,uint256)": {
        "details": "update rations of a token pair after removing liquidity",
        "params": {
          "_amount0": "amount of first tokens to add",
          "_amount1": "amount of second tokens to add",
          "_token0": "address of the first token",
          "_token1": "address of the second token"
        }
      }
    },
    "version": 1
  },
  "userdoc": {
    "kind": "user",
    "methods": {},
    "version": 1
  },
  "storageLayout": {
    "storage": [
      {
        "astId": 1970,
        "contract": "contracts/Debond-v0/contracts/APM.sol:APM",
        "label": "reserve",
        "offset": 0,
        "slot": "0",
        "type": "t_mapping(t_address,t_uint256)"
      },
      {
        "astId": 1976,
        "contract": "contracts/Debond-v0/contracts/APM.sol:APM",
        "label": "ratio",
        "offset": 0,
        "slot": "1",
        "type": "t_mapping(t_address,t_mapping(t_address,t_uint256))"
      },
      {
        "astId": 1982,
        "contract": "contracts/Debond-v0/contracts/APM.sol:APM",
        "label": "price",
        "offset": 0,
        "slot": "2",
        "type": "t_mapping(t_address,t_mapping(t_address,t_uint256))"
      }
    ],
    "types": {
      "t_address": {
        "encoding": "inplace",
        "label": "address",
        "numberOfBytes": "20"
      },
      "t_mapping(t_address,t_mapping(t_address,t_uint256))": {
        "encoding": "mapping",
        "key": "t_address",
        "label": "mapping(address => mapping(address => uint256))",
        "numberOfBytes": "32",
        "value": "t_mapping(t_address,t_uint256)"
      },
      "t_mapping(t_address,t_uint256)": {
        "encoding": "mapping",
        "key": "t_address",
        "label": "mapping(address => uint256)",
        "numberOfBytes": "32",
        "value": "t_uint256"
      },
      "t_uint256": {
        "encoding": "inplace",
        "label": "uint256",
        "numberOfBytes": "32"
      }
    }
  }
}