{
  "address": "0xB3968bbD572D58E3dc5eD93Eb313f6502ef713C9",
  "abi": [
    {
      "inputs": [
        {
          "internalType": "address",
          "name": "apmAddress",
          "type": "address"
        },
        {
          "internalType": "address",
          "name": "dataAddress",
          "type": "address"
        },
        {
          "internalType": "address",
          "name": "bondAddress",
          "type": "address"
        }
      ],
      "stateMutability": "nonpayable",
      "type": "constructor"
    },
    {
      "inputs": [],
      "name": "BASE_TIMESTAMP",
      "outputs": [
        {
          "internalType": "uint256",
          "name": "",
          "type": "uint256"
        }
      ],
      "stateMutability": "view",
      "type": "function"
    },
    {
      "inputs": [],
      "name": "DIFF_TIME_NEW_NONCE",
      "outputs": [
        {
          "internalType": "uint256",
          "name": "",
          "type": "uint256"
        }
      ],
      "stateMutability": "view",
      "type": "function"
    },
    {
      "inputs": [],
      "name": "RATE",
      "outputs": [
        {
          "internalType": "uint256",
          "name": "",
          "type": "uint256"
        }
      ],
      "stateMutability": "view",
      "type": "function"
    },
    {
      "inputs": [
        {
          "internalType": "uint256",
          "name": "amountA",
          "type": "uint256"
        }
      ],
      "name": "amountOfDBITToMint",
      "outputs": [
        {
          "internalType": "uint256",
          "name": "amountToMint",
          "type": "uint256"
        }
      ],
      "stateMutability": "pure",
      "type": "function"
    },
    {
      "inputs": [
        {
          "internalType": "uint256",
          "name": "_purchaseTokenClassId",
          "type": "uint256"
        },
        {
          "internalType": "uint256",
          "name": "_debondTokenClassId",
          "type": "uint256"
        },
        {
          "internalType": "uint256",
          "name": "_purchaseTokenAmount",
          "type": "uint256"
        },
        {
          "internalType": "uint256",
          "name": "_debondTokenMinAmount",
          "type": "uint256"
        },
        {
          "internalType": "enum Bank.PurchaseMethod",
          "name": "purchaseMethod",
          "type": "uint8"
        }
      ],
      "name": "buyBond",
      "outputs": [],
      "stateMutability": "nonpayable",
      "type": "function"
    },
    {
      "inputs": [
        {
          "internalType": "uint256",
          "name": "classId",
          "type": "uint256"
        },
        {
          "internalType": "uint256",
          "name": "nonceId",
          "type": "uint256"
        },
        {
          "internalType": "uint256",
          "name": "amount",
          "type": "uint256"
        }
      ],
      "name": "redeemBonds",
      "outputs": [],
      "stateMutability": "nonpayable",
      "type": "function"
    }
  ],
  "transactionHash": "0x1b53e93d5cf77c4befc5fa78ef2935eba8e6e8154708d6fdafa7a4383f2a71fa",
  "args": [
    "0x39FfD23c810B36a72BdE798ca2FEa6D8a8560294",
    "0xD39d541a5221bA7d59Fe01a48B51bBFEE6174e11",
    "0x0d009A349Ca8f6776E6d22514e8293574156B401"
  ],
  "numDeployments": 9,
  "solcInputHash": "8b0276e4cc8e802b0e477cbb986f48f9",
  "bytecode": "0x608060405234801561001057600080fd5b5060405161115238038061115283398101604081905261002f9161008d565b600080546001600160a01b039485166001600160a01b0319918216179091556001805493851693821693909317909255600280549190931691161790556100d0565b80516001600160a01b038116811461008857600080fd5b919050565b6000806000606084860312156100a257600080fd5b6100ab84610071565b92506100b960208501610071565b91506100c760408501610071565b90509250925092565b611073806100df6000396000f3fe608060405234801561001057600080fd5b50600436106100625760003560e01c80633ff2f59d14610067578063664e9704146100835780637127a82f1461008b578063b7aae6b71461009c578063caa47d60146100b1578063d58d45a8146100bc575b600080fd5b6100716201518081565b60405190815260200160405180910390f35b610071600581565b610071610099366004610d33565b90565b6100af6100aa366004610d5c565b6100cf565b005b61007163621d53f081565b6100af6100ca366004610da9565b610737565b6001546040516305d42cc560e31b81526004810187905286918691869186916000916001600160a01b031690632ea1662890602401600060405180830381865afa158015610121573d6000803e3d6000fd5b505050506040513d6000823e601f3d908101601f191682016040526101499190810190610e12565b506001546040516305d42cc560e31b815260048101899052919450600093506001600160a01b03169150632ea1662890602401600060405180830381865afa158015610199573d6000803e3d6000fd5b505050506040513d6000823e601f3d908101601f191682016040526101c19190810190610e12565b506001546040516306ab3ae960e01b81526001600160a01b0387811660048301528084166024830152929550911692506306ab3ae99150604401602060405180830381865afa158015610218573d6000803e3d6000fd5b505050506040513d601f19601f8201168201806040525081019061023c9190610f0d565b6102805760405162461bcd60e51b815260206004820152601060248201526f14185a5c881b9bdd08105b1b1bddd95960821b60448201526064015b60405180910390fd5b600061028b856108e1565b6000546040516323b872dd60e01b81523360048201526001600160a01b039182166024820152604481018890529192508416906323b872dd906064016020604051808303816000875af11580156102e6573d6000803e3d6000fd5b505050506040513d601f19601f8201168201806040525081019061030a9190610f0d565b506000546040516340c10f1960e01b81526001600160a01b03918216600482015260248101839052908316906340c10f1990604401600060405180830381600087803b15801561035957600080fd5b505af115801561036d573d6000803e3d6000fd5b506001925061037a915050565b88600181111561038c5761038c610f2f565b036104b55761039c3388876108ed565b6000805460405163c9a396e960e01b81526001600160a01b0386811660048301528392169063c9a396e990602401602060405180830381865afa1580156103e7573d6000803e3d6000fd5b505050506040513d601f19601f8201168201806040525081019061040b9190610f45565b60005460405163c9a396e960e01b81526001600160a01b0387811660048301529091169063c9a396e990602401602060405180830381865afa158015610455573d6000803e3d6000fd5b505050506040513d601f19601f820116820180604052508101906104799190610f45565b91509150600061048a8884846109e0565b90506104ad338a606461049e600586610f74565b6104a89190610fa9565b6108ed565b5050506105e8565b60008860018111156104c9576104c9610f2f565b036105e8576000805460405163c9a396e960e01b81526001600160a01b0386811660048301528392169063c9a396e990602401602060405180830381865afa158015610519573d6000803e3d6000fd5b505050506040513d601f19601f8201168201806040525081019061053d9190610f45565b60005460405163c9a396e960e01b81526001600160a01b0387811660048301529091169063c9a396e990602401602060405180830381865afa158015610587573d6000803e3d6000fd5b505050506040513d601f19601f820116820180604052508101906105ab9190610f45565b9150915060006105bc8884846109e0565b90506105e4338a60646105d0600586610f74565b6105da9190610fa9565b6104a89085610fbd565b5050505b600054604051632209834360e21b81526001600160a01b03848116600483015260248201849052909116906388260d0c90604401600060405180830381600087803b15801561063657600080fd5b505af115801561064a573d6000803e3d6000fd5b5050600054604051632209834360e21b81526001600160a01b038781166004830152602482018a905290911692506388260d0c9150604401600060405180830381600087803b15801561069c57600080fd5b505af11580156106b0573d6000803e3d6000fd5b50506000546040516399483ecb60e01b81526001600160a01b038681166004830152878116602483015260448201869052606482018a905290911692506399483ecb9150608401600060405180830381600087803b15801561071157600080fd5b505af1158015610725573d6000803e3d6000fd5b50505050505050505050505050505050565b60025460405163ea2092f360e01b81523360048201526024810185905260448101849052606481018390526001600160a01b039091169063ea2092f390608401600060405180830381600087803b15801561079157600080fd5b505af11580156107a5573d6000803e3d6000fd5b50506001546040516305d42cc560e31b815260048101879052600093508392506001600160a01b0390911690632ea1662890602401600060405180830381865afa1580156107f7573d6000803e3d6000fd5b505050506040513d6000823e601f3d908101601f1916820160405261081f9190810190610e12565b5090935091506000905082600181111561083b5761083b610f2f565b036108c3576000546040516323b872dd60e01b81526001600160a01b03918216600482015233602482015260448101859052908216906323b872dd906064016020604051808303816000875af1158015610899573d6000803e3d6000fd5b505050506040513d601f19601f820116820180604052508101906108bd9190610f0d565b506108da565b60018260018111156108d7576108d7610f2f565b50505b5050505050565b600080825b9392505050565b6108f682610ac1565b600154604051638a38e41960e01b8152600481018490526000916001600160a01b031690638a38e419906024016040805180830381865afa15801561093f573d6000803e3d6000fd5b505050506040513d601f19601f820116820180604052508101906109639190610fd5565b506002546040516347401a9360e01b81526001600160a01b0387811660048301526024820187905260448201849052606482018690529293509116906347401a9390608401600060405180830381600087803b1580156109c257600080fd5b505af11580156109d6573d6000803e3d6000fd5b5050505050505050565b6000808411610a3c5760405162461bcd60e51b815260206004820152602260248201527f4465626f6e644c6962726172793a20494e53554646494349454e545f414d4f55604482015261139560f21b6064820152608401610277565b600083118015610a4c5750600082115b610aa65760405162461bcd60e51b815260206004820152602560248201527f4465626f6e644c6962726172793a20494e53554646494349454e545f4c495155604482015264494449545960d81b6064820152608401610277565b610ab9610ab38386610f74565b84610ba3565b949350505050565b600154604051638a38e41960e01b815260048101839052429160009182916001600160a01b031690638a38e419906024016040805180830381865afa158015610b0e573d6000803e3d6000fd5b505050506040513d601f19601f82011682018060405250810190610b329190610fd5565b909250905062015180610b458285610ff9565b10610b5b57610b55848385610baf565b50505050565b600062015180610b6f63621d53f086610ff9565b610b799190611010565b905062015180610b898386610ff9565b610b939083610fbd565b106108da576108da858486610baf565b60006108e68284610fa9565b6000610bba83611024565b6001546040516305d42cc560e31b8152600481018790529194508492506000916001600160a01b0390911690632ea1662890602401600060405180830381865afa158015610c0c573d6000803e3d6000fd5b505050506040513d6000823e601f3d908101601f19168201604052610c349190810190610e12565b6002549094506001600160a01b0316925063d23a95de915087905084610c5a8588610fbd565b6040516001600160e01b031960e086901b1681526004810193909352602483019190915260448201526101f46064820152608401600060405180830381600087803b158015610ca857600080fd5b505af1158015610cbc573d6000803e3d6000fd5b505060015460405163c60e219f60e01b81526004810189905260248101869052604481018790526001600160a01b03909116925063c60e219f9150606401600060405180830381600087803b158015610d1457600080fd5b505af1158015610d28573d6000803e3d6000fd5b505050505050505050565b600060208284031215610d4557600080fd5b5035919050565b60028110610d5957600080fd5b50565b600080600080600060a08688031215610d7457600080fd5b853594506020860135935060408601359250606086013591506080860135610d9b81610d4c565b809150509295509295909350565b600080600060608486031215610dbe57600080fd5b505081359360208301359350604090920135919050565b634e487b7160e01b600052604160045260246000fd5b8051610df681610d4c565b919050565b80516001600160a01b0381168114610df657600080fd5b60008060008060808587031215610e2857600080fd5b845167ffffffffffffffff80821115610e4057600080fd5b818701915087601f830112610e5457600080fd5b815181811115610e6657610e66610dd5565b604051601f8201601f19908116603f01168101908382118183101715610e8e57610e8e610dd5565b81604052828152602093508a84848701011115610eaa57600080fd5b600091505b82821015610ecc5784820184015181830185015290830190610eaf565b82821115610edd5760008484830101525b9750610eed915050878201610deb565b94505050610efd60408601610dfb565b6060959095015193969295505050565b600060208284031215610f1f57600080fd5b815180151581146108e657600080fd5b634e487b7160e01b600052602160045260246000fd5b600060208284031215610f5757600080fd5b5051919050565b634e487b7160e01b600052601160045260246000fd5b6000816000190483118215151615610f8e57610f8e610f5e565b500290565b634e487b7160e01b600052601260045260246000fd5b600082610fb857610fb8610f93565b500490565b60008219821115610fd057610fd0610f5e565b500190565b60008060408385031215610fe857600080fd5b505080516020909101519092909150565b60008282101561100b5761100b610f5e565b500390565b60008261101f5761101f610f93565b500690565b60006001820161103657611036610f5e565b506001019056fea2646970667358221220a263fcca846f93c2e017d350c4933239dbd392ae4ee975fee723265de2d53c0a64736f6c634300080d0033",
  "devdoc": {
    "kind": "dev",
    "methods": {},
    "version": 1
  },
  "userdoc": {
    "kind": "user",
    "methods": {},
    "version": 1
  },
  "storageLayout": {
    "storage": [
      {
        "astId": 2321,
        "contract": "contracts/Debond-v0/contracts/Bank.sol:Bank",
        "label": "apm",
        "offset": 0,
        "slot": "0",
        "type": "t_contract(IAPM)5178"
      },
      {
        "astId": 2324,
        "contract": "contracts/Debond-v0/contracts/Bank.sol:Bank",
        "label": "debondData",
        "offset": 0,
        "slot": "1",
        "type": "t_contract(IData)5248"
      },
      {
        "astId": 2327,
        "contract": "contracts/Debond-v0/contracts/Bank.sol:Bank",
        "label": "bond",
        "offset": 0,
        "slot": "2",
        "type": "t_contract(IDebondBond)5321"
      }
    ],
    "types": {
      "t_contract(IAPM)5178": {
        "encoding": "inplace",
        "label": "contract IAPM",
        "numberOfBytes": "20"
      },
      "t_contract(IData)5248": {
        "encoding": "inplace",
        "label": "contract IData",
        "numberOfBytes": "20"
      },
      "t_contract(IDebondBond)5321": {
        "encoding": "inplace",
        "label": "contract IDebondBond",
        "numberOfBytes": "20"
      }
    }
  }
}