{
  "address": "0x47a5D54dE11E29Ce51E4381b65f031f63b7505b3",
  "abi": [
    {
      "inputs": [
        {
          "internalType": "address",
          "name": "DBIT",
          "type": "address"
        },
        {
          "internalType": "address",
          "name": "USDC",
          "type": "address"
        },
        {
          "internalType": "address",
          "name": "USDT",
          "type": "address"
        },
        {
          "internalType": "address",
          "name": "DAI",
          "type": "address"
        }
      ],
      "stateMutability": "nonpayable",
      "type": "constructor"
    },
    {
      "inputs": [],
      "name": "SIX_M_PERIOD",
      "outputs": [
        {
          "internalType": "uint256",
          "name": "",
          "type": "uint256"
        }
      ],
      "stateMutability": "view",
      "type": "function"
    },
    {
      "inputs": [
        {
          "internalType": "uint256",
          "name": "classId",
          "type": "uint256"
        },
        {
          "internalType": "string",
          "name": "symbol",
          "type": "string"
        },
        {
          "internalType": "enum IData.InterestRateType",
          "name": "interestRateType",
          "type": "uint8"
        },
        {
          "internalType": "address",
          "name": "tokenAddress",
          "type": "address"
        },
        {
          "internalType": "uint256",
          "name": "periodTimestamp",
          "type": "uint256"
        }
      ],
      "name": "addClass",
      "outputs": [],
      "stateMutability": "nonpayable",
      "type": "function"
    },
    {
      "inputs": [],
      "name": "allDebondClasses",
      "outputs": [
        {
          "internalType": "uint256[]",
          "name": "",
          "type": "uint256[]"
        }
      ],
      "stateMutability": "view",
      "type": "function"
    },
    {
      "inputs": [
        {
          "internalType": "uint256",
          "name": "debondClassId",
          "type": "uint256"
        },
        {
          "internalType": "uint256",
          "name": "purchaseClassId",
          "type": "uint256"
        }
      ],
      "name": "canPurchase",
      "outputs": [
        {
          "internalType": "bool",
          "name": "",
          "type": "bool"
        }
      ],
      "stateMutability": "view",
      "type": "function"
    },
    {
      "inputs": [
        {
          "internalType": "uint256",
          "name": "classId",
          "type": "uint256"
        }
      ],
      "name": "getClassFromId",
      "outputs": [
        {
          "internalType": "string",
          "name": "symbol",
          "type": "string"
        },
        {
          "internalType": "enum IData.InterestRateType",
          "name": "interestRateType",
          "type": "uint8"
        },
        {
          "internalType": "address",
          "name": "tokenAddress",
          "type": "address"
        },
        {
          "internalType": "uint256",
          "name": "periodTimestamp",
          "type": "uint256"
        }
      ],
      "stateMutability": "view",
      "type": "function"
    },
    {
      "inputs": [
        {
          "internalType": "uint256",
          "name": "classId",
          "type": "uint256"
        }
      ],
      "name": "getLastNonceCreated",
      "outputs": [
        {
          "internalType": "uint256",
          "name": "nonceId",
          "type": "uint256"
        },
        {
          "internalType": "uint256",
          "name": "createdAt",
          "type": "uint256"
        }
      ],
      "stateMutability": "view",
      "type": "function"
    },
    {
      "inputs": [
        {
          "internalType": "uint256",
          "name": "debondClassId",
          "type": "uint256"
        }
      ],
      "name": "getPurchasableClasses",
      "outputs": [
        {
          "internalType": "uint256[]",
          "name": "",
          "type": "uint256[]"
        }
      ],
      "stateMutability": "view",
      "type": "function"
    },
    {
      "inputs": [
        {
          "internalType": "uint256",
          "name": "debondClassId",
          "type": "uint256"
        },
        {
          "internalType": "uint256",
          "name": "purchasableQueryClassId",
          "type": "uint256"
        }
      ],
      "name": "isPurchasableClass",
      "outputs": [
        {
          "internalType": "bool",
          "name": "",
          "type": "bool"
        }
      ],
      "stateMutability": "view",
      "type": "function"
    },
    {
      "inputs": [
        {
          "internalType": "uint256",
          "name": "",
          "type": "uint256"
        },
        {
          "internalType": "uint256",
          "name": "",
          "type": "uint256"
        }
      ],
      "name": "purchasableClasses",
      "outputs": [
        {
          "internalType": "bool",
          "name": "",
          "type": "bool"
        }
      ],
      "stateMutability": "view",
      "type": "function"
    },
    {
      "inputs": [
        {
          "internalType": "uint256",
          "name": "",
          "type": "uint256"
        },
        {
          "internalType": "uint256",
          "name": "",
          "type": "uint256"
        }
      ],
      "name": "purchasableClassesCollection",
      "outputs": [
        {
          "internalType": "uint256",
          "name": "",
          "type": "uint256"
        }
      ],
      "stateMutability": "view",
      "type": "function"
    },
    {
      "inputs": [
        {
          "internalType": "uint256",
          "name": "classId",
          "type": "uint256"
        },
        {
          "internalType": "uint256",
          "name": "nonceId",
          "type": "uint256"
        },
        {
          "internalType": "uint256",
          "name": "createdAt",
          "type": "uint256"
        }
      ],
      "name": "updateLastNonce",
      "outputs": [],
      "stateMutability": "nonpayable",
      "type": "function"
    },
    {
      "inputs": [
        {
          "internalType": "uint256",
          "name": "debondClassId",
          "type": "uint256"
        },
        {
          "internalType": "uint256",
          "name": "purchaseClassId",
          "type": "uint256"
        },
        {
          "internalType": "bool",
          "name": "purchasable",
          "type": "bool"
        }
      ],
      "name": "updatePurchasableClass",
      "outputs": [],
      "stateMutability": "nonpayable",
      "type": "function"
    }
  ],
  "transactionHash": "0x2ee761dca4f3ddd66f58c696366084ce24c6514c8447235845628666624c1f55",
  "args": [
    "0x723f5Db6225Cc9079Bc3B34CFd4F0A21f66774cA",
    "0x6421223477D6328864563EDAc2Ca99003dd1aEE4",
    "0x814AB7B629D1E1267c540206691068354F50a892",
    "0x17C08eBE61679119D8433120E2BACeC0d37627Fe"
  ],
  "numDeployments": 4,
  "solcInputHash": "59697760ba823b401b4c53fac791d6ad",
  "bytecode": "0x60806040523480156200001157600080fd5b5060405162001008380380620010088339810160408190526200003491620005d5565b62000069600060405180604001604052806005815260200164110bd0925560da1b81525060008760006200041060201b60201c565b6200009d6001604051806040016040528060048152602001635553444360e01b81525060008660006200041060201b60201c565b620000d16002604051806040016040528060048152602001631554d11560e21b81525060008560006200041060201b60201c565b6040805180820190915260038082526244414960e81b6020830152620000fb916000848162000410565b62000130600460405180604001604052806005815260200164110bd0925560da1b81525060018760006200041060201b60201c565b620001646005604051806040016040528060048152602001635553444360e01b81525060018660006200041060201b60201c565b620001986006604051806040016040528060048152602001631554d11560e21b81525060018560006200041060201b60201c565b620001cb60076040518060400160405280600381526020016244414960e81b81525060018460006200041060201b60201c565b5050600380546001808201835560007fc2575a0e9e593c00f959f8c92f12db2869c3395a3b0502d05e2516446f71f85b9283018190558354808301855560049301929092557fa6eef7e35abe7026729641147f7915573c7e97b47efa546f5f6e3230263bcb49805480830182557f0eb5be412f275a18f6e4d622aee4ff40b21467c926224771b782d4c095d1444b9081018390557f79c06e8c99a667adda63c5fa6f05695d29630fc62ad2dd069fa929d5714de89d805460ff199081168517909155825480850184556002908301557f7e955e967b2c774fdefd0a6f70cfe851a750a8f48fafda490b70fc148e628d06805482168517905582548085019093559101939093557fa2b7d6385dee48a2ead7459b79e810e06dfda3a93433eedcc81fe84786be084e80548416821790557fedc95719e9a3b28dd8e80877cb5880a9be7de1a13fc8b05e7999683b6b5676438054808301825560057f718e63dea3384bae45fc344065d50afc9f6c6012c0b0106c596c66fa9e32750c918201557fee60d0579bcffd98e668647d59fec1ff86a7fb340ce572e844f234ae73a6918f6020527f82e66d05615b448ed0904fb390c86213e41f8758b242a8e25627a7abd72a24508054861684179055815480840183556006908201557fde0689c460c6f5f1e733b11b086cf49f8afa4683a423235bc757cbc32862322780548616841790558154808401909255600791018190559091527fb593f0d385ca95c8c591dc70bea328c6cfd2ec06364742314f2fbe2e5dd23905805490921617905550620006849050565b6000858152602081905260409020600181015460ff16156200048b5760405162461bcd60e51b815260206004820152602a60248201527f4465626f6e64446174613a2063616e6e6f742061646420616e206578697374696044820152691b99c818db185cdcd25960b21b606482015260840160405180910390fd5b8581556001808201805460ff191690911790558451620004b5906002830190602088019062000512565b5060038101805485919060ff191660018381811115620004d957620004d962000632565b02179055506003810180546001600160a01b0390941661010002610100600160a81b031990941693909317909255600490910155505050565b828054620005209062000648565b90600052602060002090601f0160209004810192826200054457600085556200058f565b82601f106200055f57805160ff19168380011785556200058f565b828001600101855582156200058f579182015b828111156200058f57825182559160200191906001019062000572565b506200059d929150620005a1565b5090565b5b808211156200059d5760008155600101620005a2565b80516001600160a01b0381168114620005d057600080fd5b919050565b60008060008060808587031215620005ec57600080fd5b620005f785620005b8565b93506200060760208601620005b8565b92506200061760408601620005b8565b91506200062760608601620005b8565b905092959194509250565b634e487b7160e01b600052602160045260246000fd5b600181811c908216806200065d57607f821691505b6020821081036200067e57634e487b7160e01b600052602260045260246000fd5b50919050565b61097480620006946000396000f3fe608060405234801561001057600080fd5b50600436106100b45760003560e01c806387ee5f411161007157806387ee5f41146100f35780638a38e419146101af578063c207d86c146101d7578063c60e219f146101f8578063c7f79eb41461020b578063d190eaaf1461021357600080fd5b80630f2431b8146100b957806315de4f2f146100f35780631b1c01e9146101365780632ea166281461014b57806343a560cb1461016e5780635cbf717914610181575b600080fd5b6100f16100c7366004610602565b60009283526002602090815260408085209385529290529120805460ff1916911515919091179055565b005b610121610101366004610640565b600091825260026020908152604080842092845291905290205460ff1690565b60405190151581526020015b60405180910390f35b61013e610226565b60405161012d9190610662565b61015e6101593660046106a6565b61027e565b60405161012d94939291906106f7565b6100f161017c3660046107af565b61034d565b61012161018f366004610640565b600260209081526000928352604080842090915290825290205460ff1681565b6101c26101bd3660046106a6565b61044a565b6040805192835260208301919091520161012d565b6101ea6101e5366004610640565b610493565b60405190815260200161012d565b6100f1610206366004610893565b6104c4565b6101ea600081565b61013e6102213660046106a6565b610507565b6060600380548060200260200160405190810160405280929190818152602001828054801561027457602002820191906000526020600020905b815481526020019060010190808311610260575b5050505050905090565b600081815260208190526040812060028101805460609392839283926102a3906108bf565b80601f01602080910402602001604051908101604052809291908181526020018280546102cf906108bf565b801561031c5780601f106102f15761010080835404028352916020019161031c565b820191906000526020600020905b8154815290600101906020018083116102ff57829003601f168201915b505050506004830154600390930154919860ff831698506101009092046001600160a01b0316965091945092505050565b6000858152602081905260409020600181015460ff16156103c85760405162461bcd60e51b815260206004820152602a60248201527f4465626f6e64446174613a2063616e6e6f742061646420616e206578697374696044820152691b99c818db185cdcd25960b21b60648201526084015b60405180910390fd5b8581556001808201805460ff1916909117905584516103f09060028301906020880190610569565b5060038101805485919060ff191660018381811115610411576104116106bf565b02179055506003810180546001600160a01b0390941661010002610100600160a81b031990941693909317909255600490910155505050565b6000818152602081905260408120600181015482919060ff1661047f5760405162461bcd60e51b81526004016103bf906108f9565b806005015492508060060154915050915091565b600160205281600052604060002081815481106104af57600080fd5b90600052602060002001600091509150505481565b6000838152602081905260409020600181015460ff166104f65760405162461bcd60e51b81526004016103bf906108f9565b600581019290925560069091015550565b60008181526001602090815260409182902080548351818402810184019094528084526060939283018282801561055d57602002820191906000526020600020905b815481526020019060010190808311610549575b50505050509050919050565b828054610575906108bf565b90600052602060002090601f01602090048101928261059757600085556105dd565b82601f106105b057805160ff19168380011785556105dd565b828001600101855582156105dd579182015b828111156105dd5782518255916020019190600101906105c2565b506105e99291506105ed565b5090565b5b808211156105e957600081556001016105ee565b60008060006060848603121561061757600080fd5b83359250602084013591506040840135801515811461063557600080fd5b809150509250925092565b6000806040838503121561065357600080fd5b50508035926020909101359150565b6020808252825182820181905260009190848201906040850190845b8181101561069a5783518352928401929184019160010161067e565b50909695505050505050565b6000602082840312156106b857600080fd5b5035919050565b634e487b7160e01b600052602160045260246000fd5b600281106106f357634e487b7160e01b600052602160045260246000fd5b9052565b608081526000855180608084015260005b8181101561072557602081890181015160a0868401015201610708565b8181111561073757600060a083860101525b50601f01601f1916820160a001905061075360208301866106d5565b6001600160a01b039390931660408201526060015292915050565b634e487b7160e01b600052604160045260246000fd5b80356002811061079357600080fd5b919050565b80356001600160a01b038116811461079357600080fd5b600080600080600060a086880312156107c757600080fd5b85359450602086013567ffffffffffffffff808211156107e657600080fd5b818801915088601f8301126107fa57600080fd5b81358181111561080c5761080c61076e565b604051601f8201601f19908116603f011681019083821181831017156108345761083461076e565b816040528281528b602084870101111561084d57600080fd5b82602086016020830137600060208483010152809850505050505061087460408701610784565b925061088260608701610798565b949793965091946080013592915050565b6000806000606084860312156108a857600080fd5b505081359360208301359350604090920135919050565b600181811c908216806108d357607f821691505b6020821081036108f357634e487b7160e01b600052602260045260246000fd5b50919050565b60208082526025908201527f4465626f6e6420446174613a20636c61737320696420676976656e206e6f7420604082015264199bdd5b9960da1b60608201526080019056fea2646970667358221220e070b62c76a88add9f468c16d6f2bbca710b5fc49a3b926b448d97c59cf77b7e64736f6c634300080d0033",
  "devdoc": {
    "kind": "dev",
    "methods": {},
    "version": 1
  },
  "userdoc": {
    "kind": "user",
    "methods": {
      "addClass(uint256,string,uint8,address,uint256)": {
        "notice": "this method should only be called by the governance contract TODO Only Governance"
      }
    },
    "version": 1
  },
  "storageLayout": {
    "storage": [
      {
        "astId": 6997,
        "contract": "contracts/Debond-v0/contracts/DebondData.sol:DebondData",
        "label": "classes",
        "offset": 0,
        "slot": "0",
        "type": "t_mapping(t_uint256,t_struct(Class)6992_storage)"
      },
      {
        "astId": 7002,
        "contract": "contracts/Debond-v0/contracts/DebondData.sol:DebondData",
        "label": "purchasableClassesCollection",
        "offset": 0,
        "slot": "1",
        "type": "t_mapping(t_uint256,t_array(t_uint256)dyn_storage)"
      },
      {
        "astId": 7008,
        "contract": "contracts/Debond-v0/contracts/DebondData.sol:DebondData",
        "label": "purchasableClasses",
        "offset": 0,
        "slot": "2",
        "type": "t_mapping(t_uint256,t_mapping(t_uint256,t_bool))"
      },
      {
        "astId": 7011,
        "contract": "contracts/Debond-v0/contracts/DebondData.sol:DebondData",
        "label": "debondClasses",
        "offset": 0,
        "slot": "3",
        "type": "t_array(t_uint256)dyn_storage"
      }
    ],
    "types": {
      "t_address": {
        "encoding": "inplace",
        "label": "address",
        "numberOfBytes": "20"
      },
      "t_array(t_uint256)dyn_storage": {
        "base": "t_uint256",
        "encoding": "dynamic_array",
        "label": "uint256[]",
        "numberOfBytes": "32"
      },
      "t_bool": {
        "encoding": "inplace",
        "label": "bool",
        "numberOfBytes": "1"
      },
      "t_enum(InterestRateType)10000": {
        "encoding": "inplace",
        "label": "enum IData.InterestRateType",
        "numberOfBytes": "1"
      },
      "t_mapping(t_uint256,t_array(t_uint256)dyn_storage)": {
        "encoding": "mapping",
        "key": "t_uint256",
        "label": "mapping(uint256 => uint256[])",
        "numberOfBytes": "32",
        "value": "t_array(t_uint256)dyn_storage"
      },
      "t_mapping(t_uint256,t_bool)": {
        "encoding": "mapping",
        "key": "t_uint256",
        "label": "mapping(uint256 => bool)",
        "numberOfBytes": "32",
        "value": "t_bool"
      },
      "t_mapping(t_uint256,t_mapping(t_uint256,t_bool))": {
        "encoding": "mapping",
        "key": "t_uint256",
        "label": "mapping(uint256 => mapping(uint256 => bool))",
        "numberOfBytes": "32",
        "value": "t_mapping(t_uint256,t_bool)"
      },
      "t_mapping(t_uint256,t_struct(Class)6992_storage)": {
        "encoding": "mapping",
        "key": "t_uint256",
        "label": "mapping(uint256 => struct DebondData.Class)",
        "numberOfBytes": "32",
        "value": "t_struct(Class)6992_storage"
      },
      "t_string_storage": {
        "encoding": "bytes",
        "label": "string",
        "numberOfBytes": "32"
      },
      "t_struct(Class)6992_storage": {
        "encoding": "inplace",
        "label": "struct DebondData.Class",
        "members": [
          {
            "astId": 6976,
            "contract": "contracts/Debond-v0/contracts/DebondData.sol:DebondData",
            "label": "id",
            "offset": 0,
            "slot": "0",
            "type": "t_uint256"
          },
          {
            "astId": 6978,
            "contract": "contracts/Debond-v0/contracts/DebondData.sol:DebondData",
            "label": "exists",
            "offset": 0,
            "slot": "1",
            "type": "t_bool"
          },
          {
            "astId": 6980,
            "contract": "contracts/Debond-v0/contracts/DebondData.sol:DebondData",
            "label": "symbol",
            "offset": 0,
            "slot": "2",
            "type": "t_string_storage"
          },
          {
            "astId": 6983,
            "contract": "contracts/Debond-v0/contracts/DebondData.sol:DebondData",
            "label": "interestRateType",
            "offset": 0,
            "slot": "3",
            "type": "t_enum(InterestRateType)10000"
          },
          {
            "astId": 6985,
            "contract": "contracts/Debond-v0/contracts/DebondData.sol:DebondData",
            "label": "tokenAddress",
            "offset": 1,
            "slot": "3",
            "type": "t_address"
          },
          {
            "astId": 6987,
            "contract": "contracts/Debond-v0/contracts/DebondData.sol:DebondData",
            "label": "periodTimestamp",
            "offset": 0,
            "slot": "4",
            "type": "t_uint256"
          },
          {
            "astId": 6989,
            "contract": "contracts/Debond-v0/contracts/DebondData.sol:DebondData",
            "label": "lastNonceIdCreated",
            "offset": 0,
            "slot": "5",
            "type": "t_uint256"
          },
          {
            "astId": 6991,
            "contract": "contracts/Debond-v0/contracts/DebondData.sol:DebondData",
            "label": "lastNonceIdCreatedTimestamp",
            "offset": 0,
            "slot": "6",
            "type": "t_uint256"
          }
        ],
        "numberOfBytes": "224"
      },
      "t_uint256": {
        "encoding": "inplace",
        "label": "uint256",
        "numberOfBytes": "32"
      }
    }
  }
}