{
  "address": "0xD39d541a5221bA7d59Fe01a48B51bBFEE6174e11",
  "abi": [
    {
      "inputs": [
        {
          "internalType": "address",
          "name": "DBIT",
          "type": "address"
        },
        {
          "internalType": "address",
          "name": "USDC",
          "type": "address"
        },
        {
          "internalType": "address",
          "name": "USDT",
          "type": "address"
        },
        {
          "internalType": "address",
          "name": "DAI",
          "type": "address"
        }
      ],
      "stateMutability": "nonpayable",
      "type": "constructor"
    },
    {
      "inputs": [],
      "name": "ONE_HOUR_PERIOD",
      "outputs": [
        {
          "internalType": "uint256",
          "name": "",
          "type": "uint256"
        }
      ],
      "stateMutability": "view",
      "type": "function"
    },
    {
      "inputs": [],
      "name": "SIX_M_PERIOD",
      "outputs": [
        {
          "internalType": "uint256",
          "name": "",
          "type": "uint256"
        }
      ],
      "stateMutability": "view",
      "type": "function"
    },
    {
      "inputs": [],
      "name": "TEST_PERIOD",
      "outputs": [
        {
          "internalType": "uint256",
          "name": "",
          "type": "uint256"
        }
      ],
      "stateMutability": "view",
      "type": "function"
    },
    {
      "inputs": [],
      "name": "TWO_DAYS_PERIOD",
      "outputs": [
        {
          "internalType": "uint256",
          "name": "",
          "type": "uint256"
        }
      ],
      "stateMutability": "view",
      "type": "function"
    },
    {
      "inputs": [],
      "name": "TWO_MIN_PERIOD",
      "outputs": [
        {
          "internalType": "uint256",
          "name": "",
          "type": "uint256"
        }
      ],
      "stateMutability": "view",
      "type": "function"
    },
    {
      "inputs": [
        {
          "internalType": "uint256",
          "name": "classId",
          "type": "uint256"
        },
        {
          "internalType": "string",
          "name": "symbol",
          "type": "string"
        },
        {
          "internalType": "enum IData.InterestRateType",
          "name": "interestRateType",
          "type": "uint8"
        },
        {
          "internalType": "address",
          "name": "tokenAddress",
          "type": "address"
        },
        {
          "internalType": "uint256",
          "name": "periodTimestamp",
          "type": "uint256"
        }
      ],
      "name": "addClass",
      "outputs": [],
      "stateMutability": "nonpayable",
      "type": "function"
    },
    {
      "inputs": [
        {
          "internalType": "uint256",
          "name": "",
          "type": "uint256"
        }
      ],
      "name": "classes",
      "outputs": [
        {
          "internalType": "uint256",
          "name": "id",
          "type": "uint256"
        },
        {
          "internalType": "bool",
          "name": "exists",
          "type": "bool"
        },
        {
          "internalType": "string",
          "name": "symbol",
          "type": "string"
        },
        {
          "internalType": "enum IData.InterestRateType",
          "name": "interestRateType",
          "type": "uint8"
        },
        {
          "internalType": "address",
          "name": "tokenAddress",
          "type": "address"
        },
        {
          "internalType": "uint256",
          "name": "periodTimestamp",
          "type": "uint256"
        },
        {
          "internalType": "uint256",
          "name": "lastNonceIdCreated",
          "type": "uint256"
        },
        {
          "internalType": "uint256",
          "name": "lastNonceIdCreatedTimestamp",
          "type": "uint256"
        }
      ],
      "stateMutability": "view",
      "type": "function"
    },
    {
      "inputs": [
        {
          "internalType": "uint256",
          "name": "",
          "type": "uint256"
        }
      ],
      "name": "classesIds",
      "outputs": [
        {
          "internalType": "uint256",
          "name": "",
          "type": "uint256"
        }
      ],
      "stateMutability": "view",
      "type": "function"
    },
    {
      "inputs": [
        {
          "internalType": "uint256",
          "name": "",
          "type": "uint256"
        }
      ],
      "name": "debondClasses",
      "outputs": [
        {
          "internalType": "uint256",
          "name": "",
          "type": "uint256"
        }
      ],
      "stateMutability": "view",
      "type": "function"
    },
    {
      "inputs": [],
      "name": "getAllClassesIds",
      "outputs": [
        {
          "internalType": "uint256[]",
          "name": "",
          "type": "uint256[]"
        }
      ],
      "stateMutability": "view",
      "type": "function"
    },
    {
      "inputs": [
        {
          "internalType": "uint256",
          "name": "classId",
          "type": "uint256"
        }
      ],
      "name": "getClassFromId",
      "outputs": [
        {
          "internalType": "string",
          "name": "symbol",
          "type": "string"
        },
        {
          "internalType": "enum IData.InterestRateType",
          "name": "interestRateType",
          "type": "uint8"
        },
        {
          "internalType": "address",
          "name": "tokenAddress",
          "type": "address"
        },
        {
          "internalType": "uint256",
          "name": "periodTimestamp",
          "type": "uint256"
        }
      ],
      "stateMutability": "view",
      "type": "function"
    },
    {
      "inputs": [],
      "name": "getDebondClasses",
      "outputs": [
        {
          "internalType": "uint256[]",
          "name": "",
          "type": "uint256[]"
        }
      ],
      "stateMutability": "view",
      "type": "function"
    },
    {
      "inputs": [
        {
          "internalType": "uint256",
          "name": "classId",
          "type": "uint256"
        }
      ],
      "name": "getLastNonceCreated",
      "outputs": [
        {
          "internalType": "uint256",
          "name": "nonceId",
          "type": "uint256"
        },
        {
          "internalType": "uint256",
          "name": "createdAt",
          "type": "uint256"
        }
      ],
      "stateMutability": "view",
      "type": "function"
    },
    {
      "inputs": [
        {
          "internalType": "uint256",
          "name": "debondClass",
          "type": "uint256"
        }
      ],
      "name": "getPurchasableClasses",
      "outputs": [
        {
          "internalType": "uint256[]",
          "name": "",
          "type": "uint256[]"
        }
      ],
      "stateMutability": "view",
      "type": "function"
    },
    {
      "inputs": [
        {
          "internalType": "address",
          "name": "_tokenA",
          "type": "address"
        },
        {
          "internalType": "address",
          "name": "_tokenB",
          "type": "address"
        }
      ],
      "name": "isPairAllowed",
      "outputs": [
        {
          "internalType": "bool",
          "name": "",
          "type": "bool"
        }
      ],
      "stateMutability": "view",
      "type": "function"
    },
    {
      "inputs": [
        {
          "internalType": "uint256",
          "name": "",
          "type": "uint256"
        },
        {
          "internalType": "uint256",
          "name": "",
          "type": "uint256"
        }
      ],
      "name": "purchasableClasses",
      "outputs": [
        {
          "internalType": "uint256",
          "name": "",
          "type": "uint256"
        }
      ],
      "stateMutability": "view",
      "type": "function"
    },
    {
      "inputs": [
        {
          "internalType": "address",
          "name": "",
          "type": "address"
        },
        {
          "internalType": "address",
          "name": "",
          "type": "address"
        }
      ],
      "name": "tokenAllowed",
      "outputs": [
        {
          "internalType": "bool",
          "name": "",
          "type": "bool"
        }
      ],
      "stateMutability": "view",
      "type": "function"
    },
    {
      "inputs": [
        {
          "internalType": "uint256",
          "name": "classId",
          "type": "uint256"
        },
        {
          "internalType": "uint256",
          "name": "nonceId",
          "type": "uint256"
        },
        {
          "internalType": "uint256",
          "name": "createdAt",
          "type": "uint256"
        }
      ],
      "name": "updateLastNonce",
      "outputs": [],
      "stateMutability": "nonpayable",
      "type": "function"
    },
    {
      "inputs": [
        {
          "internalType": "address",
          "name": "tokenA",
          "type": "address"
        },
        {
          "internalType": "address",
          "name": "tokenB",
          "type": "address"
        },
        {
          "internalType": "bool",
          "name": "allowed",
          "type": "bool"
        }
      ],
      "name": "updateTokenAllowed",
      "outputs": [],
      "stateMutability": "nonpayable",
      "type": "function"
    }
  ],
  "transactionHash": "0xfdb7fee4b2114327d2de20a9724c61ee70dc39a994d069061193a1462de1d52b",
  "args": [
    "0xcD498a6CBce692F17D99aD9bA491668C7FfA7789",
    "0xDeE8a79eBD656E01F4e72A73DCf4F7674f38EC25",
    "0xDDAcc3c58920C6C6B52C4bDa0180e69B2c84011b",
    "0x7bD5e05dE774553494a0BAEeFfd04855653F07F1"
  ],
  "numDeployments": 7,
  "solcInputHash": "8b0276e4cc8e802b0e477cbb986f48f9",
  "bytecode": "0x60806040523480156200001157600080fd5b506040516200157f3803806200157f8339810160408190526200003491620006df565b62000069600060405180604001604052806005815260200164110bd0925560da1b8152506000876000620003ec60201b60201c565b6200009d6001604051806040016040528060048152602001635553444360e01b8152506000866000620003ec60201b60201c565b620000d16002604051806040016040528060048152602001631554d11560e21b8152506000856000620003ec60201b60201c565b6040805180820190915260038082526244414960e81b6020830152620000fb9160008481620003ec565b62000130600460405180604001604052806005815260200164110bd091d560da1b8152506000876000620003ec60201b60201c565b620001666005604051806040016040528060048152602001635553444360e01b8152506000866202a300620003ec60201b60201c565b6200019c6006604051806040016040528060048152602001631554d11560e21b8152506000856202a300620003ec60201b60201c565b620001d3600760405180604001604052806005815260200164110bd0925560da1b8152506000876202a300620003ec60201b60201c565b600260208181527fac33ff75c19e70fe83507db0d683fd3465c996598dc972688b7ace676c89077b8054600181810183557f7d2944a272ac5bae96b5bd2f67b6c13276d541dc09eb1cf414d96b19a09e1c2f918201819055825480820184558201949094558154808501909255600391018190557facd8ef244210bb6898e73c48bf820ed8ecc857a3bab8d79c10e4fa92b1e9ca658054808501825560057f7613dffd80ba7541d4ea05a3202a3f515d93c4b983db32843fbe26e885c3d90091820155815480860190925560069101558054808401825560008281527fc2575a0e9e593c00f959f8c92f12db2869c3395a3b0502d05e2516446f71f85b918201819055825480860184556004908301558254948501909255600793019290925581906200030d90879087906200082d62000522821b17901c565b6001600160a01b038083166000908152600160208181526040808420948616845293815292909120805460ff1916909117905591935091506200035d90879086906200082d62000522821b17901c565b6001600160a01b038083166000908152600160208181526040808420948616845293815292909120805460ff191690911790559193509150620003ad90879085906200082d62000522821b17901c565b6001600160a01b0391821660009081526001602081815260408084209590941683529390935220805460ff19169091179055506200078e945050505050565b6000858152602081905260409020600181015460ff1615620004685760405162461bcd60e51b815260206004820152602a60248201527f4465626f6e64446174613a2063616e6e6f742061646420616e206578697374696044820152691b99c818db185cdcd25960b21b60648201526084015b60405180910390fd5b8581556001808201805460ff1916909117905584516200049290600283019060208801906200061c565b5060038101805485919060ff191660018381811115620004b657620004b66200073c565b02179055506003810180546001600160a01b0390941661010002610100600160a81b03199094169390931790925560049182015580546001810182556000919091527f8a35acfbc15ff81a39ae7d344fd709f28e8600b4aa8c65c6b64bfe7fe36bd19b01929092555050565b600080826001600160a01b0316846001600160a01b031603620005935760405162461bcd60e51b815260206004820152602260248201527f4465626f6e644c6962726172793a204944454e544943414c5f41444452455353604482015261455360f01b60648201526084016200045f565b826001600160a01b0316846001600160a01b031610620005b5578284620005b8565b83835b90925090506001600160a01b038216620006155760405162461bcd60e51b815260206004820152601b60248201527f4465626f6e644c6962726172793a205a45524f5f41444452455353000000000060448201526064016200045f565b9250929050565b8280546200062a9062000752565b90600052602060002090601f0160209004810192826200064e576000855562000699565b82601f106200066957805160ff191683800117855562000699565b8280016001018555821562000699579182015b82811115620006995782518255916020019190600101906200067c565b50620006a7929150620006ab565b5090565b5b80821115620006a75760008155600101620006ac565b80516001600160a01b0381168114620006da57600080fd5b919050565b60008060008060808587031215620006f657600080fd5b6200070185620006c2565b93506200071160208601620006c2565b92506200072160408601620006c2565b91506200073160608601620006c2565b905092959194509250565b634e487b7160e01b600052602160045260246000fd5b600181811c908216806200076757607f821691505b6020821081036200078857634e487b7160e01b600052602260045260246000fd5b50919050565b610de1806200079e6000396000f3fe608060405234801561001057600080fd5b50600436106101215760003560e01c8063817dbe9f116100ad578063c766df1311610071578063c766df13146102cf578063c7f79eb4146101fa578063d190eaaf146102e4578063ef8448c4146102f7578063eff3e733146102ff57600080fd5b8063817dbe9f146102025780638a38e41914610229578063941ed4e414610251578063c012c6e61461025a578063c60e219f146102bc57600080fd5b80632ea16628116100f45780632ea166281461019c57806331d87e68146101bf57806343a560cb146101d25780635cbf7179146101e7578063608643f5146101fa57600080fd5b806306ab3ae91461012657806310fd132b1461014e578063150358dc1461016657806323acd77f1461016e575b600080fd5b6101396101343660046109d6565b610312565b60405190151581526020015b60405180910390f35b6101586202a30081565b604051908152602001610145565b610158607881565b61013961017c3660046109d6565b600160209081526000928352604080842090915290825290205460ff1681565b6101af6101aa366004610a09565b610355565b6040516101459493929190610aa7565b6101586101cd366004610a09565b610424565b6101e56101e0366004610b09565b610445565b005b6101586101f5366004610bed565b610575565b610158600081565b610215610210366004610a09565b6105a6565b604051610145989796959493929190610c0f565b61023c610237366004610a09565b610681565b60408051928352602083019190915201610145565b610158610e1081565b6101e5610268366004610c70565b6001600160a01b039283166000818152600160208181526040808420969097168352948552858220805460ff1990811695151595861790915590855285822092825291909352929091208054909216179055565b6101e56102ca366004610cbc565b6106ca565b6102d761070d565b6040516101459190610ce8565b6102d76102f2366004610a09565b610765565b6102d76107c7565b61015861030d366004610a09565b61081d565b6000806000610321858561082d565b6001600160a01b03918216600090815260016020908152604080832093909416825291909152205460ff1695945050505050565b6000818152602081905260408120600281018054606093928392839261037a90610d2c565b80601f01602080910402602001604051908101604052809291908181526020018280546103a690610d2c565b80156103f35780601f106103c8576101008083540402835291602001916103f3565b820191906000526020600020905b8154815290600101906020018083116103d657829003601f168201915b505050506004830154600390930154919860ff831698506101009092046001600160a01b0316965091945092505050565b6003818154811061043457600080fd5b600091825260209091200154905081565b6000858152602081905260409020600181015460ff16156104c05760405162461bcd60e51b815260206004820152602a60248201527f4465626f6e64446174613a2063616e6e6f742061646420616e206578697374696044820152691b99c818db185cdcd25960b21b60648201526084015b60405180910390fd5b8581556001808201805460ff1916909117905584516104e89060028301906020880190610921565b5060038101805485919060ff19166001838181111561050957610509610a6f565b02179055506003810180546001600160a01b0390941661010002610100600160a81b03199094169390931790925560049182015580546001810182556000919091527f8a35acfbc15ff81a39ae7d344fd709f28e8600b4aa8c65c6b64bfe7fe36bd19b01929092555050565b6002602052816000526040600020818154811061059157600080fd5b90600052602060002001600091509150505481565b600060208190529081526040902080546001820154600283018054929360ff909216926105d290610d2c565b80601f01602080910402602001604051908101604052809291908181526020018280546105fe90610d2c565b801561064b5780601f106106205761010080835404028352916020019161064b565b820191906000526020600020905b81548152906001019060200180831161062e57829003601f168201915b50505050600383015460048401546005850154600690950154939460ff8316946101009093046001600160a01b03169350909188565b6000818152602081905260408120600181015482919060ff166106b65760405162461bcd60e51b81526004016104b790610d66565b806005015492508060060154915050915091565b6000838152602081905260409020600181015460ff166106fc5760405162461bcd60e51b81526004016104b790610d66565b600581019290925560069091015550565b6060600380548060200260200160405190810160405280929190818152602001828054801561075b57602002820191906000526020600020905b815481526020019060010190808311610747575b5050505050905090565b6000818152600260209081526040918290208054835181840281018401909452808452606093928301828280156107bb57602002820191906000526020600020905b8154815260200190600101908083116107a7575b50505050509050919050565b6060600480548060200260200160405190810160405280929190818152602001828054801561075b5760200282019190600052602060002090815481526020019060010190808311610747575050505050905090565b6004818154811061043457600080fd5b600080826001600160a01b0316846001600160a01b03160361089c5760405162461bcd60e51b815260206004820152602260248201527f4465626f6e644c6962726172793a204944454e544943414c5f41444452455353604482015261455360f01b60648201526084016104b7565b826001600160a01b0316846001600160a01b0316106108bc5782846108bf565b83835b90925090506001600160a01b03821661091a5760405162461bcd60e51b815260206004820152601b60248201527f4465626f6e644c6962726172793a205a45524f5f41444452455353000000000060448201526064016104b7565b9250929050565b82805461092d90610d2c565b90600052602060002090601f01602090048101928261094f5760008555610995565b82601f1061096857805160ff1916838001178555610995565b82800160010185558215610995579182015b8281111561099557825182559160200191906001019061097a565b506109a19291506109a5565b5090565b5b808211156109a157600081556001016109a6565b80356001600160a01b03811681146109d157600080fd5b919050565b600080604083850312156109e957600080fd5b6109f2836109ba565b9150610a00602084016109ba565b90509250929050565b600060208284031215610a1b57600080fd5b5035919050565b6000815180845260005b81811015610a4857602081850181015186830182015201610a2c565b81811115610a5a576000602083870101525b50601f01601f19169290920160200192915050565b634e487b7160e01b600052602160045260246000fd5b60028110610aa357634e487b7160e01b600052602160045260246000fd5b9052565b608081526000610aba6080830187610a22565b9050610ac96020830186610a85565b6001600160a01b039390931660408201526060015292915050565b634e487b7160e01b600052604160045260246000fd5b8035600281106109d157600080fd5b600080600080600060a08688031215610b2157600080fd5b85359450602086013567ffffffffffffffff80821115610b4057600080fd5b818801915088601f830112610b5457600080fd5b813581811115610b6657610b66610ae4565b604051601f8201601f19908116603f01168101908382118183101715610b8e57610b8e610ae4565b816040528281528b6020848701011115610ba757600080fd5b826020860160208301376000602084830101528098505050505050610bce60408701610afa565b9250610bdc606087016109ba565b949793965091946080013592915050565b60008060408385031215610c0057600080fd5b50508035926020909101359150565b60006101008a83528915156020840152806040840152610c318184018a610a22565b915050610c416060830188610a85565b6001600160a01b0395909516608082015260a081019390935260c083019190915260e090910152949350505050565b600080600060608486031215610c8557600080fd5b610c8e846109ba565b9250610c9c602085016109ba565b915060408401358015158114610cb157600080fd5b809150509250925092565b600080600060608486031215610cd157600080fd5b505081359360208301359350604090920135919050565b6020808252825182820181905260009190848201906040850190845b81811015610d2057835183529284019291840191600101610d04565b50909695505050505050565b600181811c90821680610d4057607f821691505b602082108103610d6057634e487b7160e01b600052602260045260246000fd5b50919050565b60208082526025908201527f4465626f6e6420446174613a20636c61737320696420676976656e206e6f7420604082015264199bdd5b9960da1b60608201526080019056fea2646970667358221220ede9b0d8db317fdbe8e2c3f0ce5e530f4ea1e00757d4bc2961620d5a0d061da564736f6c634300080d0033",
  "devdoc": {
    "kind": "dev",
    "methods": {},
    "version": 1
  },
  "userdoc": {
    "kind": "user",
    "methods": {
      "addClass(uint256,string,uint8,address,uint256)": {
        "notice": "this method should only be called by the governance contract TODO Only Governance"
      }
    },
    "version": 1
  },
  "storageLayout": {
    "storage": [
      {
        "astId": 4581,
        "contract": "contracts/Debond-v0/contracts/DebondData.sol:DebondData",
        "label": "classes",
        "offset": 0,
        "slot": "0",
        "type": "t_mapping(t_uint256,t_struct(Class)4576_storage)"
      },
      {
        "astId": 4587,
        "contract": "contracts/Debond-v0/contracts/DebondData.sol:DebondData",
        "label": "tokenAllowed",
        "offset": 0,
        "slot": "1",
        "type": "t_mapping(t_address,t_mapping(t_address,t_bool))"
      },
      {
        "astId": 4592,
        "contract": "contracts/Debond-v0/contracts/DebondData.sol:DebondData",
        "label": "purchasableClasses",
        "offset": 0,
        "slot": "2",
        "type": "t_mapping(t_uint256,t_array(t_uint256)dyn_storage)"
      },
      {
        "astId": 4595,
        "contract": "contracts/Debond-v0/contracts/DebondData.sol:DebondData",
        "label": "debondClasses",
        "offset": 0,
        "slot": "3",
        "type": "t_array(t_uint256)dyn_storage"
      },
      {
        "astId": 4598,
        "contract": "contracts/Debond-v0/contracts/DebondData.sol:DebondData",
        "label": "classesIds",
        "offset": 0,
        "slot": "4",
        "type": "t_array(t_uint256)dyn_storage"
      }
    ],
    "types": {
      "t_address": {
        "encoding": "inplace",
        "label": "address",
        "numberOfBytes": "20"
      },
      "t_array(t_uint256)dyn_storage": {
        "base": "t_uint256",
        "encoding": "dynamic_array",
        "label": "uint256[]",
        "numberOfBytes": "32"
      },
      "t_bool": {
        "encoding": "inplace",
        "label": "bool",
        "numberOfBytes": "1"
      },
      "t_enum(InterestRateType)5183": {
        "encoding": "inplace",
        "label": "enum IData.InterestRateType",
        "numberOfBytes": "1"
      },
      "t_mapping(t_address,t_bool)": {
        "encoding": "mapping",
        "key": "t_address",
        "label": "mapping(address => bool)",
        "numberOfBytes": "32",
        "value": "t_bool"
      },
      "t_mapping(t_address,t_mapping(t_address,t_bool))": {
        "encoding": "mapping",
        "key": "t_address",
        "label": "mapping(address => mapping(address => bool))",
        "numberOfBytes": "32",
        "value": "t_mapping(t_address,t_bool)"
      },
      "t_mapping(t_uint256,t_array(t_uint256)dyn_storage)": {
        "encoding": "mapping",
        "key": "t_uint256",
        "label": "mapping(uint256 => uint256[])",
        "numberOfBytes": "32",
        "value": "t_array(t_uint256)dyn_storage"
      },
      "t_mapping(t_uint256,t_struct(Class)4576_storage)": {
        "encoding": "mapping",
        "key": "t_uint256",
        "label": "mapping(uint256 => struct DebondData.Class)",
        "numberOfBytes": "32",
        "value": "t_struct(Class)4576_storage"
      },
      "t_string_storage": {
        "encoding": "bytes",
        "label": "string",
        "numberOfBytes": "32"
      },
      "t_struct(Class)4576_storage": {
        "encoding": "inplace",
        "label": "struct DebondData.Class",
        "members": [
          {
            "astId": 4560,
            "contract": "contracts/Debond-v0/contracts/DebondData.sol:DebondData",
            "label": "id",
            "offset": 0,
            "slot": "0",
            "type": "t_uint256"
          },
          {
            "astId": 4562,
            "contract": "contracts/Debond-v0/contracts/DebondData.sol:DebondData",
            "label": "exists",
            "offset": 0,
            "slot": "1",
            "type": "t_bool"
          },
          {
            "astId": 4564,
            "contract": "contracts/Debond-v0/contracts/DebondData.sol:DebondData",
            "label": "symbol",
            "offset": 0,
            "slot": "2",
            "type": "t_string_storage"
          },
          {
            "astId": 4567,
            "contract": "contracts/Debond-v0/contracts/DebondData.sol:DebondData",
            "label": "interestRateType",
            "offset": 0,
            "slot": "3",
            "type": "t_enum(InterestRateType)5183"
          },
          {
            "astId": 4569,
            "contract": "contracts/Debond-v0/contracts/DebondData.sol:DebondData",
            "label": "tokenAddress",
            "offset": 1,
            "slot": "3",
            "type": "t_address"
          },
          {
            "astId": 4571,
            "contract": "contracts/Debond-v0/contracts/DebondData.sol:DebondData",
            "label": "periodTimestamp",
            "offset": 0,
            "slot": "4",
            "type": "t_uint256"
          },
          {
            "astId": 4573,
            "contract": "contracts/Debond-v0/contracts/DebondData.sol:DebondData",
            "label": "lastNonceIdCreated",
            "offset": 0,
            "slot": "5",
            "type": "t_uint256"
          },
          {
            "astId": 4575,
            "contract": "contracts/Debond-v0/contracts/DebondData.sol:DebondData",
            "label": "lastNonceIdCreatedTimestamp",
            "offset": 0,
            "slot": "6",
            "type": "t_uint256"
          }
        ],
        "numberOfBytes": "224"
      },
      "t_uint256": {
        "encoding": "inplace",
        "label": "uint256",
        "numberOfBytes": "32"
      }
    }
  }
}