{
  "address": "0x71b1f93689f71b7a5f1bB19D4be8D15B1431b913",
  "abi": [
    {
      "inputs": [
        {
          "internalType": "address",
          "name": "DBIT",
          "type": "address"
        },
        {
          "internalType": "address",
          "name": "USDC",
          "type": "address"
        },
        {
          "internalType": "address",
          "name": "USDT",
          "type": "address"
        },
        {
          "internalType": "address",
          "name": "DAI",
          "type": "address"
        }
      ],
      "stateMutability": "nonpayable",
      "type": "constructor"
    },
    {
      "anonymous": false,
      "inputs": [
        {
          "indexed": true,
          "internalType": "address",
          "name": "_owner",
          "type": "address"
        },
        {
          "indexed": true,
          "internalType": "address",
          "name": "_operator",
          "type": "address"
        },
        {
          "indexed": false,
          "internalType": "uint256",
          "name": "classId",
          "type": "uint256"
        },
        {
          "indexed": false,
          "internalType": "bool",
          "name": "_approved",
          "type": "bool"
        }
      ],
      "name": "ApprovalFor",
      "type": "event"
    },
    {
      "anonymous": false,
      "inputs": [
        {
          "indexed": true,
          "internalType": "address",
          "name": "_operator",
          "type": "address"
        },
        {
          "indexed": true,
          "internalType": "address",
          "name": "_from",
          "type": "address"
        },
        {
          "indexed": false,
          "internalType": "uint256",
          "name": "classId",
          "type": "uint256"
        },
        {
          "indexed": false,
          "internalType": "uint256",
          "name": "nonceId",
          "type": "uint256"
        },
        {
          "indexed": false,
          "internalType": "uint256",
          "name": "amount",
          "type": "uint256"
        }
      ],
      "name": "Burn",
      "type": "event"
    },
    {
      "anonymous": false,
      "inputs": [
        {
          "indexed": true,
          "internalType": "address",
          "name": "_operator",
          "type": "address"
        },
        {
          "indexed": true,
          "internalType": "address",
          "name": "_to",
          "type": "address"
        },
        {
          "indexed": false,
          "internalType": "uint256",
          "name": "classId",
          "type": "uint256"
        },
        {
          "indexed": false,
          "internalType": "uint256",
          "name": "nonceId",
          "type": "uint256"
        },
        {
          "indexed": false,
          "internalType": "uint256",
          "name": "amount",
          "type": "uint256"
        }
      ],
      "name": "Issue",
      "type": "event"
    },
    {
      "anonymous": false,
      "inputs": [
        {
          "indexed": true,
          "internalType": "address",
          "name": "_operator",
          "type": "address"
        },
        {
          "indexed": true,
          "internalType": "address",
          "name": "_from",
          "type": "address"
        },
        {
          "indexed": false,
          "internalType": "uint256",
          "name": "classId",
          "type": "uint256"
        },
        {
          "indexed": false,
          "internalType": "uint256",
          "name": "nonceId",
          "type": "uint256"
        },
        {
          "indexed": false,
          "internalType": "uint256",
          "name": "amount",
          "type": "uint256"
        }
      ],
      "name": "Redeem",
      "type": "event"
    },
    {
      "anonymous": false,
      "inputs": [
        {
          "indexed": true,
          "internalType": "bytes32",
          "name": "role",
          "type": "bytes32"
        },
        {
          "indexed": true,
          "internalType": "bytes32",
          "name": "previousAdminRole",
          "type": "bytes32"
        },
        {
          "indexed": true,
          "internalType": "bytes32",
          "name": "newAdminRole",
          "type": "bytes32"
        }
      ],
      "name": "RoleAdminChanged",
      "type": "event"
    },
    {
      "anonymous": false,
      "inputs": [
        {
          "indexed": true,
          "internalType": "bytes32",
          "name": "role",
          "type": "bytes32"
        },
        {
          "indexed": true,
          "internalType": "address",
          "name": "account",
          "type": "address"
        },
        {
          "indexed": true,
          "internalType": "address",
          "name": "sender",
          "type": "address"
        }
      ],
      "name": "RoleGranted",
      "type": "event"
    },
    {
      "anonymous": false,
      "inputs": [
        {
          "indexed": true,
          "internalType": "bytes32",
          "name": "role",
          "type": "bytes32"
        },
        {
          "indexed": true,
          "internalType": "address",
          "name": "account",
          "type": "address"
        },
        {
          "indexed": true,
          "internalType": "address",
          "name": "sender",
          "type": "address"
        }
      ],
      "name": "RoleRevoked",
      "type": "event"
    },
    {
      "anonymous": false,
      "inputs": [
        {
          "indexed": true,
          "internalType": "address",
          "name": "_operator",
          "type": "address"
        },
        {
          "indexed": true,
          "internalType": "address",
          "name": "_from",
          "type": "address"
        },
        {
          "indexed": true,
          "internalType": "address",
          "name": "_to",
          "type": "address"
        },
        {
          "indexed": false,
          "internalType": "uint256",
          "name": "classId",
          "type": "uint256"
        },
        {
          "indexed": false,
          "internalType": "uint256",
          "name": "nonceId",
          "type": "uint256"
        },
        {
          "indexed": false,
          "internalType": "uint256",
          "name": "amount",
          "type": "uint256"
        }
      ],
      "name": "Transfer",
      "type": "event"
    },
    {
      "inputs": [],
      "name": "DEFAULT_ADMIN_ROLE",
      "outputs": [
        {
          "internalType": "bytes32",
          "name": "",
          "type": "bytes32"
        }
      ],
      "stateMutability": "view",
      "type": "function"
    },
    {
      "inputs": [],
      "name": "ISSUER_ROLE",
      "outputs": [
        {
          "internalType": "bytes32",
          "name": "",
          "type": "bytes32"
        }
      ],
      "stateMutability": "view",
      "type": "function"
    },
    {
      "inputs": [],
      "name": "_isActive",
      "outputs": [
        {
          "internalType": "bool",
          "name": "",
          "type": "bool"
        }
      ],
      "stateMutability": "view",
      "type": "function"
    },
    {
      "inputs": [
        {
          "internalType": "uint256",
          "name": "classId",
          "type": "uint256"
        },
        {
          "internalType": "uint256",
          "name": "nonceId",
          "type": "uint256"
        }
      ],
      "name": "activeSupply",
      "outputs": [
        {
          "internalType": "uint256",
          "name": "",
          "type": "uint256"
        }
      ],
      "stateMutability": "view",
      "type": "function"
    },
    {
      "inputs": [
        {
          "internalType": "address",
          "name": "owner",
          "type": "address"
        },
        {
          "internalType": "address",
          "name": "spender",
          "type": "address"
        },
        {
          "internalType": "uint256",
          "name": "classId",
          "type": "uint256"
        },
        {
          "internalType": "uint256",
          "name": "nonceId",
          "type": "uint256"
        }
      ],
      "name": "allowance",
      "outputs": [
        {
          "internalType": "uint256",
          "name": "",
          "type": "uint256"
        }
      ],
      "stateMutability": "view",
      "type": "function"
    },
    {
      "inputs": [
        {
          "internalType": "address",
          "name": "spender",
          "type": "address"
        },
        {
          "internalType": "uint256",
          "name": "classId",
          "type": "uint256"
        },
        {
          "internalType": "uint256",
          "name": "nonceId",
          "type": "uint256"
        },
        {
          "internalType": "uint256",
          "name": "amount",
          "type": "uint256"
        }
      ],
      "name": "approve",
      "outputs": [],
      "stateMutability": "nonpayable",
      "type": "function"
    },
    {
      "inputs": [
        {
          "internalType": "address",
          "name": "account",
          "type": "address"
        },
        {
          "internalType": "uint256",
          "name": "classId",
          "type": "uint256"
        },
        {
          "internalType": "uint256",
          "name": "nonceId",
          "type": "uint256"
        }
      ],
      "name": "balanceOf",
      "outputs": [
        {
          "internalType": "uint256",
          "name": "",
          "type": "uint256"
        }
      ],
      "stateMutability": "view",
      "type": "function"
    },
    {
      "inputs": [
        {
          "internalType": "uint256",
          "name": "classId",
          "type": "uint256"
        }
      ],
      "name": "batchActiveSupply",
      "outputs": [
        {
          "internalType": "uint256",
          "name": "",
          "type": "uint256"
        }
      ],
      "stateMutability": "view",
      "type": "function"
    },
    {
      "inputs": [
        {
          "internalType": "address",
          "name": "spender",
          "type": "address"
        },
        {
          "internalType": "uint256[]",
          "name": "classIds",
          "type": "uint256[]"
        },
        {
          "internalType": "uint256[]",
          "name": "nonceIds",
          "type": "uint256[]"
        },
        {
          "internalType": "uint256[]",
          "name": "amounts",
          "type": "uint256[]"
        }
      ],
      "name": "batchApprove",
      "outputs": [],
      "stateMutability": "nonpayable",
      "type": "function"
    },
    {
      "inputs": [
        {
          "internalType": "uint256",
          "name": "classId",
          "type": "uint256"
        }
      ],
      "name": "batchBurnedSupply",
      "outputs": [
        {
          "internalType": "uint256",
          "name": "",
          "type": "uint256"
        }
      ],
      "stateMutability": "view",
      "type": "function"
    },
    {
      "inputs": [
        {
          "internalType": "uint256",
          "name": "classId",
          "type": "uint256"
        }
      ],
      "name": "batchRedeemedSupply",
      "outputs": [
        {
          "internalType": "uint256",
          "name": "",
          "type": "uint256"
        }
      ],
      "stateMutability": "view",
      "type": "function"
    },
    {
      "inputs": [
        {
          "internalType": "uint256",
          "name": "classId",
          "type": "uint256"
        }
      ],
      "name": "batchTotalSupply",
      "outputs": [
        {
          "internalType": "uint256",
          "name": "",
          "type": "uint256"
        }
      ],
      "stateMutability": "view",
      "type": "function"
    },
    {
      "inputs": [
        {
          "internalType": "address",
          "name": "tokenAddress",
          "type": "address"
        },
        {
          "internalType": "enum IData.InterestRateType",
          "name": "interestRateType",
          "type": "uint8"
        }
      ],
      "name": "bondAmountDue",
      "outputs": [
        {
          "internalType": "uint256",
          "name": "",
          "type": "uint256"
        }
      ],
      "stateMutability": "view",
      "type": "function"
    },
    {
      "inputs": [
        {
          "internalType": "uint256",
          "name": "classId",
          "type": "uint256"
        },
        {
          "internalType": "uint256",
          "name": "nonceId",
          "type": "uint256"
        }
      ],
      "name": "bondDetails",
      "outputs": [
        {
          "internalType": "string",
          "name": "_symbol",
          "type": "string"
        },
        {
          "internalType": "enum IData.InterestRateType",
          "name": "_interestRateType",
          "type": "uint8"
        },
        {
          "internalType": "address",
          "name": "_tokenAddress",
          "type": "address"
        },
        {
          "internalType": "uint256",
          "name": "_periodTimestamp",
          "type": "uint256"
        },
        {
          "internalType": "uint256",
          "name": "_issuanceDate",
          "type": "uint256"
        },
        {
          "internalType": "uint256",
          "name": "_maturityDate",
          "type": "uint256"
        }
      ],
      "stateMutability": "view",
      "type": "function"
    },
    {
      "inputs": [
        {
          "internalType": "address",
          "name": "from",
          "type": "address"
        },
        {
          "internalType": "uint256",
          "name": "classId",
          "type": "uint256"
        },
        {
          "internalType": "uint256",
          "name": "nonceId",
          "type": "uint256"
        },
        {
          "internalType": "uint256",
          "name": "amount",
          "type": "uint256"
        }
      ],
      "name": "burn",
      "outputs": [],
      "stateMutability": "nonpayable",
      "type": "function"
    },
    {
      "inputs": [
        {
          "internalType": "uint256",
          "name": "classId",
          "type": "uint256"
        },
        {
          "internalType": "uint256",
          "name": "nonceId",
          "type": "uint256"
        }
      ],
      "name": "burnedSupply",
      "outputs": [
        {
          "internalType": "uint256",
          "name": "",
          "type": "uint256"
        }
      ],
      "stateMutability": "view",
      "type": "function"
    },
    {
      "inputs": [
        {
          "internalType": "uint256",
          "name": "classId",
          "type": "uint256"
        }
      ],
      "name": "classExists",
      "outputs": [
        {
          "internalType": "bool",
          "name": "",
          "type": "bool"
        }
      ],
      "stateMutability": "view",
      "type": "function"
    },
    {
      "inputs": [
        {
          "internalType": "uint256",
          "name": "classInfo",
          "type": "uint256"
        }
      ],
      "name": "classInfoDescription",
      "outputs": [
        {
          "internalType": "string",
          "name": "",
          "type": "string"
        }
      ],
      "stateMutability": "view",
      "type": "function"
    },
    {
      "inputs": [
        {
          "internalType": "uint256",
          "name": "",
          "type": "uint256"
        }
      ],
      "name": "classInfoDescriptions",
      "outputs": [
        {
          "internalType": "string",
          "name": "",
          "type": "string"
        }
      ],
      "stateMutability": "view",
      "type": "function"
    },
    {
      "inputs": [
        {
          "internalType": "uint256",
          "name": "classId",
          "type": "uint256"
        }
      ],
      "name": "classInfos",
      "outputs": [
        {
          "internalType": "uint256[]",
          "name": "",
          "type": "uint256[]"
        }
      ],
      "stateMutability": "view",
      "type": "function"
    },
    {
      "inputs": [
        {
          "internalType": "address",
          "name": "",
          "type": "address"
        },
        {
          "internalType": "uint256",
          "name": "",
          "type": "uint256"
        }
      ],
      "name": "classesPerAddressArray",
      "outputs": [
        {
          "internalType": "uint256",
          "name": "",
          "type": "uint256"
        }
      ],
      "stateMutability": "view",
      "type": "function"
    },
    {
      "inputs": [
        {
          "internalType": "uint256",
          "name": "classId",
          "type": "uint256"
        },
        {
          "internalType": "string",
          "name": "_symbol",
          "type": "string"
        },
        {
          "internalType": "enum IData.InterestRateType",
          "name": "interestRateType",
          "type": "uint8"
        },
        {
          "internalType": "address",
          "name": "tokenAddress",
          "type": "address"
        },
        {
          "internalType": "uint256",
          "name": "periodTimestamp",
          "type": "uint256"
        }
      ],
      "name": "createClass",
      "outputs": [],
      "stateMutability": "nonpayable",
      "type": "function"
    },
    {
      "inputs": [
        {
          "internalType": "uint256",
          "name": "classId",
          "type": "uint256"
        },
        {
          "internalType": "uint256",
          "name": "nonceId",
          "type": "uint256"
        },
        {
          "internalType": "uint256",
          "name": "_maturityDate",
          "type": "uint256"
        },
        {
          "internalType": "uint256",
          "name": "liqT",
          "type": "uint256"
        }
      ],
      "name": "createNonce",
      "outputs": [],
      "stateMutability": "nonpayable",
      "type": "function"
    },
    {
      "inputs": [
        {
          "internalType": "address",
          "name": "addr",
          "type": "address"
        },
        {
          "internalType": "uint256",
          "name": "classId",
          "type": "uint256"
        }
      ],
      "name": "getNoncesPerAddress",
      "outputs": [
        {
          "internalType": "uint256[]",
          "name": "",
          "type": "uint256[]"
        }
      ],
      "stateMutability": "view",
      "type": "function"
    },
    {
      "inputs": [
        {
          "internalType": "bytes32",
          "name": "role",
          "type": "bytes32"
        }
      ],
      "name": "getRoleAdmin",
      "outputs": [
        {
          "internalType": "bytes32",
          "name": "",
          "type": "bytes32"
        }
      ],
      "stateMutability": "view",
      "type": "function"
    },
    {
      "inputs": [
        {
          "internalType": "bytes32",
          "name": "role",
          "type": "bytes32"
        },
        {
          "internalType": "address",
          "name": "account",
          "type": "address"
        }
      ],
      "name": "grantRole",
      "outputs": [],
      "stateMutability": "nonpayable",
      "type": "function"
    },
    {
      "inputs": [
        {
          "internalType": "bytes32",
          "name": "role",
          "type": "bytes32"
        },
        {
          "internalType": "address",
          "name": "account",
          "type": "address"
        }
      ],
      "name": "hasRole",
      "outputs": [
        {
          "internalType": "bool",
          "name": "",
          "type": "bool"
        }
      ],
      "stateMutability": "view",
      "type": "function"
    },
    {
      "inputs": [],
      "name": "isActive",
      "outputs": [
        {
          "internalType": "bool",
          "name": "",
          "type": "bool"
        }
      ],
      "stateMutability": "view",
      "type": "function"
    },
    {
      "inputs": [
        {
          "internalType": "address",
          "name": "owner",
          "type": "address"
        },
        {
          "internalType": "address",
          "name": "operator",
          "type": "address"
        },
        {
          "internalType": "uint256",
          "name": "classId",
          "type": "uint256"
        }
      ],
      "name": "isApprovedFor",
      "outputs": [
        {
          "internalType": "bool",
          "name": "",
          "type": "bool"
        }
      ],
      "stateMutability": "view",
      "type": "function"
    },
    {
      "inputs": [
        {
          "internalType": "uint256",
          "name": "classId",
          "type": "uint256"
        },
        {
          "internalType": "uint256",
          "name": "nonceId",
          "type": "uint256"
        }
      ],
      "name": "isRedeemable",
      "outputs": [
        {
          "internalType": "bool",
          "name": "",
          "type": "bool"
        }
      ],
      "stateMutability": "view",
      "type": "function"
    },
    {
      "inputs": [
        {
          "internalType": "address",
          "name": "to",
          "type": "address"
        },
        {
          "internalType": "uint256",
          "name": "classId",
          "type": "uint256"
        },
        {
          "internalType": "uint256",
          "name": "nonceId",
          "type": "uint256"
        },
        {
          "internalType": "uint256",
          "name": "amount",
          "type": "uint256"
        }
      ],
      "name": "issue",
      "outputs": [],
      "stateMutability": "nonpayable",
      "type": "function"
    },
    {
      "inputs": [
        {
          "internalType": "uint256",
          "name": "classId",
          "type": "uint256"
        },
        {
          "internalType": "uint256",
          "name": "nonceId",
          "type": "uint256"
        }
      ],
      "name": "nonceExists",
      "outputs": [
        {
          "internalType": "bool",
          "name": "",
          "type": "bool"
        }
      ],
      "stateMutability": "view",
      "type": "function"
    },
    {
      "inputs": [
        {
          "internalType": "uint256",
          "name": "nonceInfo",
          "type": "uint256"
        }
      ],
      "name": "nonceInfoDescription",
      "outputs": [
        {
          "internalType": "string",
          "name": "",
          "type": "string"
        }
      ],
      "stateMutability": "view",
      "type": "function"
    },
    {
      "inputs": [
        {
          "internalType": "uint256",
          "name": "",
          "type": "uint256"
        }
      ],
      "name": "nonceInfoDescriptions",
      "outputs": [
        {
          "internalType": "string",
          "name": "",
          "type": "string"
        }
      ],
      "stateMutability": "view",
      "type": "function"
    },
    {
      "inputs": [
        {
          "internalType": "uint256",
          "name": "classId",
          "type": "uint256"
        },
        {
          "internalType": "uint256",
          "name": "nonceId",
          "type": "uint256"
        }
      ],
      "name": "nonceInfos",
      "outputs": [
        {
          "internalType": "uint256[]",
          "name": "",
          "type": "uint256[]"
        }
      ],
      "stateMutability": "view",
      "type": "function"
    },
    {
      "inputs": [
        {
          "internalType": "address",
          "name": "from",
          "type": "address"
        },
        {
          "internalType": "uint256",
          "name": "classId",
          "type": "uint256"
        },
        {
          "internalType": "uint256",
          "name": "nonceId",
          "type": "uint256"
        },
        {
          "internalType": "uint256",
          "name": "amount",
          "type": "uint256"
        }
      ],
      "name": "redeem",
      "outputs": [],
      "stateMutability": "nonpayable",
      "type": "function"
    },
    {
      "inputs": [
        {
          "internalType": "uint256",
          "name": "classId",
          "type": "uint256"
        },
        {
          "internalType": "uint256",
          "name": "nonceId",
          "type": "uint256"
        }
      ],
      "name": "redeemedSupply",
      "outputs": [
        {
          "internalType": "uint256",
          "name": "",
          "type": "uint256"
        }
      ],
      "stateMutability": "view",
      "type": "function"
    },
    {
      "inputs": [
        {
          "internalType": "bytes32",
          "name": "role",
          "type": "bytes32"
        },
        {
          "internalType": "address",
          "name": "account",
          "type": "address"
        }
      ],
      "name": "renounceRole",
      "outputs": [],
      "stateMutability": "nonpayable",
      "type": "function"
    },
    {
      "inputs": [
        {
          "internalType": "bytes32",
          "name": "role",
          "type": "bytes32"
        },
        {
          "internalType": "address",
          "name": "account",
          "type": "address"
        }
      ],
      "name": "revokeRole",
      "outputs": [],
      "stateMutability": "nonpayable",
      "type": "function"
    },
    {
      "inputs": [
        {
          "internalType": "address",
          "name": "operator",
          "type": "address"
        },
        {
          "internalType": "uint256",
          "name": "classId",
          "type": "uint256"
        },
        {
          "internalType": "bool",
          "name": "approved",
          "type": "bool"
        }
      ],
      "name": "setApprovalFor",
      "outputs": [],
      "stateMutability": "nonpayable",
      "type": "function"
    },
    {
      "inputs": [
        {
          "internalType": "bytes4",
          "name": "interfaceId",
          "type": "bytes4"
        }
      ],
      "name": "supportsInterface",
      "outputs": [
        {
          "internalType": "bool",
          "name": "",
          "type": "bool"
        }
      ],
      "stateMutability": "view",
      "type": "function"
    },
    {
      "inputs": [
        {
          "internalType": "uint256",
          "name": "classId",
          "type": "uint256"
        }
      ],
      "name": "symbol",
      "outputs": [
        {
          "internalType": "string",
          "name": "",
          "type": "string"
        }
      ],
      "stateMutability": "view",
      "type": "function"
    },
    {
      "inputs": [
        {
          "internalType": "uint256",
          "name": "classId",
          "type": "uint256"
        },
        {
          "internalType": "uint256",
          "name": "nonceId",
          "type": "uint256"
        }
      ],
      "name": "totalSupply",
      "outputs": [
        {
          "internalType": "uint256",
          "name": "",
          "type": "uint256"
        }
      ],
      "stateMutability": "view",
      "type": "function"
    },
    {
      "inputs": [
        {
          "internalType": "address",
          "name": "from",
          "type": "address"
        },
        {
          "internalType": "address",
          "name": "to",
          "type": "address"
        },
        {
          "internalType": "uint256",
          "name": "classId",
          "type": "uint256"
        },
        {
          "internalType": "uint256",
          "name": "nonceId",
          "type": "uint256"
        },
        {
          "internalType": "uint256",
          "name": "amount",
          "type": "uint256"
        }
      ],
      "name": "transferFrom",
      "outputs": [],
      "stateMutability": "nonpayable",
      "type": "function"
    }
  ],
  "transactionHash": "0x1a8e3a25bda7c8687d49f9d0cb6b506d98965d0d88e709c54e0992a6643ee7c6",
  "args": [
    "0x723f5Db6225Cc9079Bc3B34CFd4F0A21f66774cA",
    "0x6421223477D6328864563EDAc2Ca99003dd1aEE4",
    "0x814AB7B629D1E1267c540206691068354F50a892",
    "0x17C08eBE61679119D8433120E2BACeC0d37627Fe"
  ],
  "numDeployments": 1,
  "solcInputHash": "59697760ba823b401b4c53fac791d6ad",
  "bytecode": "0x60806040523480156200001157600080fd5b50604051620031003803806200310083398101604081905262000034916200046e565b6007805460ff191660011790556200004e600033620001f0565b62000083600060405180604001604052806005815260200164110bd0925560da1b815250600087603c6200029160201b60201c565b620000b76001604051806040016040528060048152602001635553444360e01b815250600086603c6200029160201b60201c565b620000eb6002604051806040016040528060048152602001631554d11560e21b815250600085603c6200029160201b60201c565b6040805180820190915260038082526244414960e81b60208301526200011691600084603c62000291565b6200014b600460405180604001604052806005815260200164110bd0925560da1b815250600187603c6200029160201b60201c565b6200017f6005604051806040016040528060048152602001635553444360e01b815250600184603c6200029160201b60201c565b620001b36006604051806040016040528060048152602001631554d11560e21b815250600184603c6200029160201b60201c565b620001e660076040518060400160405280600381526020016244414960e81b815250600184603c6200029160201b60201c565b505050506200051d565b6000828152602081815260408083206001600160a01b038516845290915290205460ff166200028d576000828152602081815260408083206001600160a01b03851684529091529020805460ff191660011790556200024c3390565b6001600160a01b0316816001600160a01b0316837f2f8788117e7eff1d82e926ec794901d17c78024a50270940304540a733656f0d60405160405180910390a45b5050565b6000858152600160208190526040909120015460ff1615620003145760405162461bcd60e51b815260206004820152603260248201527f455243333437353a2063616e6e6f7420637265617465206120636c617373207460448201527168617420616c72656164792065786973747360701b606482015260840160405180910390fd5b6000858152600160208181526040909220878155808201805460ff1916909217909155855190916200034e916002840191880190620003ab565b5060048101805485919060ff191660018381811115620003725762000372620004cb565b02179055506004810180546001600160a01b0390941661010002610100600160a81b031990941693909317909255600590910155505050565b828054620003b990620004e1565b90600052602060002090601f016020900481019282620003dd576000855562000428565b82601f10620003f857805160ff191683800117855562000428565b8280016001018555821562000428579182015b82811115620004285782518255916020019190600101906200040b565b50620004369291506200043a565b5090565b5b808211156200043657600081556001016200043b565b80516001600160a01b03811681146200046957600080fd5b919050565b600080600080608085870312156200048557600080fd5b620004908562000451565b9350620004a06020860162000451565b9250620004b06040860162000451565b9150620004c06060860162000451565b905092959194509250565b634e487b7160e01b600052602160045260246000fd5b600181811c90821680620004f657607f821691505b6020821081036200051757634e487b7160e01b600052602260045260246000fd5b50919050565b612bd3806200052d6000396000f3fe608060405234801561001057600080fd5b50600436106102735760003560e01c80638689340811610151578063c2458d6b116100c3578063d23a95de11610087578063d23a95de1461066c578063d547741f1461067f578063de7bf0a214610692578063ea2092f3146106a5578063ebf123d1146106b8578063f72c8689146106cb57600080fd5b8063c2458d6b14610620578063c9dd303814610633578063ccea7b86146105ee578063ce1cdeff14610646578063d1bab4cc1461065957600080fd5b806391d148541161011557806391d1485414610569578063a217fddf1461057c578063ab1ef51514610584578063b15edbe514610597578063b4052547146105c9578063bc3c19f7146105ee57600080fd5b806386893408146104f0578063894ecab6146105035780638be3ab65146105165780638ea1d767146105495780638ec89e4f1461055c57600080fd5b80633789b93a116101ea5780634e41a1fb116101ae5780634e41a1fb146104415780634f4df442146104545780634fee3f41146104a25780636c5bdd15146104b557806379915c7c146104c857806382aefa24146104db57600080fd5b80633789b93a146103a45780633b151c9e146103b7578063443b63b9146103ca57806347401a931461041b5780634aed53c21461042e57600080fd5b806322f3e2d41161023c57806322f3e2d41461031a578063248a9ca3146103255780632b964af8146103565780632d760d57146103695780632f2ff15d1461037c57806336568abe1461039157600080fd5b8062ad7e881461027857806301ffc9a7146102a05780630351fba8146102b35780631d12fdb9146102d35780631e2e60ba146102fa575b600080fd5b61028b6102863660046123af565b6106de565b60405190151581526020015b60405180910390f35b61028b6102ae3660046123d1565b61076b565b6102c66102c13660046123fb565b6107a0565b6040516102979190612470565b61028b6102e13660046123fb565b6000908152600160208190526040909120015460ff1690565b61030d6103083660046123fb565b61084f565b6040516102979190612483565b60075460ff1661028b565b6103486103333660046123fb565b60009081526020819052604090206001015490565b604051908152602001610297565b6103486103643660046124f2565b6108b3565b610348610377366004612525565b610906565b61038f61038a366004612558565b6109b0565b005b61038f61039f366004612558565b6109db565b6103486103b236600461257b565b610a59565b6102c66103c53660046123fb565b610a8a565b6103486103d83660046125a5565b6000918252600160209081526040808420928452600a92830182528084206001600160a01b03968716855290920181528183209390941682529190925290205490565b61038f6104293660046125e7565b610a9f565b61038f61043c366004612620565b610d57565b6102c661044f3660046123fb565b610e39565b61038f6104623660046125e7565b6000928352600160209081526040808520938552600a938401825280852033865290930181528284206001600160a01b0395909516845293909352902055565b6102c66104b03660046123fb565b610ee1565b6103486104c33660046123fb565b610f8d565b61038f6104d6366004612683565b611044565b610348600080516020612b7e83398151915281565b6102c66104fe3660046123fb565b611154565b6103486105113660046123fb565b611164565b61028b6105243660046123af565b6000918252600160208181526040808520938552600a90930190529120015460ff1690565b61028b610557366004612767565b611231565b60075461028b9060ff1681565b61028b610577366004612558565b611269565b610348600081565b61030d61059236600461257b565b611292565b6103486105a53660046123af565b6000918252600160209081526040808420928452600a909201905290206002015490565b6105dc6105d73660046123af565b611309565b604051610297969594939291906127b9565b6103486105fc3660046123af565b6000918252600160209081526040808420928452600a909201905290206003015490565b61034861062e3660046123af565b6113ff565b6103486106413660046123fb565b611447565b61030d6106543660046123af565b611514565b61038f610667366004612869565b611583565b61038f61067a366004612914565b611690565b61038f61068d366004612558565b611779565b61038f6106a03660046125e7565b61179f565b61038f6106b33660046125e7565b6118b3565b6103486106c63660046123fb565b611a8f565b61038f6106d9366004612946565b611b30565b600082815260016020526040812081600482015460ff166001811115610706576107066127a3565b036107355750506000828152600160209081526040808320848452600a01909152902060050154421015610765565b6001600482015460ff166001811115610750576107506127a3565b0361075f576001915050610765565b60009150505b92915050565b60006001600160e01b03198216637965db0b60e01b148061076557506301ffc9a760e01b6001600160e01b0319831614610765565b6060600382815481106107b5576107b561298b565b9060005260206000200180546107ca906129a1565b80601f01602080910402602001604051908101604052809291908181526020018280546107f6906129a1565b80156108435780601f1061081857610100808354040283529160200191610843565b820191906000526020600020905b81548152906001019060200180831161082657829003601f168201915b50505050509050919050565b60008181526001602090815260409182902060030180548351818402810184019094528084526060939283018282801561084357602002820191906000526020600020905b8154815260200190600101908083116108945750505050509050919050565b6001600160a01b0382166000908152600660205260408120818360018111156108de576108de6127a3565b60018111156108ef576108ef6127a3565b815260200190815260200160002054905092915050565b60006001600160a01b0384166109775760405162461bcd60e51b815260206004820152602b60248201527f455243333437353a2062616c616e636520717565727920666f7220746865207a60448201526a65726f206164647265737360a81b60648201526084015b60405180910390fd5b506000828152600160209081526040808320848452600a0182528083206001600160a01b03871684526009019091529020549392505050565b6000828152602081905260409020600101546109cc8133611bac565b6109d68383611c10565b505050565b6001600160a01b0381163314610a4b5760405162461bcd60e51b815260206004820152602f60248201527f416363657373436f6e74726f6c3a2063616e206f6e6c792072656e6f756e636560448201526e103937b632b9903337b91039b2b63360891b606482015260840161096e565b610a558282611c94565b5050565b60056020528160005260406000208181548110610a7557600080fd5b90600052602060002001600091509150505481565b6060600282815481106107b5576107b561298b565b600080516020612b7e833981519152610ab88133611bac565b6000848152600160208190526040909120015460ff16610aea5760405162461bcd60e51b815260040161096e906129db565b6000848152600160208181526040808420878552600a01909152909120015460ff16610b635760405162461bcd60e51b815260206004820152602260248201527f4552432d333437353a206e6f6e6365496420676976656e206e6f7420666f756e604482015261642160f01b606482015260840161096e565b6001600160a01b038516610b895760405162461bcd60e51b815260040161096e90612a29565b610b9585858585611cf9565b6001600160a01b038516600090815260046020908152604080832087845290915290205460ff16610c0c576001600160a01b038516600081815260056020908152604080832080546001818101835591855283852001899055938352600482528083208884529091529020805460ff191690911790555b60008481526001602090815260408083206001600160a01b03891684526007810183528184208785529092529091205460ff16610c93576001600160a01b03861660008181526008830160209081526040808320805460018181018355918552838520018990559383526007850182528083208884529091529020805460ff191690911790555b60048101546001600160a01b036101008204166000908152600660205260408120859290919060ff166001811115610ccd57610ccd6127a3565b6001811115610cde57610cde6127a3565b81526020019081526020016000206000828254610cfb9190612a8a565b909155505060408051868152602081018690529081018490526001600160a01b0387169033907f5d07254f6aa280c352dc6b62a8302f494954f6060c5459475a6d28b6efe0b466906060015b60405180910390a3505050505050565b336001600160a01b0386161480610d745750610d74853385611231565b610dd25760405162461bcd60e51b815260206004820152602960248201527f455243333437353a2063616c6c6572206973206e6f74206f776e6572206e6f7260448201526808185c1c1c9bdd995960ba1b606482015260840161096e565b610ddf8585858585611d78565b60408051848152602081018490529081018290526001600160a01b03808616919087169033907f737ab30b9cd3ddae02069f3057591007faf2305652d04c2582f7f1f6185d97119060600160405180910390a45050505050565b60008181526001602052604090206002810180546060929190610e5b906129a1565b80601f0160208091040260200160405190810160405280929190818152602001828054610e87906129a1565b8015610ed45780601f10610ea957610100808354040283529160200191610ed4565b820191906000526020600020905b815481529060010190602001808311610eb757829003601f168201915b5050505050915050919050565b60038181548110610ef157600080fd5b906000526020600020016000915090508054610f0c906129a1565b80601f0160208091040260200160405190810160405280929190818152602001828054610f38906129a1565b8015610f855780601f10610f5a57610100808354040283529160200191610f85565b820191906000526020600020905b815481529060010190602001808311610f6857829003601f168201915b505050505081565b6000818152600160209081526040808320600901805482518185028101850190935280835284938493929190830182828015610fe857602002820191906000526020600020905b815481526020019060010190808311610fd4575b5050505050905060005b8151811161103b5761101d858383815181106110105761101061298b565b60200260200101516113ff565b6110279084612a8a565b92508061103381612aa2565b915050610ff2565b50909392505050565b6000858152600160208190526040909120015460ff16156110c25760405162461bcd60e51b815260206004820152603260248201527f455243333437353a2063616e6e6f7420637265617465206120636c617373207460448201527168617420616c72656164792065786973747360701b606482015260840161096e565b6000858152600160208181526040909220878155808201805460ff1916909217909155855190916110fa916002840191880190612316565b5060048101805485919060ff19166001838181111561111b5761111b6127a3565b02179055506004810180546001600160a01b0390941661010002610100600160a81b031990941693909317909255600590910155505050565b60028181548110610ef157600080fd5b60008181526001602090815260408083206009018054825181850281018501909352808352849384939291908301828280156111bf57602002820191906000526020600020905b8154815260200190600101908083116111ab575b5050505050905060005b8151811161103b57611213858383815181106111e7576111e761298b565b60200260200101516000918252600160209081526040808420928452600a909201905290206003015490565b61121d9084612a8a565b92508061122981612aa2565b9150506111c9565b60009081526001602090815260408083206001600160a01b039586168452600601825280832093909416825291909152205460ff1690565b6000918252602082815260408084206001600160a01b0393909316845291905290205460ff1690565b60008181526001602090815260408083206001600160a01b03861684526008018252918290208054835181840281018401909452808452606093928301828280156112fc57602002820191906000526020600020905b8154815260200190600101908083116112e8575b5050505050905092915050565b6000828152600160209081526040808320848452600a81019092528220600282018054606094938493849384938493929190611344906129a1565b80601f0160208091040260200160405190810160405280929190818152602001828054611370906129a1565b80156113bd5780601f10611392576101008083540402835291602001916113bd565b820191906000526020600020905b8154815290600101906020018083116113a057829003601f168201915b50505050600484015460059485015460068501549490950154929d60ff82169d506101009091046001600160a01b03169b509399509197509550909350505050565b6000828152600160209081526040808320848452600a01909152812060038101546004820154600290920154909161143691612a8a565b6114409190612a8a565b9392505050565b60008181526001602090815260408083206009018054825181850281018501909352808352849384939291908301828280156114a257602002820191906000526020600020905b81548152602001906001019080831161148e575b5050505050905060005b8151811161103b576114f6858383815181106114ca576114ca61298b565b60200260200101516000918252600160209081526040808420928452600a909201905290206002015490565b6115009084612a8a565b92508061150c81612aa2565b9150506114ac565b6000828152600160209081526040808320848452600a018252918290206008018054835181840281018401909452808452606093928301828280156112fc57602002820191906000526020600020908154815260200190600101908083116112e8575050505050905092915050565b848314801561159157508481145b6115d35760405162461bcd60e51b815260206004820152601360248201527222a921999a1b9a9024b7383aba1022b93937b960691b604482015260640161096e565b60005b85811015611686578282828181106115f0576115f061298b565b905060200201356001600089898581811061160d5761160d61298b565b905060200201358152602001908152602001600020600a0160008787858181106116395761163961298b565b602090810292909201358352508181019290925260409081016000908120338252600a0183528181206001600160a01b038d1682529092529020558061167e81612aa2565b9150506115d6565b5050505050505050565b600080516020612b7e8339815191526116a98133611bac565b6000858152600160208190526040909120015460ff166116db5760405162461bcd60e51b815260040161096e906129db565b6000858152600160208181526040808420888552600a81019092529092209081015460ff161561174d5760405162461bcd60e51b815260206004820152601f60248201527f4572726f72204552432d333437353a206e6f6e63654964206578697374732100604482015260640161096e565b94855550506001808401805460ff19169091179055600583019190915542600683015560079091015550565b6000828152602081905260409020600101546117958133611bac565b6109d68383611c94565b600080516020612b7e8339815191526117b88133611bac565b6001600160a01b0385166117de5760405162461bcd60e51b815260040161096e90612a29565b6117ea85858585611eaa565b600084815260016020818152604080842060048101546001600160a01b0361010082041686526006909352908420909386939192909160ff90911690811115611835576118356127a3565b6001811115611846576118466127a3565b815260200190815260200160002060008282546118639190612abb565b909155505060408051868152602081018690529081018490526001600160a01b0387169033907f4cf25bc1d991c17529c25213d3cc0cda295eeaad5f13f361969b12ea48015f9090606001610d47565b600080516020612b7e8339815191526118cc8133611bac565b6000848152600160208181526040808420878552600a01909152909120015460ff166119455760405162461bcd60e51b815260206004820152602260248201527f455243333437353a20676976656e204e6f6e636520646f65736e2774206578696044820152611cdd60f21b606482015260840161096e565b6001600160a01b03851661196b5760405162461bcd60e51b815260040161096e90612a29565b61197584846106de565b6119ba5760405162461bcd60e51b8152602060048201526016602482015275426f6e64206973206e6f742072656465656d61626c6560501b604482015260640161096e565b6119c685858585611f8f565b600084815260016020818152604080842060048101546001600160a01b0361010082041686526006909352908420909386939192909160ff90911690811115611a1157611a116127a3565b6001811115611a2257611a226127a3565b81526020019081526020016000206000828254611a3f9190612abb565b909155505060408051868152602081018690529081018490526001600160a01b0387169033907f215abfcd108b85fbee47f26fda2de66f90f14fa5fcaf0201698ad8ac9323545f90606001610d47565b6000818152600160209081526040808320600901805482518185028101850190935280835284938493929190830182828015611aea57602002820191906000526020600020905b815481526020019060010190808311611ad6575b5050505050905060005b8151811161103b57611b12858383815181106111e7576111e761298b565b611b1c9084612a8a565b925080611b2881612aa2565b915050611af4565b600082815260016020908152604080832033808552600690910183528184206001600160a01b03881680865290845293829020805460ff1916861515908117909155825187815293840152917f7feddb10c78cb7459761ddedb768e432ac1b9910fbbbd46f800337d7f557cebf910160405180910390a3505050565b611bb68282611269565b610a5557611bce816001600160a01b03166014612074565b611bd9836020612074565b604051602001611bea929190612ad2565b60408051601f198184030181529082905262461bcd60e51b825261096e91600401612470565b611c1a8282611269565b610a55576000828152602081815260408083206001600160a01b03851684529091529020805460ff19166001179055611c503390565b6001600160a01b0316816001600160a01b0316837f2f8788117e7eff1d82e926ec794901d17c78024a50270940304540a733656f0d60405160405180910390a45050565b611c9e8282611269565b15610a55576000828152602081815260408083206001600160a01b0385168085529252808320805460ff1916905551339285917ff6391f5c32d9c69d2a47ea670b442974b53935d1edc7fd64eb21e047a839171b9190a45050565b6000838152600160209081526040808320858452600a0182528083206001600160a01b038816845260090190915281208054839290611d39908490612a8a565b90915550506000838152600160209081526040808320858452600a0190915281206002018054839290611d6d908490612a8a565b909155505050505050565b6001600160a01b038516611de45760405162461bcd60e51b815260206004820152602d60248201527f455243333437353a2063616e2774207472616e736665722066726f6d2074686560448201526c207a65726f206164647265737360981b606482015260840161096e565b6001600160a01b038416611e0a5760405162461bcd60e51b815260040161096e90612a29565b6000838152600160209081526040808320858452600a0182528083206001600160a01b0389168452600901909152902054811115611e965760405162461bcd60e51b8152602060048201526024808201527f455243333437353a206e6f7420656e6f75676820626f6e6420746f207472616e60448201526339b332b960e11b606482015260840161096e565b611ea38585858585612210565b5050505050565b6000838152600160209081526040808320858452600a0182528083206001600160a01b0388168452600901909152902054811115611ee757600080fd5b6000838152600160209081526040808320858452600a0182528083206001600160a01b038816845260090190915281208054839290611f27908490612abb565b90915550506000838152600160209081526040808320858452600a0190915281206002018054839290611f5b908490612abb565b90915550506000838152600160209081526040808320858452600a0190915281206003018054839290611d6d908490612a8a565b6000838152600160209081526040808320858452600a0182528083206001600160a01b0388168452600901909152902054811115611fcc57600080fd5b6000838152600160209081526040808320858452600a0182528083206001600160a01b03881684526009019091528120805483929061200c908490612abb565b90915550506000838152600160209081526040808320858452600a0190915281206002018054839290612040908490612abb565b90915550506000838152600160209081526040808320858452600a0190915281206004018054839290611d6d908490612a8a565b60606000612083836002612b47565b61208e906002612a8a565b67ffffffffffffffff8111156120a6576120a661266d565b6040519080825280601f01601f1916602001820160405280156120d0576020820181803683370190505b509050600360fc1b816000815181106120eb576120eb61298b565b60200101906001600160f81b031916908160001a905350600f60fb1b8160018151811061211a5761211a61298b565b60200101906001600160f81b031916908160001a905350600061213e846002612b47565b612149906001612a8a565b90505b60018111156121c1576f181899199a1a9b1b9c1cb0b131b232b360811b85600f166010811061217d5761217d61298b565b1a60f81b8282815181106121935761219361298b565b60200101906001600160f81b031916908160001a90535060049490941c936121ba81612b66565b905061214c565b5083156114405760405162461bcd60e51b815260206004820181905260248201527f537472696e67733a20686578206c656e67746820696e73756666696369656e74604482015260640161096e565b836001600160a01b0316856001600160a01b0316036122855760405162461bcd60e51b815260206004820152602b60248201527f455243333437353a2063616e2774207472616e7366657220746f20746865207360448201526a616d65206164647265737360a81b606482015260840161096e565b6000838152600160209081526040808320858452600a0182528083206001600160a01b0389168452600901909152812080548392906122c5908490612abb565b90915550506000838152600160209081526040808320858452600a0182528083206001600160a01b03881684526009019091528120805483929061230a908490612a8a565b90915550505050505050565b828054612322906129a1565b90600052602060002090601f016020900481019282612344576000855561238a565b82601f1061235d57805160ff191683800117855561238a565b8280016001018555821561238a579182015b8281111561238a57825182559160200191906001019061236f565b5061239692915061239a565b5090565b5b80821115612396576000815560010161239b565b600080604083850312156123c257600080fd5b50508035926020909101359150565b6000602082840312156123e357600080fd5b81356001600160e01b03198116811461144057600080fd5b60006020828403121561240d57600080fd5b5035919050565b60005b8381101561242f578181015183820152602001612417565b8381111561243e576000848401525b50505050565b6000815180845261245c816020860160208601612414565b601f01601f19169290920160200192915050565b6020815260006114406020830184612444565b6020808252825182820181905260009190848201906040850190845b818110156124bb5783518352928401929184019160010161249f565b50909695505050505050565b80356001600160a01b03811681146124de57600080fd5b919050565b8035600281106124de57600080fd5b6000806040838503121561250557600080fd5b61250e836124c7565b915061251c602084016124e3565b90509250929050565b60008060006060848603121561253a57600080fd5b612543846124c7565b95602085013595506040909401359392505050565b6000806040838503121561256b57600080fd5b8235915061251c602084016124c7565b6000806040838503121561258e57600080fd5b612597836124c7565b946020939093013593505050565b600080600080608085870312156125bb57600080fd5b6125c4856124c7565b93506125d2602086016124c7565b93969395505050506040820135916060013590565b600080600080608085870312156125fd57600080fd5b612606856124c7565b966020860135965060408601359560600135945092505050565b600080600080600060a0868803121561263857600080fd5b612641866124c7565b945061264f602087016124c7565b94979496505050506040830135926060810135926080909101359150565b634e487b7160e01b600052604160045260246000fd5b600080600080600060a0868803121561269b57600080fd5b85359450602086013567ffffffffffffffff808211156126ba57600080fd5b818801915088601f8301126126ce57600080fd5b8135818111156126e0576126e061266d565b604051601f8201601f19908116603f011681019083821181831017156127085761270861266d565b816040528281528b602084870101111561272157600080fd5b826020860160208301376000602084830101528098505050505050612748604087016124e3565b9250612756606087016124c7565b949793965091946080013592915050565b60008060006060848603121561277c57600080fd5b612785846124c7565b9250612793602085016124c7565b9150604084013590509250925092565b634e487b7160e01b600052602160045260246000fd5b60c0815260006127cc60c0830189612444565b9050600287106127ec57634e487b7160e01b600052602160045260246000fd5b60208201969096526001600160a01b039490941660408501526060840192909252608083015260a090910152919050565b60008083601f84011261282f57600080fd5b50813567ffffffffffffffff81111561284757600080fd5b6020830191508360208260051b850101111561286257600080fd5b9250929050565b60008060008060008060006080888a03121561288457600080fd5b61288d886124c7565b9650602088013567ffffffffffffffff808211156128aa57600080fd5b6128b68b838c0161281d565b909850965060408a01359150808211156128cf57600080fd5b6128db8b838c0161281d565b909650945060608a01359150808211156128f457600080fd5b506129018a828b0161281d565b989b979a50959850939692959293505050565b6000806000806080858703121561292a57600080fd5b5050823594602084013594506040840135936060013592509050565b60008060006060848603121561295b57600080fd5b612964846124c7565b9250602084013591506040840135801515811461298057600080fd5b809150509250925092565b634e487b7160e01b600052603260045260246000fd5b600181811c908216806129b557607f821691505b6020821081036129d557634e487b7160e01b600052602260045260246000fd5b50919050565b6020808252602e908201527f455243333437353a206f6e6c7920697373756520626f6e64207468617420686160408201526d1cc81899595b8818dc99585d195960921b606082015260800190565b6020808252602b908201527f455243333437353a2063616e2774207472616e7366657220746f20746865207a60408201526a65726f206164647265737360a81b606082015260800190565b634e487b7160e01b600052601160045260246000fd5b60008219821115612a9d57612a9d612a74565b500190565b600060018201612ab457612ab4612a74565b5060010190565b600082821015612acd57612acd612a74565b500390565b7f416363657373436f6e74726f6c3a206163636f756e7420000000000000000000815260008351612b0a816017850160208801612414565b7001034b99036b4b9b9b4b733903937b6329607d1b6017918401918201528351612b3b816028840160208801612414565b01602801949350505050565b6000816000190483118215151615612b6157612b61612a74565b500290565b600081612b7557612b75612a74565b50600019019056fe114e74f6ea3bd819998f78687bfcb11b140da08e9b7d222fa9c1f1ba1f2aa122a2646970667358221220aaa835cc8adcc82f4705d2ff1ce848f36d066ab9db9526b0fa38f5aba53ad0ce64736f6c634300080d0033",
  "devdoc": {
    "kind": "dev",
    "methods": {
      "activeSupply(uint256,uint256)": {
        "details": "Returns the active supply of the bond in question"
      },
      "approve(address,uint256,uint256,uint256)": {
        "details": "Allows spender to withdraw from your account multiple times, up to the amount.",
        "params": {
          "amount": "is the amount of the bond that the spender is approved for.",
          "classId": "is the classId nonce of bond, the first bond class created will be 0, and so on.",
          "nonceId": "is the nonceId of the given bond class. This param is for distinctions of the issuing conditions of the bond.",
          "spender": "is the address the caller approve for his bonds"
        }
      },
      "balanceOf(address,uint256,uint256)": {
        "details": "Returns the balance of the giving bond classId and bond nonce"
      },
      "batchApprove(address,uint256[],uint256[],uint256[])": {
        "details": "Allows spender to withdraw bonds from your account multiple times, up to the amount.",
        "params": {
          "amounts": "is the list of amounts of the bond that the spender is approved for.",
          "classIds": "is the list of classIds of bond.",
          "nonceIds": "is the list of nonceIds of the given bond class.",
          "spender": "is the address the caller approve for his bonds."
        }
      },
      "burn(address,uint256,uint256,uint256)": {
        "details": "allows the transfer of any number of bond types from an address to another. The calling of this function needs to be restricted to bond issuer contract.",
        "params": {
          "amount": "is the amount of the bond, that will be transferred from \"_from\"address to \"_to\" address.",
          "classId": "is the class nonce of bond, the first bond class created will be 0, and so on.",
          "from": "argument is the address of the holder whose balance about to decrees.",
          "nonceId": "is the nonce of the given bond class. This param is for distinctions of the issuing conditions of the bond."
        }
      },
      "burnedSupply(uint256,uint256)": {
        "details": "Returns the burned supply of the bond in question"
      },
      "classInfoDescription(uint256)": {
        "details": "Returns the information description for a given class info"
      },
      "classInfos(uint256)": {
        "details": "Returns the informations for the class of given classId"
      },
      "getRoleAdmin(bytes32)": {
        "details": "Returns the admin role that controls `role`. See {grantRole} and {revokeRole}. To change a role's admin, use {_setRoleAdmin}."
      },
      "grantRole(bytes32,address)": {
        "details": "Grants `role` to `account`. If `account` had not been already granted `role`, emits a {RoleGranted} event. Requirements: - the caller must have ``role``'s admin role."
      },
      "hasRole(bytes32,address)": {
        "details": "Returns `true` if `account` has been granted `role`."
      },
      "isApprovedFor(address,address,uint256)": {
        "returns": {
          "_0": "True if the operator is approved, false if not"
        }
      },
      "isRedeemable(uint256,uint256)": {
        "details": "allows anyone to check if a bond is redeemable."
      },
      "issue(address,uint256,uint256,uint256)": {
        "details": "allows issuing any number of bond types to an address. The calling of this function needs to be restricted to bond issuer contract.",
        "params": {
          "amount": "is the amount of the bond, that \"to\" address will receive.",
          "classId": "is the classId of the bond, the first bond class created will be 0, and so on.",
          "nonceId": "is the nonceId of the given bond class. This param is for distinctions of the issuing conditions of the bond.",
          "to": "is the address to which the bond will be issued."
        }
      },
      "nonceInfoDescription(uint256)": {
        "details": "Returns the information description for a given nonce info"
      },
      "nonceInfos(uint256,uint256)": {
        "details": "Returns the informations for the nonce of given classId and nonceId"
      },
      "redeem(address,uint256,uint256,uint256)": {
        "details": "allows redemption of any number of bond types from an address. The calling of this function needs to be restricted to bond issuer contract.",
        "params": {
          "amount": "is the amount of the bond, that \"from\" address will redeem.",
          "classId": "is the class nonce of bond, the first bond class created will be 0, and so on.",
          "from": "is the address from which the bond will be redeemed.",
          "nonceId": "is the nonce of the given bond class. This param is for distinctions of the issuing conditions of the bond."
        }
      },
      "redeemedSupply(uint256,uint256)": {
        "details": "Returns the redeemed supply of the bond in question"
      },
      "renounceRole(bytes32,address)": {
        "details": "Revokes `role` from the calling account. Roles are often managed via {grantRole} and {revokeRole}: this function's purpose is to provide a mechanism for accounts to lose their privileges if they are compromised (such as when a trusted device is misplaced). If the calling account had been revoked `role`, emits a {RoleRevoked} event. Requirements: - the caller must be `account`."
      },
      "revokeRole(bytes32,address)": {
        "details": "Revokes `role` from `account`. If `account` had been granted `role`, emits a {RoleRevoked} event. Requirements: - the caller must have ``role``'s admin role."
      },
      "setApprovalFor(address,uint256,bool)": {
        "details": "MUST emit the ApprovalForAll event on success.",
        "params": {
          "approved": "True if the operator is approved, false to revoke approval",
          "classId": "is the classId nonce of bond, the first bond class created will be 0, and so on.",
          "operator": "Address to add to the set of authorized operators"
        }
      },
      "supportsInterface(bytes4)": {
        "details": "See {IERC165-supportsInterface}."
      },
      "symbol(uint256)": {
        "details": "Returns the symbol of the giving bond classId"
      },
      "totalSupply(uint256,uint256)": {
        "details": "Returns the total supply of the bond in question"
      },
      "transferFrom(address,address,uint256,uint256,uint256)": {
        "details": "allows the transfer of a bond type from an address to another.",
        "params": {
          "amount": "is the amount of the bond, that will be transferred from \"_from\" address to \"_to\" address.",
          "classId": "is the classId of bond, the first bond class created will be 0, and so on.",
          "from": "argument is the address of the holder whose balance about to decrees.",
          "nonceId": "is the nonceId of the given bond class. This param is for distinctions of the issuing conditions of the bond.",
          "to": "argument is the address of the recipient whose balance is about to increased."
        }
      }
    },
    "version": 1
  },
  "userdoc": {
    "events": {
      "Burn(address,address,uint256,uint256,uint256)": {
        "notice": "MUST trigger when tokens are burned"
      },
      "Issue(address,address,uint256,uint256,uint256)": {
        "notice": "MUST trigger when tokens are issued"
      },
      "Redeem(address,address,uint256,uint256,uint256)": {
        "notice": "MUST trigger when tokens are redeemed"
      },
      "Transfer(address,address,address,uint256,uint256,uint256)": {
        "notice": "MUST trigger when tokens are transferred, including zero value transfers."
      }
    },
    "kind": "user",
    "methods": {
      "allowance(address,address,uint256,uint256)": {
        "notice": "Returns the amount which spender is still allowed to withdraw from owner."
      },
      "approve(address,uint256,uint256,uint256)": {
        "notice": "If this function is called again it overwrites the current allowance with amount."
      },
      "batchApprove(address,uint256[],uint256[],uint256[])": {
        "notice": "If this function is called again it overwrites the current allowance with amount."
      },
      "classInfoDescription(uint256)": {
        "notice": "Every bond contract can have their own list of class informations"
      },
      "classInfos(uint256)": {
        "notice": "Every bond contract can have their own list of class informations"
      },
      "isApprovedFor(address,address,uint256)": {
        "notice": "Queries the approval status of an operator for a given owner."
      },
      "isRedeemable(uint256,uint256)": {
        "notice": "the conditions of redemption can be specified with one or several internal functions."
      },
      "nonceInfoDescription(uint256)": {
        "notice": "Every bond contract can have their own list of nonce informations"
      },
      "nonceInfos(uint256,uint256)": {
        "notice": "Every bond contract can have their own list. But the first uint256 in the list MUST be the UTC time code of the issuing time."
      },
      "setApprovalFor(address,uint256,bool)": {
        "notice": "Enable or disable approval for a third party (\"operator\") to manage all of the caller's tokens."
      }
    },
    "version": 1
  },
  "storageLayout": {
    "storage": [
      {
        "astId": 24,
        "contract": "contracts/Debond-v0/contracts/DebondBond.sol:DebondBond",
        "label": "_roles",
        "offset": 0,
        "slot": "0",
        "type": "t_mapping(t_bytes32,t_struct(RoleData)19_storage)"
      },
      {
        "astId": 5382,
        "contract": "contracts/Debond-v0/contracts/DebondBond.sol:DebondBond",
        "label": "classes",
        "offset": 0,
        "slot": "1",
        "type": "t_mapping(t_uint256,t_struct(Class)5377_storage)"
      },
      {
        "astId": 5385,
        "contract": "contracts/Debond-v0/contracts/DebondBond.sol:DebondBond",
        "label": "classInfoDescriptions",
        "offset": 0,
        "slot": "2",
        "type": "t_array(t_string_storage)dyn_storage"
      },
      {
        "astId": 5388,
        "contract": "contracts/Debond-v0/contracts/DebondBond.sol:DebondBond",
        "label": "nonceInfoDescriptions",
        "offset": 0,
        "slot": "3",
        "type": "t_array(t_string_storage)dyn_storage"
      },
      {
        "astId": 5394,
        "contract": "contracts/Debond-v0/contracts/DebondBond.sol:DebondBond",
        "label": "classesPerAddress",
        "offset": 0,
        "slot": "4",
        "type": "t_mapping(t_address,t_mapping(t_uint256,t_bool))"
      },
      {
        "astId": 5399,
        "contract": "contracts/Debond-v0/contracts/DebondBond.sol:DebondBond",
        "label": "classesPerAddressArray",
        "offset": 0,
        "slot": "5",
        "type": "t_mapping(t_address,t_array(t_uint256)dyn_storage)"
      },
      {
        "astId": 5406,
        "contract": "contracts/Debond-v0/contracts/DebondBond.sol:DebondBond",
        "label": "bondsDue",
        "offset": 0,
        "slot": "6",
        "type": "t_mapping(t_address,t_mapping(t_enum(InterestRateType)10000,t_uint256))"
      },
      {
        "astId": 5408,
        "contract": "contracts/Debond-v0/contracts/DebondBond.sol:DebondBond",
        "label": "_isActive",
        "offset": 0,
        "slot": "7",
        "type": "t_bool"
      }
    ],
    "types": {
      "t_address": {
        "encoding": "inplace",
        "label": "address",
        "numberOfBytes": "20"
      },
      "t_array(t_string_storage)dyn_storage": {
        "base": "t_string_storage",
        "encoding": "dynamic_array",
        "label": "string[]",
        "numberOfBytes": "32"
      },
      "t_array(t_uint256)dyn_storage": {
        "base": "t_uint256",
        "encoding": "dynamic_array",
        "label": "uint256[]",
        "numberOfBytes": "32"
      },
      "t_bool": {
        "encoding": "inplace",
        "label": "bool",
        "numberOfBytes": "1"
      },
      "t_bytes32": {
        "encoding": "inplace",
        "label": "bytes32",
        "numberOfBytes": "32"
      },
      "t_enum(InterestRateType)10000": {
        "encoding": "inplace",
        "label": "enum IData.InterestRateType",
        "numberOfBytes": "1"
      },
      "t_mapping(t_address,t_array(t_uint256)dyn_storage)": {
        "encoding": "mapping",
        "key": "t_address",
        "label": "mapping(address => uint256[])",
        "numberOfBytes": "32",
        "value": "t_array(t_uint256)dyn_storage"
      },
      "t_mapping(t_address,t_bool)": {
        "encoding": "mapping",
        "key": "t_address",
        "label": "mapping(address => bool)",
        "numberOfBytes": "32",
        "value": "t_bool"
      },
      "t_mapping(t_address,t_mapping(t_address,t_bool))": {
        "encoding": "mapping",
        "key": "t_address",
        "label": "mapping(address => mapping(address => bool))",
        "numberOfBytes": "32",
        "value": "t_mapping(t_address,t_bool)"
      },
      "t_mapping(t_address,t_mapping(t_address,t_uint256))": {
        "encoding": "mapping",
        "key": "t_address",
        "label": "mapping(address => mapping(address => uint256))",
        "numberOfBytes": "32",
        "value": "t_mapping(t_address,t_uint256)"
      },
      "t_mapping(t_address,t_mapping(t_enum(InterestRateType)10000,t_uint256))": {
        "encoding": "mapping",
        "key": "t_address",
        "label": "mapping(address => mapping(enum IData.InterestRateType => uint256))",
        "numberOfBytes": "32",
        "value": "t_mapping(t_enum(InterestRateType)10000,t_uint256)"
      },
      "t_mapping(t_address,t_mapping(t_uint256,t_bool))": {
        "encoding": "mapping",
        "key": "t_address",
        "label": "mapping(address => mapping(uint256 => bool))",
        "numberOfBytes": "32",
        "value": "t_mapping(t_uint256,t_bool)"
      },
      "t_mapping(t_address,t_uint256)": {
        "encoding": "mapping",
        "key": "t_address",
        "label": "mapping(address => uint256)",
        "numberOfBytes": "32",
        "value": "t_uint256"
      },
      "t_mapping(t_bytes32,t_struct(RoleData)19_storage)": {
        "encoding": "mapping",
        "key": "t_bytes32",
        "label": "mapping(bytes32 => struct AccessControl.RoleData)",
        "numberOfBytes": "32",
        "value": "t_struct(RoleData)19_storage"
      },
      "t_mapping(t_enum(InterestRateType)10000,t_uint256)": {
        "encoding": "mapping",
        "key": "t_enum(InterestRateType)10000",
        "label": "mapping(enum IData.InterestRateType => uint256)",
        "numberOfBytes": "32",
        "value": "t_uint256"
      },
      "t_mapping(t_uint256,t_bool)": {
        "encoding": "mapping",
        "key": "t_uint256",
        "label": "mapping(uint256 => bool)",
        "numberOfBytes": "32",
        "value": "t_bool"
      },
      "t_mapping(t_uint256,t_struct(Class)5377_storage)": {
        "encoding": "mapping",
        "key": "t_uint256",
        "label": "mapping(uint256 => struct DebondBond.Class)",
        "numberOfBytes": "32",
        "value": "t_struct(Class)5377_storage"
      },
      "t_mapping(t_uint256,t_struct(Nonce)5335_storage)": {
        "encoding": "mapping",
        "key": "t_uint256",
        "label": "mapping(uint256 => struct DebondBond.Nonce)",
        "numberOfBytes": "32",
        "value": "t_struct(Nonce)5335_storage"
      },
      "t_string_storage": {
        "encoding": "bytes",
        "label": "string",
        "numberOfBytes": "32"
      },
      "t_struct(Class)5377_storage": {
        "encoding": "inplace",
        "label": "struct DebondBond.Class",
        "members": [
          {
            "astId": 5337,
            "contract": "contracts/Debond-v0/contracts/DebondBond.sol:DebondBond",
            "label": "id",
            "offset": 0,
            "slot": "0",
            "type": "t_uint256"
          },
          {
            "astId": 5339,
            "contract": "contracts/Debond-v0/contracts/DebondBond.sol:DebondBond",
            "label": "exists",
            "offset": 0,
            "slot": "1",
            "type": "t_bool"
          },
          {
            "astId": 5341,
            "contract": "contracts/Debond-v0/contracts/DebondBond.sol:DebondBond",
            "label": "symbol",
            "offset": 0,
            "slot": "2",
            "type": "t_string_storage"
          },
          {
            "astId": 5344,
            "contract": "contracts/Debond-v0/contracts/DebondBond.sol:DebondBond",
            "label": "infos",
            "offset": 0,
            "slot": "3",
            "type": "t_array(t_uint256)dyn_storage"
          },
          {
            "astId": 5347,
            "contract": "contracts/Debond-v0/contracts/DebondBond.sol:DebondBond",
            "label": "interestRateType",
            "offset": 0,
            "slot": "4",
            "type": "t_enum(InterestRateType)10000"
          },
          {
            "astId": 5349,
            "contract": "contracts/Debond-v0/contracts/DebondBond.sol:DebondBond",
            "label": "tokenAddress",
            "offset": 1,
            "slot": "4",
            "type": "t_address"
          },
          {
            "astId": 5351,
            "contract": "contracts/Debond-v0/contracts/DebondBond.sol:DebondBond",
            "label": "periodTimestamp",
            "offset": 0,
            "slot": "5",
            "type": "t_uint256"
          },
          {
            "astId": 5357,
            "contract": "contracts/Debond-v0/contracts/DebondBond.sol:DebondBond",
            "label": "operatorApprovals",
            "offset": 0,
            "slot": "6",
            "type": "t_mapping(t_address,t_mapping(t_address,t_bool))"
          },
          {
            "astId": 5363,
            "contract": "contracts/Debond-v0/contracts/DebondBond.sol:DebondBond",
            "label": "noncesPerAddress",
            "offset": 0,
            "slot": "7",
            "type": "t_mapping(t_address,t_mapping(t_uint256,t_bool))"
          },
          {
            "astId": 5368,
            "contract": "contracts/Debond-v0/contracts/DebondBond.sol:DebondBond",
            "label": "noncesPerAddressArray",
            "offset": 0,
            "slot": "8",
            "type": "t_mapping(t_address,t_array(t_uint256)dyn_storage)"
          },
          {
            "astId": 5371,
            "contract": "contracts/Debond-v0/contracts/DebondBond.sol:DebondBond",
            "label": "nonceIds",
            "offset": 0,
            "slot": "9",
            "type": "t_array(t_uint256)dyn_storage"
          },
          {
            "astId": 5376,
            "contract": "contracts/Debond-v0/contracts/DebondBond.sol:DebondBond",
            "label": "nonces",
            "offset": 0,
            "slot": "10",
            "type": "t_mapping(t_uint256,t_struct(Nonce)5335_storage)"
          }
        ],
        "numberOfBytes": "352"
      },
      "t_struct(Nonce)5335_storage": {
        "encoding": "inplace",
        "label": "struct DebondBond.Nonce",
        "members": [
          {
            "astId": 5303,
            "contract": "contracts/Debond-v0/contracts/DebondBond.sol:DebondBond",
            "label": "id",
            "offset": 0,
            "slot": "0",
            "type": "t_uint256"
          },
          {
            "astId": 5305,
            "contract": "contracts/Debond-v0/contracts/DebondBond.sol:DebondBond",
            "label": "exists",
            "offset": 0,
            "slot": "1",
            "type": "t_bool"
          },
          {
            "astId": 5307,
            "contract": "contracts/Debond-v0/contracts/DebondBond.sol:DebondBond",
            "label": "_activeSupply",
            "offset": 0,
            "slot": "2",
            "type": "t_uint256"
          },
          {
            "astId": 5309,
            "contract": "contracts/Debond-v0/contracts/DebondBond.sol:DebondBond",
            "label": "_burnedSupply",
            "offset": 0,
            "slot": "3",
            "type": "t_uint256"
          },
          {
            "astId": 5311,
            "contract": "contracts/Debond-v0/contracts/DebondBond.sol:DebondBond",
            "label": "_redeemedSupply",
            "offset": 0,
            "slot": "4",
            "type": "t_uint256"
          },
          {
            "astId": 5313,
            "contract": "contracts/Debond-v0/contracts/DebondBond.sol:DebondBond",
            "label": "maturityDate",
            "offset": 0,
            "slot": "5",
            "type": "t_uint256"
          },
          {
            "astId": 5315,
            "contract": "contracts/Debond-v0/contracts/DebondBond.sol:DebondBond",
            "label": "issuanceDate",
            "offset": 0,
            "slot": "6",
            "type": "t_uint256"
          },
          {
            "astId": 5317,
            "contract": "contracts/Debond-v0/contracts/DebondBond.sol:DebondBond",
            "label": "liqT",
            "offset": 0,
            "slot": "7",
            "type": "t_uint256"
          },
          {
            "astId": 5320,
            "contract": "contracts/Debond-v0/contracts/DebondBond.sol:DebondBond",
            "label": "infos",
            "offset": 0,
            "slot": "8",
            "type": "t_array(t_uint256)dyn_storage"
          },
          {
            "astId": 5324,
            "contract": "contracts/Debond-v0/contracts/DebondBond.sol:DebondBond",
            "label": "balances",
            "offset": 0,
            "slot": "9",
            "type": "t_mapping(t_address,t_uint256)"
          },
          {
            "astId": 5330,
            "contract": "contracts/Debond-v0/contracts/DebondBond.sol:DebondBond",
            "label": "allowances",
            "offset": 0,
            "slot": "10",
            "type": "t_mapping(t_address,t_mapping(t_address,t_uint256))"
          },
          {
            "astId": 5334,
            "contract": "contracts/Debond-v0/contracts/DebondBond.sol:DebondBond",
            "label": "hasBalance",
            "offset": 0,
            "slot": "11",
            "type": "t_mapping(t_address,t_bool)"
          }
        ],
        "numberOfBytes": "384"
      },
      "t_struct(RoleData)19_storage": {
        "encoding": "inplace",
        "label": "struct AccessControl.RoleData",
        "members": [
          {
            "astId": 16,
            "contract": "contracts/Debond-v0/contracts/DebondBond.sol:DebondBond",
            "label": "members",
            "offset": 0,
            "slot": "0",
            "type": "t_mapping(t_address,t_bool)"
          },
          {
            "astId": 18,
            "contract": "contracts/Debond-v0/contracts/DebondBond.sol:DebondBond",
            "label": "adminRole",
            "offset": 0,
            "slot": "1",
            "type": "t_bytes32"
          }
        ],
        "numberOfBytes": "64"
      },
      "t_uint256": {
        "encoding": "inplace",
        "label": "uint256",
        "numberOfBytes": "32"
      }
    }
  }
}