{
  "address": "0x0d009A349Ca8f6776E6d22514e8293574156B401",
  "abi": [
    {
      "inputs": [
        {
          "internalType": "address",
          "name": "DBIT",
          "type": "address"
        },
        {
          "internalType": "address",
          "name": "USDC",
          "type": "address"
        },
        {
          "internalType": "address",
          "name": "USDT",
          "type": "address"
        },
        {
          "internalType": "address",
          "name": "DAI",
          "type": "address"
        }
      ],
      "stateMutability": "nonpayable",
      "type": "constructor"
    },
    {
      "anonymous": false,
      "inputs": [
        {
          "indexed": true,
          "internalType": "address",
          "name": "_owner",
          "type": "address"
        },
        {
          "indexed": true,
          "internalType": "address",
          "name": "_operator",
          "type": "address"
        },
        {
          "indexed": false,
          "internalType": "uint256",
          "name": "classId",
          "type": "uint256"
        },
        {
          "indexed": false,
          "internalType": "bool",
          "name": "_approved",
          "type": "bool"
        }
      ],
      "name": "ApprovalFor",
      "type": "event"
    },
    {
      "anonymous": false,
      "inputs": [
        {
          "indexed": true,
          "internalType": "address",
          "name": "_operator",
          "type": "address"
        },
        {
          "indexed": true,
          "internalType": "address",
          "name": "_from",
          "type": "address"
        },
        {
          "indexed": false,
          "internalType": "uint256",
          "name": "classId",
          "type": "uint256"
        },
        {
          "indexed": false,
          "internalType": "uint256",
          "name": "nonceId",
          "type": "uint256"
        },
        {
          "indexed": false,
          "internalType": "uint256",
          "name": "amount",
          "type": "uint256"
        }
      ],
      "name": "Burn",
      "type": "event"
    },
    {
      "anonymous": false,
      "inputs": [
        {
          "indexed": true,
          "internalType": "address",
          "name": "_operator",
          "type": "address"
        },
        {
          "indexed": true,
          "internalType": "address",
          "name": "_to",
          "type": "address"
        },
        {
          "indexed": false,
          "internalType": "uint256",
          "name": "classId",
          "type": "uint256"
        },
        {
          "indexed": false,
          "internalType": "uint256",
          "name": "nonceId",
          "type": "uint256"
        },
        {
          "indexed": false,
          "internalType": "uint256",
          "name": "amount",
          "type": "uint256"
        }
      ],
      "name": "Issue",
      "type": "event"
    },
    {
      "anonymous": false,
      "inputs": [
        {
          "indexed": true,
          "internalType": "address",
          "name": "_operator",
          "type": "address"
        },
        {
          "indexed": true,
          "internalType": "address",
          "name": "_from",
          "type": "address"
        },
        {
          "indexed": false,
          "internalType": "uint256",
          "name": "classId",
          "type": "uint256"
        },
        {
          "indexed": false,
          "internalType": "uint256",
          "name": "nonceId",
          "type": "uint256"
        },
        {
          "indexed": false,
          "internalType": "uint256",
          "name": "amount",
          "type": "uint256"
        }
      ],
      "name": "Redeem",
      "type": "event"
    },
    {
      "anonymous": false,
      "inputs": [
        {
          "indexed": true,
          "internalType": "bytes32",
          "name": "role",
          "type": "bytes32"
        },
        {
          "indexed": true,
          "internalType": "bytes32",
          "name": "previousAdminRole",
          "type": "bytes32"
        },
        {
          "indexed": true,
          "internalType": "bytes32",
          "name": "newAdminRole",
          "type": "bytes32"
        }
      ],
      "name": "RoleAdminChanged",
      "type": "event"
    },
    {
      "anonymous": false,
      "inputs": [
        {
          "indexed": true,
          "internalType": "bytes32",
          "name": "role",
          "type": "bytes32"
        },
        {
          "indexed": true,
          "internalType": "address",
          "name": "account",
          "type": "address"
        },
        {
          "indexed": true,
          "internalType": "address",
          "name": "sender",
          "type": "address"
        }
      ],
      "name": "RoleGranted",
      "type": "event"
    },
    {
      "anonymous": false,
      "inputs": [
        {
          "indexed": true,
          "internalType": "bytes32",
          "name": "role",
          "type": "bytes32"
        },
        {
          "indexed": true,
          "internalType": "address",
          "name": "account",
          "type": "address"
        },
        {
          "indexed": true,
          "internalType": "address",
          "name": "sender",
          "type": "address"
        }
      ],
      "name": "RoleRevoked",
      "type": "event"
    },
    {
      "anonymous": false,
      "inputs": [
        {
          "indexed": true,
          "internalType": "address",
          "name": "_operator",
          "type": "address"
        },
        {
          "indexed": true,
          "internalType": "address",
          "name": "_from",
          "type": "address"
        },
        {
          "indexed": true,
          "internalType": "address",
          "name": "_to",
          "type": "address"
        },
        {
          "indexed": false,
          "internalType": "uint256",
          "name": "classId",
          "type": "uint256"
        },
        {
          "indexed": false,
          "internalType": "uint256",
          "name": "nonceId",
          "type": "uint256"
        },
        {
          "indexed": false,
          "internalType": "uint256",
          "name": "amount",
          "type": "uint256"
        }
      ],
      "name": "Transfer",
      "type": "event"
    },
    {
      "inputs": [],
      "name": "DEFAULT_ADMIN_ROLE",
      "outputs": [
        {
          "internalType": "bytes32",
          "name": "",
          "type": "bytes32"
        }
      ],
      "stateMutability": "view",
      "type": "function"
    },
    {
      "inputs": [],
      "name": "ISSUER_ROLE",
      "outputs": [
        {
          "internalType": "bytes32",
          "name": "",
          "type": "bytes32"
        }
      ],
      "stateMutability": "view",
      "type": "function"
    },
    {
      "inputs": [],
      "name": "ONE_HOUR_PERIOD",
      "outputs": [
        {
          "internalType": "uint256",
          "name": "",
          "type": "uint256"
        }
      ],
      "stateMutability": "view",
      "type": "function"
    },
    {
      "inputs": [],
      "name": "TWO_DAYS_PERIOD",
      "outputs": [
        {
          "internalType": "uint256",
          "name": "",
          "type": "uint256"
        }
      ],
      "stateMutability": "view",
      "type": "function"
    },
    {
      "inputs": [],
      "name": "_isActive",
      "outputs": [
        {
          "internalType": "bool",
          "name": "",
          "type": "bool"
        }
      ],
      "stateMutability": "view",
      "type": "function"
    },
    {
      "inputs": [
        {
          "internalType": "uint256",
          "name": "classId",
          "type": "uint256"
        },
        {
          "internalType": "uint256",
          "name": "nonceId",
          "type": "uint256"
        }
      ],
      "name": "activeSupply",
      "outputs": [
        {
          "internalType": "uint256",
          "name": "",
          "type": "uint256"
        }
      ],
      "stateMutability": "view",
      "type": "function"
    },
    {
      "inputs": [
        {
          "internalType": "address",
          "name": "owner",
          "type": "address"
        },
        {
          "internalType": "address",
          "name": "spender",
          "type": "address"
        },
        {
          "internalType": "uint256",
          "name": "classId",
          "type": "uint256"
        },
        {
          "internalType": "uint256",
          "name": "nonceId",
          "type": "uint256"
        }
      ],
      "name": "allowance",
      "outputs": [
        {
          "internalType": "uint256",
          "name": "",
          "type": "uint256"
        }
      ],
      "stateMutability": "view",
      "type": "function"
    },
    {
      "inputs": [
        {
          "internalType": "address",
          "name": "spender",
          "type": "address"
        },
        {
          "internalType": "uint256",
          "name": "classId",
          "type": "uint256"
        },
        {
          "internalType": "uint256",
          "name": "nonceId",
          "type": "uint256"
        },
        {
          "internalType": "uint256",
          "name": "amount",
          "type": "uint256"
        }
      ],
      "name": "approve",
      "outputs": [],
      "stateMutability": "nonpayable",
      "type": "function"
    },
    {
      "inputs": [
        {
          "internalType": "address",
          "name": "account",
          "type": "address"
        },
        {
          "internalType": "uint256",
          "name": "classId",
          "type": "uint256"
        },
        {
          "internalType": "uint256",
          "name": "nonceId",
          "type": "uint256"
        }
      ],
      "name": "balanceOf",
      "outputs": [
        {
          "internalType": "uint256",
          "name": "",
          "type": "uint256"
        }
      ],
      "stateMutability": "view",
      "type": "function"
    },
    {
      "inputs": [
        {
          "internalType": "uint256",
          "name": "classId",
          "type": "uint256"
        }
      ],
      "name": "batchActiveSupply",
      "outputs": [
        {
          "internalType": "uint256",
          "name": "",
          "type": "uint256"
        }
      ],
      "stateMutability": "view",
      "type": "function"
    },
    {
      "inputs": [
        {
          "internalType": "address",
          "name": "spender",
          "type": "address"
        },
        {
          "internalType": "uint256[]",
          "name": "classIds",
          "type": "uint256[]"
        },
        {
          "internalType": "uint256[]",
          "name": "nonceIds",
          "type": "uint256[]"
        },
        {
          "internalType": "uint256[]",
          "name": "amounts",
          "type": "uint256[]"
        }
      ],
      "name": "batchApprove",
      "outputs": [],
      "stateMutability": "nonpayable",
      "type": "function"
    },
    {
      "inputs": [
        {
          "internalType": "uint256",
          "name": "classId",
          "type": "uint256"
        }
      ],
      "name": "batchBurnedSupply",
      "outputs": [
        {
          "internalType": "uint256",
          "name": "",
          "type": "uint256"
        }
      ],
      "stateMutability": "view",
      "type": "function"
    },
    {
      "inputs": [
        {
          "internalType": "uint256",
          "name": "classId",
          "type": "uint256"
        }
      ],
      "name": "batchRedeemedSupply",
      "outputs": [
        {
          "internalType": "uint256",
          "name": "",
          "type": "uint256"
        }
      ],
      "stateMutability": "view",
      "type": "function"
    },
    {
      "inputs": [
        {
          "internalType": "uint256",
          "name": "classId",
          "type": "uint256"
        }
      ],
      "name": "batchTotalSupply",
      "outputs": [
        {
          "internalType": "uint256",
          "name": "",
          "type": "uint256"
        }
      ],
      "stateMutability": "view",
      "type": "function"
    },
    {
      "inputs": [
        {
          "internalType": "uint256",
          "name": "classId",
          "type": "uint256"
        },
        {
          "internalType": "uint256",
          "name": "nonceId",
          "type": "uint256"
        }
      ],
      "name": "bondDetails",
      "outputs": [
        {
          "internalType": "string",
          "name": "_symbol",
          "type": "string"
        },
        {
          "internalType": "enum IData.InterestRateType",
          "name": "_interestRateType",
          "type": "uint8"
        },
        {
          "internalType": "address",
          "name": "_tokenAddress",
          "type": "address"
        },
        {
          "internalType": "uint256",
          "name": "_periodTimestamp",
          "type": "uint256"
        },
        {
          "internalType": "uint256",
          "name": "_issuanceDate",
          "type": "uint256"
        },
        {
          "internalType": "uint256",
          "name": "_maturityDate",
          "type": "uint256"
        }
      ],
      "stateMutability": "view",
      "type": "function"
    },
    {
      "inputs": [
        {
          "internalType": "address",
          "name": "from",
          "type": "address"
        },
        {
          "internalType": "uint256",
          "name": "classId",
          "type": "uint256"
        },
        {
          "internalType": "uint256",
          "name": "nonceId",
          "type": "uint256"
        },
        {
          "internalType": "uint256",
          "name": "amount",
          "type": "uint256"
        }
      ],
      "name": "burn",
      "outputs": [],
      "stateMutability": "nonpayable",
      "type": "function"
    },
    {
      "inputs": [
        {
          "internalType": "uint256",
          "name": "classId",
          "type": "uint256"
        },
        {
          "internalType": "uint256",
          "name": "nonceId",
          "type": "uint256"
        }
      ],
      "name": "burnedSupply",
      "outputs": [
        {
          "internalType": "uint256",
          "name": "",
          "type": "uint256"
        }
      ],
      "stateMutability": "view",
      "type": "function"
    },
    {
      "inputs": [
        {
          "internalType": "uint256",
          "name": "classId",
          "type": "uint256"
        }
      ],
      "name": "classExists",
      "outputs": [
        {
          "internalType": "bool",
          "name": "",
          "type": "bool"
        }
      ],
      "stateMutability": "view",
      "type": "function"
    },
    {
      "inputs": [
        {
          "internalType": "uint256",
          "name": "classInfo",
          "type": "uint256"
        }
      ],
      "name": "classInfoDescription",
      "outputs": [
        {
          "internalType": "string",
          "name": "",
          "type": "string"
        }
      ],
      "stateMutability": "view",
      "type": "function"
    },
    {
      "inputs": [
        {
          "internalType": "uint256",
          "name": "",
          "type": "uint256"
        }
      ],
      "name": "classInfoDescriptions",
      "outputs": [
        {
          "internalType": "string",
          "name": "",
          "type": "string"
        }
      ],
      "stateMutability": "view",
      "type": "function"
    },
    {
      "inputs": [
        {
          "internalType": "uint256",
          "name": "classId",
          "type": "uint256"
        }
      ],
      "name": "classInfos",
      "outputs": [
        {
          "internalType": "uint256[]",
          "name": "",
          "type": "uint256[]"
        }
      ],
      "stateMutability": "view",
      "type": "function"
    },
    {
      "inputs": [
        {
          "internalType": "address",
          "name": "",
          "type": "address"
        },
        {
          "internalType": "uint256",
          "name": "",
          "type": "uint256"
        }
      ],
      "name": "classesPerAddressArray",
      "outputs": [
        {
          "internalType": "uint256",
          "name": "",
          "type": "uint256"
        }
      ],
      "stateMutability": "view",
      "type": "function"
    },
    {
      "inputs": [
        {
          "internalType": "uint256",
          "name": "classId",
          "type": "uint256"
        },
        {
          "internalType": "string",
          "name": "_symbol",
          "type": "string"
        },
        {
          "internalType": "enum IData.InterestRateType",
          "name": "interestRateType",
          "type": "uint8"
        },
        {
          "internalType": "address",
          "name": "tokenAddress",
          "type": "address"
        },
        {
          "internalType": "uint256",
          "name": "periodTimestamp",
          "type": "uint256"
        }
      ],
      "name": "createClass",
      "outputs": [],
      "stateMutability": "nonpayable",
      "type": "function"
    },
    {
      "inputs": [
        {
          "internalType": "uint256",
          "name": "classId",
          "type": "uint256"
        },
        {
          "internalType": "uint256",
          "name": "nonceId",
          "type": "uint256"
        },
        {
          "internalType": "uint256",
          "name": "_maturityDate",
          "type": "uint256"
        },
        {
          "internalType": "uint256",
          "name": "liqT",
          "type": "uint256"
        }
      ],
      "name": "createNonce",
      "outputs": [],
      "stateMutability": "nonpayable",
      "type": "function"
    },
    {
      "inputs": [
        {
          "internalType": "uint256",
          "name": "classId",
          "type": "uint256"
        }
      ],
      "name": "getClassFromId",
      "outputs": [
        {
          "internalType": "string",
          "name": "symbol",
          "type": "string"
        },
        {
          "internalType": "enum IData.InterestRateType",
          "name": "interestRateType",
          "type": "uint8"
        },
        {
          "internalType": "address",
          "name": "tokenAddress",
          "type": "address"
        },
        {
          "internalType": "uint256",
          "name": "periodTimestamp",
          "type": "uint256"
        }
      ],
      "stateMutability": "view",
      "type": "function"
    },
    {
      "inputs": [
        {
          "internalType": "address",
          "name": "_address",
          "type": "address"
        }
      ],
      "name": "getClassesPerAddress",
      "outputs": [
        {
          "internalType": "uint256[]",
          "name": "_classes",
          "type": "uint256[]"
        }
      ],
      "stateMutability": "view",
      "type": "function"
    },
    {
      "inputs": [
        {
          "internalType": "address",
          "name": "addr",
          "type": "address"
        },
        {
          "internalType": "uint256",
          "name": "classId",
          "type": "uint256"
        }
      ],
      "name": "getNoncesPerAddress",
      "outputs": [
        {
          "internalType": "uint256[]",
          "name": "",
          "type": "uint256[]"
        }
      ],
      "stateMutability": "view",
      "type": "function"
    },
    {
      "inputs": [
        {
          "internalType": "bytes32",
          "name": "role",
          "type": "bytes32"
        }
      ],
      "name": "getRoleAdmin",
      "outputs": [
        {
          "internalType": "bytes32",
          "name": "",
          "type": "bytes32"
        }
      ],
      "stateMutability": "view",
      "type": "function"
    },
    {
      "inputs": [
        {
          "internalType": "bytes32",
          "name": "role",
          "type": "bytes32"
        },
        {
          "internalType": "address",
          "name": "account",
          "type": "address"
        }
      ],
      "name": "grantRole",
      "outputs": [],
      "stateMutability": "nonpayable",
      "type": "function"
    },
    {
      "inputs": [
        {
          "internalType": "bytes32",
          "name": "role",
          "type": "bytes32"
        },
        {
          "internalType": "address",
          "name": "account",
          "type": "address"
        }
      ],
      "name": "hasRole",
      "outputs": [
        {
          "internalType": "bool",
          "name": "",
          "type": "bool"
        }
      ],
      "stateMutability": "view",
      "type": "function"
    },
    {
      "inputs": [],
      "name": "isActive",
      "outputs": [
        {
          "internalType": "bool",
          "name": "",
          "type": "bool"
        }
      ],
      "stateMutability": "view",
      "type": "function"
    },
    {
      "inputs": [
        {
          "internalType": "address",
          "name": "owner",
          "type": "address"
        },
        {
          "internalType": "address",
          "name": "operator",
          "type": "address"
        },
        {
          "internalType": "uint256",
          "name": "classId",
          "type": "uint256"
        }
      ],
      "name": "isApprovedFor",
      "outputs": [
        {
          "internalType": "bool",
          "name": "",
          "type": "bool"
        }
      ],
      "stateMutability": "view",
      "type": "function"
    },
    {
      "inputs": [
        {
          "internalType": "uint256",
          "name": "classId",
          "type": "uint256"
        },
        {
          "internalType": "uint256",
          "name": "nonceId",
          "type": "uint256"
        }
      ],
      "name": "isRedeemable",
      "outputs": [
        {
          "internalType": "bool",
          "name": "",
          "type": "bool"
        }
      ],
      "stateMutability": "view",
      "type": "function"
    },
    {
      "inputs": [
        {
          "internalType": "address",
          "name": "to",
          "type": "address"
        },
        {
          "internalType": "uint256",
          "name": "classId",
          "type": "uint256"
        },
        {
          "internalType": "uint256",
          "name": "nonceId",
          "type": "uint256"
        },
        {
          "internalType": "uint256",
          "name": "amount",
          "type": "uint256"
        }
      ],
      "name": "issue",
      "outputs": [],
      "stateMutability": "nonpayable",
      "type": "function"
    },
    {
      "inputs": [
        {
          "internalType": "uint256",
          "name": "classId",
          "type": "uint256"
        },
        {
          "internalType": "uint256",
          "name": "nonceId",
          "type": "uint256"
        },
        {
          "internalType": "address",
          "name": "account",
          "type": "address"
        }
      ],
      "name": "nonceDetails",
      "outputs": [
        {
          "internalType": "string",
          "name": "_symbol",
          "type": "string"
        },
        {
          "internalType": "enum IData.InterestRateType",
          "name": "_interestRateType",
          "type": "uint8"
        },
        {
          "internalType": "address",
          "name": "_tokenAddress",
          "type": "address"
        },
        {
          "internalType": "uint256",
          "name": "_periodTimestamp",
          "type": "uint256"
        },
        {
          "internalType": "uint256",
          "name": "_issuanceDate",
          "type": "uint256"
        },
        {
          "internalType": "uint256",
          "name": "_maturityDate",
          "type": "uint256"
        },
        {
          "internalType": "uint256",
          "name": "_balance",
          "type": "uint256"
        }
      ],
      "stateMutability": "view",
      "type": "function"
    },
    {
      "inputs": [
        {
          "internalType": "uint256",
          "name": "classId",
          "type": "uint256"
        },
        {
          "internalType": "uint256",
          "name": "nonceId",
          "type": "uint256"
        }
      ],
      "name": "nonceExists",
      "outputs": [
        {
          "internalType": "bool",
          "name": "",
          "type": "bool"
        }
      ],
      "stateMutability": "view",
      "type": "function"
    },
    {
      "inputs": [
        {
          "internalType": "uint256",
          "name": "nonceInfo",
          "type": "uint256"
        }
      ],
      "name": "nonceInfoDescription",
      "outputs": [
        {
          "internalType": "string",
          "name": "",
          "type": "string"
        }
      ],
      "stateMutability": "view",
      "type": "function"
    },
    {
      "inputs": [
        {
          "internalType": "uint256",
          "name": "",
          "type": "uint256"
        }
      ],
      "name": "nonceInfoDescriptions",
      "outputs": [
        {
          "internalType": "string",
          "name": "",
          "type": "string"
        }
      ],
      "stateMutability": "view",
      "type": "function"
    },
    {
      "inputs": [
        {
          "internalType": "uint256",
          "name": "classId",
          "type": "uint256"
        },
        {
          "internalType": "uint256",
          "name": "nonceId",
          "type": "uint256"
        }
      ],
      "name": "nonceInfos",
      "outputs": [
        {
          "internalType": "uint256[]",
          "name": "",
          "type": "uint256[]"
        }
      ],
      "stateMutability": "view",
      "type": "function"
    },
    {
      "inputs": [
        {
          "internalType": "address",
          "name": "from",
          "type": "address"
        },
        {
          "internalType": "uint256",
          "name": "classId",
          "type": "uint256"
        },
        {
          "internalType": "uint256",
          "name": "nonceId",
          "type": "uint256"
        },
        {
          "internalType": "uint256",
          "name": "amount",
          "type": "uint256"
        }
      ],
      "name": "redeem",
      "outputs": [],
      "stateMutability": "nonpayable",
      "type": "function"
    },
    {
      "inputs": [
        {
          "internalType": "uint256",
          "name": "classId",
          "type": "uint256"
        },
        {
          "internalType": "uint256",
          "name": "nonceId",
          "type": "uint256"
        }
      ],
      "name": "redeemedSupply",
      "outputs": [
        {
          "internalType": "uint256",
          "name": "",
          "type": "uint256"
        }
      ],
      "stateMutability": "view",
      "type": "function"
    },
    {
      "inputs": [
        {
          "internalType": "bytes32",
          "name": "role",
          "type": "bytes32"
        },
        {
          "internalType": "address",
          "name": "account",
          "type": "address"
        }
      ],
      "name": "renounceRole",
      "outputs": [],
      "stateMutability": "nonpayable",
      "type": "function"
    },
    {
      "inputs": [
        {
          "internalType": "bytes32",
          "name": "role",
          "type": "bytes32"
        },
        {
          "internalType": "address",
          "name": "account",
          "type": "address"
        }
      ],
      "name": "revokeRole",
      "outputs": [],
      "stateMutability": "nonpayable",
      "type": "function"
    },
    {
      "inputs": [
        {
          "internalType": "address",
          "name": "operator",
          "type": "address"
        },
        {
          "internalType": "uint256",
          "name": "classId",
          "type": "uint256"
        },
        {
          "internalType": "bool",
          "name": "approved",
          "type": "bool"
        }
      ],
      "name": "setApprovalFor",
      "outputs": [],
      "stateMutability": "nonpayable",
      "type": "function"
    },
    {
      "inputs": [
        {
          "internalType": "bytes4",
          "name": "interfaceId",
          "type": "bytes4"
        }
      ],
      "name": "supportsInterface",
      "outputs": [
        {
          "internalType": "bool",
          "name": "",
          "type": "bool"
        }
      ],
      "stateMutability": "view",
      "type": "function"
    },
    {
      "inputs": [
        {
          "internalType": "uint256",
          "name": "classId",
          "type": "uint256"
        }
      ],
      "name": "symbol",
      "outputs": [
        {
          "internalType": "string",
          "name": "",
          "type": "string"
        }
      ],
      "stateMutability": "view",
      "type": "function"
    },
    {
      "inputs": [
        {
          "internalType": "uint256",
          "name": "classId",
          "type": "uint256"
        },
        {
          "internalType": "uint256",
          "name": "nonceId",
          "type": "uint256"
        }
      ],
      "name": "totalSupply",
      "outputs": [
        {
          "internalType": "uint256",
          "name": "",
          "type": "uint256"
        }
      ],
      "stateMutability": "view",
      "type": "function"
    },
    {
      "inputs": [
        {
          "internalType": "address",
          "name": "from",
          "type": "address"
        },
        {
          "internalType": "address",
          "name": "to",
          "type": "address"
        },
        {
          "internalType": "uint256",
          "name": "classId",
          "type": "uint256"
        },
        {
          "internalType": "uint256",
          "name": "nonceId",
          "type": "uint256"
        },
        {
          "internalType": "uint256",
          "name": "amount",
          "type": "uint256"
        }
      ],
      "name": "transferFrom",
      "outputs": [],
      "stateMutability": "nonpayable",
      "type": "function"
    }
  ],
  "transactionHash": "0x46224a3421b0f849a77468026fb889ffc6ac8fe94b182b68f5302b115fc62f77",
  "args": [
    "0xcD498a6CBce692F17D99aD9bA491668C7FfA7789",
    "0xDeE8a79eBD656E01F4e72A73DCf4F7674f38EC25",
    "0xDDAcc3c58920C6C6B52C4bDa0180e69B2c84011b",
    "0x7bD5e05dE774553494a0BAEeFfd04855653F07F1"
  ],
  "numDeployments": 6,
  "solcInputHash": "8b0276e4cc8e802b0e477cbb986f48f9",
  "bytecode": "0x60806040523480156200001157600080fd5b506040516200326538038062003265833981016040819052620000349162000416565b6006805460ff191660011790556200004e60003362000198565b62000083600060405180604001604052806005815260200164110bd0925560da1b815250600087603c6200023960201b60201c565b620000b76001604051806040016040528060048152602001635553444360e01b815250600086603c6200023960201b60201c565b620000eb6002604051806040016040528060048152602001631554d11560e21b815250600085603c6200023960201b60201c565b620001216005604051806040016040528060048152602001635553444360e01b8152506000866202a3006200023960201b60201c565b620001576006604051806040016040528060048152602001631554d11560e21b8152506000856202a3006200023960201b60201c565b6200018e600760405180604001604052806005815260200164110bd0925560da1b8152506000876202a3006200023960201b60201c565b50505050620004c5565b6000828152602081815260408083206001600160a01b038516845290915290205460ff1662000235576000828152602081815260408083206001600160a01b03851684529091529020805460ff19166001179055620001f43390565b6001600160a01b0316816001600160a01b0316837f2f8788117e7eff1d82e926ec794901d17c78024a50270940304540a733656f0d60405160405180910390a45b5050565b6000858152600160208190526040909120015460ff1615620002bc5760405162461bcd60e51b815260206004820152603260248201527f455243333437353a2063616e6e6f7420637265617465206120636c617373207460448201527168617420616c72656164792065786973747360701b606482015260840160405180910390fd5b6000858152600160208181526040909220878155808201805460ff191690921790915585519091620002f691600284019188019062000353565b5060048101805485919060ff1916600183818111156200031a576200031a62000473565b02179055506004810180546001600160a01b0390941661010002610100600160a81b031990941693909317909255600590910155505050565b828054620003619062000489565b90600052602060002090601f016020900481019282620003855760008555620003d0565b82601f10620003a057805160ff1916838001178555620003d0565b82800160010185558215620003d0579182015b82811115620003d0578251825591602001919060010190620003b3565b50620003de929150620003e2565b5090565b5b80821115620003de5760008155600101620003e3565b80516001600160a01b03811681146200041157600080fd5b919050565b600080600080608085870312156200042d57600080fd5b6200043885620003f9565b93506200044860208601620003f9565b92506200045860408601620003f9565b91506200046860608601620003f9565b905092959194509250565b634e487b7160e01b600052602160045260246000fd5b600181811c908216806200049e57607f821691505b602082108103620004bf57634e487b7160e01b600052602260045260246000fd5b50919050565b612d9080620004d56000396000f3fe608060405234801561001057600080fd5b506004361061029f5760003560e01c80638689340811610167578063c2458d6b116100ce578063d23a95de11610087578063d23a95de14610716578063d547741f14610729578063de7bf0a21461073c578063ea2092f31461074f578063ebf123d114610762578063f72c86891461077557600080fd5b8063c2458d6b146106a4578063c95ff4d1146106b7578063c9dd3038146106dd578063ccea7b8614610672578063ce1cdeff146106f0578063d1bab4cc1461070357600080fd5b8063941ed4e411610120578063941ed4e4146105f7578063a217fddf14610600578063ab1ef51514610608578063b15edbe51461061b578063b40525471461064d578063bc3c19f71461067257600080fd5b8063868934081461056b578063894ecab61461057e5780638be3ab65146105915780638ea1d767146105c45780638ec89e4f146105d757806391d14854146105e457600080fd5b80633789b93a1161020b5780634f4df442116101c45780634f4df442146104bc5780634fee3f411461050a5780636c5bdd151461051d5780637126ac721461053057806379915c7c1461054357806382aefa241461055657600080fd5b80633789b93a1461040c5780633b151c9e1461041f578063443b63b91461043257806347401a93146104835780634aed53c2146104965780634e41a1fb146104a957600080fd5b806322f3e2d41161025d57806322f3e2d414610380578063248a9ca31461038b5780632d760d57146103ae5780632ea16628146103c15780632f2ff15d146103e457806336568abe146103f957600080fd5b8062ad7e88146102a457806301ffc9a7146102ee5780630351fba81461030157806310fd132b146103215780631d12fdb9146103395780631e2e60ba14610360575b600080fd5b6102d96102b23660046124a8565b6000918252600160209081526040808420928452600a909201905290206005015442101590565b60405190151581526020015b60405180910390f35b6102d96102fc3660046124ca565b610788565b61031461030f3660046124f4565b6107bf565b6040516102e59190612569565b61032b6202a30081565b6040519081526020016102e5565b6102d96103473660046124f4565b6000908152600160208190526040909120015460ff1690565b61037361036e3660046124f4565b61086e565b6040516102e5919061257c565b60065460ff166102d9565b61032b6103993660046124f4565b60009081526020819052604090206001015490565b61032b6103bc3660046125dc565b6108d2565b6103d46103cf3660046124f4565b61097c565b6040516102e59493929190612647565b6103f76103f2366004612684565b610a4b565b005b6103f7610407366004612684565b610a76565b61032b61041a3660046126b0565b610af4565b61031461042d3660046124f4565b610b25565b61032b6104403660046126da565b6000918252600160209081526040808420928452600a92830182528084206001600160a01b03968716855290920181528183209390941682529190925290205490565b6103f761049136600461271c565b610b3a565b6103f76104a4366004612755565b610d84565b6103146104b73660046124f4565b610e66565b6103f76104ca36600461271c565b6000928352600160209081526040808520938552600a938401825280852033865290930181528284206001600160a01b0395909516845293909352902055565b6103146105183660046124f4565b610f0e565b61032b61052b3660046124f4565b610fba565b61037361053e3660046127a2565b611071565b6103f76105513660046127e2565b6110db565b61032b600080516020612d3b83398151915281565b6103146105793660046124f4565b6111eb565b61032b61058c3660046124f4565b6111fb565b6102d961059f3660046124a8565b6000918252600160208181526040808520938552600a90930190529120015460ff1690565b6102d96105d23660046128c6565b6112c8565b6006546102d99060ff1681565b6102d96105f2366004612684565b611300565b61032b610e1081565b61032b600081565b6103736106163660046126b0565b611329565b61032b6106293660046124a8565b6000918252600160209081526040808420928452600a909201905290206002015490565b61066061065b3660046124a8565b6113a0565b6040516102e596959493929190612902565b61032b6106803660046124a8565b6000918252600160209081526040808420928452600a909201905290206003015490565b61032b6106b23660046124a8565b611496565b6106ca6106c5366004612951565b6114de565b6040516102e59796959493929190612986565b61032b6106eb3660046124f4565b611618565b6103736106fe3660046124a8565b6116e5565b6103f7610711366004612a26565b611754565b6103f7610724366004612ad1565b611861565b6103f7610737366004612684565b61194a565b6103f761074a36600461271c565b611970565b6103f761075d36600461271c565b611a11565b61032b6107703660046124f4565b611b88565b6103f7610783366004612b03565b611c29565b60006001600160e01b03198216637965db0b60e01b14806107b957506301ffc9a760e01b6001600160e01b03198316145b92915050565b6060600382815481106107d4576107d4612b48565b9060005260206000200180546107e990612b5e565b80601f016020809104026020016040519081016040528092919081815260200182805461081590612b5e565b80156108625780601f1061083757610100808354040283529160200191610862565b820191906000526020600020905b81548152906001019060200180831161084557829003601f168201915b50505050509050919050565b60008181526001602090815260409182902060030180548351818402810184019094528084526060939283018282801561086257602002820191906000526020600020905b8154815260200190600101908083116108b35750505050509050919050565b60006001600160a01b0384166109435760405162461bcd60e51b815260206004820152602b60248201527f455243333437353a2062616c616e636520717565727920666f7220746865207a60448201526a65726f206164647265737360a81b60648201526084015b60405180910390fd5b506000828152600160209081526040808320848452600a0182528083206001600160a01b03871684526009019091529020549392505050565b600081815260016020526040812060028101805460609392839283926109a190612b5e565b80601f01602080910402602001604051908101604052809291908181526020018280546109cd90612b5e565b8015610a1a5780601f106109ef57610100808354040283529160200191610a1a565b820191906000526020600020905b8154815290600101906020018083116109fd57829003601f168201915b505050506005830154600490930154919860ff831698506101009092046001600160a01b0316965091945092505050565b600082815260208190526040902060010154610a678133611ca5565b610a718383611d09565b505050565b6001600160a01b0381163314610ae65760405162461bcd60e51b815260206004820152602f60248201527f416363657373436f6e74726f6c3a2063616e206f6e6c792072656e6f756e636560448201526e103937b632b9903337b91039b2b63360891b606482015260840161093a565b610af08282611d8d565b5050565b60056020528160005260406000208181548110610b1057600080fd5b90600052602060002001600091509150505481565b6060600282815481106107d4576107d4612b48565b600080516020612d3b833981519152610b538133611ca5565b6000848152600160208190526040909120015460ff16610b855760405162461bcd60e51b815260040161093a90612b98565b6000848152600160208181526040808420878552600a01909152909120015460ff16610bfe5760405162461bcd60e51b815260206004820152602260248201527f4552432d333437353a206e6f6e6365496420676976656e206e6f7420666f756e604482015261642160f01b606482015260840161093a565b6001600160a01b038516610c245760405162461bcd60e51b815260040161093a90612be6565b610c3085858585611df2565b6001600160a01b038516600090815260046020908152604080832087845290915290205460ff16610ca7576001600160a01b038516600081815260056020908152604080832080546001818101835591855283852001899055938352600482528083208884529091529020805460ff191690911790555b60008481526001602090815260408083206001600160a01b03891684526007810183528184208785529092529091205460ff16610d2e576001600160a01b03861660008181526008830160209081526040808320805460018181018355918552838520018990559383526007850182528083208884529091529020805460ff191690911790555b60408051868152602081018690529081018490526001600160a01b0387169033907f5d07254f6aa280c352dc6b62a8302f494954f6060c5459475a6d28b6efe0b4669060600160405180910390a3505050505050565b336001600160a01b0386161480610da15750610da18533856112c8565b610dff5760405162461bcd60e51b815260206004820152602960248201527f455243333437353a2063616c6c6572206973206e6f74206f776e6572206e6f7260448201526808185c1c1c9bdd995960ba1b606482015260840161093a565b610e0c8585858585611e71565b60408051848152602081018490529081018290526001600160a01b03808616919087169033907f737ab30b9cd3ddae02069f3057591007faf2305652d04c2582f7f1f6185d97119060600160405180910390a45050505050565b60008181526001602052604090206002810180546060929190610e8890612b5e565b80601f0160208091040260200160405190810160405280929190818152602001828054610eb490612b5e565b8015610f015780601f10610ed657610100808354040283529160200191610f01565b820191906000526020600020905b815481529060010190602001808311610ee457829003601f168201915b5050505050915050919050565b60038181548110610f1e57600080fd5b906000526020600020016000915090508054610f3990612b5e565b80601f0160208091040260200160405190810160405280929190818152602001828054610f6590612b5e565b8015610fb25780601f10610f8757610100808354040283529160200191610fb2565b820191906000526020600020905b815481529060010190602001808311610f9557829003601f168201915b505050505081565b600081815260016020908152604080832060090180548251818502810185019093528083528493849392919083018282801561101557602002820191906000526020600020905b815481526020019060010190808311611001575b5050505050905060005b815181116110685761104a8583838151811061103d5761103d612b48565b6020026020010151611496565b6110549084612c47565b92508061106081612c5f565b91505061101f565b50909392505050565b6001600160a01b03811660009081526005602090815260409182902080548351818402810184019094528084526060939283018282801561086257602002820191906000526020600020908154815260200190600101908083116108b35750505050509050919050565b6000858152600160208190526040909120015460ff16156111595760405162461bcd60e51b815260206004820152603260248201527f455243333437353a2063616e6e6f7420637265617465206120636c617373207460448201527168617420616c72656164792065786973747360701b606482015260840161093a565b6000858152600160208181526040909220878155808201805460ff19169092179091558551909161119191600284019188019061240f565b5060048101805485919060ff1916600183818111156111b2576111b261260f565b02179055506004810180546001600160a01b0390941661010002610100600160a81b031990941693909317909255600590910155505050565b60028181548110610f1e57600080fd5b600081815260016020908152604080832060090180548251818502810185019093528083528493849392919083018282801561125657602002820191906000526020600020905b815481526020019060010190808311611242575b5050505050905060005b81518111611068576112aa8583838151811061127e5761127e612b48565b60200260200101516000918252600160209081526040808420928452600a909201905290206003015490565b6112b49084612c47565b9250806112c081612c5f565b915050611260565b60009081526001602090815260408083206001600160a01b039586168452600601825280832093909416825291909152205460ff1690565b6000918252602082815260408084206001600160a01b0393909316845291905290205460ff1690565b60008181526001602090815260408083206001600160a01b038616845260080182529182902080548351818402810184019094528084526060939283018282801561139357602002820191906000526020600020905b81548152602001906001019080831161137f575b5050505050905092915050565b6000828152600160209081526040808320848452600a810190925282206002820180546060949384938493849384939291906113db90612b5e565b80601f016020809104026020016040519081016040528092919081815260200182805461140790612b5e565b80156114545780601f1061142957610100808354040283529160200191611454565b820191906000526020600020905b81548152906001019060200180831161143757829003601f168201915b50505050600484015460059485015460068501549490950154929d60ff82169d506101009091046001600160a01b03169b509399509197509550909350505050565b6000828152600160209081526040808320848452600a0190915281206003810154600482015460029092015490916114cd91612c47565b6114d79190612c47565b9392505050565b6000838152600160209081526040808320858452600a8101909252822060028201805460609493849384938493849384939092909161151c90612b5e565b80601f016020809104026020016040519081016040528092919081815260200182805461154890612b5e565b80156115955780601f1061156a57610100808354040283529160200191611595565b820191906000526020600020905b81548152906001019060200180831161157857829003601f168201915b505050505098508160040160009054906101000a900460ff1697508160040160019054906101000a90046001600160a01b031696508160050154955080600601549450806005015493508060090160008b6001600160a01b03166001600160a01b0316815260200190815260200160002054925050509397509397509397909450565b600081815260016020908152604080832060090180548251818502810185019093528083528493849392919083018282801561167357602002820191906000526020600020905b81548152602001906001019080831161165f575b5050505050905060005b81518111611068576116c78583838151811061169b5761169b612b48565b60200260200101516000918252600160209081526040808420928452600a909201905290206002015490565b6116d19084612c47565b9250806116dd81612c5f565b91505061167d565b6000828152600160209081526040808320848452600a01825291829020600801805483518184028101840190945280845260609392830182828015611393576020028201919060005260206000209081548152602001906001019080831161137f575050505050905092915050565b848314801561176257508481145b6117a45760405162461bcd60e51b815260206004820152601360248201527222a921999a1b9a9024b7383aba1022b93937b960691b604482015260640161093a565b60005b85811015611857578282828181106117c1576117c1612b48565b90506020020135600160008989858181106117de576117de612b48565b905060200201358152602001908152602001600020600a01600087878581811061180a5761180a612b48565b602090810292909201358352508181019290925260409081016000908120338252600a0183528181206001600160a01b038d1682529092529020558061184f81612c5f565b9150506117a7565b5050505050505050565b600080516020612d3b83398151915261187a8133611ca5565b6000858152600160208190526040909120015460ff166118ac5760405162461bcd60e51b815260040161093a90612b98565b6000858152600160208181526040808420888552600a81019092529092209081015460ff161561191e5760405162461bcd60e51b815260206004820152601f60248201527f4572726f72204552432d333437353a206e6f6e63654964206578697374732100604482015260640161093a565b94855550506001808401805460ff19169091179055600583019190915542600683015560079091015550565b6000828152602081905260409020600101546119668133611ca5565b610a718383611d8d565b600080516020612d3b8339815191526119898133611ca5565b6001600160a01b0385166119af5760405162461bcd60e51b815260040161093a90612be6565b6119bb85858585611fa3565b60408051858152602081018590529081018390526001600160a01b0386169033907f4cf25bc1d991c17529c25213d3cc0cda295eeaad5f13f361969b12ea48015f90906060015b60405180910390a35050505050565b600080516020612d3b833981519152611a2a8133611ca5565b6000848152600160208181526040808420878552600a01909152909120015460ff16611aa35760405162461bcd60e51b815260206004820152602260248201527f455243333437353a20676976656e204e6f6e636520646f65736e2774206578696044820152611cdd60f21b606482015260840161093a565b6001600160a01b038516611ac95760405162461bcd60e51b815260040161093a90612be6565b6000848152600160209081526040808320868452600a01909152902060050154421015611b315760405162461bcd60e51b8152602060048201526016602482015275426f6e64206973206e6f742072656465656d61626c6560501b604482015260640161093a565b611b3d85858585612088565b60408051858152602081018590529081018390526001600160a01b0386169033907f215abfcd108b85fbee47f26fda2de66f90f14fa5fcaf0201698ad8ac9323545f90606001611a02565b6000818152600160209081526040808320600901805482518185028101850190935280835284938493929190830182828015611be357602002820191906000526020600020905b815481526020019060010190808311611bcf575b5050505050905060005b8151811161106857611c0b8583838151811061127e5761127e612b48565b611c159084612c47565b925080611c2181612c5f565b915050611bed565b600082815260016020908152604080832033808552600690910183528184206001600160a01b03881680865290845293829020805460ff1916861515908117909155825187815293840152917f7feddb10c78cb7459761ddedb768e432ac1b9910fbbbd46f800337d7f557cebf910160405180910390a3505050565b611caf8282611300565b610af057611cc7816001600160a01b0316601461216d565b611cd283602061216d565b604051602001611ce3929190612c78565b60408051601f198184030181529082905262461bcd60e51b825261093a91600401612569565b611d138282611300565b610af0576000828152602081815260408083206001600160a01b03851684529091529020805460ff19166001179055611d493390565b6001600160a01b0316816001600160a01b0316837f2f8788117e7eff1d82e926ec794901d17c78024a50270940304540a733656f0d60405160405180910390a45050565b611d978282611300565b15610af0576000828152602081815260408083206001600160a01b0385168085529252808320805460ff1916905551339285917ff6391f5c32d9c69d2a47ea670b442974b53935d1edc7fd64eb21e047a839171b9190a45050565b6000838152600160209081526040808320858452600a0182528083206001600160a01b038816845260090190915281208054839290611e32908490612c47565b90915550506000838152600160209081526040808320858452600a0190915281206002018054839290611e66908490612c47565b909155505050505050565b6001600160a01b038516611edd5760405162461bcd60e51b815260206004820152602d60248201527f455243333437353a2063616e2774207472616e736665722066726f6d2074686560448201526c207a65726f206164647265737360981b606482015260840161093a565b6001600160a01b038416611f035760405162461bcd60e51b815260040161093a90612be6565b6000838152600160209081526040808320858452600a0182528083206001600160a01b0389168452600901909152902054811115611f8f5760405162461bcd60e51b8152602060048201526024808201527f455243333437353a206e6f7420656e6f75676820626f6e6420746f207472616e60448201526339b332b960e11b606482015260840161093a565b611f9c8585858585612309565b5050505050565b6000838152600160209081526040808320858452600a0182528083206001600160a01b0388168452600901909152902054811115611fe057600080fd5b6000838152600160209081526040808320858452600a0182528083206001600160a01b038816845260090190915281208054839290612020908490612ced565b90915550506000838152600160209081526040808320858452600a0190915281206002018054839290612054908490612ced565b90915550506000838152600160209081526040808320858452600a0190915281206003018054839290611e66908490612c47565b6000838152600160209081526040808320858452600a0182528083206001600160a01b03881684526009019091529020548111156120c557600080fd5b6000838152600160209081526040808320858452600a0182528083206001600160a01b038816845260090190915281208054839290612105908490612ced565b90915550506000838152600160209081526040808320858452600a0190915281206002018054839290612139908490612ced565b90915550506000838152600160209081526040808320858452600a0190915281206004018054839290611e66908490612c47565b6060600061217c836002612d04565b612187906002612c47565b67ffffffffffffffff81111561219f5761219f6127bd565b6040519080825280601f01601f1916602001820160405280156121c9576020820181803683370190505b509050600360fc1b816000815181106121e4576121e4612b48565b60200101906001600160f81b031916908160001a905350600f60fb1b8160018151811061221357612213612b48565b60200101906001600160f81b031916908160001a9053506000612237846002612d04565b612242906001612c47565b90505b60018111156122ba576f181899199a1a9b1b9c1cb0b131b232b360811b85600f166010811061227657612276612b48565b1a60f81b82828151811061228c5761228c612b48565b60200101906001600160f81b031916908160001a90535060049490941c936122b381612d23565b9050612245565b5083156114d75760405162461bcd60e51b815260206004820181905260248201527f537472696e67733a20686578206c656e67746820696e73756666696369656e74604482015260640161093a565b836001600160a01b0316856001600160a01b03160361237e5760405162461bcd60e51b815260206004820152602b60248201527f455243333437353a2063616e2774207472616e7366657220746f20746865207360448201526a616d65206164647265737360a81b606482015260840161093a565b6000838152600160209081526040808320858452600a0182528083206001600160a01b0389168452600901909152812080548392906123be908490612ced565b90915550506000838152600160209081526040808320858452600a0182528083206001600160a01b038816845260090190915281208054839290612403908490612c47565b90915550505050505050565b82805461241b90612b5e565b90600052602060002090601f01602090048101928261243d5760008555612483565b82601f1061245657805160ff1916838001178555612483565b82800160010185558215612483579182015b82811115612483578251825591602001919060010190612468565b5061248f929150612493565b5090565b5b8082111561248f5760008155600101612494565b600080604083850312156124bb57600080fd5b50508035926020909101359150565b6000602082840312156124dc57600080fd5b81356001600160e01b0319811681146114d757600080fd5b60006020828403121561250657600080fd5b5035919050565b60005b83811015612528578181015183820152602001612510565b83811115612537576000848401525b50505050565b6000815180845261255581602086016020860161250d565b601f01601f19169290920160200192915050565b6020815260006114d7602083018461253d565b6020808252825182820181905260009190848201906040850190845b818110156125b457835183529284019291840191600101612598565b50909695505050505050565b80356001600160a01b03811681146125d757600080fd5b919050565b6000806000606084860312156125f157600080fd5b6125fa846125c0565b95602085013595506040909401359392505050565b634e487b7160e01b600052602160045260246000fd5b6002811061264357634e487b7160e01b600052602160045260246000fd5b9052565b60808152600061265a608083018761253d565b90506126696020830186612625565b6001600160a01b039390931660408201526060015292915050565b6000806040838503121561269757600080fd5b823591506126a7602084016125c0565b90509250929050565b600080604083850312156126c357600080fd5b6126cc836125c0565b946020939093013593505050565b600080600080608085870312156126f057600080fd5b6126f9856125c0565b9350612707602086016125c0565b93969395505050506040820135916060013590565b6000806000806080858703121561273257600080fd5b61273b856125c0565b966020860135965060408601359560600135945092505050565b600080600080600060a0868803121561276d57600080fd5b612776866125c0565b9450612784602087016125c0565b94979496505050506040830135926060810135926080909101359150565b6000602082840312156127b457600080fd5b6114d7826125c0565b634e487b7160e01b600052604160045260246000fd5b8035600281106125d757600080fd5b600080600080600060a086880312156127fa57600080fd5b85359450602086013567ffffffffffffffff8082111561281957600080fd5b818801915088601f83011261282d57600080fd5b81358181111561283f5761283f6127bd565b604051601f8201601f19908116603f01168101908382118183101715612867576128676127bd565b816040528281528b602084870101111561288057600080fd5b8260208601602083013760006020848301015280985050505050506128a7604087016127d3565b92506128b5606087016125c0565b949793965091946080013592915050565b6000806000606084860312156128db57600080fd5b6128e4846125c0565b92506128f2602085016125c0565b9150604084013590509250925092565b60c08152600061291560c083018961253d565b90506129246020830188612625565b6001600160a01b039590951660408201526060810193909352608083019190915260a09091015292915050565b60008060006060848603121561296657600080fd5b833592506020840135915061297d604085016125c0565b90509250925092565b60e08152600061299960e083018a61253d565b90506129a86020830189612625565b6001600160a01b039690961660408201526060810194909452608084019290925260a083015260c09091015292915050565b60008083601f8401126129ec57600080fd5b50813567ffffffffffffffff811115612a0457600080fd5b6020830191508360208260051b8501011115612a1f57600080fd5b9250929050565b60008060008060008060006080888a031215612a4157600080fd5b612a4a886125c0565b9650602088013567ffffffffffffffff80821115612a6757600080fd5b612a738b838c016129da565b909850965060408a0135915080821115612a8c57600080fd5b612a988b838c016129da565b909650945060608a0135915080821115612ab157600080fd5b50612abe8a828b016129da565b989b979a50959850939692959293505050565b60008060008060808587031215612ae757600080fd5b5050823594602084013594506040840135936060013592509050565b600080600060608486031215612b1857600080fd5b612b21846125c0565b92506020840135915060408401358015158114612b3d57600080fd5b809150509250925092565b634e487b7160e01b600052603260045260246000fd5b600181811c90821680612b7257607f821691505b602082108103612b9257634e487b7160e01b600052602260045260246000fd5b50919050565b6020808252602e908201527f455243333437353a206f6e6c7920697373756520626f6e64207468617420686160408201526d1cc81899595b8818dc99585d195960921b606082015260800190565b6020808252602b908201527f455243333437353a2063616e2774207472616e7366657220746f20746865207a60408201526a65726f206164647265737360a81b606082015260800190565b634e487b7160e01b600052601160045260246000fd5b60008219821115612c5a57612c5a612c31565b500190565b600060018201612c7157612c71612c31565b5060010190565b7f416363657373436f6e74726f6c3a206163636f756e7420000000000000000000815260008351612cb081601785016020880161250d565b7001034b99036b4b9b9b4b733903937b6329607d1b6017918401918201528351612ce181602884016020880161250d565b01602801949350505050565b600082821015612cff57612cff612c31565b500390565b6000816000190483118215151615612d1e57612d1e612c31565b500290565b600081612d3257612d32612c31565b50600019019056fe114e74f6ea3bd819998f78687bfcb11b140da08e9b7d222fa9c1f1ba1f2aa122a264697066735822122073b6d302b4a0d43c61cafc7beb66c6df0f9e1a142af4bf53f214bc4106fab57164736f6c634300080d0033",
  "devdoc": {
    "kind": "dev",
    "methods": {
      "activeSupply(uint256,uint256)": {
        "details": "Returns the active supply of the bond in question"
      },
      "approve(address,uint256,uint256,uint256)": {
        "details": "Allows spender to withdraw from your account multiple times, up to the amount.",
        "params": {
          "amount": "is the amount of the bond that the spender is approved for.",
          "classId": "is the classId nonce of bond, the first bond class created will be 0, and so on.",
          "nonceId": "is the nonceId of the given bond class. This param is for distinctions of the issuing conditions of the bond.",
          "spender": "is the address the caller approve for his bonds"
        }
      },
      "balanceOf(address,uint256,uint256)": {
        "details": "Returns the balance of the giving bond classId and bond nonce"
      },
      "batchApprove(address,uint256[],uint256[],uint256[])": {
        "details": "Allows spender to withdraw bonds from your account multiple times, up to the amount.",
        "params": {
          "amounts": "is the list of amounts of the bond that the spender is approved for.",
          "classIds": "is the list of classIds of bond.",
          "nonceIds": "is the list of nonceIds of the given bond class.",
          "spender": "is the address the caller approve for his bonds."
        }
      },
      "burn(address,uint256,uint256,uint256)": {
        "details": "allows the transfer of any number of bond types from an address to another. The calling of this function needs to be restricted to bond issuer contract.",
        "params": {
          "amount": "is the amount of the bond, that will be transferred from \"_from\"address to \"_to\" address.",
          "classId": "is the class nonce of bond, the first bond class created will be 0, and so on.",
          "from": "argument is the address of the holder whose balance about to decrees.",
          "nonceId": "is the nonce of the given bond class. This param is for distinctions of the issuing conditions of the bond."
        }
      },
      "burnedSupply(uint256,uint256)": {
        "details": "Returns the burned supply of the bond in question"
      },
      "classInfoDescription(uint256)": {
        "details": "Returns the information description for a given class info"
      },
      "classInfos(uint256)": {
        "details": "Returns the informations for the class of given classId"
      },
      "getRoleAdmin(bytes32)": {
        "details": "Returns the admin role that controls `role`. See {grantRole} and {revokeRole}. To change a role's admin, use {_setRoleAdmin}."
      },
      "grantRole(bytes32,address)": {
        "details": "Grants `role` to `account`. If `account` had not been already granted `role`, emits a {RoleGranted} event. Requirements: - the caller must have ``role``'s admin role."
      },
      "hasRole(bytes32,address)": {
        "details": "Returns `true` if `account` has been granted `role`."
      },
      "isApprovedFor(address,address,uint256)": {
        "returns": {
          "_0": "True if the operator is approved, false if not"
        }
      },
      "isRedeemable(uint256,uint256)": {
        "details": "allows anyone to check if a bond is redeemable."
      },
      "issue(address,uint256,uint256,uint256)": {
        "details": "allows issuing any number of bond types to an address. The calling of this function needs to be restricted to bond issuer contract.",
        "params": {
          "amount": "is the amount of the bond, that \"to\" address will receive.",
          "classId": "is the classId of the bond, the first bond class created will be 0, and so on.",
          "nonceId": "is the nonceId of the given bond class. This param is for distinctions of the issuing conditions of the bond.",
          "to": "is the address to which the bond will be issued."
        }
      },
      "nonceInfoDescription(uint256)": {
        "details": "Returns the information description for a given nonce info"
      },
      "nonceInfos(uint256,uint256)": {
        "details": "Returns the informations for the nonce of given classId and nonceId"
      },
      "redeem(address,uint256,uint256,uint256)": {
        "details": "allows redemption of any number of bond types from an address. The calling of this function needs to be restricted to bond issuer contract.",
        "params": {
          "amount": "is the amount of the bond, that \"from\" address will redeem.",
          "classId": "is the class nonce of bond, the first bond class created will be 0, and so on.",
          "from": "is the address from which the bond will be redeemed.",
          "nonceId": "is the nonce of the given bond class. This param is for distinctions of the issuing conditions of the bond."
        }
      },
      "redeemedSupply(uint256,uint256)": {
        "details": "Returns the redeemed supply of the bond in question"
      },
      "renounceRole(bytes32,address)": {
        "details": "Revokes `role` from the calling account. Roles are often managed via {grantRole} and {revokeRole}: this function's purpose is to provide a mechanism for accounts to lose their privileges if they are compromised (such as when a trusted device is misplaced). If the calling account had been revoked `role`, emits a {RoleRevoked} event. Requirements: - the caller must be `account`."
      },
      "revokeRole(bytes32,address)": {
        "details": "Revokes `role` from `account`. If `account` had been granted `role`, emits a {RoleRevoked} event. Requirements: - the caller must have ``role``'s admin role."
      },
      "setApprovalFor(address,uint256,bool)": {
        "details": "MUST emit the ApprovalForAll event on success.",
        "params": {
          "approved": "True if the operator is approved, false to revoke approval",
          "classId": "is the classId nonce of bond, the first bond class created will be 0, and so on.",
          "operator": "Address to add to the set of authorized operators"
        }
      },
      "supportsInterface(bytes4)": {
        "details": "See {IERC165-supportsInterface}."
      },
      "symbol(uint256)": {
        "details": "Returns the symbol of the giving bond classId"
      },
      "totalSupply(uint256,uint256)": {
        "details": "Returns the total supply of the bond in question"
      },
      "transferFrom(address,address,uint256,uint256,uint256)": {
        "details": "allows the transfer of a bond type from an address to another.",
        "params": {
          "amount": "is the amount of the bond, that will be transferred from \"_from\" address to \"_to\" address.",
          "classId": "is the classId of bond, the first bond class created will be 0, and so on.",
          "from": "argument is the address of the holder whose balance about to decrees.",
          "nonceId": "is the nonceId of the given bond class. This param is for distinctions of the issuing conditions of the bond.",
          "to": "argument is the address of the recipient whose balance is about to increased."
        }
      }
    },
    "version": 1
  },
  "userdoc": {
    "events": {
      "Burn(address,address,uint256,uint256,uint256)": {
        "notice": "MUST trigger when tokens are burned"
      },
      "Issue(address,address,uint256,uint256,uint256)": {
        "notice": "MUST trigger when tokens are issued"
      },
      "Redeem(address,address,uint256,uint256,uint256)": {
        "notice": "MUST trigger when tokens are redeemed"
      },
      "Transfer(address,address,address,uint256,uint256,uint256)": {
        "notice": "MUST trigger when tokens are transferred, including zero value transfers."
      }
    },
    "kind": "user",
    "methods": {
      "allowance(address,address,uint256,uint256)": {
        "notice": "Returns the amount which spender is still allowed to withdraw from owner."
      },
      "approve(address,uint256,uint256,uint256)": {
        "notice": "If this function is called again it overwrites the current allowance with amount."
      },
      "batchApprove(address,uint256[],uint256[],uint256[])": {
        "notice": "If this function is called again it overwrites the current allowance with amount."
      },
      "classInfoDescription(uint256)": {
        "notice": "Every bond contract can have their own list of class informations"
      },
      "classInfos(uint256)": {
        "notice": "Every bond contract can have their own list of class informations"
      },
      "isApprovedFor(address,address,uint256)": {
        "notice": "Queries the approval status of an operator for a given owner."
      },
      "isRedeemable(uint256,uint256)": {
        "notice": "the conditions of redemption can be specified with one or several internal functions."
      },
      "nonceInfoDescription(uint256)": {
        "notice": "Every bond contract can have their own list of nonce informations"
      },
      "nonceInfos(uint256,uint256)": {
        "notice": "Every bond contract can have their own list. But the first uint256 in the list MUST be the UTC time code of the issuing time."
      },
      "setApprovalFor(address,uint256,bool)": {
        "notice": "Enable or disable approval for a third party (\"operator\") to manage all of the caller's tokens."
      }
    },
    "version": 1
  },
  "storageLayout": {
    "storage": [
      {
        "astId": 24,
        "contract": "contracts/Debond-v0/contracts/DebondBond.sol:DebondBond",
        "label": "_roles",
        "offset": 0,
        "slot": "0",
        "type": "t_mapping(t_bytes32,t_struct(RoleData)19_storage)"
      },
      {
        "astId": 2914,
        "contract": "contracts/Debond-v0/contracts/DebondBond.sol:DebondBond",
        "label": "classes",
        "offset": 0,
        "slot": "1",
        "type": "t_mapping(t_uint256,t_struct(Class)2909_storage)"
      },
      {
        "astId": 2917,
        "contract": "contracts/Debond-v0/contracts/DebondBond.sol:DebondBond",
        "label": "classInfoDescriptions",
        "offset": 0,
        "slot": "2",
        "type": "t_array(t_string_storage)dyn_storage"
      },
      {
        "astId": 2920,
        "contract": "contracts/Debond-v0/contracts/DebondBond.sol:DebondBond",
        "label": "nonceInfoDescriptions",
        "offset": 0,
        "slot": "3",
        "type": "t_array(t_string_storage)dyn_storage"
      },
      {
        "astId": 2926,
        "contract": "contracts/Debond-v0/contracts/DebondBond.sol:DebondBond",
        "label": "classesPerAddress",
        "offset": 0,
        "slot": "4",
        "type": "t_mapping(t_address,t_mapping(t_uint256,t_bool))"
      },
      {
        "astId": 2931,
        "contract": "contracts/Debond-v0/contracts/DebondBond.sol:DebondBond",
        "label": "classesPerAddressArray",
        "offset": 0,
        "slot": "5",
        "type": "t_mapping(t_address,t_array(t_uint256)dyn_storage)"
      },
      {
        "astId": 2933,
        "contract": "contracts/Debond-v0/contracts/DebondBond.sol:DebondBond",
        "label": "_isActive",
        "offset": 0,
        "slot": "6",
        "type": "t_bool"
      }
    ],
    "types": {
      "t_address": {
        "encoding": "inplace",
        "label": "address",
        "numberOfBytes": "20"
      },
      "t_array(t_string_storage)dyn_storage": {
        "base": "t_string_storage",
        "encoding": "dynamic_array",
        "label": "string[]",
        "numberOfBytes": "32"
      },
      "t_array(t_uint256)dyn_storage": {
        "base": "t_uint256",
        "encoding": "dynamic_array",
        "label": "uint256[]",
        "numberOfBytes": "32"
      },
      "t_bool": {
        "encoding": "inplace",
        "label": "bool",
        "numberOfBytes": "1"
      },
      "t_bytes32": {
        "encoding": "inplace",
        "label": "bytes32",
        "numberOfBytes": "32"
      },
      "t_enum(InterestRateType)5183": {
        "encoding": "inplace",
        "label": "enum IData.InterestRateType",
        "numberOfBytes": "1"
      },
      "t_mapping(t_address,t_array(t_uint256)dyn_storage)": {
        "encoding": "mapping",
        "key": "t_address",
        "label": "mapping(address => uint256[])",
        "numberOfBytes": "32",
        "value": "t_array(t_uint256)dyn_storage"
      },
      "t_mapping(t_address,t_bool)": {
        "encoding": "mapping",
        "key": "t_address",
        "label": "mapping(address => bool)",
        "numberOfBytes": "32",
        "value": "t_bool"
      },
      "t_mapping(t_address,t_mapping(t_address,t_bool))": {
        "encoding": "mapping",
        "key": "t_address",
        "label": "mapping(address => mapping(address => bool))",
        "numberOfBytes": "32",
        "value": "t_mapping(t_address,t_bool)"
      },
      "t_mapping(t_address,t_mapping(t_address,t_uint256))": {
        "encoding": "mapping",
        "key": "t_address",
        "label": "mapping(address => mapping(address => uint256))",
        "numberOfBytes": "32",
        "value": "t_mapping(t_address,t_uint256)"
      },
      "t_mapping(t_address,t_mapping(t_uint256,t_bool))": {
        "encoding": "mapping",
        "key": "t_address",
        "label": "mapping(address => mapping(uint256 => bool))",
        "numberOfBytes": "32",
        "value": "t_mapping(t_uint256,t_bool)"
      },
      "t_mapping(t_address,t_uint256)": {
        "encoding": "mapping",
        "key": "t_address",
        "label": "mapping(address => uint256)",
        "numberOfBytes": "32",
        "value": "t_uint256"
      },
      "t_mapping(t_bytes32,t_struct(RoleData)19_storage)": {
        "encoding": "mapping",
        "key": "t_bytes32",
        "label": "mapping(bytes32 => struct AccessControl.RoleData)",
        "numberOfBytes": "32",
        "value": "t_struct(RoleData)19_storage"
      },
      "t_mapping(t_uint256,t_bool)": {
        "encoding": "mapping",
        "key": "t_uint256",
        "label": "mapping(uint256 => bool)",
        "numberOfBytes": "32",
        "value": "t_bool"
      },
      "t_mapping(t_uint256,t_struct(Class)2909_storage)": {
        "encoding": "mapping",
        "key": "t_uint256",
        "label": "mapping(uint256 => struct DebondBond.Class)",
        "numberOfBytes": "32",
        "value": "t_struct(Class)2909_storage"
      },
      "t_mapping(t_uint256,t_struct(Nonce)2867_storage)": {
        "encoding": "mapping",
        "key": "t_uint256",
        "label": "mapping(uint256 => struct DebondBond.Nonce)",
        "numberOfBytes": "32",
        "value": "t_struct(Nonce)2867_storage"
      },
      "t_string_storage": {
        "encoding": "bytes",
        "label": "string",
        "numberOfBytes": "32"
      },
      "t_struct(Class)2909_storage": {
        "encoding": "inplace",
        "label": "struct DebondBond.Class",
        "members": [
          {
            "astId": 2869,
            "contract": "contracts/Debond-v0/contracts/DebondBond.sol:DebondBond",
            "label": "id",
            "offset": 0,
            "slot": "0",
            "type": "t_uint256"
          },
          {
            "astId": 2871,
            "contract": "contracts/Debond-v0/contracts/DebondBond.sol:DebondBond",
            "label": "exists",
            "offset": 0,
            "slot": "1",
            "type": "t_bool"
          },
          {
            "astId": 2873,
            "contract": "contracts/Debond-v0/contracts/DebondBond.sol:DebondBond",
            "label": "symbol",
            "offset": 0,
            "slot": "2",
            "type": "t_string_storage"
          },
          {
            "astId": 2876,
            "contract": "contracts/Debond-v0/contracts/DebondBond.sol:DebondBond",
            "label": "infos",
            "offset": 0,
            "slot": "3",
            "type": "t_array(t_uint256)dyn_storage"
          },
          {
            "astId": 2879,
            "contract": "contracts/Debond-v0/contracts/DebondBond.sol:DebondBond",
            "label": "interestRateType",
            "offset": 0,
            "slot": "4",
            "type": "t_enum(InterestRateType)5183"
          },
          {
            "astId": 2881,
            "contract": "contracts/Debond-v0/contracts/DebondBond.sol:DebondBond",
            "label": "tokenAddress",
            "offset": 1,
            "slot": "4",
            "type": "t_address"
          },
          {
            "astId": 2883,
            "contract": "contracts/Debond-v0/contracts/DebondBond.sol:DebondBond",
            "label": "periodTimestamp",
            "offset": 0,
            "slot": "5",
            "type": "t_uint256"
          },
          {
            "astId": 2889,
            "contract": "contracts/Debond-v0/contracts/DebondBond.sol:DebondBond",
            "label": "operatorApprovals",
            "offset": 0,
            "slot": "6",
            "type": "t_mapping(t_address,t_mapping(t_address,t_bool))"
          },
          {
            "astId": 2895,
            "contract": "contracts/Debond-v0/contracts/DebondBond.sol:DebondBond",
            "label": "noncesPerAddress",
            "offset": 0,
            "slot": "7",
            "type": "t_mapping(t_address,t_mapping(t_uint256,t_bool))"
          },
          {
            "astId": 2900,
            "contract": "contracts/Debond-v0/contracts/DebondBond.sol:DebondBond",
            "label": "noncesPerAddressArray",
            "offset": 0,
            "slot": "8",
            "type": "t_mapping(t_address,t_array(t_uint256)dyn_storage)"
          },
          {
            "astId": 2903,
            "contract": "contracts/Debond-v0/contracts/DebondBond.sol:DebondBond",
            "label": "nonceIds",
            "offset": 0,
            "slot": "9",
            "type": "t_array(t_uint256)dyn_storage"
          },
          {
            "astId": 2908,
            "contract": "contracts/Debond-v0/contracts/DebondBond.sol:DebondBond",
            "label": "nonces",
            "offset": 0,
            "slot": "10",
            "type": "t_mapping(t_uint256,t_struct(Nonce)2867_storage)"
          }
        ],
        "numberOfBytes": "352"
      },
      "t_struct(Nonce)2867_storage": {
        "encoding": "inplace",
        "label": "struct DebondBond.Nonce",
        "members": [
          {
            "astId": 2835,
            "contract": "contracts/Debond-v0/contracts/DebondBond.sol:DebondBond",
            "label": "id",
            "offset": 0,
            "slot": "0",
            "type": "t_uint256"
          },
          {
            "astId": 2837,
            "contract": "contracts/Debond-v0/contracts/DebondBond.sol:DebondBond",
            "label": "exists",
            "offset": 0,
            "slot": "1",
            "type": "t_bool"
          },
          {
            "astId": 2839,
            "contract": "contracts/Debond-v0/contracts/DebondBond.sol:DebondBond",
            "label": "_activeSupply",
            "offset": 0,
            "slot": "2",
            "type": "t_uint256"
          },
          {
            "astId": 2841,
            "contract": "contracts/Debond-v0/contracts/DebondBond.sol:DebondBond",
            "label": "_burnedSupply",
            "offset": 0,
            "slot": "3",
            "type": "t_uint256"
          },
          {
            "astId": 2843,
            "contract": "contracts/Debond-v0/contracts/DebondBond.sol:DebondBond",
            "label": "_redeemedSupply",
            "offset": 0,
            "slot": "4",
            "type": "t_uint256"
          },
          {
            "astId": 2845,
            "contract": "contracts/Debond-v0/contracts/DebondBond.sol:DebondBond",
            "label": "maturityDate",
            "offset": 0,
            "slot": "5",
            "type": "t_uint256"
          },
          {
            "astId": 2847,
            "contract": "contracts/Debond-v0/contracts/DebondBond.sol:DebondBond",
            "label": "issuanceDate",
            "offset": 0,
            "slot": "6",
            "type": "t_uint256"
          },
          {
            "astId": 2849,
            "contract": "contracts/Debond-v0/contracts/DebondBond.sol:DebondBond",
            "label": "liqT",
            "offset": 0,
            "slot": "7",
            "type": "t_uint256"
          },
          {
            "astId": 2852,
            "contract": "contracts/Debond-v0/contracts/DebondBond.sol:DebondBond",
            "label": "infos",
            "offset": 0,
            "slot": "8",
            "type": "t_array(t_uint256)dyn_storage"
          },
          {
            "astId": 2856,
            "contract": "contracts/Debond-v0/contracts/DebondBond.sol:DebondBond",
            "label": "balances",
            "offset": 0,
            "slot": "9",
            "type": "t_mapping(t_address,t_uint256)"
          },
          {
            "astId": 2862,
            "contract": "contracts/Debond-v0/contracts/DebondBond.sol:DebondBond",
            "label": "allowances",
            "offset": 0,
            "slot": "10",
            "type": "t_mapping(t_address,t_mapping(t_address,t_uint256))"
          },
          {
            "astId": 2866,
            "contract": "contracts/Debond-v0/contracts/DebondBond.sol:DebondBond",
            "label": "hasBalance",
            "offset": 0,
            "slot": "11",
            "type": "t_mapping(t_address,t_bool)"
          }
        ],
        "numberOfBytes": "384"
      },
      "t_struct(RoleData)19_storage": {
        "encoding": "inplace",
        "label": "struct AccessControl.RoleData",
        "members": [
          {
            "astId": 16,
            "contract": "contracts/Debond-v0/contracts/DebondBond.sol:DebondBond",
            "label": "members",
            "offset": 0,
            "slot": "0",
            "type": "t_mapping(t_address,t_bool)"
          },
          {
            "astId": 18,
            "contract": "contracts/Debond-v0/contracts/DebondBond.sol:DebondBond",
            "label": "adminRole",
            "offset": 0,
            "slot": "1",
            "type": "t_bytes32"
          }
        ],
        "numberOfBytes": "64"
      },
      "t_uint256": {
        "encoding": "inplace",
        "label": "uint256",
        "numberOfBytes": "32"
      }
    }
  }
}