{
  "address": "0xa88945262423821e7d6ac20049bc0139603edc99",
  "abi": [
    {
      "inputs": [
        {
          "internalType": "string",
          "name": "name_",
          "type": "string"
        },
        {
          "internalType": "string",
          "name": "symbol_",
          "type": "string"
        },
        {
          "internalType": "uint256",
          "name": "_duration",
          "type": "uint256"
        }
      ],
      "stateMutability": "nonpayable",
      "type": "constructor"
    },
    {
      "anonymous": false,
      "inputs": [
        {
          "indexed": true,
          "internalType": "address",
          "name": "owner",
          "type": "address"
        },
        {
          "indexed": true,
          "internalType": "address",
          "name": "spender",
          "type": "address"
        },
        {
          "indexed": false,
          "internalType": "uint256",
          "name": "value",
          "type": "uint256"
        }
      ],
      "name": "Approval",
      "type": "event"
    },
    {
      "anonymous": false,
      "inputs": [
        {
          "indexed": true,
          "internalType": "address",
          "name": "previousOwner",
          "type": "address"
        },
        {
          "indexed": true,
          "internalType": "address",
          "name": "newOwner",
          "type": "address"
        }
      ],
      "name": "OwnershipTransferred",
      "type": "event"
    },
    {
      "anonymous": false,
      "inputs": [
        {
          "indexed": true,
          "internalType": "address",
          "name": "from",
          "type": "address"
        },
        {
          "indexed": true,
          "internalType": "address",
          "name": "to",
          "type": "address"
        },
        {
          "indexed": false,
          "internalType": "uint256",
          "name": "value",
          "type": "uint256"
        }
      ],
      "name": "Transfer",
      "type": "event"
    },
    {
      "inputs": [
        {
          "internalType": "address",
          "name": "owner",
          "type": "address"
        },
        {
          "internalType": "address",
          "name": "spender",
          "type": "address"
        }
      ],
      "name": "allowance",
      "outputs": [
        {
          "internalType": "uint256",
          "name": "",
          "type": "uint256"
        }
      ],
      "stateMutability": "view",
      "type": "function"
    },
    {
      "inputs": [
        {
          "internalType": "address",
          "name": "spender",
          "type": "address"
        },
        {
          "internalType": "uint256",
          "name": "amount",
          "type": "uint256"
        }
      ],
      "name": "approve",
      "outputs": [
        {
          "internalType": "bool",
          "name": "",
          "type": "bool"
        }
      ],
      "stateMutability": "nonpayable",
      "type": "function"
    },
    {
      "inputs": [
        {
          "internalType": "address",
          "name": "account",
          "type": "address"
        }
      ],
      "name": "balanceOf",
      "outputs": [
        {
          "internalType": "uint256",
          "name": "",
          "type": "uint256"
        }
      ],
      "stateMutability": "view",
      "type": "function"
    },
    {
      "inputs": [],
      "name": "decimals",
      "outputs": [
        {
          "internalType": "uint8",
          "name": "",
          "type": "uint8"
        }
      ],
      "stateMutability": "view",
      "type": "function"
    },
    {
      "inputs": [
        {
          "internalType": "address",
          "name": "spender",
          "type": "address"
        },
        {
          "internalType": "uint256",
          "name": "subtractedValue",
          "type": "uint256"
        }
      ],
      "name": "decreaseAllowance",
      "outputs": [
        {
          "internalType": "bool",
          "name": "",
          "type": "bool"
        }
      ],
      "stateMutability": "nonpayable",
      "type": "function"
    },
    {
      "inputs": [
        {
          "internalType": "address",
          "name": "",
          "type": "address"
        }
      ],
      "name": "discountClaimed",
      "outputs": [
        {
          "internalType": "bool",
          "name": "",
          "type": "bool"
        }
      ],
      "stateMutability": "view",
      "type": "function"
    },
    {
      "inputs": [],
      "name": "duration",
      "outputs": [
        {
          "internalType": "uint256",
          "name": "",
          "type": "uint256"
        }
      ],
      "stateMutability": "view",
      "type": "function"
    },
    {
      "inputs": [],
      "name": "endingTime",
      "outputs": [
        {
          "internalType": "uint256",
          "name": "",
          "type": "uint256"
        }
      ],
      "stateMutability": "view",
      "type": "function"
    },
    {
      "inputs": [],
      "name": "getMintingPrice",
      "outputs": [
        {
          "internalType": "uint256",
          "name": "",
          "type": "uint256"
        }
      ],
      "stateMutability": "view",
      "type": "function"
    },
    {
      "inputs": [
        {
          "internalType": "address",
          "name": "spender",
          "type": "address"
        },
        {
          "internalType": "uint256",
          "name": "addedValue",
          "type": "uint256"
        }
      ],
      "name": "increaseAllowance",
      "outputs": [
        {
          "internalType": "bool",
          "name": "",
          "type": "bool"
        }
      ],
      "stateMutability": "nonpayable",
      "type": "function"
    },
    {
      "inputs": [],
      "name": "mint",
      "outputs": [],
      "stateMutability": "payable",
      "type": "function"
    },
    {
      "inputs": [
        {
          "internalType": "uint256",
          "name": "_discount",
          "type": "uint256"
        },
        {
          "internalType": "bytes",
          "name": "_signature",
          "type": "bytes"
        }
      ],
      "name": "mintDiscount",
      "outputs": [],
      "stateMutability": "payable",
      "type": "function"
    },
    {
      "inputs": [],
      "name": "name",
      "outputs": [
        {
          "internalType": "string",
          "name": "",
          "type": "string"
        }
      ],
      "stateMutability": "view",
      "type": "function"
    },
    {
      "inputs": [],
      "name": "owner",
      "outputs": [
        {
          "internalType": "address",
          "name": "",
          "type": "address"
        }
      ],
      "stateMutability": "view",
      "type": "function"
    },
    {
      "inputs": [],
      "name": "renounceOwnership",
      "outputs": [],
      "stateMutability": "nonpayable",
      "type": "function"
    },
    {
      "inputs": [],
      "name": "saleOn",
      "outputs": [
        {
          "internalType": "bool",
          "name": "",
          "type": "bool"
        }
      ],
      "stateMutability": "view",
      "type": "function"
    },
    {
      "inputs": [],
      "name": "setSaleOff",
      "outputs": [],
      "stateMutability": "nonpayable",
      "type": "function"
    },
    {
      "inputs": [],
      "name": "setSaleOn",
      "outputs": [],
      "stateMutability": "nonpayable",
      "type": "function"
    },
    {
      "inputs": [],
      "name": "startingTime",
      "outputs": [
        {
          "internalType": "uint256",
          "name": "",
          "type": "uint256"
        }
      ],
      "stateMutability": "view",
      "type": "function"
    },
    {
      "inputs": [],
      "name": "symbol",
      "outputs": [
        {
          "internalType": "string",
          "name": "",
          "type": "string"
        }
      ],
      "stateMutability": "view",
      "type": "function"
    },
    {
      "inputs": [],
      "name": "totalSupply",
      "outputs": [
        {
          "internalType": "uint256",
          "name": "",
          "type": "uint256"
        }
      ],
      "stateMutability": "view",
      "type": "function"
    },
    {
      "inputs": [
        {
          "internalType": "address",
          "name": "to",
          "type": "address"
        },
        {
          "internalType": "uint256",
          "name": "amount",
          "type": "uint256"
        }
      ],
      "name": "transfer",
      "outputs": [
        {
          "internalType": "bool",
          "name": "",
          "type": "bool"
        }
      ],
      "stateMutability": "nonpayable",
      "type": "function"
    },
    {
      "inputs": [
        {
          "internalType": "address",
          "name": "from",
          "type": "address"
        },
        {
          "internalType": "address",
          "name": "to",
          "type": "address"
        },
        {
          "internalType": "uint256",
          "name": "amount",
          "type": "uint256"
        }
      ],
      "name": "transferFrom",
      "outputs": [
        {
          "internalType": "bool",
          "name": "",
          "type": "bool"
        }
      ],
      "stateMutability": "nonpayable",
      "type": "function"
    },
    {
      "inputs": [
        {
          "internalType": "address",
          "name": "newOwner",
          "type": "address"
        }
      ],
      "name": "transferOwnership",
      "outputs": [],
      "stateMutability": "nonpayable",
      "type": "function"
    },
    {
      "inputs": [
        {
          "internalType": "uint256",
          "name": "discount",
          "type": "uint256"
        },
        {
          "internalType": "bytes",
          "name": "signature",
          "type": "bytes"
        }
      ],
      "name": "verifySignature",
      "outputs": [
        {
          "internalType": "address",
          "name": "",
          "type": "address"
        }
      ],
      "stateMutability": "view",
      "type": "function"
    },
    {
      "inputs": [],
      "name": "withdrawToOwner",
      "outputs": [],
      "stateMutability": "nonpayable",
      "type": "function"
    }
  ],
  "transactionHash": "0x513a3b3ed148eba9259c7a641ef106ad8d34d1ad63e36b3d25233356fae225d2",
  "args": [
    "MysteryBox",
    "MBOX",
    432000
  ],
  "numDeployments": 1,
  "solcInputHash": "59697760ba823b401b4c53fac791d6ad",
  "bytecode": "0x60806040526009805460ff191660011790553480156200001e57600080fd5b5060405162001b0e38038062001b0e83398101604081905262000041916200027b565b8251839083906200005a90600390602085019062000108565b5080516200007090600490602084019062000108565b5050506200008d62000087620000b260201b60201c565b620000b6565b4260068190556008829055620000a5908290620002ee565b6007555062000351915050565b3390565b600580546001600160a01b038381166001600160a01b0319831681179093556040519116919082907f8be0079c531659141344cd1fd0a4f28419497f9722a3daafe3b4186f6b6457e090600090a35050565b828054620001169062000315565b90600052602060002090601f0160209004810192826200013a576000855562000185565b82601f106200015557805160ff191683800117855562000185565b8280016001018555821562000185579182015b828111156200018557825182559160200191906001019062000168565b506200019392915062000197565b5090565b5b8082111562000193576000815560010162000198565b634e487b7160e01b600052604160045260246000fd5b600082601f830112620001d657600080fd5b81516001600160401b0380821115620001f357620001f3620001ae565b604051601f8301601f19908116603f011681019082821181831017156200021e576200021e620001ae565b816040528381526020925086838588010111156200023b57600080fd5b600091505b838210156200025f578582018301518183018401529082019062000240565b83821115620002715760008385830101525b9695505050505050565b6000806000606084860312156200029157600080fd5b83516001600160401b0380821115620002a957600080fd5b620002b787838801620001c4565b94506020860151915080821115620002ce57600080fd5b50620002dd86828701620001c4565b925050604084015190509250925092565b600082198211156200031057634e487b7160e01b600052601160045260246000fd5b500190565b600181811c908216806200032a57607f821691505b6020821081036200034b57634e487b7160e01b600052602260045260246000fd5b50919050565b6117ad80620003616000396000f3fe6080604052600436106101815760003560e01c8063715018a6116100d15780639f2d83fd1161008a578063bc4d9b5d11610064578063bc4d9b5d14610429578063cc57b0fc1461043e578063dd62ed3e14610453578063f2fde38b1461049957600080fd5b80639f2d83fd146103b9578063a457c2d7146103e9578063a9059cbb1461040957600080fd5b8063715018a61461030a57806372c53d9b1461031f578063773ef1cf1461035757806377d24762146103715780638da5cb5b1461038657806395d89b41146103a457600080fd5b8063313ce5671161013e5780633cb40e16116101185780633cb40e16146102965780636c47a6c3146102ab5780636e0a0a3e146102c157806370a08231146102d457600080fd5b8063313ce56714610244578063395093511461026057806339518b5e1461028057600080fd5b806306fdde0314610186578063095ea7b3146101b15780630fb5a6b4146101e15780631249c58b1461020557806318160ddd1461020f57806323b872dd14610224575b600080fd5b34801561019257600080fd5b5061019b6104b9565b6040516101a89190611476565b60405180910390f35b3480156101bd57600080fd5b506101d16101cc3660046114e7565b61054b565b60405190151581526020016101a8565b3480156101ed57600080fd5b506101f760085481565b6040519081526020016101a8565b61020d610563565b005b34801561021b57600080fd5b506002546101f7565b34801561023057600080fd5b506101d161023f366004611511565b6105b9565b34801561025057600080fd5b50604051600081526020016101a8565b34801561026c57600080fd5b506101d161027b3660046114e7565b6105dd565b34801561028c57600080fd5b506101f760065481565b3480156102a257600080fd5b5061020d61061c565b3480156102b757600080fd5b506101f760075481565b61020d6102cf366004611563565b6106ba565b3480156102e057600080fd5b506101f76102ef36600461161e565b6001600160a01b031660009081526020819052604090205490565b34801561031657600080fd5b5061020d6108c0565b34801561032b57600080fd5b5061033f61033a366004611563565b6108f4565b6040516001600160a01b0390911681526020016101a8565b34801561036357600080fd5b506009546101d19060ff1681565b34801561037d57600080fd5b506101f76109a8565b34801561039257600080fd5b506005546001600160a01b031661033f565b3480156103b057600080fd5b5061019b610a09565b3480156103c557600080fd5b506101d16103d436600461161e565b600a6020526000908152604090205460ff1681565b3480156103f557600080fd5b506101d16104043660046114e7565b610a18565b34801561041557600080fd5b506101d16104243660046114e7565b610aaa565b34801561043557600080fd5b5061020d610ab8565b34801561044a57600080fd5b5061020d610b39565b34801561045f57600080fd5b506101f761046e366004611639565b6001600160a01b03918216600090815260016020908152604080832093909416825291909152205490565b3480156104a557600080fd5b5061020d6104b436600461161e565b610bb8565b6060600380546104c89061166c565b80601f01602080910402602001604051908101604052809291908181526020018280546104f49061166c565b80156105415780601f1061051657610100808354040283529160200191610541565b820191906000526020600020905b81548152906001019060200180831161052457829003601f168201915b5050505050905090565b600033610559818585610c53565b5060019392505050565b60075442106105ac5760405162461bcd60e51b815260206004820152601060248201526f14d85b19481a185cc8195e1c1a5c995960821b60448201526064015b60405180910390fd5b6105b7336001610d77565b565b6000336105c7858285610e56565b6105d2858585610ee8565b506001949350505050565b3360008181526001602090815260408083206001600160a01b038716845290915281205490919061055990829086906106179087906116bc565b610c53565b6005546001600160a01b031633146106465760405162461bcd60e51b81526004016105a3906116d4565b47806106895760405162461bcd60e51b81526020600482015260126024820152714e6f2045544820746f20576974686472617760701b60448201526064016105a3565b604051339082156108fc029083906000818181858888f193505050501580156106b6573d6000803e3d6000fd5b5050565b81816106ce6005546001600160a01b031690565b6001600160a01b03166106e183836108f4565b6001600160a01b0316146107455760405162461bcd60e51b815260206004820152602560248201527f63616c6c6572206e6f7420617574686f72697a656420746f206765742064697360448201526418dbdd5b9d60da1b60648201526084016105a3565b60095460ff16151560011461078a5760405162461bcd60e51b815260206004820152600b60248201526a29b0b6329034b99027b33360a91b60448201526064016105a3565b60075442106107ce5760405162461bcd60e51b815260206004820152601060248201526f14d85b19481a185cc8195e1c1a5c995960821b60448201526064016105a3565b336000908152600a602052604090205460ff161561082e5760405162461bcd60e51b815260206004820181905260248201527f63616c6c657220616c726561647920757365642068697320646973636f756e7460448201526064016105a3565b60008411801561083e5750606484105b6108955760405162461bcd60e51b815260206004820152602260248201527f646973636f756e74206d757374206265206265747765656e203020616e642031604482015261030360f41b60648201526084016105a3565b6108a0336001610d77565b5050336000908152600a60205260409020805460ff191660011790555050565b6005546001600160a01b031633146108ea5760405162461bcd60e51b81526004016105a3906116d4565b6105b760006110b6565b6040516bffffffffffffffffffffffff1930606090811b8216602084015233901b166034820152604881018390526000906109a190839061099b90606801604051602081830303815290604052805190602001206040517f19457468657265756d205369676e6564204d6573736167653a0a3332000000006020820152603c8101829052600090605c01604051602081830303815290604052805190602001209050919050565b90611108565b9392505050565b600080600854600654426109bc9190611709565b6109c7906064611720565b6109d1919061173f565b905060646109e782670429d069189e0000611720565b6109f1919061173f565b610a03906702c68af0bb1400006116bc565b91505090565b6060600480546104c89061166c565b3360008181526001602090815260408083206001600160a01b038716845290915281205490919083811015610a9d5760405162461bcd60e51b815260206004820152602560248201527f45524332303a2064656372656173656420616c6c6f77616e63652062656c6f77604482015264207a65726f60d81b60648201526084016105a3565b6105d28286868403610c53565b600033610559818585610ee8565b6005546001600160a01b03163314610ae25760405162461bcd60e51b81526004016105a3906116d4565b60095460ff161515600114610b2d5760405162461bcd60e51b815260206004820152601160248201527029b0b6329030b63932b0b23c9027b3331760791b60448201526064016105a3565b6009805460ff19169055565b6005546001600160a01b03163314610b635760405162461bcd60e51b81526004016105a3906116d4565b60095460ff1615610ba95760405162461bcd60e51b815260206004820152601060248201526f29b0b6329030b63932b0b23c9027b71760811b60448201526064016105a3565b6009805460ff19166001179055565b6005546001600160a01b03163314610be25760405162461bcd60e51b81526004016105a3906116d4565b6001600160a01b038116610c475760405162461bcd60e51b815260206004820152602660248201527f4f776e61626c653a206e6577206f776e657220697320746865207a65726f206160448201526564647265737360d01b60648201526084016105a3565b610c50816110b6565b50565b6001600160a01b038316610cb55760405162461bcd60e51b8152602060048201526024808201527f45524332303a20617070726f76652066726f6d20746865207a65726f206164646044820152637265737360e01b60648201526084016105a3565b6001600160a01b038216610d165760405162461bcd60e51b815260206004820152602260248201527f45524332303a20617070726f766520746f20746865207a65726f206164647265604482015261737360f01b60648201526084016105a3565b6001600160a01b0383811660008181526001602090815260408083209487168084529482529182902085905590518481527f8c5be1e5ebec7d5bd14f71427d1e84f3dd0314c0f7b2291e5b200ac8c7c3b925910160405180910390a3505050565b6001600160a01b038216610dcd5760405162461bcd60e51b815260206004820152601f60248201527f45524332303a206d696e7420746f20746865207a65726f20616464726573730060448201526064016105a3565b8060026000828254610ddf91906116bc565b90915550506001600160a01b03821660009081526020819052604081208054839290610e0c9084906116bc565b90915550506040518181526001600160a01b038316906000907fddf252ad1be2c89b69c2b068fc378daa952ba7f163c4a11628f55a4df523b3ef9060200160405180910390a35050565b6001600160a01b038381166000908152600160209081526040808320938616835292905220546000198114610ee25781811015610ed55760405162461bcd60e51b815260206004820152601d60248201527f45524332303a20696e73756666696369656e7420616c6c6f77616e636500000060448201526064016105a3565b610ee28484848403610c53565b50505050565b6001600160a01b038316610f4c5760405162461bcd60e51b815260206004820152602560248201527f45524332303a207472616e736665722066726f6d20746865207a65726f206164604482015264647265737360d81b60648201526084016105a3565b6001600160a01b038216610fae5760405162461bcd60e51b815260206004820152602360248201527f45524332303a207472616e7366657220746f20746865207a65726f206164647260448201526265737360e81b60648201526084016105a3565b6001600160a01b038316600090815260208190526040902054818110156110265760405162461bcd60e51b815260206004820152602660248201527f45524332303a207472616e7366657220616d6f756e7420657863656564732062604482015265616c616e636560d01b60648201526084016105a3565b6001600160a01b0380851660009081526020819052604080822085850390559185168152908120805484929061105d9084906116bc565b92505081905550826001600160a01b0316846001600160a01b03167fddf252ad1be2c89b69c2b068fc378daa952ba7f163c4a11628f55a4df523b3ef846040516110a991815260200190565b60405180910390a3610ee2565b600580546001600160a01b038381166001600160a01b0319831681179093556040519116919082907f8be0079c531659141344cd1fd0a4f28419497f9722a3daafe3b4186f6b6457e090600090a35050565b6000806000611117858561112c565b915091506111248161119a565b509392505050565b60008082516041036111625760208301516040840151606085015160001a61115687828585611350565b94509450505050611193565b825160400361118b576020830151604084015161118086838361143d565b935093505050611193565b506000905060025b9250929050565b60008160048111156111ae576111ae611761565b036111b65750565b60018160048111156111ca576111ca611761565b036112175760405162461bcd60e51b815260206004820152601860248201527f45434453413a20696e76616c6964207369676e6174757265000000000000000060448201526064016105a3565b600281600481111561122b5761122b611761565b036112785760405162461bcd60e51b815260206004820152601f60248201527f45434453413a20696e76616c6964207369676e6174757265206c656e6774680060448201526064016105a3565b600381600481111561128c5761128c611761565b036112e45760405162461bcd60e51b815260206004820152602260248201527f45434453413a20696e76616c6964207369676e6174757265202773272076616c604482015261756560f01b60648201526084016105a3565b60048160048111156112f8576112f8611761565b03610c505760405162461bcd60e51b815260206004820152602260248201527f45434453413a20696e76616c6964207369676e6174757265202776272076616c604482015261756560f01b60648201526084016105a3565b6000807f7fffffffffffffffffffffffffffffff5d576e7357a4501ddfe92f46681b20a08311156113875750600090506003611434565b8460ff16601b1415801561139f57508460ff16601c14155b156113b05750600090506004611434565b6040805160008082526020820180845289905260ff881692820192909252606081018690526080810185905260019060a0016020604051602081039080840390855afa158015611404573d6000803e3d6000fd5b5050604051601f1901519150506001600160a01b03811661142d57600060019250925050611434565b9150600090505b94509492505050565b6000806001600160ff1b0383168161145a60ff86901c601b6116bc565b905061146887828885611350565b935093505050935093915050565b600060208083528351808285015260005b818110156114a357858101830151858201604001528201611487565b818111156114b5576000604083870101525b50601f01601f1916929092016040019392505050565b80356001600160a01b03811681146114e257600080fd5b919050565b600080604083850312156114fa57600080fd5b611503836114cb565b946020939093013593505050565b60008060006060848603121561152657600080fd5b61152f846114cb565b925061153d602085016114cb565b9150604084013590509250925092565b634e487b7160e01b600052604160045260246000fd5b6000806040838503121561157657600080fd5b82359150602083013567ffffffffffffffff8082111561159557600080fd5b818501915085601f8301126115a957600080fd5b8135818111156115bb576115bb61154d565b604051601f8201601f19908116603f011681019083821181831017156115e3576115e361154d565b816040528281528860208487010111156115fc57600080fd5b8260208601602083013760006020848301015280955050505050509250929050565b60006020828403121561163057600080fd5b6109a1826114cb565b6000806040838503121561164c57600080fd5b611655836114cb565b9150611663602084016114cb565b90509250929050565b600181811c9082168061168057607f821691505b6020821081036116a057634e487b7160e01b600052602260045260246000fd5b50919050565b634e487b7160e01b600052601160045260246000fd5b600082198211156116cf576116cf6116a6565b500190565b6020808252818101527f4f776e61626c653a2063616c6c6572206973206e6f7420746865206f776e6572604082015260600190565b60008282101561171b5761171b6116a6565b500390565b600081600019048311821515161561173a5761173a6116a6565b500290565b60008261175c57634e487b7160e01b600052601260045260246000fd5b500490565b634e487b7160e01b600052602160045260246000fdfea2646970667358221220364afe4f688687d04703f2867030138ca0368ed3e363572b21fa4ffe745ac6bc64736f6c634300080d0033",
  "devdoc": {
    "kind": "dev",
    "methods": {
      "allowance(address,address)": {
        "details": "See {IERC20-allowance}."
      },
      "approve(address,uint256)": {
        "details": "See {IERC20-approve}. NOTE: If `amount` is the maximum `uint256`, the allowance is not updated on `transferFrom`. This is semantically equivalent to an infinite approval. Requirements: - `spender` cannot be the zero address."
      },
      "balanceOf(address)": {
        "details": "See {IERC20-balanceOf}."
      },
      "decimals()": {
        "details": "Returns the number of decimals used to get its user representation. For example, if `decimals` equals `2`, a balance of `505` tokens should be displayed to a user as `5.05` (`505 / 10 ** 2`). Tokens usually opt for a value of 18, imitating the relationship between Ether and Wei. This is the value {ERC20} uses, unless this function is overridden; NOTE: This information is only used for _display_ purposes: it in no way affects any of the arithmetic of the contract, including {IERC20-balanceOf} and {IERC20-transfer}."
      },
      "decreaseAllowance(address,uint256)": {
        "details": "Atomically decreases the allowance granted to `spender` by the caller. This is an alternative to {approve} that can be used as a mitigation for problems described in {IERC20-approve}. Emits an {Approval} event indicating the updated allowance. Requirements: - `spender` cannot be the zero address. - `spender` must have allowance for the caller of at least `subtractedValue`."
      },
      "increaseAllowance(address,uint256)": {
        "details": "Atomically increases the allowance granted to `spender` by the caller. This is an alternative to {approve} that can be used as a mitigation for problems described in {IERC20-approve}. Emits an {Approval} event indicating the updated allowance. Requirements: - `spender` cannot be the zero address."
      },
      "name()": {
        "details": "Returns the name of the token."
      },
      "owner()": {
        "details": "Returns the address of the current owner."
      },
      "renounceOwnership()": {
        "details": "Leaves the contract without owner. It will not be possible to call `onlyOwner` functions anymore. Can only be called by the current owner. NOTE: Renouncing ownership will leave the contract without an owner, thereby removing any functionality that is only available to the owner."
      },
      "symbol()": {
        "details": "Returns the symbol of the token, usually a shorter version of the name."
      },
      "totalSupply()": {
        "details": "See {IERC20-totalSupply}."
      },
      "transfer(address,uint256)": {
        "details": "See {IERC20-transfer}. Requirements: - `to` cannot be the zero address. - the caller must have a balance of at least `amount`."
      },
      "transferFrom(address,address,uint256)": {
        "details": "See {IERC20-transferFrom}. Emits an {Approval} event indicating the updated allowance. This is not required by the EIP. See the note at the beginning of {ERC20}. NOTE: Does not update the allowance if the current allowance is the maximum `uint256`. Requirements: - `from` and `to` cannot be the zero address. - `from` must have a balance of at least `amount`. - the caller must have allowance for ``from``'s tokens of at least `amount`."
      },
      "transferOwnership(address)": {
        "details": "Transfers ownership of the contract to a new account (`newOwner`). Can only be called by the current owner."
      }
    },
    "version": 1
  },
  "userdoc": {
    "kind": "user",
    "methods": {},
    "version": 1
  },
  "storageLayout": {
    "storage": [
      {
        "astId": 542,
        "contract": "contracts/Debond-v0/contracts/MysteryBoxToken.sol:MysteryBoxToken",
        "label": "_balances",
        "offset": 0,
        "slot": "0",
        "type": "t_mapping(t_address,t_uint256)"
      },
      {
        "astId": 548,
        "contract": "contracts/Debond-v0/contracts/MysteryBoxToken.sol:MysteryBoxToken",
        "label": "_allowances",
        "offset": 0,
        "slot": "1",
        "type": "t_mapping(t_address,t_mapping(t_address,t_uint256))"
      },
      {
        "astId": 550,
        "contract": "contracts/Debond-v0/contracts/MysteryBoxToken.sol:MysteryBoxToken",
        "label": "_totalSupply",
        "offset": 0,
        "slot": "2",
        "type": "t_uint256"
      },
      {
        "astId": 552,
        "contract": "contracts/Debond-v0/contracts/MysteryBoxToken.sol:MysteryBoxToken",
        "label": "_name",
        "offset": 0,
        "slot": "3",
        "type": "t_string_storage"
      },
      {
        "astId": 554,
        "contract": "contracts/Debond-v0/contracts/MysteryBoxToken.sol:MysteryBoxToken",
        "label": "_symbol",
        "offset": 0,
        "slot": "4",
        "type": "t_string_storage"
      },
      {
        "astId": 389,
        "contract": "contracts/Debond-v0/contracts/MysteryBoxToken.sol:MysteryBoxToken",
        "label": "_owner",
        "offset": 0,
        "slot": "5",
        "type": "t_address"
      },
      {
        "astId": 9395,
        "contract": "contracts/Debond-v0/contracts/MysteryBoxToken.sol:MysteryBoxToken",
        "label": "startingTime",
        "offset": 0,
        "slot": "6",
        "type": "t_uint256"
      },
      {
        "astId": 9397,
        "contract": "contracts/Debond-v0/contracts/MysteryBoxToken.sol:MysteryBoxToken",
        "label": "endingTime",
        "offset": 0,
        "slot": "7",
        "type": "t_uint256"
      },
      {
        "astId": 9399,
        "contract": "contracts/Debond-v0/contracts/MysteryBoxToken.sol:MysteryBoxToken",
        "label": "duration",
        "offset": 0,
        "slot": "8",
        "type": "t_uint256"
      },
      {
        "astId": 9402,
        "contract": "contracts/Debond-v0/contracts/MysteryBoxToken.sol:MysteryBoxToken",
        "label": "saleOn",
        "offset": 0,
        "slot": "9",
        "type": "t_bool"
      },
      {
        "astId": 9406,
        "contract": "contracts/Debond-v0/contracts/MysteryBoxToken.sol:MysteryBoxToken",
        "label": "discountClaimed",
        "offset": 0,
        "slot": "10",
        "type": "t_mapping(t_address,t_bool)"
      }
    ],
    "types": {
      "t_address": {
        "encoding": "inplace",
        "label": "address",
        "numberOfBytes": "20"
      },
      "t_bool": {
        "encoding": "inplace",
        "label": "bool",
        "numberOfBytes": "1"
      },
      "t_mapping(t_address,t_bool)": {
        "encoding": "mapping",
        "key": "t_address",
        "label": "mapping(address => bool)",
        "numberOfBytes": "32",
        "value": "t_bool"
      },
      "t_mapping(t_address,t_mapping(t_address,t_uint256))": {
        "encoding": "mapping",
        "key": "t_address",
        "label": "mapping(address => mapping(address => uint256))",
        "numberOfBytes": "32",
        "value": "t_mapping(t_address,t_uint256)"
      },
      "t_mapping(t_address,t_uint256)": {
        "encoding": "mapping",
        "key": "t_address",
        "label": "mapping(address => uint256)",
        "numberOfBytes": "32",
        "value": "t_uint256"
      },
      "t_string_storage": {
        "encoding": "bytes",
        "label": "string",
        "numberOfBytes": "32"
      },
      "t_uint256": {
        "encoding": "inplace",
        "label": "uint256",
        "numberOfBytes": "32"
      }
    }
  }
}