{
  "address": "0x0165878A594ca255338adfa4d48449f69242Eb8F",
  "abi": [
    {
      "inputs": [
        {
          "internalType": "uint256",
          "name": "oldVlp",
          "type": "uint256"
        },
        {
          "internalType": "uint256",
          "name": "amount",
          "type": "uint256"
        },
        {
          "internalType": "uint256",
          "name": "totalVlpToken",
          "type": "uint256"
        },
        {
          "internalType": "uint256",
          "name": "totalReserveToken",
          "type": "uint256"
        }
      ],
      "name": "amountToAddVlp",
      "outputs": [
        {
          "internalType": "uint256",
          "name": "newVlp",
          "type": "uint256"
        }
      ],
      "stateMutability": "pure",
      "type": "function"
    },
    {
      "inputs": [
        {
          "internalType": "uint256",
          "name": "oldVlp",
          "type": "uint256"
        },
        {
          "internalType": "uint256",
          "name": "amount",
          "type": "uint256"
        },
        {
          "internalType": "uint256",
          "name": "totalVlpToken",
          "type": "uint256"
        },
        {
          "internalType": "uint256",
          "name": "totalReserveToken",
          "type": "uint256"
        }
      ],
      "name": "amountToRemoveVlp",
      "outputs": [
        {
          "internalType": "uint256",
          "name": "newVlp",
          "type": "uint256"
        }
      ],
      "stateMutability": "pure",
      "type": "function"
    },
    {
      "inputs": [
        {
          "internalType": "uint256",
          "name": "amountIn",
          "type": "uint256"
        },
        {
          "internalType": "address[]",
          "name": "path",
          "type": "address[]"
        }
      ],
      "name": "getAmountsOut",
      "outputs": [
        {
          "internalType": "uint256[]",
          "name": "amounts",
          "type": "uint256[]"
        }
      ],
      "stateMutability": "view",
      "type": "function"
    },
    {
      "inputs": [
        {
          "internalType": "address",
          "name": "tokenA",
          "type": "address"
        },
        {
          "internalType": "address",
          "name": "tokenB",
          "type": "address"
        }
      ],
      "name": "getReserves",
      "outputs": [
        {
          "internalType": "uint256",
          "name": "reserveA",
          "type": "uint256"
        },
        {
          "internalType": "uint256",
          "name": "reserveB",
          "type": "uint256"
        }
      ],
      "stateMutability": "view",
      "type": "function"
    },
    {
      "inputs": [
        {
          "internalType": "address",
          "name": "tokenA",
          "type": "address"
        },
        {
          "internalType": "address",
          "name": "tokenB",
          "type": "address"
        }
      ],
      "name": "getVlps",
      "outputs": [
        {
          "internalType": "uint256",
          "name": "vlpA",
          "type": "uint256"
        }
      ],
      "stateMutability": "view",
      "type": "function"
    },
    {
      "inputs": [
        {
          "internalType": "uint256",
          "name": "amount0Out",
          "type": "uint256"
        },
        {
          "internalType": "uint256",
          "name": "amount1Out",
          "type": "uint256"
        },
        {
          "internalType": "address",
          "name": "token0",
          "type": "address"
        },
        {
          "internalType": "address",
          "name": "token1",
          "type": "address"
        },
        {
          "internalType": "address",
          "name": "to",
          "type": "address"
        }
      ],
      "name": "swap",
      "outputs": [],
      "stateMutability": "nonpayable",
      "type": "function"
    },
    {
      "inputs": [
        {
          "internalType": "address",
          "name": "tokenAddress",
          "type": "address"
        },
        {
          "internalType": "uint256",
          "name": "amount",
          "type": "uint256"
        }
      ],
      "name": "updateTotalReserve",
      "outputs": [],
      "stateMutability": "nonpayable",
      "type": "function"
    },
    {
      "inputs": [
        {
          "internalType": "uint256",
          "name": "amountA",
          "type": "uint256"
        },
        {
          "internalType": "uint256",
          "name": "amountB",
          "type": "uint256"
        },
        {
          "internalType": "address",
          "name": "tokenA",
          "type": "address"
        },
        {
          "internalType": "address",
          "name": "tokenB",
          "type": "address"
        }
      ],
      "name": "updateWhenAddLiquidity",
      "outputs": [],
      "stateMutability": "nonpayable",
      "type": "function"
    },
    {
      "inputs": [
        {
          "internalType": "uint256",
          "name": "amount",
          "type": "uint256"
        },
        {
          "internalType": "address",
          "name": "token",
          "type": "address"
        }
      ],
      "name": "updateWhenRemoveLiquidity",
      "outputs": [],
      "stateMutability": "nonpayable",
      "type": "function"
    },
    {
      "inputs": [
        {
          "internalType": "uint256",
          "name": "amountAAdded",
          "type": "uint256"
        },
        {
          "internalType": "uint256",
          "name": "amountBWithdrawn",
          "type": "uint256"
        },
        {
          "internalType": "address",
          "name": "tokenA",
          "type": "address"
        },
        {
          "internalType": "address",
          "name": "tokenB",
          "type": "address"
        }
      ],
      "name": "updateWhenSwap",
      "outputs": [],
      "stateMutability": "nonpayable",
      "type": "function"
    }
  ],
  "transactionHash": "0x93e1179c748433682a37d9013c9ac7e43cb80e120318cd4a44322f07ea5fc38a",
  "args": [],
  "numDeployments": 1,
  "solcInputHash": "38817cb41b79540a5b058d9672f7da4c",
  "bytecode": "0x608060405234801561001057600080fd5b506111a4806100206000396000f3fe608060405234801561001057600080fd5b506004361061009e5760003560e01c8063b05e9e0f11610066578063b05e9e0f14610117578063d06ca61f1461012a578063d52bb6f41461014a578063d5855a0014610172578063eab90da6146101ab57600080fd5b80633b730df1146100a35780633f056cc6146100b857806347f62a9d146100cb5780634c9bd2cb146100f15780637921709314610104575b600080fd5b6100b66100b1366004610dfd565b6101be565b005b6100b66100c6366004610dfd565b6101da565b6100de6100d9366004610e43565b6101f0565b6040519081526020015b60405180910390f35b6100de6100ff366004610e43565b61021a565b6100b6610112366004610e75565b61023b565b6100b6610125366004610e9f565b61027f565b61013d610138366004610ee1565b6102b0565b6040516100e89190610fb2565b61015d610158366004610ff6565b61043e565b604080519283526020830191909152016100e8565b6100de610180366004610ff6565b6001600160a01b03918216600090815260026020908152604080832093909416825291909152205490565b6100b66101b9366004611020565b610460565b6101c98483836109c0565b6101d48382846109c0565b50505050565b6101e58483836109c0565b6101d4838284610b15565b6000816101fd848661108d565b61020791906110ac565b61021190866110ce565b95945050505050565b600081610227848661108d565b61023191906110ac565b61021190866110e6565b6001600160a01b03821660009081526020819052604090205461025f9082906110ce565b6001600160a01b0390921660009081526020819052604090209190915550565b6001600160a01b038116600090815260208190526040812080548492906102a79084906110e6565b90915550505050565b60606002825110156103095760405162461bcd60e51b815260206004820152601e60248201527f556e697377617056324c6962726172793a20494e56414c49445f50415448000060448201526064015b60405180910390fd5b815167ffffffffffffffff81111561032357610323610ecb565b60405190808252806020026020018201604052801561034c578160200160208202803683370190505b5090508281600081518110610363576103636110fd565b60200260200101818152505060005b6001835161038091906110e6565b811015610437576000806103d285848151811061039f5761039f6110fd565b6020026020010151868560016103b591906110ce565b815181106103c5576103c56110fd565b602002602001015161043e565b915091506103fa8484815181106103eb576103eb6110fd565b60200260200101518383610c43565b846104068560016110ce565b81518110610416576104166110fd565b6020026020010181815250505050808061042f90611113565b915050610372565b5092915050565b60008061044b8484610d3f565b6104558486610d3f565b909590945092505050565b841580159061046d575083155b8061048057508415801561048057508315155b6104eb5760405162461bcd60e51b815260206004820152603660248201527f41504d20737761703a20494e53554646494349454e545f4f55545055545f414d60448201527504f554e545f4f725f426f74685f6f7574707574203e360541b6064820152608401610300565b6000806104f8858561043e565b91509150818710801561050a57508086105b6105565760405162461bcd60e51b815260206004820181905260248201527f41504d20737761703a20494e53554646494349454e545f4c49515549444954596044820152606401610300565b61058f6040518060c001604052806000815260200160008152602001600081526020016000815260200160008152602001600081525090565b856001600160a01b0316846001600160a01b0316141580156105c35750846001600160a01b0316846001600160a01b031614155b6106065760405162461bcd60e51b815260206004820152601460248201527341504d20737761703a20494e56414c49445f544f60601b6044820152606401610300565b6040516370a0823160e01b81523060048201526001600160a01b038716906370a0823190602401602060405180830381865afa15801561064a573d6000803e3d6000fd5b505050506040513d601f19601f8201168201806040525081019061066e919061112c565b81526040516370a0823160e01b81523060048201526001600160a01b038616906370a0823190602401602060405180830381865afa1580156106b4573d6000803e3d6000fd5b505050506040513d601f19601f820116820180604052508101906106d8919061112c565b6020808301919091526001600160a01b0387166000908152908190526040902054815161070590856110ce565b61070f91906110e6565b6040808301919091526001600160a01b03861660009081526020818152919020549082015161073e90846110ce565b61074891906110e6565b606082015261075788846110e6565b816040015111610768576000610781565b61077288846110e6565b816040015161078191906110e6565b608082015261079087836110e6565b8160600151116107a15760006107ba565b6107ab87836110e6565b81606001516107ba91906110e6565b60a082015260808101511515806107d5575060008160a00151115b61082d5760405162461bcd60e51b815260206004820152602360248201527f41504d20737761703a20494e53554646494349454e545f494e5055545f414d4f60448201526215539560ea1b6064820152608401610300565b610837828461108d565b8160600151826040015161084b919061108d565b10156108875760405162461bcd60e51b815260206004820152600b60248201526a41504d20737761703a204b60a81b6044820152606401610300565b87600003610925578615610910576040516323b872dd60e01b81523060048201526001600160a01b038581166024830152604482018990528616906323b872dd906064016020604051808303816000875af11580156108ea573d6000803e3d6000fd5b505050506040513d601f19601f8201168201806040525081019061090e9190611145565b505b61092081608001518888886101da565b6109b6565b87156109a6576040516323b872dd60e01b81523060048201526001600160a01b038581166024830152604482018a90528716906323b872dd906064016020604051808303816000875af1158015610980573d6000803e3d6000fd5b505050506040513d601f19601f820116820180604052508101906109a49190611145565b505b6109b68160a001518987896101da565b5050505050505050565b6109c8610da7565b8381526001600160a01b03808416604080840182905291841660608401526000908152602081905220548015610aa5576001600160a01b038085166000908152600260209081526040808320878516845282528083205486820151909416835260019091528120548451909190610a4290849084876101f0565b6001600160a01b038089166000908152600260209081526040808320938b16835292905220819055905080610a7784846110e6565b610a8191906110ce565b6040808701516001600160a01b031660009081526001602052205550610ae2915050565b6001600160a01b03808516600090815260026020908152604080832087851684528252808320899055855186820151909416835260019091529020555b8151610aee90826110ce565b6040928301516001600160a01b031660009081526020819052929092209190915550505050565b610b1d610da7565b8381526001600160a01b03808416604080840182905291841660608401526000908152602081905220548015610bfa576001600160a01b038085166000908152600260209081526040808320878516845282528083205486820151909416835260019091528120548451909190610b97908490848761021a565b6001600160a01b038089166000908152600260209081526040808320938b16835292905220819055905080610bcc84846110e6565b610bd691906110ce565b6040808701516001600160a01b031660009081526001602052205550610c37915050565b6001600160a01b03808516600090815260026020908152604080832087851684528252808320899055855186820151909416835260019091529020555b8151610aee90826110e6565b6000808411610ca55760405162461bcd60e51b815260206004820152602860248201527f4465626f6e644c6962726172793a20494e53554646494349454e545f494e50556044820152671517d05353d5539560c21b6064820152608401610300565b600083118015610cb55750600082115b610d0f5760405162461bcd60e51b815260206004820152602560248201527f4465626f6e644c6962726172793a20494e53554646494349454e545f4c495155604482015264494449545960d81b6064820152608401610300565b6000610d1b838661108d565b90506000610d2986866110ce565b9050610d3581836110ac565b9695505050505050565b6001600160a01b0382166000908152600160205260408120548015610437576001600160a01b03808516600081815260026020908152604080832094881683529381528382205492825281905291909120548290610d9d908361108d565b61021191906110ac565b6040518060800160405280600081526020016000815260200160006001600160a01b0316815260200160006001600160a01b031681525090565b80356001600160a01b0381168114610df857600080fd5b919050565b60008060008060808587031215610e1357600080fd5b8435935060208501359250610e2a60408601610de1565b9150610e3860608601610de1565b905092959194509250565b60008060008060808587031215610e5957600080fd5b5050823594602084013594506040840135936060013592509050565b60008060408385031215610e8857600080fd5b610e9183610de1565b946020939093013593505050565b60008060408385031215610eb257600080fd5b82359150610ec260208401610de1565b90509250929050565b634e487b7160e01b600052604160045260246000fd5b60008060408385031215610ef457600080fd5b8235915060208084013567ffffffffffffffff80821115610f1457600080fd5b818601915086601f830112610f2857600080fd5b813581811115610f3a57610f3a610ecb565b8060051b604051601f19603f83011681018181108582111715610f5f57610f5f610ecb565b604052918252848201925083810185019189831115610f7d57600080fd5b938501935b82851015610fa257610f9385610de1565b84529385019392850192610f82565b8096505050505050509250929050565b6020808252825182820181905260009190848201906040850190845b81811015610fea57835183529284019291840191600101610fce565b50909695505050505050565b6000806040838503121561100957600080fd5b61101283610de1565b9150610ec260208401610de1565b600080600080600060a0868803121561103857600080fd5b853594506020860135935061104f60408701610de1565b925061105d60608701610de1565b915061106b60808701610de1565b90509295509295909350565b634e487b7160e01b600052601160045260246000fd5b60008160001904831182151516156110a7576110a7611077565b500290565b6000826110c957634e487b7160e01b600052601260045260246000fd5b500490565b600082198211156110e1576110e1611077565b500190565b6000828210156110f8576110f8611077565b500390565b634e487b7160e01b600052603260045260246000fd5b60006001820161112557611125611077565b5060010190565b60006020828403121561113e57600080fd5b5051919050565b60006020828403121561115757600080fd5b8151801515811461116757600080fd5b939250505056fea26469706673582212202f9e708e00bd866e7cf23b6ba3f60c14a35e8f37578a633ff0500f3f4c9f6b4b64736f6c634300080d0033",
  "devdoc": {
    "kind": "dev",
    "methods": {},
    "version": 1
  },
  "userdoc": {
    "kind": "user",
    "methods": {},
    "version": 1
  },
  "storageLayout": {
    "storage": [
      {
        "astId": 2492,
        "contract": "contracts/Debond-v0/contracts/APM.sol:APM",
        "label": "totalReserve",
        "offset": 0,
        "slot": "0",
        "type": "t_mapping(t_address,t_uint256)"
      },
      {
        "astId": 2496,
        "contract": "contracts/Debond-v0/contracts/APM.sol:APM",
        "label": "totalVlp",
        "offset": 0,
        "slot": "1",
        "type": "t_mapping(t_address,t_uint256)"
      },
      {
        "astId": 2502,
        "contract": "contracts/Debond-v0/contracts/APM.sol:APM",
        "label": "vlp",
        "offset": 0,
        "slot": "2",
        "type": "t_mapping(t_address,t_mapping(t_address,t_uint256))"
      }
    ],
    "types": {
      "t_address": {
        "encoding": "inplace",
        "label": "address",
        "numberOfBytes": "20"
      },
      "t_mapping(t_address,t_mapping(t_address,t_uint256))": {
        "encoding": "mapping",
        "key": "t_address",
        "label": "mapping(address => mapping(address => uint256))",
        "numberOfBytes": "32",
        "value": "t_mapping(t_address,t_uint256)"
      },
      "t_mapping(t_address,t_uint256)": {
        "encoding": "mapping",
        "key": "t_address",
        "label": "mapping(address => uint256)",
        "numberOfBytes": "32",
        "value": "t_uint256"
      },
      "t_uint256": {
        "encoding": "inplace",
        "label": "uint256",
        "numberOfBytes": "32"
      }
    }
  }
}