{
  "address": "0xE3011A37A904aB90C8881a99BD1F6E21401f1522",
  "abi": [
    {
      "inputs": [
        {
          "internalType": "address",
          "name": "DBIT",
          "type": "address"
        },
        {
          "internalType": "address",
          "name": "USDC",
          "type": "address"
        },
        {
          "internalType": "address",
          "name": "USDT",
          "type": "address"
        },
        {
          "internalType": "address",
          "name": "DAI",
          "type": "address"
        }
      ],
      "stateMutability": "nonpayable",
      "type": "constructor"
    },
    {
      "anonymous": false,
      "inputs": [
        {
          "indexed": true,
          "internalType": "address",
          "name": "_owner",
          "type": "address"
        },
        {
          "indexed": true,
          "internalType": "address",
          "name": "_operator",
          "type": "address"
        },
        {
          "indexed": false,
          "internalType": "uint256",
          "name": "classId",
          "type": "uint256"
        },
        {
          "indexed": false,
          "internalType": "bool",
          "name": "_approved",
          "type": "bool"
        }
      ],
      "name": "ApprovalFor",
      "type": "event"
    },
    {
      "anonymous": false,
      "inputs": [
        {
          "indexed": true,
          "internalType": "address",
          "name": "_operator",
          "type": "address"
        },
        {
          "indexed": true,
          "internalType": "address",
          "name": "_from",
          "type": "address"
        },
        {
          "indexed": false,
          "internalType": "uint256",
          "name": "classId",
          "type": "uint256"
        },
        {
          "indexed": false,
          "internalType": "uint256",
          "name": "nonceId",
          "type": "uint256"
        },
        {
          "indexed": false,
          "internalType": "uint256",
          "name": "amount",
          "type": "uint256"
        }
      ],
      "name": "Burn",
      "type": "event"
    },
    {
      "anonymous": false,
      "inputs": [
        {
          "indexed": true,
          "internalType": "address",
          "name": "_operator",
          "type": "address"
        },
        {
          "indexed": true,
          "internalType": "address",
          "name": "_to",
          "type": "address"
        },
        {
          "indexed": false,
          "internalType": "uint256",
          "name": "classId",
          "type": "uint256"
        },
        {
          "indexed": false,
          "internalType": "uint256",
          "name": "nonceId",
          "type": "uint256"
        },
        {
          "indexed": false,
          "internalType": "uint256",
          "name": "amount",
          "type": "uint256"
        }
      ],
      "name": "Issue",
      "type": "event"
    },
    {
      "anonymous": false,
      "inputs": [
        {
          "indexed": true,
          "internalType": "address",
          "name": "_operator",
          "type": "address"
        },
        {
          "indexed": true,
          "internalType": "address",
          "name": "_from",
          "type": "address"
        },
        {
          "indexed": false,
          "internalType": "uint256",
          "name": "classId",
          "type": "uint256"
        },
        {
          "indexed": false,
          "internalType": "uint256",
          "name": "nonceId",
          "type": "uint256"
        },
        {
          "indexed": false,
          "internalType": "uint256",
          "name": "amount",
          "type": "uint256"
        }
      ],
      "name": "Redeem",
      "type": "event"
    },
    {
      "anonymous": false,
      "inputs": [
        {
          "indexed": true,
          "internalType": "bytes32",
          "name": "role",
          "type": "bytes32"
        },
        {
          "indexed": true,
          "internalType": "bytes32",
          "name": "previousAdminRole",
          "type": "bytes32"
        },
        {
          "indexed": true,
          "internalType": "bytes32",
          "name": "newAdminRole",
          "type": "bytes32"
        }
      ],
      "name": "RoleAdminChanged",
      "type": "event"
    },
    {
      "anonymous": false,
      "inputs": [
        {
          "indexed": true,
          "internalType": "bytes32",
          "name": "role",
          "type": "bytes32"
        },
        {
          "indexed": true,
          "internalType": "address",
          "name": "account",
          "type": "address"
        },
        {
          "indexed": true,
          "internalType": "address",
          "name": "sender",
          "type": "address"
        }
      ],
      "name": "RoleGranted",
      "type": "event"
    },
    {
      "anonymous": false,
      "inputs": [
        {
          "indexed": true,
          "internalType": "bytes32",
          "name": "role",
          "type": "bytes32"
        },
        {
          "indexed": true,
          "internalType": "address",
          "name": "account",
          "type": "address"
        },
        {
          "indexed": true,
          "internalType": "address",
          "name": "sender",
          "type": "address"
        }
      ],
      "name": "RoleRevoked",
      "type": "event"
    },
    {
      "anonymous": false,
      "inputs": [
        {
          "indexed": true,
          "internalType": "address",
          "name": "_operator",
          "type": "address"
        },
        {
          "indexed": true,
          "internalType": "address",
          "name": "_from",
          "type": "address"
        },
        {
          "indexed": true,
          "internalType": "address",
          "name": "_to",
          "type": "address"
        },
        {
          "indexed": false,
          "internalType": "uint256",
          "name": "classId",
          "type": "uint256"
        },
        {
          "indexed": false,
          "internalType": "uint256",
          "name": "nonceId",
          "type": "uint256"
        },
        {
          "indexed": false,
          "internalType": "uint256",
          "name": "amount",
          "type": "uint256"
        }
      ],
      "name": "Transfer",
      "type": "event"
    },
    {
      "inputs": [],
      "name": "DEFAULT_ADMIN_ROLE",
      "outputs": [
        {
          "internalType": "bytes32",
          "name": "",
          "type": "bytes32"
        }
      ],
      "stateMutability": "view",
      "type": "function"
    },
    {
      "inputs": [],
      "name": "ISSUER_ROLE",
      "outputs": [
        {
          "internalType": "bytes32",
          "name": "",
          "type": "bytes32"
        }
      ],
      "stateMutability": "view",
      "type": "function"
    },
    {
      "inputs": [],
      "name": "ONE_HOUR_PERIOD",
      "outputs": [
        {
          "internalType": "uint256",
          "name": "",
          "type": "uint256"
        }
      ],
      "stateMutability": "view",
      "type": "function"
    },
    {
      "inputs": [],
      "name": "TWO_DAYS_PERIOD",
      "outputs": [
        {
          "internalType": "uint256",
          "name": "",
          "type": "uint256"
        }
      ],
      "stateMutability": "view",
      "type": "function"
    },
    {
      "inputs": [],
      "name": "_isActive",
      "outputs": [
        {
          "internalType": "bool",
          "name": "",
          "type": "bool"
        }
      ],
      "stateMutability": "view",
      "type": "function"
    },
    {
      "inputs": [
        {
          "internalType": "uint256",
          "name": "classId",
          "type": "uint256"
        },
        {
          "internalType": "uint256",
          "name": "nonceId",
          "type": "uint256"
        }
      ],
      "name": "activeSupply",
      "outputs": [
        {
          "internalType": "uint256",
          "name": "",
          "type": "uint256"
        }
      ],
      "stateMutability": "view",
      "type": "function"
    },
    {
      "inputs": [
        {
          "internalType": "address",
          "name": "owner",
          "type": "address"
        },
        {
          "internalType": "address",
          "name": "spender",
          "type": "address"
        },
        {
          "internalType": "uint256",
          "name": "classId",
          "type": "uint256"
        },
        {
          "internalType": "uint256",
          "name": "nonceId",
          "type": "uint256"
        }
      ],
      "name": "allowance",
      "outputs": [
        {
          "internalType": "uint256",
          "name": "",
          "type": "uint256"
        }
      ],
      "stateMutability": "view",
      "type": "function"
    },
    {
      "inputs": [
        {
          "internalType": "address",
          "name": "spender",
          "type": "address"
        },
        {
          "internalType": "uint256",
          "name": "classId",
          "type": "uint256"
        },
        {
          "internalType": "uint256",
          "name": "nonceId",
          "type": "uint256"
        },
        {
          "internalType": "uint256",
          "name": "amount",
          "type": "uint256"
        }
      ],
      "name": "approve",
      "outputs": [],
      "stateMutability": "nonpayable",
      "type": "function"
    },
    {
      "inputs": [
        {
          "internalType": "address",
          "name": "account",
          "type": "address"
        },
        {
          "internalType": "uint256",
          "name": "classId",
          "type": "uint256"
        },
        {
          "internalType": "uint256",
          "name": "nonceId",
          "type": "uint256"
        }
      ],
      "name": "balanceOf",
      "outputs": [
        {
          "internalType": "uint256",
          "name": "",
          "type": "uint256"
        }
      ],
      "stateMutability": "view",
      "type": "function"
    },
    {
      "inputs": [
        {
          "internalType": "uint256",
          "name": "classId",
          "type": "uint256"
        }
      ],
      "name": "batchActiveSupply",
      "outputs": [
        {
          "internalType": "uint256",
          "name": "",
          "type": "uint256"
        }
      ],
      "stateMutability": "view",
      "type": "function"
    },
    {
      "inputs": [
        {
          "internalType": "address",
          "name": "spender",
          "type": "address"
        },
        {
          "internalType": "uint256[]",
          "name": "classIds",
          "type": "uint256[]"
        },
        {
          "internalType": "uint256[]",
          "name": "nonceIds",
          "type": "uint256[]"
        },
        {
          "internalType": "uint256[]",
          "name": "amounts",
          "type": "uint256[]"
        }
      ],
      "name": "batchApprove",
      "outputs": [],
      "stateMutability": "nonpayable",
      "type": "function"
    },
    {
      "inputs": [
        {
          "internalType": "uint256",
          "name": "classId",
          "type": "uint256"
        }
      ],
      "name": "batchBurnedSupply",
      "outputs": [
        {
          "internalType": "uint256",
          "name": "",
          "type": "uint256"
        }
      ],
      "stateMutability": "view",
      "type": "function"
    },
    {
      "inputs": [
        {
          "internalType": "uint256",
          "name": "classId",
          "type": "uint256"
        }
      ],
      "name": "batchRedeemedSupply",
      "outputs": [
        {
          "internalType": "uint256",
          "name": "",
          "type": "uint256"
        }
      ],
      "stateMutability": "view",
      "type": "function"
    },
    {
      "inputs": [
        {
          "internalType": "uint256",
          "name": "classId",
          "type": "uint256"
        }
      ],
      "name": "batchTotalSupply",
      "outputs": [
        {
          "internalType": "uint256",
          "name": "",
          "type": "uint256"
        }
      ],
      "stateMutability": "view",
      "type": "function"
    },
    {
      "inputs": [
        {
          "internalType": "address",
          "name": "tokenAddress",
          "type": "address"
        },
        {
          "internalType": "enum IData.InterestRateType",
          "name": "interestRateType",
          "type": "uint8"
        }
      ],
      "name": "bondAmountDue",
      "outputs": [
        {
          "internalType": "uint256",
          "name": "",
          "type": "uint256"
        }
      ],
      "stateMutability": "view",
      "type": "function"
    },
    {
      "inputs": [
        {
          "internalType": "uint256",
          "name": "classId",
          "type": "uint256"
        },
        {
          "internalType": "uint256",
          "name": "nonceId",
          "type": "uint256"
        }
      ],
      "name": "bondDetails",
      "outputs": [
        {
          "internalType": "string",
          "name": "_symbol",
          "type": "string"
        },
        {
          "internalType": "enum IData.InterestRateType",
          "name": "_interestRateType",
          "type": "uint8"
        },
        {
          "internalType": "address",
          "name": "_tokenAddress",
          "type": "address"
        },
        {
          "internalType": "uint256",
          "name": "_periodTimestamp",
          "type": "uint256"
        },
        {
          "internalType": "uint256",
          "name": "_issuanceDate",
          "type": "uint256"
        },
        {
          "internalType": "uint256",
          "name": "_maturityDate",
          "type": "uint256"
        }
      ],
      "stateMutability": "view",
      "type": "function"
    },
    {
      "inputs": [
        {
          "internalType": "address",
          "name": "from",
          "type": "address"
        },
        {
          "internalType": "uint256",
          "name": "classId",
          "type": "uint256"
        },
        {
          "internalType": "uint256",
          "name": "nonceId",
          "type": "uint256"
        },
        {
          "internalType": "uint256",
          "name": "amount",
          "type": "uint256"
        }
      ],
      "name": "burn",
      "outputs": [],
      "stateMutability": "nonpayable",
      "type": "function"
    },
    {
      "inputs": [
        {
          "internalType": "uint256",
          "name": "classId",
          "type": "uint256"
        },
        {
          "internalType": "uint256",
          "name": "nonceId",
          "type": "uint256"
        }
      ],
      "name": "burnedSupply",
      "outputs": [
        {
          "internalType": "uint256",
          "name": "",
          "type": "uint256"
        }
      ],
      "stateMutability": "view",
      "type": "function"
    },
    {
      "inputs": [
        {
          "internalType": "uint256",
          "name": "classId",
          "type": "uint256"
        }
      ],
      "name": "classExists",
      "outputs": [
        {
          "internalType": "bool",
          "name": "",
          "type": "bool"
        }
      ],
      "stateMutability": "view",
      "type": "function"
    },
    {
      "inputs": [
        {
          "internalType": "uint256",
          "name": "classInfo",
          "type": "uint256"
        }
      ],
      "name": "classInfoDescription",
      "outputs": [
        {
          "internalType": "string",
          "name": "",
          "type": "string"
        }
      ],
      "stateMutability": "view",
      "type": "function"
    },
    {
      "inputs": [
        {
          "internalType": "uint256",
          "name": "",
          "type": "uint256"
        }
      ],
      "name": "classInfoDescriptions",
      "outputs": [
        {
          "internalType": "string",
          "name": "",
          "type": "string"
        }
      ],
      "stateMutability": "view",
      "type": "function"
    },
    {
      "inputs": [
        {
          "internalType": "uint256",
          "name": "classId",
          "type": "uint256"
        }
      ],
      "name": "classInfos",
      "outputs": [
        {
          "internalType": "uint256[]",
          "name": "",
          "type": "uint256[]"
        }
      ],
      "stateMutability": "view",
      "type": "function"
    },
    {
      "inputs": [
        {
          "internalType": "address",
          "name": "",
          "type": "address"
        },
        {
          "internalType": "uint256",
          "name": "",
          "type": "uint256"
        }
      ],
      "name": "classesPerAddressArray",
      "outputs": [
        {
          "internalType": "uint256",
          "name": "",
          "type": "uint256"
        }
      ],
      "stateMutability": "view",
      "type": "function"
    },
    {
      "inputs": [
        {
          "internalType": "uint256",
          "name": "classId",
          "type": "uint256"
        },
        {
          "internalType": "string",
          "name": "_symbol",
          "type": "string"
        },
        {
          "internalType": "enum IData.InterestRateType",
          "name": "interestRateType",
          "type": "uint8"
        },
        {
          "internalType": "address",
          "name": "tokenAddress",
          "type": "address"
        },
        {
          "internalType": "uint256",
          "name": "periodTimestamp",
          "type": "uint256"
        }
      ],
      "name": "createClass",
      "outputs": [],
      "stateMutability": "nonpayable",
      "type": "function"
    },
    {
      "inputs": [
        {
          "internalType": "uint256",
          "name": "classId",
          "type": "uint256"
        },
        {
          "internalType": "uint256",
          "name": "nonceId",
          "type": "uint256"
        },
        {
          "internalType": "uint256",
          "name": "_maturityDate",
          "type": "uint256"
        },
        {
          "internalType": "uint256",
          "name": "liqT",
          "type": "uint256"
        }
      ],
      "name": "createNonce",
      "outputs": [],
      "stateMutability": "nonpayable",
      "type": "function"
    },
    {
      "inputs": [
        {
          "internalType": "uint256",
          "name": "classId",
          "type": "uint256"
        }
      ],
      "name": "getClassFromId",
      "outputs": [
        {
          "internalType": "string",
          "name": "symbol",
          "type": "string"
        },
        {
          "internalType": "enum IData.InterestRateType",
          "name": "interestRateType",
          "type": "uint8"
        },
        {
          "internalType": "address",
          "name": "tokenAddress",
          "type": "address"
        },
        {
          "internalType": "uint256",
          "name": "periodTimestamp",
          "type": "uint256"
        }
      ],
      "stateMutability": "view",
      "type": "function"
    },
    {
      "inputs": [
        {
          "internalType": "address",
          "name": "_address",
          "type": "address"
        }
      ],
      "name": "getClassesPerAddress",
      "outputs": [
        {
          "internalType": "uint256[]",
          "name": "_classes",
          "type": "uint256[]"
        }
      ],
      "stateMutability": "view",
      "type": "function"
    },
    {
      "inputs": [
        {
          "internalType": "address",
          "name": "addr",
          "type": "address"
        },
        {
          "internalType": "uint256",
          "name": "classId",
          "type": "uint256"
        }
      ],
      "name": "getNoncesPerAddress",
      "outputs": [
        {
          "internalType": "uint256[]",
          "name": "",
          "type": "uint256[]"
        }
      ],
      "stateMutability": "view",
      "type": "function"
    },
    {
      "inputs": [
        {
          "internalType": "bytes32",
          "name": "role",
          "type": "bytes32"
        }
      ],
      "name": "getRoleAdmin",
      "outputs": [
        {
          "internalType": "bytes32",
          "name": "",
          "type": "bytes32"
        }
      ],
      "stateMutability": "view",
      "type": "function"
    },
    {
      "inputs": [
        {
          "internalType": "bytes32",
          "name": "role",
          "type": "bytes32"
        },
        {
          "internalType": "address",
          "name": "account",
          "type": "address"
        }
      ],
      "name": "grantRole",
      "outputs": [],
      "stateMutability": "nonpayable",
      "type": "function"
    },
    {
      "inputs": [
        {
          "internalType": "bytes32",
          "name": "role",
          "type": "bytes32"
        },
        {
          "internalType": "address",
          "name": "account",
          "type": "address"
        }
      ],
      "name": "hasRole",
      "outputs": [
        {
          "internalType": "bool",
          "name": "",
          "type": "bool"
        }
      ],
      "stateMutability": "view",
      "type": "function"
    },
    {
      "inputs": [],
      "name": "isActive",
      "outputs": [
        {
          "internalType": "bool",
          "name": "",
          "type": "bool"
        }
      ],
      "stateMutability": "view",
      "type": "function"
    },
    {
      "inputs": [
        {
          "internalType": "address",
          "name": "owner",
          "type": "address"
        },
        {
          "internalType": "address",
          "name": "operator",
          "type": "address"
        },
        {
          "internalType": "uint256",
          "name": "classId",
          "type": "uint256"
        }
      ],
      "name": "isApprovedFor",
      "outputs": [
        {
          "internalType": "bool",
          "name": "",
          "type": "bool"
        }
      ],
      "stateMutability": "view",
      "type": "function"
    },
    {
      "inputs": [
        {
          "internalType": "uint256",
          "name": "classId",
          "type": "uint256"
        },
        {
          "internalType": "uint256",
          "name": "nonceId",
          "type": "uint256"
        }
      ],
      "name": "isRedeemable",
      "outputs": [
        {
          "internalType": "bool",
          "name": "",
          "type": "bool"
        }
      ],
      "stateMutability": "view",
      "type": "function"
    },
    {
      "inputs": [
        {
          "internalType": "address",
          "name": "to",
          "type": "address"
        },
        {
          "internalType": "uint256",
          "name": "classId",
          "type": "uint256"
        },
        {
          "internalType": "uint256",
          "name": "nonceId",
          "type": "uint256"
        },
        {
          "internalType": "uint256",
          "name": "amount",
          "type": "uint256"
        }
      ],
      "name": "issue",
      "outputs": [],
      "stateMutability": "nonpayable",
      "type": "function"
    },
    {
      "inputs": [
        {
          "internalType": "uint256",
          "name": "classId",
          "type": "uint256"
        },
        {
          "internalType": "uint256",
          "name": "nonceId",
          "type": "uint256"
        },
        {
          "internalType": "address",
          "name": "account",
          "type": "address"
        }
      ],
      "name": "nonceDetails",
      "outputs": [
        {
          "internalType": "string",
          "name": "_symbol",
          "type": "string"
        },
        {
          "internalType": "enum IData.InterestRateType",
          "name": "_interestRateType",
          "type": "uint8"
        },
        {
          "internalType": "address",
          "name": "_tokenAddress",
          "type": "address"
        },
        {
          "internalType": "uint256",
          "name": "_periodTimestamp",
          "type": "uint256"
        },
        {
          "internalType": "uint256",
          "name": "_issuanceDate",
          "type": "uint256"
        },
        {
          "internalType": "uint256",
          "name": "_maturityDate",
          "type": "uint256"
        },
        {
          "internalType": "uint256",
          "name": "_balance",
          "type": "uint256"
        }
      ],
      "stateMutability": "view",
      "type": "function"
    },
    {
      "inputs": [
        {
          "internalType": "uint256",
          "name": "classId",
          "type": "uint256"
        },
        {
          "internalType": "uint256",
          "name": "nonceId",
          "type": "uint256"
        }
      ],
      "name": "nonceExists",
      "outputs": [
        {
          "internalType": "bool",
          "name": "",
          "type": "bool"
        }
      ],
      "stateMutability": "view",
      "type": "function"
    },
    {
      "inputs": [
        {
          "internalType": "uint256",
          "name": "nonceInfo",
          "type": "uint256"
        }
      ],
      "name": "nonceInfoDescription",
      "outputs": [
        {
          "internalType": "string",
          "name": "",
          "type": "string"
        }
      ],
      "stateMutability": "view",
      "type": "function"
    },
    {
      "inputs": [
        {
          "internalType": "uint256",
          "name": "",
          "type": "uint256"
        }
      ],
      "name": "nonceInfoDescriptions",
      "outputs": [
        {
          "internalType": "string",
          "name": "",
          "type": "string"
        }
      ],
      "stateMutability": "view",
      "type": "function"
    },
    {
      "inputs": [
        {
          "internalType": "uint256",
          "name": "classId",
          "type": "uint256"
        },
        {
          "internalType": "uint256",
          "name": "nonceId",
          "type": "uint256"
        }
      ],
      "name": "nonceInfos",
      "outputs": [
        {
          "internalType": "uint256[]",
          "name": "",
          "type": "uint256[]"
        }
      ],
      "stateMutability": "view",
      "type": "function"
    },
    {
      "inputs": [
        {
          "internalType": "address",
          "name": "from",
          "type": "address"
        },
        {
          "internalType": "uint256",
          "name": "classId",
          "type": "uint256"
        },
        {
          "internalType": "uint256",
          "name": "nonceId",
          "type": "uint256"
        },
        {
          "internalType": "uint256",
          "name": "amount",
          "type": "uint256"
        }
      ],
      "name": "redeem",
      "outputs": [],
      "stateMutability": "nonpayable",
      "type": "function"
    },
    {
      "inputs": [
        {
          "internalType": "uint256",
          "name": "classId",
          "type": "uint256"
        },
        {
          "internalType": "uint256",
          "name": "nonceId",
          "type": "uint256"
        }
      ],
      "name": "redeemedSupply",
      "outputs": [
        {
          "internalType": "uint256",
          "name": "",
          "type": "uint256"
        }
      ],
      "stateMutability": "view",
      "type": "function"
    },
    {
      "inputs": [
        {
          "internalType": "bytes32",
          "name": "role",
          "type": "bytes32"
        },
        {
          "internalType": "address",
          "name": "account",
          "type": "address"
        }
      ],
      "name": "renounceRole",
      "outputs": [],
      "stateMutability": "nonpayable",
      "type": "function"
    },
    {
      "inputs": [
        {
          "internalType": "bytes32",
          "name": "role",
          "type": "bytes32"
        },
        {
          "internalType": "address",
          "name": "account",
          "type": "address"
        }
      ],
      "name": "revokeRole",
      "outputs": [],
      "stateMutability": "nonpayable",
      "type": "function"
    },
    {
      "inputs": [
        {
          "internalType": "address",
          "name": "operator",
          "type": "address"
        },
        {
          "internalType": "uint256",
          "name": "classId",
          "type": "uint256"
        },
        {
          "internalType": "bool",
          "name": "approved",
          "type": "bool"
        }
      ],
      "name": "setApprovalFor",
      "outputs": [],
      "stateMutability": "nonpayable",
      "type": "function"
    },
    {
      "inputs": [
        {
          "internalType": "bytes4",
          "name": "interfaceId",
          "type": "bytes4"
        }
      ],
      "name": "supportsInterface",
      "outputs": [
        {
          "internalType": "bool",
          "name": "",
          "type": "bool"
        }
      ],
      "stateMutability": "view",
      "type": "function"
    },
    {
      "inputs": [
        {
          "internalType": "uint256",
          "name": "classId",
          "type": "uint256"
        }
      ],
      "name": "symbol",
      "outputs": [
        {
          "internalType": "string",
          "name": "",
          "type": "string"
        }
      ],
      "stateMutability": "view",
      "type": "function"
    },
    {
      "inputs": [
        {
          "internalType": "uint256",
          "name": "classId",
          "type": "uint256"
        },
        {
          "internalType": "uint256",
          "name": "nonceId",
          "type": "uint256"
        }
      ],
      "name": "totalSupply",
      "outputs": [
        {
          "internalType": "uint256",
          "name": "",
          "type": "uint256"
        }
      ],
      "stateMutability": "view",
      "type": "function"
    },
    {
      "inputs": [
        {
          "internalType": "address",
          "name": "from",
          "type": "address"
        },
        {
          "internalType": "address",
          "name": "to",
          "type": "address"
        },
        {
          "internalType": "uint256",
          "name": "classId",
          "type": "uint256"
        },
        {
          "internalType": "uint256",
          "name": "nonceId",
          "type": "uint256"
        },
        {
          "internalType": "uint256",
          "name": "amount",
          "type": "uint256"
        }
      ],
      "name": "transferFrom",
      "outputs": [],
      "stateMutability": "nonpayable",
      "type": "function"
    }
  ],
  "transactionHash": "0x59ac99b11c8c0de3734dc6bacd0c306ad3408460e38236d773a3e8412fb5ae6a",
  "args": [
    "0x0DCd1Bf9A1b36cE34237eEaFef220932846BCD82",
    "0x9A676e781A523b5d0C0e43731313A708CB607508",
    "0xA51c1fc2f0D1a1b8494Ed1FE312d7C3a78Ed91C0",
    "0xB7f8BC63BbcaD18155201308C8f3540b07f84F5e"
  ],
  "numDeployments": 2,
  "solcInputHash": "117a211b73f30d8303248585bb9ab76b",
  "bytecode": "0x60806040523480156200001157600080fd5b506040516200355b3803806200355b83398101604081905262000034916200046e565b6007805460ff191660011790556200004e600033620001f0565b62000083600060405180604001604052806005815260200164110bd0925560da1b815250600087603c6200029160201b60201c565b620000b76001604051806040016040528060048152602001635553444360e01b815250600086603c6200029160201b60201c565b620000eb6002604051806040016040528060048152602001631554d11560e21b815250600085603c6200029160201b60201c565b6040805180820190915260038082526244414960e81b60208301526200011691600084603c62000291565b6200014b600460405180604001604052806005815260200164110bd0925560da1b815250600187603c6200029160201b60201c565b6200017f6005604051806040016040528060048152602001635553444360e01b815250600184603c6200029160201b60201c565b620001b36006604051806040016040528060048152602001631554d11560e21b815250600184603c6200029160201b60201c565b620001e660076040518060400160405280600381526020016244414960e81b815250600184603c6200029160201b60201c565b505050506200051d565b6000828152602081815260408083206001600160a01b038516845290915290205460ff166200028d576000828152602081815260408083206001600160a01b03851684529091529020805460ff191660011790556200024c3390565b6001600160a01b0316816001600160a01b0316837f2f8788117e7eff1d82e926ec794901d17c78024a50270940304540a733656f0d60405160405180910390a45b5050565b6000858152600160208190526040909120015460ff1615620003145760405162461bcd60e51b815260206004820152603260248201527f455243333437353a2063616e6e6f7420637265617465206120636c617373207460448201527168617420616c72656164792065786973747360701b606482015260840160405180910390fd5b6000858152600160208181526040909220878155808201805460ff1916909217909155855190916200034e916002840191880190620003ab565b5060048101805485919060ff191660018381811115620003725762000372620004cb565b02179055506004810180546001600160a01b0390941661010002610100600160a81b031990941693909317909255600590910155505050565b828054620003b990620004e1565b90600052602060002090601f016020900481019282620003dd576000855562000428565b82601f10620003f857805160ff191683800117855562000428565b8280016001018555821562000428579182015b82811115620004285782518255916020019190600101906200040b565b50620004369291506200043a565b5090565b5b808211156200043657600081556001016200043b565b80516001600160a01b03811681146200046957600080fd5b919050565b600080600080608085870312156200048557600080fd5b620004908562000451565b9350620004a06020860162000451565b9250620004b06040860162000451565b9150620004c06060860162000451565b905092959194509250565b634e487b7160e01b600052602160045260246000fd5b600181811c90821680620004f657607f821691505b6020821081036200051757634e487b7160e01b600052602260045260246000fd5b50919050565b61302e806200052d6000396000f3fe608060405234801561001057600080fd5b50600436106102ba5760003560e01c806382aefa2411610182578063bc3c19f7116100e9578063d1bab4cc116100a2578063de7bf0a21161007c578063de7bf0a214610748578063ea2092f31461075b578063ebf123d11461076e578063f72c86891461078157600080fd5b8063d1bab4cc1461070f578063d23a95de14610722578063d547741f1461073557600080fd5b8063bc3c19f71461067e578063c2458d6b146106b0578063c95ff4d1146106c3578063c9dd3038146106e9578063ccea7b861461067e578063ce1cdeff146106fc57600080fd5b806391d148541161013b57806391d14854146105f0578063941ed4e414610603578063a217fddf1461060c578063ab1ef51514610614578063b15edbe514610627578063b40525471461065957600080fd5b806382aefa24146105625780638689340814610577578063894ecab61461058a5780638be3ab651461059d5780638ea1d767146105d05780638ec89e4f146105e357600080fd5b806336568abe116102265780634e41a1fb116101df5780634e41a1fb146104b55780634f4df442146104c85780634fee3f41146105165780636c5bdd15146105295780637126ac721461053c57806379915c7c1461054f57600080fd5b806336568abe146104055780633789b93a146104185780633b151c9e1461042b578063443b63b91461043e57806347401a931461048f5780634aed53c2146104a257600080fd5b806322f3e2d41161027857806322f3e2d414610379578063248a9ca3146103845780632b964af8146103a75780632d760d57146103ba5780632ea16628146103cd5780632f2ff15d146103f057600080fd5b8062ad7e88146102bf57806301ffc9a7146102e75780630351fba8146102fa57806310fd132b1461031a5780631d12fdb9146103325780631e2e60ba14610359575b600080fd5b6102d26102cd36600461271c565b610794565b60405190151581526020015b60405180910390f35b6102d26102f536600461273e565b610821565b61030d610308366004612768565b610856565b6040516102de91906127dd565b6103246202a30081565b6040519081526020016102de565b6102d2610340366004612768565b6000908152600160208190526040909120015460ff1690565b61036c610367366004612768565b610905565b6040516102de91906127f0565b60075460ff166102d2565b610324610392366004612768565b60009081526020819052604090206001015490565b6103246103b536600461285f565b610969565b6103246103c8366004612892565b6109bc565b6103e06103db366004612768565b610a66565b6040516102de94939291906128fd565b6104036103fe36600461293a565b610b35565b005b61040361041336600461293a565b610b60565b61032461042636600461295d565b610bde565b61030d610439366004612768565b610c0f565b61032461044c366004612987565b6000918252600160209081526040808420928452600a92830182528084206001600160a01b03968716855290920181528183209390941682529190925290205490565b61040361049d3660046129c9565b610c24565b6104036104b0366004612a02565b610f14565b61030d6104c3366004612768565b610ff6565b6104036104d63660046129c9565b6000928352600160209081526040808520938552600a938401825280852033865290930181528284206001600160a01b0395909516845293909352902055565b61030d610524366004612768565b61109e565b610324610537366004612768565b61114a565b61036c61054a366004612a4f565b611201565b61040361055d366004612a80565b61126b565b610324600080516020612fd983398151915281565b61030d610585366004612768565b61137b565b610324610598366004612768565b61138b565b6102d26105ab36600461271c565b6000918252600160208181526040808520938552600a90930190529120015460ff1690565b6102d26105de366004612b64565b611458565b6007546102d29060ff1681565b6102d26105fe36600461293a565b611490565b610324610e1081565b610324600081565b61036c61062236600461295d565b6114b9565b61032461063536600461271c565b6000918252600160209081526040808420928452600a909201905290206002015490565b61066c61066736600461271c565b611530565b6040516102de96959493929190612ba0565b61032461068c36600461271c565b6000918252600160209081526040808420928452600a909201905290206003015490565b6103246106be36600461271c565b611626565b6106d66106d1366004612bef565b61166e565b6040516102de9796959493929190612c24565b6103246106f7366004612768565b6117a8565b61036c61070a36600461271c565b611875565b61040361071d366004612cc4565b6118e4565b610403610730366004612d6f565b6119f1565b61040361074336600461293a565b611ada565b6104036107563660046129c9565b611b00565b6104036107693660046129c9565b611c20565b61032461077c366004612768565b611dfc565b61040361078f366004612da1565b611e9d565b600082815260016020526040812081600482015460ff1660018111156107bc576107bc6128c5565b036107eb5750506000828152600160209081526040808320848452600a0190915290206005015442101561081b565b6001600482015460ff166001811115610806576108066128c5565b0361081557600191505061081b565b60009150505b92915050565b60006001600160e01b03198216637965db0b60e01b148061081b57506301ffc9a760e01b6001600160e01b031983161461081b565b60606003828154811061086b5761086b612de6565b90600052602060002001805461088090612dfc565b80601f01602080910402602001604051908101604052809291908181526020018280546108ac90612dfc565b80156108f95780601f106108ce576101008083540402835291602001916108f9565b820191906000526020600020905b8154815290600101906020018083116108dc57829003601f168201915b50505050509050919050565b6000818152600160209081526040918290206003018054835181840281018401909452808452606093928301828280156108f957602002820191906000526020600020905b81548152602001906001019080831161094a5750505050509050919050565b6001600160a01b038216600090815260066020526040812081836001811115610994576109946128c5565b60018111156109a5576109a56128c5565b815260200190815260200160002054905092915050565b60006001600160a01b038416610a2d5760405162461bcd60e51b815260206004820152602b60248201527f455243333437353a2062616c616e636520717565727920666f7220746865207a60448201526a65726f206164647265737360a81b60648201526084015b60405180910390fd5b506000828152600160209081526040808320848452600a0182528083206001600160a01b03871684526009019091529020549392505050565b60008181526001602052604081206002810180546060939283928392610a8b90612dfc565b80601f0160208091040260200160405190810160405280929190818152602001828054610ab790612dfc565b8015610b045780601f10610ad957610100808354040283529160200191610b04565b820191906000526020600020905b815481529060010190602001808311610ae757829003601f168201915b505050506005830154600490930154919860ff831698506101009092046001600160a01b0316965091945092505050565b600082815260208190526040902060010154610b518133611f19565b610b5b8383611f7d565b505050565b6001600160a01b0381163314610bd05760405162461bcd60e51b815260206004820152602f60248201527f416363657373436f6e74726f6c3a2063616e206f6e6c792072656e6f756e636560448201526e103937b632b9903337b91039b2b63360891b6064820152608401610a24565b610bda8282612001565b5050565b60056020528160005260406000208181548110610bfa57600080fd5b90600052602060002001600091509150505481565b60606002828154811061086b5761086b612de6565b600080516020612fd9833981519152610c3d8133611f19565b6000848152600160208190526040909120015460ff16610c6f5760405162461bcd60e51b8152600401610a2490612e36565b6000848152600160208181526040808420878552600a01909152909120015460ff16610ce85760405162461bcd60e51b815260206004820152602260248201527f4552432d333437353a206e6f6e6365496420676976656e206e6f7420666f756e604482015261642160f01b6064820152608401610a24565b6001600160a01b038516610d0e5760405162461bcd60e51b8152600401610a2490612e84565b610d1a85858585612066565b6001600160a01b038516600090815260046020908152604080832087845290915290205460ff16610d91576001600160a01b038516600081815260056020908152604080832080546001818101835591855283852001899055938352600482528083208884529091529020805460ff191690911790555b60008481526001602090815260408083206001600160a01b03891684526007810183528184208785529092529091205460ff16610f0c5760008581526001602090815260408083206001600160a01b038a1684526007810183528184208885529092529091205460ff16610e4f576001600160a01b03871660008181526008830160209081526040808320805460018181018355918552838520018a90559383526007850182528083208984529091529020805460ff191690911790555b60048101546001600160a01b036101008204166000908152600660205260408120869290919060ff166001811115610e8957610e896128c5565b6001811115610e9a57610e9a6128c5565b81526020019081526020016000206000828254610eb79190612ee5565b909155505060408051878152602081018790529081018590526001600160a01b0388169033907f5d07254f6aa280c352dc6b62a8302f494954f6060c5459475a6d28b6efe0b4669060600160405180910390a3505b505050505050565b336001600160a01b0386161480610f315750610f31853385611458565b610f8f5760405162461bcd60e51b815260206004820152602960248201527f455243333437353a2063616c6c6572206973206e6f74206f776e6572206e6f7260448201526808185c1c1c9bdd995960ba1b6064820152608401610a24565b610f9c85858585856120e5565b60408051848152602081018490529081018290526001600160a01b03808616919087169033907f737ab30b9cd3ddae02069f3057591007faf2305652d04c2582f7f1f6185d97119060600160405180910390a45050505050565b6000818152600160205260409020600281018054606092919061101890612dfc565b80601f016020809104026020016040519081016040528092919081815260200182805461104490612dfc565b80156110915780601f1061106657610100808354040283529160200191611091565b820191906000526020600020905b81548152906001019060200180831161107457829003601f168201915b5050505050915050919050565b600381815481106110ae57600080fd5b9060005260206000200160009150905080546110c990612dfc565b80601f01602080910402602001604051908101604052809291908181526020018280546110f590612dfc565b80156111425780601f1061111757610100808354040283529160200191611142565b820191906000526020600020905b81548152906001019060200180831161112557829003601f168201915b505050505081565b60008181526001602090815260408083206009018054825181850281018501909352808352849384939291908301828280156111a557602002820191906000526020600020905b815481526020019060010190808311611191575b5050505050905060005b815181116111f8576111da858383815181106111cd576111cd612de6565b6020026020010151611626565b6111e49084612ee5565b9250806111f081612efd565b9150506111af565b50909392505050565b6001600160a01b0381166000908152600560209081526040918290208054835181840281018401909452808452606093928301828280156108f9576020028201919060005260206000209081548152602001906001019080831161094a5750505050509050919050565b6000858152600160208190526040909120015460ff16156112e95760405162461bcd60e51b815260206004820152603260248201527f455243333437353a2063616e6e6f7420637265617465206120636c617373207460448201527168617420616c72656164792065786973747360701b6064820152608401610a24565b6000858152600160208181526040909220878155808201805460ff191690921790915585519091611321916002840191880190612683565b5060048101805485919060ff191660018381811115611342576113426128c5565b02179055506004810180546001600160a01b0390941661010002610100600160a81b031990941693909317909255600590910155505050565b600281815481106110ae57600080fd5b60008181526001602090815260408083206009018054825181850281018501909352808352849384939291908301828280156113e657602002820191906000526020600020905b8154815260200190600101908083116113d2575b5050505050905060005b815181116111f85761143a8583838151811061140e5761140e612de6565b60200260200101516000918252600160209081526040808420928452600a909201905290206003015490565b6114449084612ee5565b92508061145081612efd565b9150506113f0565b60009081526001602090815260408083206001600160a01b039586168452600601825280832093909416825291909152205460ff1690565b6000918252602082815260408084206001600160a01b0393909316845291905290205460ff1690565b60008181526001602090815260408083206001600160a01b038616845260080182529182902080548351818402810184019094528084526060939283018282801561152357602002820191906000526020600020905b81548152602001906001019080831161150f575b5050505050905092915050565b6000828152600160209081526040808320848452600a8101909252822060028201805460609493849384938493849392919061156b90612dfc565b80601f016020809104026020016040519081016040528092919081815260200182805461159790612dfc565b80156115e45780601f106115b9576101008083540402835291602001916115e4565b820191906000526020600020905b8154815290600101906020018083116115c757829003601f168201915b50505050600484015460059485015460068501549490950154929d60ff82169d506101009091046001600160a01b03169b509399509197509550909350505050565b6000828152600160209081526040808320848452600a01909152812060038101546004820154600290920154909161165d91612ee5565b6116679190612ee5565b9392505050565b6000838152600160209081526040808320858452600a810190925282206002820180546060949384938493849384938493909290916116ac90612dfc565b80601f01602080910402602001604051908101604052809291908181526020018280546116d890612dfc565b80156117255780601f106116fa57610100808354040283529160200191611725565b820191906000526020600020905b81548152906001019060200180831161170857829003601f168201915b505050505098508160040160009054906101000a900460ff1697508160040160019054906101000a90046001600160a01b031696508160050154955080600601549450806005015493508060090160008b6001600160a01b03166001600160a01b0316815260200190815260200160002054925050509397509397509397909450565b600081815260016020908152604080832060090180548251818502810185019093528083528493849392919083018282801561180357602002820191906000526020600020905b8154815260200190600101908083116117ef575b5050505050905060005b815181116111f8576118578583838151811061182b5761182b612de6565b60200260200101516000918252600160209081526040808420928452600a909201905290206002015490565b6118619084612ee5565b92508061186d81612efd565b91505061180d565b6000828152600160209081526040808320848452600a01825291829020600801805483518184028101840190945280845260609392830182828015611523576020028201919060005260206000209081548152602001906001019080831161150f575050505050905092915050565b84831480156118f257508481145b6119345760405162461bcd60e51b815260206004820152601360248201527222a921999a1b9a9024b7383aba1022b93937b960691b6044820152606401610a24565b60005b858110156119e75782828281811061195157611951612de6565b905060200201356001600089898581811061196e5761196e612de6565b905060200201358152602001908152602001600020600a01600087878581811061199a5761199a612de6565b602090810292909201358352508181019290925260409081016000908120338252600a0183528181206001600160a01b038d168252909252902055806119df81612efd565b915050611937565b5050505050505050565b600080516020612fd9833981519152611a0a8133611f19565b6000858152600160208190526040909120015460ff16611a3c5760405162461bcd60e51b8152600401610a2490612e36565b6000858152600160208181526040808420888552600a81019092529092209081015460ff1615611aae5760405162461bcd60e51b815260206004820152601f60248201527f4572726f72204552432d333437353a206e6f6e636549642065786973747321006044820152606401610a24565b94855550506001808401805460ff19169091179055600583019190915542600683015560079091015550565b600082815260208190526040902060010154611af68133611f19565b610b5b8383612001565b600080516020612fd9833981519152611b198133611f19565b6001600160a01b038516611b3f5760405162461bcd60e51b8152600401610a2490612e84565b611b4b85858585612217565b600084815260016020818152604080842060048101546001600160a01b0361010082041686526006909352908420909386939192909160ff90911690811115611b9657611b966128c5565b6001811115611ba757611ba76128c5565b81526020019081526020016000206000828254611bc49190612f16565b909155505060408051868152602081018690529081018490526001600160a01b0387169033907f4cf25bc1d991c17529c25213d3cc0cda295eeaad5f13f361969b12ea48015f90906060015b60405180910390a3505050505050565b600080516020612fd9833981519152611c398133611f19565b6000848152600160208181526040808420878552600a01909152909120015460ff16611cb25760405162461bcd60e51b815260206004820152602260248201527f455243333437353a20676976656e204e6f6e636520646f65736e2774206578696044820152611cdd60f21b6064820152608401610a24565b6001600160a01b038516611cd85760405162461bcd60e51b8152600401610a2490612e84565b611ce28484610794565b611d275760405162461bcd60e51b8152602060048201526016602482015275426f6e64206973206e6f742072656465656d61626c6560501b6044820152606401610a24565b611d33858585856122fc565b600084815260016020818152604080842060048101546001600160a01b0361010082041686526006909352908420909386939192909160ff90911690811115611d7e57611d7e6128c5565b6001811115611d8f57611d8f6128c5565b81526020019081526020016000206000828254611dac9190612f16565b909155505060408051868152602081018690529081018490526001600160a01b0387169033907f215abfcd108b85fbee47f26fda2de66f90f14fa5fcaf0201698ad8ac9323545f90606001611c10565b6000818152600160209081526040808320600901805482518185028101850190935280835284938493929190830182828015611e5757602002820191906000526020600020905b815481526020019060010190808311611e43575b5050505050905060005b815181116111f857611e7f8583838151811061140e5761140e612de6565b611e899084612ee5565b925080611e9581612efd565b915050611e61565b600082815260016020908152604080832033808552600690910183528184206001600160a01b03881680865290845293829020805460ff1916861515908117909155825187815293840152917f7feddb10c78cb7459761ddedb768e432ac1b9910fbbbd46f800337d7f557cebf910160405180910390a3505050565b611f238282611490565b610bda57611f3b816001600160a01b031660146123e1565b611f468360206123e1565b604051602001611f57929190612f2d565b60408051601f198184030181529082905262461bcd60e51b8252610a24916004016127dd565b611f878282611490565b610bda576000828152602081815260408083206001600160a01b03851684529091529020805460ff19166001179055611fbd3390565b6001600160a01b0316816001600160a01b0316837f2f8788117e7eff1d82e926ec794901d17c78024a50270940304540a733656f0d60405160405180910390a45050565b61200b8282611490565b15610bda576000828152602081815260408083206001600160a01b0385168085529252808320805460ff1916905551339285917ff6391f5c32d9c69d2a47ea670b442974b53935d1edc7fd64eb21e047a839171b9190a45050565b6000838152600160209081526040808320858452600a0182528083206001600160a01b0388168452600901909152812080548392906120a6908490612ee5565b90915550506000838152600160209081526040808320858452600a01909152812060020180548392906120da908490612ee5565b909155505050505050565b6001600160a01b0385166121515760405162461bcd60e51b815260206004820152602d60248201527f455243333437353a2063616e2774207472616e736665722066726f6d2074686560448201526c207a65726f206164647265737360981b6064820152608401610a24565b6001600160a01b0384166121775760405162461bcd60e51b8152600401610a2490612e84565b6000838152600160209081526040808320858452600a0182528083206001600160a01b03891684526009019091529020548111156122035760405162461bcd60e51b8152602060048201526024808201527f455243333437353a206e6f7420656e6f75676820626f6e6420746f207472616e60448201526339b332b960e11b6064820152608401610a24565b612210858585858561257d565b5050505050565b6000838152600160209081526040808320858452600a0182528083206001600160a01b038816845260090190915290205481111561225457600080fd5b6000838152600160209081526040808320858452600a0182528083206001600160a01b038816845260090190915281208054839290612294908490612f16565b90915550506000838152600160209081526040808320858452600a01909152812060020180548392906122c8908490612f16565b90915550506000838152600160209081526040808320858452600a01909152812060030180548392906120da908490612ee5565b6000838152600160209081526040808320858452600a0182528083206001600160a01b038816845260090190915290205481111561233957600080fd5b6000838152600160209081526040808320858452600a0182528083206001600160a01b038816845260090190915281208054839290612379908490612f16565b90915550506000838152600160209081526040808320858452600a01909152812060020180548392906123ad908490612f16565b90915550506000838152600160209081526040808320858452600a01909152812060040180548392906120da908490612ee5565b606060006123f0836002612fa2565b6123fb906002612ee5565b67ffffffffffffffff81111561241357612413612a6a565b6040519080825280601f01601f19166020018201604052801561243d576020820181803683370190505b509050600360fc1b8160008151811061245857612458612de6565b60200101906001600160f81b031916908160001a905350600f60fb1b8160018151811061248757612487612de6565b60200101906001600160f81b031916908160001a90535060006124ab846002612fa2565b6124b6906001612ee5565b90505b600181111561252e576f181899199a1a9b1b9c1cb0b131b232b360811b85600f16601081106124ea576124ea612de6565b1a60f81b82828151811061250057612500612de6565b60200101906001600160f81b031916908160001a90535060049490941c9361252781612fc1565b90506124b9565b5083156116675760405162461bcd60e51b815260206004820181905260248201527f537472696e67733a20686578206c656e67746820696e73756666696369656e746044820152606401610a24565b836001600160a01b0316856001600160a01b0316036125f25760405162461bcd60e51b815260206004820152602b60248201527f455243333437353a2063616e2774207472616e7366657220746f20746865207360448201526a616d65206164647265737360a81b6064820152608401610a24565b6000838152600160209081526040808320858452600a0182528083206001600160a01b038916845260090190915281208054839290612632908490612f16565b90915550506000838152600160209081526040808320858452600a0182528083206001600160a01b038816845260090190915281208054839290612677908490612ee5565b90915550505050505050565b82805461268f90612dfc565b90600052602060002090601f0160209004810192826126b157600085556126f7565b82601f106126ca57805160ff19168380011785556126f7565b828001600101855582156126f7579182015b828111156126f75782518255916020019190600101906126dc565b50612703929150612707565b5090565b5b808211156127035760008155600101612708565b6000806040838503121561272f57600080fd5b50508035926020909101359150565b60006020828403121561275057600080fd5b81356001600160e01b03198116811461166757600080fd5b60006020828403121561277a57600080fd5b5035919050565b60005b8381101561279c578181015183820152602001612784565b838111156127ab576000848401525b50505050565b600081518084526127c9816020860160208601612781565b601f01601f19169290920160200192915050565b60208152600061166760208301846127b1565b6020808252825182820181905260009190848201906040850190845b818110156128285783518352928401929184019160010161280c565b50909695505050505050565b80356001600160a01b038116811461284b57600080fd5b919050565b80356002811061284b57600080fd5b6000806040838503121561287257600080fd5b61287b83612834565b915061288960208401612850565b90509250929050565b6000806000606084860312156128a757600080fd5b6128b084612834565b95602085013595506040909401359392505050565b634e487b7160e01b600052602160045260246000fd5b600281106128f957634e487b7160e01b600052602160045260246000fd5b9052565b60808152600061291060808301876127b1565b905061291f60208301866128db565b6001600160a01b039390931660408201526060015292915050565b6000806040838503121561294d57600080fd5b8235915061288960208401612834565b6000806040838503121561297057600080fd5b61297983612834565b946020939093013593505050565b6000806000806080858703121561299d57600080fd5b6129a685612834565b93506129b460208601612834565b93969395505050506040820135916060013590565b600080600080608085870312156129df57600080fd5b6129e885612834565b966020860135965060408601359560600135945092505050565b600080600080600060a08688031215612a1a57600080fd5b612a2386612834565b9450612a3160208701612834565b94979496505050506040830135926060810135926080909101359150565b600060208284031215612a6157600080fd5b61166782612834565b634e487b7160e01b600052604160045260246000fd5b600080600080600060a08688031215612a9857600080fd5b85359450602086013567ffffffffffffffff80821115612ab757600080fd5b818801915088601f830112612acb57600080fd5b813581811115612add57612add612a6a565b604051601f8201601f19908116603f01168101908382118183101715612b0557612b05612a6a565b816040528281528b6020848701011115612b1e57600080fd5b826020860160208301376000602084830101528098505050505050612b4560408701612850565b9250612b5360608701612834565b949793965091946080013592915050565b600080600060608486031215612b7957600080fd5b612b8284612834565b9250612b9060208501612834565b9150604084013590509250925092565b60c081526000612bb360c08301896127b1565b9050612bc260208301886128db565b6001600160a01b039590951660408201526060810193909352608083019190915260a09091015292915050565b600080600060608486031215612c0457600080fd5b8335925060208401359150612c1b60408501612834565b90509250925092565b60e081526000612c3760e083018a6127b1565b9050612c4660208301896128db565b6001600160a01b039690961660408201526060810194909452608084019290925260a083015260c09091015292915050565b60008083601f840112612c8a57600080fd5b50813567ffffffffffffffff811115612ca257600080fd5b6020830191508360208260051b8501011115612cbd57600080fd5b9250929050565b60008060008060008060006080888a031215612cdf57600080fd5b612ce888612834565b9650602088013567ffffffffffffffff80821115612d0557600080fd5b612d118b838c01612c78565b909850965060408a0135915080821115612d2a57600080fd5b612d368b838c01612c78565b909650945060608a0135915080821115612d4f57600080fd5b50612d5c8a828b01612c78565b989b979a50959850939692959293505050565b60008060008060808587031215612d8557600080fd5b5050823594602084013594506040840135936060013592509050565b600080600060608486031215612db657600080fd5b612dbf84612834565b92506020840135915060408401358015158114612ddb57600080fd5b809150509250925092565b634e487b7160e01b600052603260045260246000fd5b600181811c90821680612e1057607f821691505b602082108103612e3057634e487b7160e01b600052602260045260246000fd5b50919050565b6020808252602e908201527f455243333437353a206f6e6c7920697373756520626f6e64207468617420686160408201526d1cc81899595b8818dc99585d195960921b606082015260800190565b6020808252602b908201527f455243333437353a2063616e2774207472616e7366657220746f20746865207a60408201526a65726f206164647265737360a81b606082015260800190565b634e487b7160e01b600052601160045260246000fd5b60008219821115612ef857612ef8612ecf565b500190565b600060018201612f0f57612f0f612ecf565b5060010190565b600082821015612f2857612f28612ecf565b500390565b7f416363657373436f6e74726f6c3a206163636f756e7420000000000000000000815260008351612f65816017850160208801612781565b7001034b99036b4b9b9b4b733903937b6329607d1b6017918401918201528351612f96816028840160208801612781565b01602801949350505050565b6000816000190483118215151615612fbc57612fbc612ecf565b500290565b600081612fd057612fd0612ecf565b50600019019056fe114e74f6ea3bd819998f78687bfcb11b140da08e9b7d222fa9c1f1ba1f2aa122a264697066735822122076e76266fc8f48ff1e9c0d2a4b87bafa2a4aff9a57bdda2a9463a6f5296da84764736f6c634300080d0033",
  "devdoc": {
    "kind": "dev",
    "methods": {
      "activeSupply(uint256,uint256)": {
        "details": "Returns the active supply of the bond in question"
      },
      "approve(address,uint256,uint256,uint256)": {
        "details": "Allows spender to withdraw from your account multiple times, up to the amount.",
        "params": {
          "amount": "is the amount of the bond that the spender is approved for.",
          "classId": "is the classId nonce of bond, the first bond class created will be 0, and so on.",
          "nonceId": "is the nonceId of the given bond class. This param is for distinctions of the issuing conditions of the bond.",
          "spender": "is the address the caller approve for his bonds"
        }
      },
      "balanceOf(address,uint256,uint256)": {
        "details": "Returns the balance of the giving bond classId and bond nonce"
      },
      "batchApprove(address,uint256[],uint256[],uint256[])": {
        "details": "Allows spender to withdraw bonds from your account multiple times, up to the amount.",
        "params": {
          "amounts": "is the list of amounts of the bond that the spender is approved for.",
          "classIds": "is the list of classIds of bond.",
          "nonceIds": "is the list of nonceIds of the given bond class.",
          "spender": "is the address the caller approve for his bonds."
        }
      },
      "burn(address,uint256,uint256,uint256)": {
        "details": "allows the transfer of any number of bond types from an address to another. The calling of this function needs to be restricted to bond issuer contract.",
        "params": {
          "amount": "is the amount of the bond, that will be transferred from \"_from\"address to \"_to\" address.",
          "classId": "is the class nonce of bond, the first bond class created will be 0, and so on.",
          "from": "argument is the address of the holder whose balance about to decrees.",
          "nonceId": "is the nonce of the given bond class. This param is for distinctions of the issuing conditions of the bond."
        }
      },
      "burnedSupply(uint256,uint256)": {
        "details": "Returns the burned supply of the bond in question"
      },
      "classInfoDescription(uint256)": {
        "details": "Returns the information description for a given class info"
      },
      "classInfos(uint256)": {
        "details": "Returns the informations for the class of given classId"
      },
      "getRoleAdmin(bytes32)": {
        "details": "Returns the admin role that controls `role`. See {grantRole} and {revokeRole}. To change a role's admin, use {_setRoleAdmin}."
      },
      "grantRole(bytes32,address)": {
        "details": "Grants `role` to `account`. If `account` had not been already granted `role`, emits a {RoleGranted} event. Requirements: - the caller must have ``role``'s admin role."
      },
      "hasRole(bytes32,address)": {
        "details": "Returns `true` if `account` has been granted `role`."
      },
      "isApprovedFor(address,address,uint256)": {
        "returns": {
          "_0": "True if the operator is approved, false if not"
        }
      },
      "isRedeemable(uint256,uint256)": {
        "details": "allows anyone to check if a bond is redeemable."
      },
      "issue(address,uint256,uint256,uint256)": {
        "details": "allows issuing any number of bond types to an address. The calling of this function needs to be restricted to bond issuer contract.",
        "params": {
          "amount": "is the amount of the bond, that \"to\" address will receive.",
          "classId": "is the classId of the bond, the first bond class created will be 0, and so on.",
          "nonceId": "is the nonceId of the given bond class. This param is for distinctions of the issuing conditions of the bond.",
          "to": "is the address to which the bond will be issued."
        }
      },
      "nonceInfoDescription(uint256)": {
        "details": "Returns the information description for a given nonce info"
      },
      "nonceInfos(uint256,uint256)": {
        "details": "Returns the informations for the nonce of given classId and nonceId"
      },
      "redeem(address,uint256,uint256,uint256)": {
        "details": "allows redemption of any number of bond types from an address. The calling of this function needs to be restricted to bond issuer contract.",
        "params": {
          "amount": "is the amount of the bond, that \"from\" address will redeem.",
          "classId": "is the class nonce of bond, the first bond class created will be 0, and so on.",
          "from": "is the address from which the bond will be redeemed.",
          "nonceId": "is the nonce of the given bond class. This param is for distinctions of the issuing conditions of the bond."
        }
      },
      "redeemedSupply(uint256,uint256)": {
        "details": "Returns the redeemed supply of the bond in question"
      },
      "renounceRole(bytes32,address)": {
        "details": "Revokes `role` from the calling account. Roles are often managed via {grantRole} and {revokeRole}: this function's purpose is to provide a mechanism for accounts to lose their privileges if they are compromised (such as when a trusted device is misplaced). If the calling account had been revoked `role`, emits a {RoleRevoked} event. Requirements: - the caller must be `account`."
      },
      "revokeRole(bytes32,address)": {
        "details": "Revokes `role` from `account`. If `account` had been granted `role`, emits a {RoleRevoked} event. Requirements: - the caller must have ``role``'s admin role."
      },
      "setApprovalFor(address,uint256,bool)": {
        "details": "MUST emit the ApprovalForAll event on success.",
        "params": {
          "approved": "True if the operator is approved, false to revoke approval",
          "classId": "is the classId nonce of bond, the first bond class created will be 0, and so on.",
          "operator": "Address to add to the set of authorized operators"
        }
      },
      "supportsInterface(bytes4)": {
        "details": "See {IERC165-supportsInterface}."
      },
      "symbol(uint256)": {
        "details": "Returns the symbol of the giving bond classId"
      },
      "totalSupply(uint256,uint256)": {
        "details": "Returns the total supply of the bond in question"
      },
      "transferFrom(address,address,uint256,uint256,uint256)": {
        "details": "allows the transfer of a bond type from an address to another.",
        "params": {
          "amount": "is the amount of the bond, that will be transferred from \"_from\" address to \"_to\" address.",
          "classId": "is the classId of bond, the first bond class created will be 0, and so on.",
          "from": "argument is the address of the holder whose balance about to decrees.",
          "nonceId": "is the nonceId of the given bond class. This param is for distinctions of the issuing conditions of the bond.",
          "to": "argument is the address of the recipient whose balance is about to increased."
        }
      }
    },
    "version": 1
  },
  "userdoc": {
    "events": {
      "Burn(address,address,uint256,uint256,uint256)": {
        "notice": "MUST trigger when tokens are burned"
      },
      "Issue(address,address,uint256,uint256,uint256)": {
        "notice": "MUST trigger when tokens are issued"
      },
      "Redeem(address,address,uint256,uint256,uint256)": {
        "notice": "MUST trigger when tokens are redeemed"
      },
      "Transfer(address,address,address,uint256,uint256,uint256)": {
        "notice": "MUST trigger when tokens are transferred, including zero value transfers."
      }
    },
    "kind": "user",
    "methods": {
      "allowance(address,address,uint256,uint256)": {
        "notice": "Returns the amount which spender is still allowed to withdraw from owner."
      },
      "approve(address,uint256,uint256,uint256)": {
        "notice": "If this function is called again it overwrites the current allowance with amount."
      },
      "batchApprove(address,uint256[],uint256[],uint256[])": {
        "notice": "If this function is called again it overwrites the current allowance with amount."
      },
      "classInfoDescription(uint256)": {
        "notice": "Every bond contract can have their own list of class informations"
      },
      "classInfos(uint256)": {
        "notice": "Every bond contract can have their own list of class informations"
      },
      "isApprovedFor(address,address,uint256)": {
        "notice": "Queries the approval status of an operator for a given owner."
      },
      "isRedeemable(uint256,uint256)": {
        "notice": "the conditions of redemption can be specified with one or several internal functions."
      },
      "nonceInfoDescription(uint256)": {
        "notice": "Every bond contract can have their own list of nonce informations"
      },
      "nonceInfos(uint256,uint256)": {
        "notice": "Every bond contract can have their own list. But the first uint256 in the list MUST be the UTC time code of the issuing time."
      },
      "setApprovalFor(address,uint256,bool)": {
        "notice": "Enable or disable approval for a third party (\"operator\") to manage all of the caller's tokens."
      }
    },
    "version": 1
  },
  "storageLayout": {
    "storage": [
      {
        "astId": 24,
        "contract": "contracts/Debond-v0/contracts/DebondBond.sol:DebondBond",
        "label": "_roles",
        "offset": 0,
        "slot": "0",
        "type": "t_mapping(t_bytes32,t_struct(RoleData)19_storage)"
      },
      {
        "astId": 4026,
        "contract": "contracts/Debond-v0/contracts/DebondBond.sol:DebondBond",
        "label": "classes",
        "offset": 0,
        "slot": "1",
        "type": "t_mapping(t_uint256,t_struct(Class)4021_storage)"
      },
      {
        "astId": 4029,
        "contract": "contracts/Debond-v0/contracts/DebondBond.sol:DebondBond",
        "label": "classInfoDescriptions",
        "offset": 0,
        "slot": "2",
        "type": "t_array(t_string_storage)dyn_storage"
      },
      {
        "astId": 4032,
        "contract": "contracts/Debond-v0/contracts/DebondBond.sol:DebondBond",
        "label": "nonceInfoDescriptions",
        "offset": 0,
        "slot": "3",
        "type": "t_array(t_string_storage)dyn_storage"
      },
      {
        "astId": 4038,
        "contract": "contracts/Debond-v0/contracts/DebondBond.sol:DebondBond",
        "label": "classesPerAddress",
        "offset": 0,
        "slot": "4",
        "type": "t_mapping(t_address,t_mapping(t_uint256,t_bool))"
      },
      {
        "astId": 4043,
        "contract": "contracts/Debond-v0/contracts/DebondBond.sol:DebondBond",
        "label": "classesPerAddressArray",
        "offset": 0,
        "slot": "5",
        "type": "t_mapping(t_address,t_array(t_uint256)dyn_storage)"
      },
      {
        "astId": 4050,
        "contract": "contracts/Debond-v0/contracts/DebondBond.sol:DebondBond",
        "label": "bondsDue",
        "offset": 0,
        "slot": "6",
        "type": "t_mapping(t_address,t_mapping(t_enum(InterestRateType)8565,t_uint256))"
      },
      {
        "astId": 4052,
        "contract": "contracts/Debond-v0/contracts/DebondBond.sol:DebondBond",
        "label": "_isActive",
        "offset": 0,
        "slot": "7",
        "type": "t_bool"
      }
    ],
    "types": {
      "t_address": {
        "encoding": "inplace",
        "label": "address",
        "numberOfBytes": "20"
      },
      "t_array(t_string_storage)dyn_storage": {
        "base": "t_string_storage",
        "encoding": "dynamic_array",
        "label": "string[]",
        "numberOfBytes": "32"
      },
      "t_array(t_uint256)dyn_storage": {
        "base": "t_uint256",
        "encoding": "dynamic_array",
        "label": "uint256[]",
        "numberOfBytes": "32"
      },
      "t_bool": {
        "encoding": "inplace",
        "label": "bool",
        "numberOfBytes": "1"
      },
      "t_bytes32": {
        "encoding": "inplace",
        "label": "bytes32",
        "numberOfBytes": "32"
      },
      "t_enum(InterestRateType)8565": {
        "encoding": "inplace",
        "label": "enum IData.InterestRateType",
        "numberOfBytes": "1"
      },
      "t_mapping(t_address,t_array(t_uint256)dyn_storage)": {
        "encoding": "mapping",
        "key": "t_address",
        "label": "mapping(address => uint256[])",
        "numberOfBytes": "32",
        "value": "t_array(t_uint256)dyn_storage"
      },
      "t_mapping(t_address,t_bool)": {
        "encoding": "mapping",
        "key": "t_address",
        "label": "mapping(address => bool)",
        "numberOfBytes": "32",
        "value": "t_bool"
      },
      "t_mapping(t_address,t_mapping(t_address,t_bool))": {
        "encoding": "mapping",
        "key": "t_address",
        "label": "mapping(address => mapping(address => bool))",
        "numberOfBytes": "32",
        "value": "t_mapping(t_address,t_bool)"
      },
      "t_mapping(t_address,t_mapping(t_address,t_uint256))": {
        "encoding": "mapping",
        "key": "t_address",
        "label": "mapping(address => mapping(address => uint256))",
        "numberOfBytes": "32",
        "value": "t_mapping(t_address,t_uint256)"
      },
      "t_mapping(t_address,t_mapping(t_enum(InterestRateType)8565,t_uint256))": {
        "encoding": "mapping",
        "key": "t_address",
        "label": "mapping(address => mapping(enum IData.InterestRateType => uint256))",
        "numberOfBytes": "32",
        "value": "t_mapping(t_enum(InterestRateType)8565,t_uint256)"
      },
      "t_mapping(t_address,t_mapping(t_uint256,t_bool))": {
        "encoding": "mapping",
        "key": "t_address",
        "label": "mapping(address => mapping(uint256 => bool))",
        "numberOfBytes": "32",
        "value": "t_mapping(t_uint256,t_bool)"
      },
      "t_mapping(t_address,t_uint256)": {
        "encoding": "mapping",
        "key": "t_address",
        "label": "mapping(address => uint256)",
        "numberOfBytes": "32",
        "value": "t_uint256"
      },
      "t_mapping(t_bytes32,t_struct(RoleData)19_storage)": {
        "encoding": "mapping",
        "key": "t_bytes32",
        "label": "mapping(bytes32 => struct AccessControl.RoleData)",
        "numberOfBytes": "32",
        "value": "t_struct(RoleData)19_storage"
      },
      "t_mapping(t_enum(InterestRateType)8565,t_uint256)": {
        "encoding": "mapping",
        "key": "t_enum(InterestRateType)8565",
        "label": "mapping(enum IData.InterestRateType => uint256)",
        "numberOfBytes": "32",
        "value": "t_uint256"
      },
      "t_mapping(t_uint256,t_bool)": {
        "encoding": "mapping",
        "key": "t_uint256",
        "label": "mapping(uint256 => bool)",
        "numberOfBytes": "32",
        "value": "t_bool"
      },
      "t_mapping(t_uint256,t_struct(Class)4021_storage)": {
        "encoding": "mapping",
        "key": "t_uint256",
        "label": "mapping(uint256 => struct DebondBond.Class)",
        "numberOfBytes": "32",
        "value": "t_struct(Class)4021_storage"
      },
      "t_mapping(t_uint256,t_struct(Nonce)3979_storage)": {
        "encoding": "mapping",
        "key": "t_uint256",
        "label": "mapping(uint256 => struct DebondBond.Nonce)",
        "numberOfBytes": "32",
        "value": "t_struct(Nonce)3979_storage"
      },
      "t_string_storage": {
        "encoding": "bytes",
        "label": "string",
        "numberOfBytes": "32"
      },
      "t_struct(Class)4021_storage": {
        "encoding": "inplace",
        "label": "struct DebondBond.Class",
        "members": [
          {
            "astId": 3981,
            "contract": "contracts/Debond-v0/contracts/DebondBond.sol:DebondBond",
            "label": "id",
            "offset": 0,
            "slot": "0",
            "type": "t_uint256"
          },
          {
            "astId": 3983,
            "contract": "contracts/Debond-v0/contracts/DebondBond.sol:DebondBond",
            "label": "exists",
            "offset": 0,
            "slot": "1",
            "type": "t_bool"
          },
          {
            "astId": 3985,
            "contract": "contracts/Debond-v0/contracts/DebondBond.sol:DebondBond",
            "label": "symbol",
            "offset": 0,
            "slot": "2",
            "type": "t_string_storage"
          },
          {
            "astId": 3988,
            "contract": "contracts/Debond-v0/contracts/DebondBond.sol:DebondBond",
            "label": "infos",
            "offset": 0,
            "slot": "3",
            "type": "t_array(t_uint256)dyn_storage"
          },
          {
            "astId": 3991,
            "contract": "contracts/Debond-v0/contracts/DebondBond.sol:DebondBond",
            "label": "interestRateType",
            "offset": 0,
            "slot": "4",
            "type": "t_enum(InterestRateType)8565"
          },
          {
            "astId": 3993,
            "contract": "contracts/Debond-v0/contracts/DebondBond.sol:DebondBond",
            "label": "tokenAddress",
            "offset": 1,
            "slot": "4",
            "type": "t_address"
          },
          {
            "astId": 3995,
            "contract": "contracts/Debond-v0/contracts/DebondBond.sol:DebondBond",
            "label": "periodTimestamp",
            "offset": 0,
            "slot": "5",
            "type": "t_uint256"
          },
          {
            "astId": 4001,
            "contract": "contracts/Debond-v0/contracts/DebondBond.sol:DebondBond",
            "label": "operatorApprovals",
            "offset": 0,
            "slot": "6",
            "type": "t_mapping(t_address,t_mapping(t_address,t_bool))"
          },
          {
            "astId": 4007,
            "contract": "contracts/Debond-v0/contracts/DebondBond.sol:DebondBond",
            "label": "noncesPerAddress",
            "offset": 0,
            "slot": "7",
            "type": "t_mapping(t_address,t_mapping(t_uint256,t_bool))"
          },
          {
            "astId": 4012,
            "contract": "contracts/Debond-v0/contracts/DebondBond.sol:DebondBond",
            "label": "noncesPerAddressArray",
            "offset": 0,
            "slot": "8",
            "type": "t_mapping(t_address,t_array(t_uint256)dyn_storage)"
          },
          {
            "astId": 4015,
            "contract": "contracts/Debond-v0/contracts/DebondBond.sol:DebondBond",
            "label": "nonceIds",
            "offset": 0,
            "slot": "9",
            "type": "t_array(t_uint256)dyn_storage"
          },
          {
            "astId": 4020,
            "contract": "contracts/Debond-v0/contracts/DebondBond.sol:DebondBond",
            "label": "nonces",
            "offset": 0,
            "slot": "10",
            "type": "t_mapping(t_uint256,t_struct(Nonce)3979_storage)"
          }
        ],
        "numberOfBytes": "352"
      },
      "t_struct(Nonce)3979_storage": {
        "encoding": "inplace",
        "label": "struct DebondBond.Nonce",
        "members": [
          {
            "astId": 3947,
            "contract": "contracts/Debond-v0/contracts/DebondBond.sol:DebondBond",
            "label": "id",
            "offset": 0,
            "slot": "0",
            "type": "t_uint256"
          },
          {
            "astId": 3949,
            "contract": "contracts/Debond-v0/contracts/DebondBond.sol:DebondBond",
            "label": "exists",
            "offset": 0,
            "slot": "1",
            "type": "t_bool"
          },
          {
            "astId": 3951,
            "contract": "contracts/Debond-v0/contracts/DebondBond.sol:DebondBond",
            "label": "_activeSupply",
            "offset": 0,
            "slot": "2",
            "type": "t_uint256"
          },
          {
            "astId": 3953,
            "contract": "contracts/Debond-v0/contracts/DebondBond.sol:DebondBond",
            "label": "_burnedSupply",
            "offset": 0,
            "slot": "3",
            "type": "t_uint256"
          },
          {
            "astId": 3955,
            "contract": "contracts/Debond-v0/contracts/DebondBond.sol:DebondBond",
            "label": "_redeemedSupply",
            "offset": 0,
            "slot": "4",
            "type": "t_uint256"
          },
          {
            "astId": 3957,
            "contract": "contracts/Debond-v0/contracts/DebondBond.sol:DebondBond",
            "label": "maturityDate",
            "offset": 0,
            "slot": "5",
            "type": "t_uint256"
          },
          {
            "astId": 3959,
            "contract": "contracts/Debond-v0/contracts/DebondBond.sol:DebondBond",
            "label": "issuanceDate",
            "offset": 0,
            "slot": "6",
            "type": "t_uint256"
          },
          {
            "astId": 3961,
            "contract": "contracts/Debond-v0/contracts/DebondBond.sol:DebondBond",
            "label": "liqT",
            "offset": 0,
            "slot": "7",
            "type": "t_uint256"
          },
          {
            "astId": 3964,
            "contract": "contracts/Debond-v0/contracts/DebondBond.sol:DebondBond",
            "label": "infos",
            "offset": 0,
            "slot": "8",
            "type": "t_array(t_uint256)dyn_storage"
          },
          {
            "astId": 3968,
            "contract": "contracts/Debond-v0/contracts/DebondBond.sol:DebondBond",
            "label": "balances",
            "offset": 0,
            "slot": "9",
            "type": "t_mapping(t_address,t_uint256)"
          },
          {
            "astId": 3974,
            "contract": "contracts/Debond-v0/contracts/DebondBond.sol:DebondBond",
            "label": "allowances",
            "offset": 0,
            "slot": "10",
            "type": "t_mapping(t_address,t_mapping(t_address,t_uint256))"
          },
          {
            "astId": 3978,
            "contract": "contracts/Debond-v0/contracts/DebondBond.sol:DebondBond",
            "label": "hasBalance",
            "offset": 0,
            "slot": "11",
            "type": "t_mapping(t_address,t_bool)"
          }
        ],
        "numberOfBytes": "384"
      },
      "t_struct(RoleData)19_storage": {
        "encoding": "inplace",
        "label": "struct AccessControl.RoleData",
        "members": [
          {
            "astId": 16,
            "contract": "contracts/Debond-v0/contracts/DebondBond.sol:DebondBond",
            "label": "members",
            "offset": 0,
            "slot": "0",
            "type": "t_mapping(t_address,t_bool)"
          },
          {
            "astId": 18,
            "contract": "contracts/Debond-v0/contracts/DebondBond.sol:DebondBond",
            "label": "adminRole",
            "offset": 0,
            "slot": "1",
            "type": "t_bytes32"
          }
        ],
        "numberOfBytes": "64"
      },
      "t_uint256": {
        "encoding": "inplace",
        "label": "uint256",
        "numberOfBytes": "32"
      }
    }
  }
}