{
  "address": "0x19cEcCd6942ad38562Ee10bAfd44776ceB67e923",
  "abi": [
    {
      "inputs": [
        {
          "internalType": "address",
          "name": "DBIT",
          "type": "address"
        },
        {
          "internalType": "address",
          "name": "USDC",
          "type": "address"
        },
        {
          "internalType": "address",
          "name": "USDT",
          "type": "address"
        },
        {
          "internalType": "address",
          "name": "DAI",
          "type": "address"
        }
      ],
      "stateMutability": "nonpayable",
      "type": "constructor"
    },
    {
      "inputs": [],
      "name": "ONE_HOUR_PERIOD",
      "outputs": [
        {
          "internalType": "uint256",
          "name": "",
          "type": "uint256"
        }
      ],
      "stateMutability": "view",
      "type": "function"
    },
    {
      "inputs": [],
      "name": "SIX_M_PERIOD",
      "outputs": [
        {
          "internalType": "uint256",
          "name": "",
          "type": "uint256"
        }
      ],
      "stateMutability": "view",
      "type": "function"
    },
    {
      "inputs": [],
      "name": "TEST_PERIOD",
      "outputs": [
        {
          "internalType": "uint256",
          "name": "",
          "type": "uint256"
        }
      ],
      "stateMutability": "view",
      "type": "function"
    },
    {
      "inputs": [],
      "name": "TWO_DAYS_PERIOD",
      "outputs": [
        {
          "internalType": "uint256",
          "name": "",
          "type": "uint256"
        }
      ],
      "stateMutability": "view",
      "type": "function"
    },
    {
      "inputs": [],
      "name": "TWO_MIN_PERIOD",
      "outputs": [
        {
          "internalType": "uint256",
          "name": "",
          "type": "uint256"
        }
      ],
      "stateMutability": "view",
      "type": "function"
    },
    {
      "inputs": [
        {
          "internalType": "uint256",
          "name": "classId",
          "type": "uint256"
        },
        {
          "internalType": "string",
          "name": "symbol",
          "type": "string"
        },
        {
          "internalType": "enum IData.InterestRateType",
          "name": "interestRateType",
          "type": "uint8"
        },
        {
          "internalType": "address",
          "name": "tokenAddress",
          "type": "address"
        },
        {
          "internalType": "uint256",
          "name": "periodTimestamp",
          "type": "uint256"
        }
      ],
      "name": "addClass",
      "outputs": [],
      "stateMutability": "nonpayable",
      "type": "function"
    },
    {
      "inputs": [],
      "name": "allDebondClasses",
      "outputs": [
        {
          "internalType": "uint256[]",
          "name": "",
          "type": "uint256[]"
        }
      ],
      "stateMutability": "view",
      "type": "function"
    },
    {
      "inputs": [
        {
          "internalType": "uint256",
          "name": "debondClassId",
          "type": "uint256"
        },
        {
          "internalType": "uint256",
          "name": "purchaseClassId",
          "type": "uint256"
        }
      ],
      "name": "canPurchase",
      "outputs": [
        {
          "internalType": "bool",
          "name": "",
          "type": "bool"
        }
      ],
      "stateMutability": "view",
      "type": "function"
    },
    {
      "inputs": [
        {
          "internalType": "uint256",
          "name": "",
          "type": "uint256"
        }
      ],
      "name": "classes",
      "outputs": [
        {
          "internalType": "uint256",
          "name": "id",
          "type": "uint256"
        },
        {
          "internalType": "bool",
          "name": "exists",
          "type": "bool"
        },
        {
          "internalType": "string",
          "name": "symbol",
          "type": "string"
        },
        {
          "internalType": "enum IData.InterestRateType",
          "name": "interestRateType",
          "type": "uint8"
        },
        {
          "internalType": "address",
          "name": "tokenAddress",
          "type": "address"
        },
        {
          "internalType": "uint256",
          "name": "periodTimestamp",
          "type": "uint256"
        },
        {
          "internalType": "uint256",
          "name": "lastNonceIdCreated",
          "type": "uint256"
        },
        {
          "internalType": "uint256",
          "name": "lastNonceIdCreatedTimestamp",
          "type": "uint256"
        }
      ],
      "stateMutability": "view",
      "type": "function"
    },
    {
      "inputs": [
        {
          "internalType": "uint256",
          "name": "",
          "type": "uint256"
        }
      ],
      "name": "classesIds",
      "outputs": [
        {
          "internalType": "uint256",
          "name": "",
          "type": "uint256"
        }
      ],
      "stateMutability": "view",
      "type": "function"
    },
    {
      "inputs": [],
      "name": "getAllClassesIds",
      "outputs": [
        {
          "internalType": "uint256[]",
          "name": "",
          "type": "uint256[]"
        }
      ],
      "stateMutability": "view",
      "type": "function"
    },
    {
      "inputs": [
        {
          "internalType": "uint256",
          "name": "classId",
          "type": "uint256"
        }
      ],
      "name": "getClassFromId",
      "outputs": [
        {
          "internalType": "string",
          "name": "symbol",
          "type": "string"
        },
        {
          "internalType": "enum IData.InterestRateType",
          "name": "interestRateType",
          "type": "uint8"
        },
        {
          "internalType": "address",
          "name": "tokenAddress",
          "type": "address"
        },
        {
          "internalType": "uint256",
          "name": "periodTimestamp",
          "type": "uint256"
        }
      ],
      "stateMutability": "view",
      "type": "function"
    },
    {
      "inputs": [
        {
          "internalType": "uint256",
          "name": "classId",
          "type": "uint256"
        }
      ],
      "name": "getLastNonceCreated",
      "outputs": [
        {
          "internalType": "uint256",
          "name": "nonceId",
          "type": "uint256"
        },
        {
          "internalType": "uint256",
          "name": "createdAt",
          "type": "uint256"
        }
      ],
      "stateMutability": "view",
      "type": "function"
    },
    {
      "inputs": [
        {
          "internalType": "uint256",
          "name": "debondClassId",
          "type": "uint256"
        }
      ],
      "name": "getPurchasableClasses",
      "outputs": [
        {
          "internalType": "uint256[]",
          "name": "",
          "type": "uint256[]"
        }
      ],
      "stateMutability": "view",
      "type": "function"
    },
    {
      "inputs": [
        {
          "internalType": "uint256",
          "name": "debondClassId",
          "type": "uint256"
        },
        {
          "internalType": "uint256",
          "name": "purchasableQueryClassId",
          "type": "uint256"
        }
      ],
      "name": "isPurchasableClass",
      "outputs": [
        {
          "internalType": "bool",
          "name": "",
          "type": "bool"
        }
      ],
      "stateMutability": "view",
      "type": "function"
    },
    {
      "inputs": [
        {
          "internalType": "uint256",
          "name": "",
          "type": "uint256"
        },
        {
          "internalType": "uint256",
          "name": "",
          "type": "uint256"
        }
      ],
      "name": "purchasableClasses",
      "outputs": [
        {
          "internalType": "bool",
          "name": "",
          "type": "bool"
        }
      ],
      "stateMutability": "view",
      "type": "function"
    },
    {
      "inputs": [
        {
          "internalType": "uint256",
          "name": "",
          "type": "uint256"
        },
        {
          "internalType": "uint256",
          "name": "",
          "type": "uint256"
        }
      ],
      "name": "purchasableClassesCollection",
      "outputs": [
        {
          "internalType": "uint256",
          "name": "",
          "type": "uint256"
        }
      ],
      "stateMutability": "view",
      "type": "function"
    },
    {
      "inputs": [
        {
          "internalType": "uint256",
          "name": "classId",
          "type": "uint256"
        },
        {
          "internalType": "uint256",
          "name": "nonceId",
          "type": "uint256"
        },
        {
          "internalType": "uint256",
          "name": "createdAt",
          "type": "uint256"
        }
      ],
      "name": "updateLastNonce",
      "outputs": [],
      "stateMutability": "nonpayable",
      "type": "function"
    },
    {
      "inputs": [
        {
          "internalType": "uint256",
          "name": "debondClassId",
          "type": "uint256"
        },
        {
          "internalType": "uint256",
          "name": "purchaseClassId",
          "type": "uint256"
        },
        {
          "internalType": "bool",
          "name": "purchasable",
          "type": "bool"
        }
      ],
      "name": "updatePurchasableClass",
      "outputs": [],
      "stateMutability": "nonpayable",
      "type": "function"
    }
  ],
  "transactionHash": "0x9f4693d56c01e11b0bb865dab89c59dfebd9aad0cd945bbfed5caa5499ea2d0f",
  "args": [
    "0x0DCd1Bf9A1b36cE34237eEaFef220932846BCD82",
    "0x9A676e781A523b5d0C0e43731313A708CB607508",
    "0xA51c1fc2f0D1a1b8494Ed1FE312d7C3a78Ed91C0",
    "0xB7f8BC63BbcaD18155201308C8f3540b07f84F5e"
  ],
  "numDeployments": 11,
  "solcInputHash": "cb8034aa0cfff6e1da52ceb664d5be15",
  "bytecode": "0x60806040523480156200001157600080fd5b50604051620013333803806200133383398101604081905262000034916200063d565b62000069600060405180604001604052806005815260200164110bd0925560da1b81525060008760006200044560201b60201c565b6200009d6001604051806040016040528060048152602001635553444360e01b81525060008660006200044560201b60201c565b620000d16002604051806040016040528060048152602001631554d11560e21b81525060008560006200044560201b60201c565b6040805180820190915260038082526244414960e81b6020830152620000fb916000848162000445565b62000130600460405180604001604052806005815260200164110bd0925560da1b81525060018760006200044560201b60201c565b620001646005604051806040016040528060048152602001635553444360e01b81525060018660006200044560201b60201c565b620001986006604051806040016040528060048152602001631554d11560e21b81525060018560006200044560201b60201c565b620001cb60076040518060400160405280600381526020016244414960e81b81525060018460006200044560201b60201c565b62000200600860405180604001604052806005815260200164110bd091d560da1b81525060008760006200044560201b60201c565b5050600380546001808201835560007fc2575a0e9e593c00f959f8c92f12db2869c3395a3b0502d05e2516446f71f85b9283018190558354808301855560049301929092557fa6eef7e35abe7026729641147f7915573c7e97b47efa546f5f6e3230263bcb49805480830182557f0eb5be412f275a18f6e4d622aee4ff40b21467c926224771b782d4c095d1444b9081018390557f79c06e8c99a667adda63c5fa6f05695d29630fc62ad2dd069fa929d5714de89d805460ff199081168517909155825480850184556002908301557f7e955e967b2c774fdefd0a6f70cfe851a750a8f48fafda490b70fc148e628d06805482168517905582548085019093559101939093557fa2b7d6385dee48a2ead7459b79e810e06dfda3a93433eedcc81fe84786be084e80548416821790557fedc95719e9a3b28dd8e80877cb5880a9be7de1a13fc8b05e7999683b6b5676438054808301825560057f718e63dea3384bae45fc344065d50afc9f6c6012c0b0106c596c66fa9e32750c918201557fee60d0579bcffd98e668647d59fec1ff86a7fb340ce572e844f234ae73a6918f6020527f82e66d05615b448ed0904fb390c86213e41f8758b242a8e25627a7abd72a24508054861684179055815480840183556006908201557fde0689c460c6f5f1e733b11b086cf49f8afa4683a423235bc757cbc32862322780548616841790558154808401909255600791018190559091527fb593f0d385ca95c8c591dc70bea328c6cfd2ec06364742314f2fbe2e5dd23905805490921617905550620006ec9050565b6000858152602081905260409020600181015460ff1615620004c05760405162461bcd60e51b815260206004820152602a60248201527f4465626f6e64446174613a2063616e6e6f742061646420616e206578697374696044820152691b99c818db185cdcd25960b21b606482015260840160405180910390fd5b8581556001808201805460ff191690911790558451620004ea90600283019060208801906200057a565b5060038101805485919060ff1916600183818111156200050e576200050e6200069a565b02179055506003810180546001600160a01b0390941661010002610100600160a81b03199094169390931790925560049182015580546001810182556000919091527f8a35acfbc15ff81a39ae7d344fd709f28e8600b4aa8c65c6b64bfe7fe36bd19b01929092555050565b8280546200058890620006b0565b90600052602060002090601f016020900481019282620005ac5760008555620005f7565b82601f10620005c757805160ff1916838001178555620005f7565b82800160010185558215620005f7579182015b82811115620005f7578251825591602001919060010190620005da565b506200060592915062000609565b5090565b5b808211156200060557600081556001016200060a565b80516001600160a01b03811681146200063857600080fd5b919050565b600080600080608085870312156200065457600080fd5b6200065f8562000620565b93506200066f6020860162000620565b92506200067f6040860162000620565b91506200068f6060860162000620565b905092959194509250565b634e487b7160e01b600052602160045260246000fd5b600181811c90821680620006c557607f821691505b602082108103620006e657634e487b7160e01b600052602260045260246000fd5b50919050565b610c3780620006fc6000396000f3fe608060405234801561001057600080fd5b50600436106101215760003560e01c8063817dbe9f116100ad578063c60e219f11610071578063c60e219f146102af578063c7f79eb41461023c578063d190eaaf146102c2578063ef8448c4146102d5578063eff3e733146102dd57600080fd5b8063817dbe9f1461024457806387ee5f41146101855780638a38e4191461026b578063941ed4e414610293578063c207d86c1461029c57600080fd5b80631b1c01e9116100f45780631b1c01e9146101c35780632ea16628146101d857806343a560cb146101fb5780635cbf71791461020e578063608643f51461023c57600080fd5b80630f2431b81461012657806310fd132b14610160578063150358dc1461017d57806315de4f2f14610185575b600080fd5b61015e610134366004610851565b60009283526002602090815260408085209385529290529120805460ff1916911515919091179055565b005b61016a6202a30081565b6040519081526020015b60405180910390f35b61016a607881565b6101b361019336600461088f565b600091825260026020908152604080842092845291905290205460ff1690565b6040519015158152602001610174565b6101cb6102f0565b60405161017491906108b1565b6101eb6101e63660046108f5565b610348565b6040516101749493929190610993565b61015e610209366004610a11565b610417565b6101b361021c36600461088f565b600260209081526000928352604080842090915290825290205460ff1681565b61016a600081565b6102576102523660046108f5565b610547565b604051610174989796959493929190610af5565b61027e6102793660046108f5565b610622565b60408051928352602083019190915201610174565b61016a610e1081565b61016a6102aa36600461088f565b61066b565b61015e6102bd366004610b56565b61069c565b6101cb6102d03660046108f5565b6106df565b6101cb610741565b61016a6102eb3660046108f5565b610797565b6060600380548060200260200160405190810160405280929190818152602001828054801561033e57602002820191906000526020600020905b81548152602001906001019080831161032a575b5050505050905090565b6000818152602081905260408120600281018054606093928392839261036d90610b82565b80601f016020809104026020016040519081016040528092919081815260200182805461039990610b82565b80156103e65780601f106103bb576101008083540402835291602001916103e6565b820191906000526020600020905b8154815290600101906020018083116103c957829003601f168201915b505050506004830154600390930154919860ff831698506101009092046001600160a01b0316965091945092505050565b6000858152602081905260409020600181015460ff16156104925760405162461bcd60e51b815260206004820152602a60248201527f4465626f6e64446174613a2063616e6e6f742061646420616e206578697374696044820152691b99c818db185cdcd25960b21b60648201526084015b60405180910390fd5b8581556001808201805460ff1916909117905584516104ba90600283019060208801906107b8565b5060038101805485919060ff1916600183818111156104db576104db61095b565b02179055506003810180546001600160a01b0390941661010002610100600160a81b03199094169390931790925560049182015580546001810182556000919091527f8a35acfbc15ff81a39ae7d344fd709f28e8600b4aa8c65c6b64bfe7fe36bd19b01929092555050565b600060208190529081526040902080546001820154600283018054929360ff9092169261057390610b82565b80601f016020809104026020016040519081016040528092919081815260200182805461059f90610b82565b80156105ec5780601f106105c1576101008083540402835291602001916105ec565b820191906000526020600020905b8154815290600101906020018083116105cf57829003601f168201915b50505050600383015460048401546005850154600690950154939460ff8316946101009093046001600160a01b03169350909188565b6000818152602081905260408120600181015482919060ff166106575760405162461bcd60e51b815260040161048990610bbc565b806005015492508060060154915050915091565b6001602052816000526040600020818154811061068757600080fd5b90600052602060002001600091509150505481565b6000838152602081905260409020600181015460ff166106ce5760405162461bcd60e51b815260040161048990610bbc565b600581019290925560069091015550565b60008181526001602090815260409182902080548351818402810184019094528084526060939283018282801561073557602002820191906000526020600020905b815481526020019060010190808311610721575b50505050509050919050565b6060600480548060200260200160405190810160405280929190818152602001828054801561033e576020028201919060005260206000209081548152602001906001019080831161032a575050505050905090565b600481815481106107a757600080fd5b600091825260209091200154905081565b8280546107c490610b82565b90600052602060002090601f0160209004810192826107e6576000855561082c565b82601f106107ff57805160ff191683800117855561082c565b8280016001018555821561082c579182015b8281111561082c578251825591602001919060010190610811565b5061083892915061083c565b5090565b5b80821115610838576000815560010161083d565b60008060006060848603121561086657600080fd5b83359250602084013591506040840135801515811461088457600080fd5b809150509250925092565b600080604083850312156108a257600080fd5b50508035926020909101359150565b6020808252825182820181905260009190848201906040850190845b818110156108e9578351835292840192918401916001016108cd565b50909695505050505050565b60006020828403121561090757600080fd5b5035919050565b6000815180845260005b8181101561093457602081850181015186830182015201610918565b81811115610946576000602083870101525b50601f01601f19169290920160200192915050565b634e487b7160e01b600052602160045260246000fd5b6002811061098f57634e487b7160e01b600052602160045260246000fd5b9052565b6080815260006109a6608083018761090e565b90506109b56020830186610971565b6001600160a01b039390931660408201526060015292915050565b634e487b7160e01b600052604160045260246000fd5b8035600281106109f557600080fd5b919050565b80356001600160a01b03811681146109f557600080fd5b600080600080600060a08688031215610a2957600080fd5b85359450602086013567ffffffffffffffff80821115610a4857600080fd5b818801915088601f830112610a5c57600080fd5b813581811115610a6e57610a6e6109d0565b604051601f8201601f19908116603f01168101908382118183101715610a9657610a966109d0565b816040528281528b6020848701011115610aaf57600080fd5b826020860160208301376000602084830101528098505050505050610ad6604087016109e6565b9250610ae4606087016109fa565b949793965091946080013592915050565b60006101008a83528915156020840152806040840152610b178184018a61090e565b915050610b276060830188610971565b6001600160a01b0395909516608082015260a081019390935260c083019190915260e090910152949350505050565b600080600060608486031215610b6b57600080fd5b505081359360208301359350604090920135919050565b600181811c90821680610b9657607f821691505b602082108103610bb657634e487b7160e01b600052602260045260246000fd5b50919050565b60208082526025908201527f4465626f6e6420446174613a20636c61737320696420676976656e206e6f7420604082015264199bdd5b9960da1b60608201526080019056fea264697066735822122066114e5fe54b41cc6c6b24b121839639356a1c150c53ac020c105c99996a369b64736f6c634300080d0033",
  "devdoc": {
    "kind": "dev",
    "methods": {},
    "version": 1
  },
  "userdoc": {
    "kind": "user",
    "methods": {
      "addClass(uint256,string,uint8,address,uint256)": {
        "notice": "this method should only be called by the governance contract TODO Only Governance"
      }
    },
    "version": 1
  },
  "storageLayout": {
    "storage": [
      {
        "astId": 6218,
        "contract": "contracts/Debond-v0/contracts/DebondData.sol:DebondData",
        "label": "classes",
        "offset": 0,
        "slot": "0",
        "type": "t_mapping(t_uint256,t_struct(Class)6213_storage)"
      },
      {
        "astId": 6223,
        "contract": "contracts/Debond-v0/contracts/DebondData.sol:DebondData",
        "label": "purchasableClassesCollection",
        "offset": 0,
        "slot": "1",
        "type": "t_mapping(t_uint256,t_array(t_uint256)dyn_storage)"
      },
      {
        "astId": 6229,
        "contract": "contracts/Debond-v0/contracts/DebondData.sol:DebondData",
        "label": "purchasableClasses",
        "offset": 0,
        "slot": "2",
        "type": "t_mapping(t_uint256,t_mapping(t_uint256,t_bool))"
      },
      {
        "astId": 6232,
        "contract": "contracts/Debond-v0/contracts/DebondData.sol:DebondData",
        "label": "debondClasses",
        "offset": 0,
        "slot": "3",
        "type": "t_array(t_uint256)dyn_storage"
      },
      {
        "astId": 6235,
        "contract": "contracts/Debond-v0/contracts/DebondData.sol:DebondData",
        "label": "classesIds",
        "offset": 0,
        "slot": "4",
        "type": "t_array(t_uint256)dyn_storage"
      }
    ],
    "types": {
      "t_address": {
        "encoding": "inplace",
        "label": "address",
        "numberOfBytes": "20"
      },
      "t_array(t_uint256)dyn_storage": {
        "base": "t_uint256",
        "encoding": "dynamic_array",
        "label": "uint256[]",
        "numberOfBytes": "32"
      },
      "t_bool": {
        "encoding": "inplace",
        "label": "bool",
        "numberOfBytes": "1"
      },
      "t_enum(InterestRateType)9248": {
        "encoding": "inplace",
        "label": "enum IData.InterestRateType",
        "numberOfBytes": "1"
      },
      "t_mapping(t_uint256,t_array(t_uint256)dyn_storage)": {
        "encoding": "mapping",
        "key": "t_uint256",
        "label": "mapping(uint256 => uint256[])",
        "numberOfBytes": "32",
        "value": "t_array(t_uint256)dyn_storage"
      },
      "t_mapping(t_uint256,t_bool)": {
        "encoding": "mapping",
        "key": "t_uint256",
        "label": "mapping(uint256 => bool)",
        "numberOfBytes": "32",
        "value": "t_bool"
      },
      "t_mapping(t_uint256,t_mapping(t_uint256,t_bool))": {
        "encoding": "mapping",
        "key": "t_uint256",
        "label": "mapping(uint256 => mapping(uint256 => bool))",
        "numberOfBytes": "32",
        "value": "t_mapping(t_uint256,t_bool)"
      },
      "t_mapping(t_uint256,t_struct(Class)6213_storage)": {
        "encoding": "mapping",
        "key": "t_uint256",
        "label": "mapping(uint256 => struct DebondData.Class)",
        "numberOfBytes": "32",
        "value": "t_struct(Class)6213_storage"
      },
      "t_string_storage": {
        "encoding": "bytes",
        "label": "string",
        "numberOfBytes": "32"
      },
      "t_struct(Class)6213_storage": {
        "encoding": "inplace",
        "label": "struct DebondData.Class",
        "members": [
          {
            "astId": 6197,
            "contract": "contracts/Debond-v0/contracts/DebondData.sol:DebondData",
            "label": "id",
            "offset": 0,
            "slot": "0",
            "type": "t_uint256"
          },
          {
            "astId": 6199,
            "contract": "contracts/Debond-v0/contracts/DebondData.sol:DebondData",
            "label": "exists",
            "offset": 0,
            "slot": "1",
            "type": "t_bool"
          },
          {
            "astId": 6201,
            "contract": "contracts/Debond-v0/contracts/DebondData.sol:DebondData",
            "label": "symbol",
            "offset": 0,
            "slot": "2",
            "type": "t_string_storage"
          },
          {
            "astId": 6204,
            "contract": "contracts/Debond-v0/contracts/DebondData.sol:DebondData",
            "label": "interestRateType",
            "offset": 0,
            "slot": "3",
            "type": "t_enum(InterestRateType)9248"
          },
          {
            "astId": 6206,
            "contract": "contracts/Debond-v0/contracts/DebondData.sol:DebondData",
            "label": "tokenAddress",
            "offset": 1,
            "slot": "3",
            "type": "t_address"
          },
          {
            "astId": 6208,
            "contract": "contracts/Debond-v0/contracts/DebondData.sol:DebondData",
            "label": "periodTimestamp",
            "offset": 0,
            "slot": "4",
            "type": "t_uint256"
          },
          {
            "astId": 6210,
            "contract": "contracts/Debond-v0/contracts/DebondData.sol:DebondData",
            "label": "lastNonceIdCreated",
            "offset": 0,
            "slot": "5",
            "type": "t_uint256"
          },
          {
            "astId": 6212,
            "contract": "contracts/Debond-v0/contracts/DebondData.sol:DebondData",
            "label": "lastNonceIdCreatedTimestamp",
            "offset": 0,
            "slot": "6",
            "type": "t_uint256"
          }
        ],
        "numberOfBytes": "224"
      },
      "t_uint256": {
        "encoding": "inplace",
        "label": "uint256",
        "numberOfBytes": "32"
      }
    }
  }
}