{
  "address": "0x2279B7A0a67DB372996a5FaB50D91eAA73d2eBe6",
  "abi": [
    {
      "inputs": [
        {
          "internalType": "address",
          "name": "_debondDataAddress",
          "type": "address"
        },
        {
          "internalType": "address",
          "name": "_debondBondAddress",
          "type": "address"
        },
        {
          "internalType": "address",
          "name": "_currency",
          "type": "address"
        }
      ],
      "stateMutability": "nonpayable",
      "type": "constructor"
    },
    {
      "anonymous": false,
      "inputs": [
        {
          "indexed": false,
          "internalType": "uint256",
          "name": "_auctionId",
          "type": "uint256"
        },
        {
          "indexed": false,
          "internalType": "address",
          "name": "issuer",
          "type": "address"
        },
        {
          "indexed": false,
          "internalType": "uint256",
          "name": "time",
          "type": "uint256"
        }
      ],
      "name": "AuctionCancelled",
      "type": "event"
    },
    {
      "anonymous": false,
      "inputs": [
        {
          "indexed": false,
          "internalType": "uint256",
          "name": "_auctionId",
          "type": "uint256"
        },
        {
          "indexed": false,
          "internalType": "address",
          "name": "BidWinner",
          "type": "address"
        }
      ],
      "name": "AuctionCompleted",
      "type": "event"
    },
    {
      "anonymous": false,
      "inputs": [
        {
          "indexed": false,
          "internalType": "uint256",
          "name": "_auctionId",
          "type": "uint256"
        },
        {
          "indexed": false,
          "internalType": "address",
          "name": "issuer",
          "type": "address"
        }
      ],
      "name": "AuctionStarted",
      "type": "event"
    },
    {
      "anonymous": false,
      "inputs": [
        {
          "indexed": true,
          "internalType": "address",
          "name": "sender",
          "type": "address"
        },
        {
          "indexed": false,
          "internalType": "uint256",
          "name": "amount",
          "type": "uint256"
        }
      ],
      "name": "BidSubmitted",
      "type": "event"
    },
    {
      "anonymous": false,
      "inputs": [
        {
          "indexed": true,
          "internalType": "bytes32",
          "name": "role",
          "type": "bytes32"
        },
        {
          "indexed": true,
          "internalType": "bytes32",
          "name": "previousAdminRole",
          "type": "bytes32"
        },
        {
          "indexed": true,
          "internalType": "bytes32",
          "name": "newAdminRole",
          "type": "bytes32"
        }
      ],
      "name": "RoleAdminChanged",
      "type": "event"
    },
    {
      "anonymous": false,
      "inputs": [
        {
          "indexed": true,
          "internalType": "bytes32",
          "name": "role",
          "type": "bytes32"
        },
        {
          "indexed": true,
          "internalType": "address",
          "name": "account",
          "type": "address"
        },
        {
          "indexed": true,
          "internalType": "address",
          "name": "sender",
          "type": "address"
        }
      ],
      "name": "RoleGranted",
      "type": "event"
    },
    {
      "anonymous": false,
      "inputs": [
        {
          "indexed": true,
          "internalType": "bytes32",
          "name": "role",
          "type": "bytes32"
        },
        {
          "indexed": true,
          "internalType": "address",
          "name": "account",
          "type": "address"
        },
        {
          "indexed": true,
          "internalType": "address",
          "name": "sender",
          "type": "address"
        }
      ],
      "name": "RoleRevoked",
      "type": "event"
    },
    {
      "inputs": [],
      "name": "DEFAULT_ADMIN_ROLE",
      "outputs": [
        {
          "internalType": "bytes32",
          "name": "",
          "type": "bytes32"
        }
      ],
      "stateMutability": "view",
      "type": "function"
    },
    {
      "inputs": [
        {
          "internalType": "uint256",
          "name": "",
          "type": "uint256"
        }
      ],
      "name": "auctions",
      "outputs": [
        {
          "internalType": "uint256",
          "name": "id",
          "type": "uint256"
        },
        {
          "internalType": "address",
          "name": "owner",
          "type": "address"
        },
        {
          "internalType": "uint256",
          "name": "startingTime",
          "type": "uint256"
        },
        {
          "internalType": "uint256",
          "name": "endingTime",
          "type": "uint256"
        },
        {
          "internalType": "uint256",
          "name": "duration",
          "type": "uint256"
        },
        {
          "internalType": "uint256",
          "name": "classId",
          "type": "uint256"
        },
        {
          "internalType": "uint256",
          "name": "nonceId",
          "type": "uint256"
        },
        {
          "internalType": "uint256",
          "name": "amount",
          "type": "uint256"
        },
        {
          "internalType": "uint256",
          "name": "maxDbitAmount",
          "type": "uint256"
        },
        {
          "internalType": "uint256",
          "name": "minDbitAmount",
          "type": "uint256"
        },
        {
          "internalType": "enum Exchange.AuctionState",
          "name": "auctionState",
          "type": "uint8"
        },
        {
          "internalType": "bool",
          "name": "curvingPrice",
          "type": "bool"
        },
        {
          "internalType": "address",
          "name": "successfulBidder",
          "type": "address"
        },
        {
          "internalType": "uint256",
          "name": "finalPrice",
          "type": "uint256"
        }
      ],
      "stateMutability": "view",
      "type": "function"
    },
    {
      "inputs": [
        {
          "internalType": "uint256",
          "name": "_auctionId",
          "type": "uint256"
        }
      ],
      "name": "bid",
      "outputs": [],
      "stateMutability": "nonpayable",
      "type": "function"
    },
    {
      "inputs": [
        {
          "internalType": "uint256",
          "name": "_auctionId",
          "type": "uint256"
        }
      ],
      "name": "cancelAuction",
      "outputs": [],
      "stateMutability": "nonpayable",
      "type": "function"
    },
    {
      "inputs": [
        {
          "internalType": "uint256",
          "name": "classId",
          "type": "uint256"
        },
        {
          "internalType": "uint256",
          "name": "nonceId",
          "type": "uint256"
        },
        {
          "internalType": "uint256",
          "name": "amount",
          "type": "uint256"
        },
        {
          "internalType": "uint256",
          "name": "minDbitAmount",
          "type": "uint256"
        },
        {
          "internalType": "uint256",
          "name": "maxDbitAmount",
          "type": "uint256"
        },
        {
          "internalType": "uint256",
          "name": "auctionDuration",
          "type": "uint256"
        }
      ],
      "name": "createSecondaryMarketAuction",
      "outputs": [],
      "stateMutability": "nonpayable",
      "type": "function"
    },
    {
      "inputs": [
        {
          "internalType": "uint256",
          "name": "auctionId",
          "type": "uint256"
        }
      ],
      "name": "currentPrice",
      "outputs": [
        {
          "internalType": "uint256",
          "name": "auctionPrice",
          "type": "uint256"
        }
      ],
      "stateMutability": "view",
      "type": "function"
    },
    {
      "inputs": [],
      "name": "getAuctionIds",
      "outputs": [
        {
          "internalType": "uint256[]",
          "name": "auctions",
          "type": "uint256[]"
        }
      ],
      "stateMutability": "view",
      "type": "function"
    },
    {
      "inputs": [
        {
          "internalType": "bytes32",
          "name": "role",
          "type": "bytes32"
        }
      ],
      "name": "getRoleAdmin",
      "outputs": [
        {
          "internalType": "bytes32",
          "name": "",
          "type": "bytes32"
        }
      ],
      "stateMutability": "view",
      "type": "function"
    },
    {
      "inputs": [
        {
          "internalType": "bytes32",
          "name": "role",
          "type": "bytes32"
        },
        {
          "internalType": "address",
          "name": "account",
          "type": "address"
        }
      ],
      "name": "grantRole",
      "outputs": [],
      "stateMutability": "nonpayable",
      "type": "function"
    },
    {
      "inputs": [
        {
          "internalType": "bytes32",
          "name": "role",
          "type": "bytes32"
        },
        {
          "internalType": "address",
          "name": "account",
          "type": "address"
        }
      ],
      "name": "hasRole",
      "outputs": [
        {
          "internalType": "bool",
          "name": "",
          "type": "bool"
        }
      ],
      "stateMutability": "view",
      "type": "function"
    },
    {
      "inputs": [
        {
          "internalType": "bytes32",
          "name": "role",
          "type": "bytes32"
        },
        {
          "internalType": "address",
          "name": "account",
          "type": "address"
        }
      ],
      "name": "renounceRole",
      "outputs": [],
      "stateMutability": "nonpayable",
      "type": "function"
    },
    {
      "inputs": [
        {
          "internalType": "bytes32",
          "name": "role",
          "type": "bytes32"
        },
        {
          "internalType": "address",
          "name": "account",
          "type": "address"
        }
      ],
      "name": "revokeRole",
      "outputs": [],
      "stateMutability": "nonpayable",
      "type": "function"
    },
    {
      "inputs": [
        {
          "internalType": "bytes4",
          "name": "interfaceId",
          "type": "bytes4"
        }
      ],
      "name": "supportsInterface",
      "outputs": [
        {
          "internalType": "bool",
          "name": "",
          "type": "bool"
        }
      ],
      "stateMutability": "view",
      "type": "function"
    }
  ],
  "transactionHash": "0x3d57894b8e7672737636abc344c8e1d440f129c2503379d6cc162d2534b041ab",
  "args": [
    "0x5FC8d32690cc91D4c39d9d3abcBD16989F875707",
    "0xDc64a140Aa3E981100a9becA4E685f962f0cF6C9",
    "0x9fE46736679d2D9a65F0992F2272dE9f3c7fa6e0"
  ],
  "numDeployments": 1,
  "solcInputHash": "38817cb41b79540a5b058d9672f7da4c",
  "bytecode": "0x60806040523480156200001157600080fd5b506040516200189638038062001896833981016040819052620000349162000098565b60018055600280546001600160a01b039485166001600160a01b031991821617909155600380549385169382169390931790925560048054919093169116179055620000e2565b80516001600160a01b03811681146200009357600080fd5b919050565b600080600060608486031215620000ae57600080fd5b620000b9846200007b565b9250620000c9602085016200007b565b9150620000d9604085016200007b565b90509250925092565b6117a480620000f26000396000f3fe608060405234801561001057600080fd5b50600436106100cf5760003560e01c8063571a26a01161008c57806396b5a7551161006657806396b5a7551461024e578063a217fddf14610261578063c9d1cab314610269578063d547741f1461027c57600080fd5b8063571a26a01461017d5780637a3c4c171461022857806391d148541461023b57600080fd5b806301ffc9a7146100d45780631094db1b146100fc578063248a9ca3146101115780632f2ff15d1461014257806336568abe14610157578063454a2ab31461016a575b600080fd5b6100e76100e23660046111c1565b61028f565b60405190151581526020015b60405180910390f35b6101046102c6565b6040516100f391906111eb565b61013461011f36600461122f565b60009081526020819052604090206001015490565b6040519081526020016100f3565b610155610150366004611260565b61031e565b005b610155610165366004611260565b610349565b61015561017836600461122f565b6103cc565b61020e61018b36600461122f565b600560208190526000918252604090912080546001820154600283015460038401546004850154958501546006860154600787015460088801546009890154600a8a0154600b909a0154989a6001600160a01b039889169a9799969890979596949593949293919260ff808416936101008104909116926201000090910416908e565b6040516100f39e9d9c9b9a999897969594939291906112a6565b61013461023636600461122f565b6106a8565b6100e7610249366004611260565b6108c4565b61015561025c36600461122f565b6108ed565b610134600081565b61015561027736600461134d565b610ac4565b61015561028a366004611260565b610e64565b60006001600160e01b03198216637965db0b60e01b14806102c057506301ffc9a760e01b6001600160e01b03198316145b92915050565b6060600680548060200260200160405190810160405280929190818152602001828054801561031457602002820191906000526020600020905b815481526020019060010190808311610300575b5050505050905090565b60008281526020819052604090206001015461033a8133610e8a565b6103448383610eee565b505050565b6001600160a01b03811633146103be5760405162461bcd60e51b815260206004820152602f60248201527f416363657373436f6e74726f6c3a2063616e206f6e6c792072656e6f756e636560448201526e103937b632b9903337b91039b2b63360891b60648201526084015b60405180910390fd5b6103c88282610f72565b5050565b60026001540361041e5760405162461bcd60e51b815260206004820152601f60248201527f5265656e7472616e637947756172643a207265656e7472616e742063616c6c0060448201526064016103b5565b60026001908155600082815260056020526040902001546001600160a01b031633036104a55760405162461bcd60e51b815260206004820152603060248201527f45786368616e67653a206269646465722073686f756c64206e6f74206265207460448201526f34329030bab1ba34b7b71037bbb732b960811b60648201526084016103b5565b6104ae81610fd7565b600081815260056020526040812090600a82015460ff1660038111156104d6576104d6611290565b146105235760405162461bcd60e51b815260206004820152601860248201527f62696420697320636f6d706c6574656420616c7265616479000000000000000060448201526064016103b5565b33600061052f846106a8565b600480546040516323b872dd60e01b81526001600160a01b03868116938201939093523060248201526044810184905292935016906323b872dd906064016020604051808303816000875af115801561058c573d6000803e3d6000fd5b505050506040513d601f19601f820116820180604052508101906105b09190611390565b50600354600584015460068501546007860154604051632576a9e160e11b81526001600160a01b0390941693634aed53c2936105f293309389936004016113b2565b600060405180830381600087803b15801561060c57600080fd5b505af1158015610620573d6000803e3d6000fd5b50505050600a83018054426003860155600b850183905561ff01600160b01b03191660ff19620100006001600160a01b03861690810291909116919091176001179091556040805186815260208101929092527f97938efcbc8c10b93e3a3da45c828766c118bd266b0b535bf5a776e87c9a83ad910160405180910390a15050600180555050565b600081815260056020818152604080842081516101c0810183528154815260018201546001600160a01b0316938101939093526002810154918301919091526003808201546060840152600482015460808401529281015460a0830152600681015460c0830152600781015460e083015260088101546101008301526009810154610120830152600a810154849361014084019160ff169081111561074f5761074f611290565b600381111561076057610760611290565b8152600a820154610100810460ff16151560208301526201000090046001600160a01b0316604080830191909152600b909201546060909101528101519091506000906107ad90426113f9565b9050816080015181106108025760405162461bcd60e51b815260206004820181905260248201527f61756374696f6e20656e6465642c657175616c20746f206661636556616c756560448201526064016103b5565b8161016001516108535781608001518183610120015184610100015161082891906113f9565b6108329190611410565b61083c919061142f565b82610100015161084c91906113f9565b92506108bd565b600282604001514261086591906113f9565b61086f9190611535565b600283608001516108809190611535565b83610120015184610100015161089691906113f9565b6108a0919061142f565b6108aa9190611410565b8261010001516108ba91906113f9565b92505b5050919050565b6000918252602082815260408084206001600160a01b0393909316845291905290205460ff1690565b60008181526005602052604090206001015481906001600160a01b0316331461096a5760405162461bcd60e51b815260206004820152602960248201527f45786368616e67653a2043616c6c6572206973206e6f7420746865206175637460448201526834b7b71037bbb732b960b91b60648201526084016103b5565b61097382610fd7565b600082815260056020526040812090600a82015460ff16600381111561099b5761099b611290565b146109e85760405162461bcd60e51b815260206004820152601860248201527f61756374696f6e20616c72656164792066696e6973686564000000000000000060448201526064016103b5565b6003546001820154600583015460068401546007850154604051632576a9e160e11b81526001600160a01b0395861695634aed53c295610a33953095929091169390926004016113b2565b600060405180830381600087803b158015610a4d57600080fd5b505af1158015610a61573d6000803e3d6000fd5b50505050600a8101805460ff191660039081179091554290820181905560408051858152336020820152908101919091527f6a3d5a07d548e27ae884a742682e9b929c0a0e4040990bc28c04637c5c0771049060600160405180910390a1505050565b62278d00811115610b175760405162461bcd60e51b815260206004820152601f60248201527f45786368616e67653a204d6178204475726174696f6e2045786365656465640060448201526064016103b5565b610e108111610b735760405162461bcd60e51b815260206004820152602260248201527f45786368616e67653a204d696e204475726174696f6e206e6f74207265616368604482015261195960f21b60648201526084016103b5565b818310610be85760405162461bcd60e51b815260206004820152603d60248201527f45786368616e67653a206d696e204462697420416d6f756e742053686f756c6460448201527f206265206c657373207468616e206d6178206462697420616d6f756e7400000060648201526084016103b5565b60008311610c4e5760405162461bcd60e51b815260206004820152602d60248201527f45786368616e67653a206d696e204462697420416d6f756e742053686f756c6460448201526c02062652067726561746572203609c1b60648201526084016103b5565b600354604051632576a9e160e11b81526001600160a01b0390911690634aed53c290610c8690339030908b908b908b906004016113b2565b600060405180830381600087803b158015610ca057600080fd5b505af1158015610cb4573d6000803e3d6000fd5b50506002546040516305d42cc560e31b8152600481018a9052600093506001600160a01b039091169150632ea1662890602401600060405180830381865afa158015610d04573d6000803e3d6000fd5b505050506040513d6000823e601f3d908101601f19168201604052610d2c91908101906115a9565b5050600780546000818152600560208190526040909120918255600180830180546001600160a01b0319163317905560088301899055600483018890554260028401559082018c9055600682018b9055918101899055600a8101805460ff191690559193509091508281811115610da557610da5611290565b14610db1576000610db4565b60015b600a820180549115156101000261ff00199092169190911790558054600680546001810182556000919091527ff652222313e28459528d920b65115c16c04f3efc82aaedc97be59f3f377c0d3f0155610e11600780546001019055565b80546001820154604080519283526001600160a01b0390911660208301527f16da476d7265fc95576888b93de4fa4849d6cea1228235887f569c6530ddfec1910160405180910390a15050505050505050565b600082815260208190526040902060010154610e808133610e8a565b6103448383610f72565b610e9482826108c4565b6103c857610eac816001600160a01b0316601461101e565b610eb783602061101e565b604051602001610ec8929190611681565b60408051601f198184030181529082905262461bcd60e51b82526103b5916004016116f6565b610ef882826108c4565b6103c8576000828152602081815260408083206001600160a01b03851684529091529020805460ff19166001179055610f2e3390565b6001600160a01b0316816001600160a01b0316837f2f8788117e7eff1d82e926ec794901d17c78024a50270940304540a733656f0d60405160405180910390a45050565b610f7c82826108c4565b156103c8576000828152602081815260408083206001600160a01b0385168085529252808320805460ff1916905551339285917ff6391f5c32d9c69d2a47ea670b442974b53935d1edc7fd64eb21e047a839171b9190a45050565b600081815260056020526040902060048101546002820154610ff99190611729565b42106103c857506000908152600560205260409020600a01805460ff19166002179055565b6060600061102d836002611410565b611038906002611729565b67ffffffffffffffff81111561105057611050611544565b6040519080825280601f01601f19166020018201604052801561107a576020820181803683370190505b509050600360fc1b8160008151811061109557611095611741565b60200101906001600160f81b031916908160001a905350600f60fb1b816001815181106110c4576110c4611741565b60200101906001600160f81b031916908160001a90535060006110e8846002611410565b6110f3906001611729565b90505b600181111561116b576f181899199a1a9b1b9c1cb0b131b232b360811b85600f166010811061112757611127611741565b1a60f81b82828151811061113d5761113d611741565b60200101906001600160f81b031916908160001a90535060049490941c9361116481611757565b90506110f6565b5083156111ba5760405162461bcd60e51b815260206004820181905260248201527f537472696e67733a20686578206c656e67746820696e73756666696369656e7460448201526064016103b5565b9392505050565b6000602082840312156111d357600080fd5b81356001600160e01b0319811681146111ba57600080fd5b6020808252825182820181905260009190848201906040850190845b8181101561122357835183529284019291840191600101611207565b50909695505050505050565b60006020828403121561124157600080fd5b5035919050565b6001600160a01b038116811461125d57600080fd5b50565b6000806040838503121561127357600080fd5b82359150602083013561128581611248565b809150509250929050565b634e487b7160e01b600052602160045260246000fd5b60006101c0820190508f825260018060a01b038f1660208301528d60408301528c60608301528b60808301528a60a08301528960c08301528860e083015287610100830152866101208301526004861061131057634e487b7160e01b600052602160045260246000fd5b8561014083015261132661016083018615159052565b6001600160a01b03939093166101808201526101a001529c9b505050505050505050505050565b60008060008060008060c0878903121561136657600080fd5b505084359660208601359650604086013595606081013595506080810135945060a0013592509050565b6000602082840312156113a257600080fd5b815180151581146111ba57600080fd5b6001600160a01b03958616815293909416602084015260408301919091526060820152608081019190915260a00190565b634e487b7160e01b600052601160045260246000fd5b60008282101561140b5761140b6113e3565b500390565b600081600019048311821515161561142a5761142a6113e3565b500290565b60008261144c57634e487b7160e01b600052601260045260246000fd5b500490565b600181815b8085111561148c578160001904821115611472576114726113e3565b8085161561147f57918102915b93841c9390800290611456565b509250929050565b6000826114a3575060016102c0565b816114b0575060006102c0565b81600181146114c657600281146114d0576114ec565b60019150506102c0565b60ff8411156114e1576114e16113e3565b50506001821b6102c0565b5060208310610133831016604e8410600b841016171561150f575081810a6102c0565b6115198383611451565b806000190482111561152d5761152d6113e3565b029392505050565b60006111ba60ff841683611494565b634e487b7160e01b600052604160045260246000fd5b60005b8381101561157557818101518382015260200161155d565b83811115611584576000848401525b50505050565b80516002811061159957600080fd5b919050565b805161159981611248565b600080600080608085870312156115bf57600080fd5b845167ffffffffffffffff808211156115d757600080fd5b818701915087601f8301126115eb57600080fd5b8151818111156115fd576115fd611544565b604051601f8201601f19908116603f0116810190838211818310171561162557611625611544565b816040528281528a602084870101111561163e57600080fd5b61164f83602083016020880161155a565b80985050505050506116636020860161158a565b92506116716040860161159e565b6060959095015193969295505050565b7f416363657373436f6e74726f6c3a206163636f756e74200000000000000000008152600083516116b981601785016020880161155a565b7001034b99036b4b9b9b4b733903937b6329607d1b60179184019182015283516116ea81602884016020880161155a565b01602801949350505050565b602081526000825180602084015261171581604085016020870161155a565b601f01601f19169190910160400192915050565b6000821982111561173c5761173c6113e3565b500190565b634e487b7160e01b600052603260045260246000fd5b600081611766576117666113e3565b50600019019056fea26469706673582212205a9770a58623dbfa18c8dd61e036ac25946be9e10837f494273eaf358871a9ac64736f6c634300080d0033",
  "devdoc": {
    "kind": "dev",
    "methods": {
      "getRoleAdmin(bytes32)": {
        "details": "Returns the admin role that controls `role`. See {grantRole} and {revokeRole}. To change a role's admin, use {_setRoleAdmin}."
      },
      "grantRole(bytes32,address)": {
        "details": "Grants `role` to `account`. If `account` had not been already granted `role`, emits a {RoleGranted} event. Requirements: - the caller must have ``role``'s admin role."
      },
      "hasRole(bytes32,address)": {
        "details": "Returns `true` if `account` has been granted `role`."
      },
      "renounceRole(bytes32,address)": {
        "details": "Revokes `role` from the calling account. Roles are often managed via {grantRole} and {revokeRole}: this function's purpose is to provide a mechanism for accounts to lose their privileges if they are compromised (such as when a trusted device is misplaced). If the calling account had been revoked `role`, emits a {RoleRevoked} event. Requirements: - the caller must be `account`."
      },
      "revokeRole(bytes32,address)": {
        "details": "Revokes `role` from `account`. If `account` had been granted `role`, emits a {RoleRevoked} event. Requirements: - the caller must have ``role``'s admin role."
      },
      "supportsInterface(bytes4)": {
        "details": "See {IERC165-supportsInterface}."
      }
    },
    "version": 1
  },
  "userdoc": {
    "kind": "user",
    "methods": {},
    "version": 1
  },
  "storageLayout": {
    "storage": [
      {
        "astId": 24,
        "contract": "contracts/Debond-v0/contracts/Exchange.sol:Exchange",
        "label": "_roles",
        "offset": 0,
        "slot": "0",
        "type": "t_mapping(t_bytes32,t_struct(RoleData)19_storage)"
      },
      {
        "astId": 497,
        "contract": "contracts/Debond-v0/contracts/Exchange.sol:Exchange",
        "label": "_status",
        "offset": 0,
        "slot": "1",
        "type": "t_uint256"
      },
      {
        "astId": 6736,
        "contract": "contracts/Debond-v0/contracts/Exchange.sol:Exchange",
        "label": "bondData",
        "offset": 0,
        "slot": "2",
        "type": "t_address"
      },
      {
        "astId": 6738,
        "contract": "contracts/Debond-v0/contracts/Exchange.sol:Exchange",
        "label": "debondBondAddress",
        "offset": 0,
        "slot": "3",
        "type": "t_address"
      },
      {
        "astId": 6740,
        "contract": "contracts/Debond-v0/contracts/Exchange.sol:Exchange",
        "label": "currency",
        "offset": 0,
        "slot": "4",
        "type": "t_address"
      },
      {
        "astId": 6745,
        "contract": "contracts/Debond-v0/contracts/Exchange.sol:Exchange",
        "label": "auctions",
        "offset": 0,
        "slot": "5",
        "type": "t_mapping(t_uint256,t_struct(Auction)6734_storage)"
      },
      {
        "astId": 6748,
        "contract": "contracts/Debond-v0/contracts/Exchange.sol:Exchange",
        "label": "auctionsCollection",
        "offset": 0,
        "slot": "6",
        "type": "t_array(t_uint256)dyn_storage"
      },
      {
        "astId": 6757,
        "contract": "contracts/Debond-v0/contracts/Exchange.sol:Exchange",
        "label": "idCounter",
        "offset": 0,
        "slot": "7",
        "type": "t_struct(Counter)1764_storage"
      }
    ],
    "types": {
      "t_address": {
        "encoding": "inplace",
        "label": "address",
        "numberOfBytes": "20"
      },
      "t_array(t_uint256)dyn_storage": {
        "base": "t_uint256",
        "encoding": "dynamic_array",
        "label": "uint256[]",
        "numberOfBytes": "32"
      },
      "t_bool": {
        "encoding": "inplace",
        "label": "bool",
        "numberOfBytes": "1"
      },
      "t_bytes32": {
        "encoding": "inplace",
        "label": "bytes32",
        "numberOfBytes": "32"
      },
      "t_enum(AuctionState)6704": {
        "encoding": "inplace",
        "label": "enum Exchange.AuctionState",
        "numberOfBytes": "1"
      },
      "t_mapping(t_address,t_bool)": {
        "encoding": "mapping",
        "key": "t_address",
        "label": "mapping(address => bool)",
        "numberOfBytes": "32",
        "value": "t_bool"
      },
      "t_mapping(t_bytes32,t_struct(RoleData)19_storage)": {
        "encoding": "mapping",
        "key": "t_bytes32",
        "label": "mapping(bytes32 => struct AccessControl.RoleData)",
        "numberOfBytes": "32",
        "value": "t_struct(RoleData)19_storage"
      },
      "t_mapping(t_uint256,t_struct(Auction)6734_storage)": {
        "encoding": "mapping",
        "key": "t_uint256",
        "label": "mapping(uint256 => struct Exchange.Auction)",
        "numberOfBytes": "32",
        "value": "t_struct(Auction)6734_storage"
      },
      "t_struct(Auction)6734_storage": {
        "encoding": "inplace",
        "label": "struct Exchange.Auction",
        "members": [
          {
            "astId": 6706,
            "contract": "contracts/Debond-v0/contracts/Exchange.sol:Exchange",
            "label": "id",
            "offset": 0,
            "slot": "0",
            "type": "t_uint256"
          },
          {
            "astId": 6708,
            "contract": "contracts/Debond-v0/contracts/Exchange.sol:Exchange",
            "label": "owner",
            "offset": 0,
            "slot": "1",
            "type": "t_address"
          },
          {
            "astId": 6710,
            "contract": "contracts/Debond-v0/contracts/Exchange.sol:Exchange",
            "label": "startingTime",
            "offset": 0,
            "slot": "2",
            "type": "t_uint256"
          },
          {
            "astId": 6712,
            "contract": "contracts/Debond-v0/contracts/Exchange.sol:Exchange",
            "label": "endingTime",
            "offset": 0,
            "slot": "3",
            "type": "t_uint256"
          },
          {
            "astId": 6714,
            "contract": "contracts/Debond-v0/contracts/Exchange.sol:Exchange",
            "label": "duration",
            "offset": 0,
            "slot": "4",
            "type": "t_uint256"
          },
          {
            "astId": 6716,
            "contract": "contracts/Debond-v0/contracts/Exchange.sol:Exchange",
            "label": "classId",
            "offset": 0,
            "slot": "5",
            "type": "t_uint256"
          },
          {
            "astId": 6718,
            "contract": "contracts/Debond-v0/contracts/Exchange.sol:Exchange",
            "label": "nonceId",
            "offset": 0,
            "slot": "6",
            "type": "t_uint256"
          },
          {
            "astId": 6720,
            "contract": "contracts/Debond-v0/contracts/Exchange.sol:Exchange",
            "label": "amount",
            "offset": 0,
            "slot": "7",
            "type": "t_uint256"
          },
          {
            "astId": 6722,
            "contract": "contracts/Debond-v0/contracts/Exchange.sol:Exchange",
            "label": "maxDbitAmount",
            "offset": 0,
            "slot": "8",
            "type": "t_uint256"
          },
          {
            "astId": 6724,
            "contract": "contracts/Debond-v0/contracts/Exchange.sol:Exchange",
            "label": "minDbitAmount",
            "offset": 0,
            "slot": "9",
            "type": "t_uint256"
          },
          {
            "astId": 6727,
            "contract": "contracts/Debond-v0/contracts/Exchange.sol:Exchange",
            "label": "auctionState",
            "offset": 0,
            "slot": "10",
            "type": "t_enum(AuctionState)6704"
          },
          {
            "astId": 6729,
            "contract": "contracts/Debond-v0/contracts/Exchange.sol:Exchange",
            "label": "curvingPrice",
            "offset": 1,
            "slot": "10",
            "type": "t_bool"
          },
          {
            "astId": 6731,
            "contract": "contracts/Debond-v0/contracts/Exchange.sol:Exchange",
            "label": "successfulBidder",
            "offset": 2,
            "slot": "10",
            "type": "t_address"
          },
          {
            "astId": 6733,
            "contract": "contracts/Debond-v0/contracts/Exchange.sol:Exchange",
            "label": "finalPrice",
            "offset": 0,
            "slot": "11",
            "type": "t_uint256"
          }
        ],
        "numberOfBytes": "384"
      },
      "t_struct(Counter)1764_storage": {
        "encoding": "inplace",
        "label": "struct Counters.Counter",
        "members": [
          {
            "astId": 1763,
            "contract": "contracts/Debond-v0/contracts/Exchange.sol:Exchange",
            "label": "_value",
            "offset": 0,
            "slot": "0",
            "type": "t_uint256"
          }
        ],
        "numberOfBytes": "32"
      },
      "t_struct(RoleData)19_storage": {
        "encoding": "inplace",
        "label": "struct AccessControl.RoleData",
        "members": [
          {
            "astId": 16,
            "contract": "contracts/Debond-v0/contracts/Exchange.sol:Exchange",
            "label": "members",
            "offset": 0,
            "slot": "0",
            "type": "t_mapping(t_address,t_bool)"
          },
          {
            "astId": 18,
            "contract": "contracts/Debond-v0/contracts/Exchange.sol:Exchange",
            "label": "adminRole",
            "offset": 0,
            "slot": "1",
            "type": "t_bytes32"
          }
        ],
        "numberOfBytes": "64"
      },
      "t_uint256": {
        "encoding": "inplace",
        "label": "uint256",
        "numberOfBytes": "32"
      }
    }
  }
}