{
  "address": "0xB439ecb88CA875A991293201A81605e1C7677998",
  "abi": [
    {
      "inputs": [
        {
          "internalType": "address",
          "name": "apmAddress",
          "type": "address"
        },
        {
          "internalType": "address",
          "name": "dataAddress",
          "type": "address"
        },
        {
          "internalType": "address",
          "name": "bondAddress",
          "type": "address"
        },
        {
          "internalType": "address",
          "name": "_DBITAddress",
          "type": "address"
        }
      ],
      "stateMutability": "nonpayable",
      "type": "constructor"
    },
    {
      "inputs": [],
      "name": "PRBMathSD59x18__DivInputTooSmall",
      "type": "error"
    },
    {
      "inputs": [
        {
          "internalType": "uint256",
          "name": "rAbs",
          "type": "uint256"
        }
      ],
      "name": "PRBMathSD59x18__DivOverflow",
      "type": "error"
    },
    {
      "inputs": [
        {
          "internalType": "int256",
          "name": "x",
          "type": "int256"
        }
      ],
      "name": "PRBMathSD59x18__Exp2InputTooBig",
      "type": "error"
    },
    {
      "inputs": [],
      "name": "PRBMathSD59x18__MulInputTooSmall",
      "type": "error"
    },
    {
      "inputs": [
        {
          "internalType": "uint256",
          "name": "rAbs",
          "type": "uint256"
        }
      ],
      "name": "PRBMathSD59x18__MulOverflow",
      "type": "error"
    },
    {
      "inputs": [
        {
          "internalType": "uint256",
          "name": "prod1",
          "type": "uint256"
        }
      ],
      "name": "PRBMath__MulDivFixedPointOverflow",
      "type": "error"
    },
    {
      "inputs": [
        {
          "internalType": "uint256",
          "name": "prod1",
          "type": "uint256"
        },
        {
          "internalType": "uint256",
          "name": "denominator",
          "type": "uint256"
        }
      ],
      "name": "PRBMath__MulDivOverflow",
      "type": "error"
    },
    {
      "inputs": [],
      "name": "BASE_TIMESTAMP",
      "outputs": [
        {
          "internalType": "uint256",
          "name": "",
          "type": "uint256"
        }
      ],
      "stateMutability": "view",
      "type": "function"
    },
    {
      "inputs": [],
      "name": "BENCHMARK_RATE_DECIMAL_18",
      "outputs": [
        {
          "internalType": "uint256",
          "name": "",
          "type": "uint256"
        }
      ],
      "stateMutability": "view",
      "type": "function"
    },
    {
      "inputs": [],
      "name": "DIFF_TIME_NEW_NONCE",
      "outputs": [
        {
          "internalType": "uint256",
          "name": "",
          "type": "uint256"
        }
      ],
      "stateMutability": "view",
      "type": "function"
    },
    {
      "inputs": [
        {
          "internalType": "uint256",
          "name": "amountUSDDecimal8",
          "type": "uint256"
        }
      ],
      "name": "USDToDbitToMint",
      "outputs": [
        {
          "internalType": "uint256",
          "name": "",
          "type": "uint256"
        }
      ],
      "stateMutability": "view",
      "type": "function"
    },
    {
      "inputs": [
        {
          "internalType": "uint256",
          "name": "_purchaseClassId",
          "type": "uint256"
        },
        {
          "internalType": "uint256",
          "name": "_debondClassId",
          "type": "uint256"
        },
        {
          "internalType": "uint256",
          "name": "_purchaseTokenAmount",
          "type": "uint256"
        },
        {
          "internalType": "uint256",
          "name": "_debondTokenMinAmount",
          "type": "uint256"
        },
        {
          "internalType": "enum Bank.PurchaseMethod",
          "name": "purchaseMethod",
          "type": "uint8"
        }
      ],
      "name": "buyBond",
      "outputs": [],
      "stateMutability": "nonpayable",
      "type": "function"
    },
    {
      "inputs": [
        {
          "internalType": "address",
          "name": "tokenAddress",
          "type": "address"
        },
        {
          "internalType": "uint256",
          "name": "tokenAmount",
          "type": "uint256"
        }
      ],
      "name": "getDebondTokenAmountFrom",
      "outputs": [
        {
          "internalType": "uint256",
          "name": "",
          "type": "uint256"
        }
      ],
      "stateMutability": "view",
      "type": "function"
    },
    {
      "inputs": [
        {
          "internalType": "uint256",
          "name": "_purchaseTokenClassId",
          "type": "uint256"
        },
        {
          "internalType": "uint256",
          "name": "_debondTokenClassId",
          "type": "uint256"
        },
        {
          "internalType": "uint256",
          "name": "_purchaseTokenAmount",
          "type": "uint256"
        },
        {
          "internalType": "enum Bank.PurchaseMethod",
          "name": "purchaseMethod",
          "type": "uint8"
        }
      ],
      "name": "interestRate",
      "outputs": [
        {
          "internalType": "uint256",
          "name": "fixRate",
          "type": "uint256"
        },
        {
          "internalType": "uint256",
          "name": "floatRate",
          "type": "uint256"
        }
      ],
      "stateMutability": "view",
      "type": "function"
    },
    {
      "inputs": [
        {
          "internalType": "uint256",
          "name": "classId",
          "type": "uint256"
        },
        {
          "internalType": "uint256",
          "name": "nonceId",
          "type": "uint256"
        },
        {
          "internalType": "uint256",
          "name": "amount",
          "type": "uint256"
        }
      ],
      "name": "redeemBonds",
      "outputs": [],
      "stateMutability": "nonpayable",
      "type": "function"
    },
    {
      "inputs": [
        {
          "internalType": "address",
          "name": "tokenIn",
          "type": "address"
        },
        {
          "internalType": "address",
          "name": "tokenOut",
          "type": "address"
        },
        {
          "internalType": "uint256",
          "name": "amountIn",
          "type": "uint256"
        },
        {
          "internalType": "uint256",
          "name": "amountOutMin",
          "type": "uint256"
        }
      ],
      "name": "swap",
      "outputs": [],
      "stateMutability": "nonpayable",
      "type": "function"
    },
    {
      "inputs": [
        {
          "internalType": "uint256",
          "name": "amountIn",
          "type": "uint256"
        },
        {
          "internalType": "uint256",
          "name": "amountOutMin",
          "type": "uint256"
        },
        {
          "internalType": "address[]",
          "name": "path",
          "type": "address[]"
        }
      ],
      "name": "swapExactTokensForTokens",
      "outputs": [
        {
          "internalType": "uint256[]",
          "name": "amounts",
          "type": "uint256[]"
        }
      ],
      "stateMutability": "nonpayable",
      "type": "function"
    }
  ],
  "transactionHash": "0x1e5108ef629dd1f4066adbe01da412021c41f35f02ec36f44861c2225d38a3c9",
  "args": [
    "0x39FfD23c810B36a72BdE798ca2FEa6D8a8560294",
    "0xF4c020ec427698c9ACfb46c795BA7671B7437b8c",
    "0x6d89597c7338fDb1b8e5e96313866478bEf6E441",
    "0x722cBd66BDF00D30adcA93401ae869aEE216fdbb"
  ],
  "numDeployments": 6,
  "solcInputHash": "38817cb41b79540a5b058d9672f7da4c",
  "bytecode": "0x60806040523480156200001157600080fd5b5060405162002a2b38038062002a2b8339810160408190526200003491620000a5565b600080546001600160a01b039586166001600160a01b031991821617909155600180549486169482169490941790935560028054928516928416929092179091556003805491909316911617905562000102565b80516001600160a01b0381168114620000a057600080fd5b919050565b60008060008060808587031215620000bc57600080fd5b620000c78562000088565b9350620000d76020860162000088565b9250620000e76040860162000088565b9150620000f76060860162000088565b905092959194509250565b61291980620001126000396000f3fe608060405234801561001057600080fd5b506004361061009e5760003560e01c8063b7aae6b711610066578063b7aae6b714610127578063caa47d601461013c578063d58d45a814610147578063f71a7c9b1461015a578063fe0291561461016d57600080fd5b80630af1be38146100a35780633ff2f59d146100c757806386818f26146100d15780639262b1af146100f15780639ed206f8146100ff575b600080fd5b6100b46100b13660046121e0565b90565b6040519081526020015b60405180910390f35b6100b46201518081565b6100e46100df3660046121f9565b610181565b6040516100be919061227c565b6100b466b1a2bc2ec5000081565b61011261010d3660046122d0565b6103b5565b604080519283526020830191909152016100be565b61013a610135366004612311565b610859565b005b6100b463621d53f081565b61013a61015536600461235e565b610da0565b6100b461016836600461239f565b611033565b61013a61017b3660046123cb565b50505050565b60005460405163d06ca61f60e01b81526060916001600160a01b03169063d06ca61f906101b690889087908790600401612411565b600060405180830381865afa1580156101d3573d6000803e3d6000fd5b505050506040513d6000823e601f3d908101601f191682016040526101fb91908101906124b0565b905083816001835161020d9190612560565b8151811061021d5761021d612577565b6020026020010151101561028c5760405162461bcd60e51b815260206004820152602b60248201527f556e69737761705632526f757465723a20494e53554646494349454e545f4f5560448201526a1514155517d05353d5539560aa1b60648201526084015b60405180910390fd5b8282600081811061029f5761029f612577565b90506020020160208101906102b4919061258d565b6001600160a01b03166323b872dd3360008054906101000a90046001600160a01b0316846000815181106102ea576102ea612577565b60209081029190910101516040516001600160e01b031960e086901b1681526001600160a01b03938416600482015292909116602483015260448201526064016020604051808303816000875af1158015610349573d6000803e3d6000fd5b505050506040513d601f19601f8201168201806040525081019061036d91906125aa565b506103ad8184848080602002602001604051908101604052809392919081815260200183836020028082843760009201919091525033925061103b915050565b949350505050565b6001546040516305d42cc560e31b815260048101869052600091829187918791879185918291829182916001600160a01b031690632ea1662890602401600060405180830381865afa15801561040f573d6000803e3d6000fd5b505050506040513d6000823e601f3d908101601f191682016040526104379190810190612658565b509093509150600190508a6001811115610453576104536126c3565b036105ae57600254604051630572c95f60e31b81526001600160a01b0390911690632b964af89061048b9084906000906004016126d9565b602060405180830381865afa1580156104a8573d6000803e3d6000fd5b505050506040513d601f19601f820116820180604052508101906104cc9190612714565b600254604051630572c95f60e31b81529195506001600160a01b031690632b964af8906105009084906001906004016126d9565b602060405180830381865afa15801561051d573d6000803e3d6000fd5b505050506040513d601f19601f820116820180604052508101906105419190612714565b925060008511801561056457506000826001811115610562576105626126c3565b145b1561057657610573858561272d565b93505b60008511801561059757506001826001811115610595576105956126c3565b145b156105a9576105a6858461272d565b92505b610785565b60008a60018111156105c2576105c26126c3565b03610785576001546040516305d42cc560e31b8152600481018890526000916001600160a01b031690632ea1662890602401600060405180830381865afa158015610611573d6000803e3d6000fd5b505050506040513d6000823e601f3d908101601f191682016040526106399190810190612658565b5092505050600061064a8388611033565b600254604051630572c95f60e31b81529192506001600160a01b031690632b964af89061067e9085906000906004016126d9565b602060405180830381865afa15801561069b573d6000803e3d6000fd5b505050506040513d601f19601f820116820180604052508101906106bf9190612714565b600254604051630572c95f60e31b81529197506001600160a01b031690632b964af8906106f39085906001906004016126d9565b602060405180830381865afa158015610710573d6000803e3d6000fd5b505050506040513d601f19601f820116820180604052508101906107349190612714565b9450600084600181111561074a5761074a6126c3565b0361075c57610759818761272d565b95505b6001846001811115610770576107706126c3565b036107825761077f818661272d565b94505b50505b831580610790575082155b156107c75760036107a966b1a2bc2ec500006002612745565b6107b3919061277a565b98506107c0896002612745565b9750610849565b60006107d36003611161565b905060006107ea866107e5818861272d565b611188565b9050670de0b6b3a76400006107ff828461125a565b61081166b1a2bc2ec500006002612745565b61081b9190612745565b610825919061277a565b99508961083a66b1a2bc2ec500006002612745565b6108449190612560565b9a5050505b5050505050505094509492505050565b6001546040516387ee5f4160e01b8152600481018690526024810187905286918691869186916001600160a01b03909116906387ee5f4190604401602060405180830381865afa1580156108b1573d6000803e3d6000fd5b505050506040513d601f19601f820116820180604052508101906108d591906125aa565b6109145760405162461bcd60e51b815260206004820152601060248201526f14185a5c881b9bdd08105b1b1bddd95960821b6044820152606401610283565b6001546040516305d42cc560e31b8152600481018690526000916001600160a01b031690632ea1662890602401600060405180830381865afa15801561095e573d6000803e3d6000fd5b505050506040513d6000823e601f3d908101601f191682016040526109869190810190612658565b506001546040516305d42cc560e31b815260048101899052919450600093508392506001600160a01b031690632ea1662890602401600060405180830381865afa1580156109d8573d6000803e3d6000fd5b505050506040513d6000823e601f3d908101601f19168201604052610a009190810190612658565b5092509250506000610a0f8690565b6000546040516323b872dd60e01b81523360048201526001600160a01b039182166024820152604481018990529192508516906323b872dd906064016020604051808303816000875af1158015610a6a573d6000803e3d6000fd5b505050506040513d601f19601f82011682018060405250810190610a8e91906125aa565b506000546001600160a01b03808416916340c10f199116610ab0846002612745565b6040516001600160e01b031960e085901b1681526001600160a01b0390921660048301526024820152604401600060405180830381600087803b158015610af657600080fd5b505af1158015610b0a573d6000803e3d6000fd5b5050600054604051633b730df160e01b8152600481018a9052602481018590526001600160a01b03888116604483015286811660648301529091169250633b730df19150608401600060405180830381600087803b158015610b6b57600080fd5b505af1158015610b7f573d6000803e3d6000fd5b50505050600080610b928a8a8a8e6103b5565b909250905060018b6001811115610bab57610bab6126c3565b03610c9857610bbb338b8a6112e7565b6000805460405163354aedbd60e21b81526001600160a01b03898116600483015287811660248301528392169063d52bb6f4906044016040805180830381865afa158015610c0d573d6000803e3d6000fd5b505050506040513d601f19601f82011682018060405250810190610c31919061278e565b915091506000610c428b8484611599565b9050600080896001811115610c5957610c596126c3565b14610c645784610c66565b855b9050610c8f338e670de0b6b3a7640000610c808587612745565b610c8a919061277a565b6112e7565b50505050610d8f565b60008b6001811115610cac57610cac6126c3565b03610d8f576000805460405163354aedbd60e21b81526001600160a01b03898116600483015287811660248301528392169063d52bb6f4906044016040805180830381865afa158015610d03573d6000803e3d6000fd5b505050506040513d601f19601f82011682018060405250810190610d27919061278e565b915091506000610d388b8484611599565b9050600080896001811115610d4f57610d4f6126c3565b14610d5a5784610d5c565b855b9050610d8a338e670de0b6b3a7640000610d768587612745565b610d80919061277a565b610c8a908661272d565b505050505b505050505050505050505050505050565b60025460405163ea2092f360e01b81526001600160a01b039091169063ea2092f390610dd69033908790879087906004016127b2565b600060405180830381600087803b158015610df057600080fd5b505af1158015610e04573d6000803e3d6000fd5b50506001546040516305d42cc560e31b815260048101879052600093508392506001600160a01b0390911690632ea1662890602401600060405180830381865afa158015610e56573d6000803e3d6000fd5b505050506040513d6000823e601f3d908101601f19168201604052610e7e9190810190612658565b50909350915060009050826001811115610e9a57610e9a6126c3565b036110155760025460405163b405254760e01b815260048101879052602481018690526000916001600160a01b03169063b405254790604401600060405180830381865afa158015610ef0573d6000803e3d6000fd5b505050506040513d6000823e601f3d908101601f19168201604052610f1891908101906127d8565b95505050505050804211610f2b57600080fd5b6000546040516323b872dd60e01b81526001600160a01b03918216600482015233602482015260448101869052908316906323b872dd906064016020604051808303816000875af1158015610f84573d6000803e3d6000fd5b505050506040513d601f19601f82011682018060405250810190610fa891906125aa565b50600054604051637921709360e01b81526001600160a01b0384811660048301526024820187905290911690637921709390604401600060405180830381600087803b158015610ff757600080fd5b505af115801561100b573d6000803e3d6000fd5b505050505061102c565b6001826001811115611029576110296126c3565b50505b5050505050565b805b92915050565b60005b6001835161104c9190612560565b81101561017b5760008084838151811061106857611068612577565b60200260200101518584600161107e919061272d565b8151811061108e5761108e612577565b6020026020010151915091506000868460016110aa919061272d565b815181106110ba576110ba612577565b60209081029190910101516000805460405163755c86d360e11b815260048101839052602481018490526001600160a01b038781166044830152868116606483015289811660848301529394509192849291169063eab90da69060a401600060405180830381600087803b15801561113157600080fd5b505af1158015611145573d6000803e3d6000fd5b505050505050505050808061115990612859565b91505061103e565b6000816ec097ce7bc90715b34b9f10000000008161118157611181612764565b0592915050565b6000600160ff1b83148061119f5750600160ff1b82145b156111bd5760405163b3c754a360e01b815260040160405180910390fd5b600080600085126111ce57846111d3565b846000035b9150600084126111e357836111e8565b836000035b905060006111ff83670de0b6b3a764000084611674565b90506001600160ff1b0381111561122c57604051637cb4bef560e01b815260048101829052602401610283565b600019808713908613808218600114611245578261124e565b61124e83612872565b98975050505050505050565b60008260000361126c57506000611035565b8260010361127c57506001611035565b670de0b6b3a763ffff198083019084016112968286611747565b91506112a28185611747565b90506112ad82611161565b91506112b881611161565b90506112c382611809565b91506112ce81611809565b90506112de826107e5838261288e565b95945050505050565b600154604051638a38e41960e01b815260048101849052429160009182916001600160a01b031690638a38e419906024016040805180830381865afa158015611334573d6000803e3d6000fd5b505050506040513d601f19601f82011682018060405250810190611358919061278e565b915091508060001461136a5780611370565b63621d53f05b9050620151806113808285612560565b106114705761139085838561189a565b600154604051638a38e41960e01b8152600481018790526000916001600160a01b031690638a38e419906024016040805180830381865afa1580156113d9573d6000803e3d6000fd5b505050506040513d601f19601f820116820180604052508101906113fd919061278e565b506002546040516347401a9360e01b81529192506001600160a01b0316906347401a9390611435908a908a9086908b906004016127b2565b600060405180830381600087803b15801561144f57600080fd5b505af1158015611463573d6000803e3d6000fd5b5050505050505050505050565b60006201518061148463621d53f086612560565b61148e91906128cf565b90506201518061149e8386612560565b6114a8908361272d565b10611029576114b886848661189a565b600154604051638a38e41960e01b8152600481018890526000916001600160a01b031690638a38e419906024016040805180830381865afa158015611501573d6000803e3d6000fd5b505050506040513d601f19601f82011682018060405250810190611525919061278e565b506002546040516347401a9360e01b81529192506001600160a01b0316906347401a939061155d908b908b9086908c906004016127b2565b600060405180830381600087803b15801561157757600080fd5b505af115801561158b573d6000803e3d6000fd5b505050505050505050505050565b60008084116115f55760405162461bcd60e51b815260206004820152602260248201527f4465626f6e644c6962726172793a20494e53554646494349454e545f414d4f55604482015261139560f21b6064820152608401610283565b6000831180156116055750600082115b61165f5760405162461bcd60e51b815260206004820152602560248201527f4465626f6e644c6962726172793a20494e53554646494349454e545f4c495155604482015264494449545960d81b6064820152608401610283565b8261166a8386612745565b6103ad919061277a565b60008080600019858709858702925082811083820303915050806000036116ae578382816116a4576116a4612764565b0492505050611740565b8381106116d857604051631dcf306360e21b81526004810182905260248101859052604401610283565b600084868809851960019081018716968790049682860381900495909211909303600082900391909104909201919091029190911760038402600290811880860282030280860282030280860282030280860282030280860282030280860290910302029150505b9392505050565b6000600160ff1b83148061175e5750600160ff1b82145b1561177c57604051630d01a11b60e21b815260040160405180910390fd5b6000806000851261178d5784611792565b846000035b9150600084126117a257836117a7565b836000035b905060006117b58383611a1e565b90506001600160ff1b038111156117e25760405163bf79e8d960e01b815260048101829052602401610283565b6000198087139086138082186001146117fb578261124e565b505060000395945050505050565b6000808212156118565768033dd1780914b971141982121561182d57506000919050565b61183982600003611809565b6ec097ce7bc90715b34b9f10000000008161118157611181612764565b680a688906bd8b00000082126118825760405163e69458f960e01b815260048101839052602401610283565b670de0b6b3a7640000604083901b0461174081611ae4565b60006118a583612859565b6001546040516305d42cc560e31b8152600481018790529194508492506000916001600160a01b0390911690632ea1662890602401600060405180830381865afa1580156118f7573d6000803e3d6000fd5b505050506040513d6000823e601f3d908101601f1916820160405261191f9190810190612658565b6002549094506001600160a01b0316925063d23a95de915087905084611945858861272d565b6040516001600160e01b031960e086901b1681526004810193909352602483019190915260448201526101f46064820152608401600060405180830381600087803b15801561199357600080fd5b505af11580156119a7573d6000803e3d6000fd5b505060015460405163c60e219f60e01b81526004810189905260248101869052604481018790526001600160a01b03909116925063c60e219f9150606401600060405180830381600087803b1580156119ff57600080fd5b505af1158015611a13573d6000803e3d6000fd5b505050505050505050565b60008080600019848609848602925082811083820303915050670de0b6b3a76400008110611a625760405163698d9a0160e11b815260048101829052602401610283565b600080670de0b6b3a764000086880991506706f05b59d3b1ffff8211905082600003611aa05780670de0b6b3a7640000850401945050505050611035565b620400008285030493909111909103600160ee1b02919091177faccb18165bd6fe31ae1cf318dc5b51eee0e1ba569b88cd74c1773b91fac106690201905092915050565b600160bf1b678000000000000000821615611b085768016a09e667f3bcc9090260401c5b674000000000000000821615611b27576801306fe0a31b7152df0260401c5b672000000000000000821615611b46576801172b83c7d517adce0260401c5b671000000000000000821615611b655768010b5586cf9890f62a0260401c5b670800000000000000821615611b84576801059b0d31585743ae0260401c5b670400000000000000821615611ba357680102c9a3e778060ee70260401c5b670200000000000000821615611bc25768010163da9fb33356d80260401c5b670100000000000000821615611be157680100b1afa5abcbed610260401c5b6680000000000000821615611bff5768010058c86da1c09ea20260401c5b6640000000000000821615611c1d576801002c605e2e8cec500260401c5b6620000000000000821615611c3b57680100162f3904051fa10260401c5b6610000000000000821615611c59576801000b175effdc76ba0260401c5b6608000000000000821615611c7757680100058ba01fb9f96d0260401c5b6604000000000000821615611c955768010002c5cc37da94920260401c5b6602000000000000821615611cb3576801000162e525ee05470260401c5b6601000000000000821615611cd15768010000b17255775c040260401c5b65800000000000821615611cee576801000058b91b5bc9ae0260401c5b65400000000000821615611d0b57680100002c5c89d5ec6d0260401c5b65200000000000821615611d285768010000162e43f4f8310260401c5b65100000000000821615611d4557680100000b1721bcfc9a0260401c5b65080000000000821615611d625768010000058b90cf1e6e0260401c5b65040000000000821615611d7f576801000002c5c863b73f0260401c5b65020000000000821615611d9c57680100000162e430e5a20260401c5b65010000000000821615611db9576801000000b1721835510260401c5b648000000000821615611dd557680100000058b90c0b490260401c5b644000000000821615611df15768010000002c5c8601cc0260401c5b642000000000821615611e0d576801000000162e42fff00260401c5b641000000000821615611e295768010000000b17217fbb0260401c5b640800000000821615611e45576801000000058b90bfce0260401c5b640400000000821615611e6157680100000002c5c85fe30260401c5b640200000000821615611e7d5768010000000162e42ff10260401c5b640100000000821615611e9957680100000000b17217f80260401c5b6380000000821615611eb45768010000000058b90bfc0260401c5b6340000000821615611ecf576801000000002c5c85fe0260401c5b6320000000821615611eea57680100000000162e42ff0260401c5b6310000000821615611f05576801000000000b17217f0260401c5b6308000000821615611f2057680100000000058b90c00260401c5b6304000000821615611f3b5768010000000002c5c8600260401c5b6302000000821615611f56576801000000000162e4300260401c5b6301000000821615611f715768010000000000b172180260401c5b62800000821615611f8b576801000000000058b90c0260401c5b62400000821615611fa557680100000000002c5c860260401c5b62200000821615611fbf5768010000000000162e430260401c5b62100000821615611fd957680100000000000b17210260401c5b62080000821615611ff35768010000000000058b910260401c5b6204000082161561200d576801000000000002c5c80260401c5b6202000082161561202757680100000000000162e40260401c5b62010000821615612041576801000000000000b1720260401c5b61800082161561205a57680100000000000058b90260401c5b6140008216156120735768010000000000002c5d0260401c5b61200082161561208c576801000000000000162e0260401c5b6110008216156120a55768010000000000000b170260401c5b6108008216156120be576801000000000000058c0260401c5b6104008216156120d757680100000000000002c60260401c5b6102008216156120f057680100000000000001630260401c5b61010082161561210957680100000000000000b10260401c5b608082161561212157680100000000000000590260401c5b6040821615612139576801000000000000002c0260401c5b602082161561215157680100000000000000160260401c5b6010821615612169576801000000000000000b0260401c5b600882161561218157680100000000000000060260401c5b600482161561219957680100000000000000030260401c5b60028216156121b157680100000000000000010260401c5b60018216156121c957680100000000000000010260401c5b670de0b6b3a76400000260409190911c60bf031c90565b6000602082840312156121f257600080fd5b5035919050565b6000806000806060858703121561220f57600080fd5b8435935060208501359250604085013567ffffffffffffffff8082111561223557600080fd5b818701915087601f83011261224957600080fd5b81358181111561225857600080fd5b8860208260051b850101111561226d57600080fd5b95989497505060200194505050565b6020808252825182820181905260009190848201906040850190845b818110156122b457835183529284019291840191600101612298565b50909695505050505050565b600281106122cd57600080fd5b50565b600080600080608085870312156122e657600080fd5b8435935060208501359250604085013591506060850135612306816122c0565b939692955090935050565b600080600080600060a0868803121561232957600080fd5b853594506020860135935060408601359250606086013591506080860135612350816122c0565b809150509295509295909350565b60008060006060848603121561237357600080fd5b505081359360208301359350604090920135919050565b6001600160a01b03811681146122cd57600080fd5b600080604083850312156123b257600080fd5b82356123bd8161238a565b946020939093013593505050565b600080600080608085870312156123e157600080fd5b84356123ec8161238a565b935060208501356123fc8161238a565b93969395505050506040820135916060013590565b83815260406020808301829052908201839052600090849060608401835b8681101561245d5783356124428161238a565b6001600160a01b03168252928201929082019060010161242f565b50979650505050505050565b634e487b7160e01b600052604160045260246000fd5b604051601f8201601f1916810167ffffffffffffffff811182821017156124a8576124a8612469565b604052919050565b600060208083850312156124c357600080fd5b825167ffffffffffffffff808211156124db57600080fd5b818501915085601f8301126124ef57600080fd5b81518181111561250157612501612469565b8060051b915061251284830161247f565b818152918301840191848101908884111561252c57600080fd5b938501935b8385101561124e57845182529385019390850190612531565b634e487b7160e01b600052601160045260246000fd5b6000828210156125725761257261254a565b500390565b634e487b7160e01b600052603260045260246000fd5b60006020828403121561259f57600080fd5b81356117408161238a565b6000602082840312156125bc57600080fd5b8151801515811461174057600080fd5b600082601f8301126125dd57600080fd5b815167ffffffffffffffff8111156125f7576125f7612469565b602061260b601f8301601f1916820161247f565b828152858284870101111561261f57600080fd5b60005b8381101561263d578581018301518282018401528201612622565b8381111561264e5760008385840101525b5095945050505050565b6000806000806080858703121561266e57600080fd5b845167ffffffffffffffff81111561268557600080fd5b612691878288016125cc565b94505060208501516126a2816122c0565b60408601519093506126b38161238a565b6060959095015193969295505050565b634e487b7160e01b600052602160045260246000fd5b6001600160a01b0383168152604081016002831061270757634e487b7160e01b600052602160045260246000fd5b8260208301529392505050565b60006020828403121561272657600080fd5b5051919050565b600082198211156127405761274061254a565b500190565b600081600019048311821515161561275f5761275f61254a565b500290565b634e487b7160e01b600052601260045260246000fd5b60008261278957612789612764565b500490565b600080604083850312156127a157600080fd5b505080516020909101519092909150565b6001600160a01b0394909416845260208401929092526040830152606082015260800190565b60008060008060008060c087890312156127f157600080fd5b865167ffffffffffffffff81111561280857600080fd5b61281489828a016125cc565b9650506020870151612825816122c0565b60408801519095506128368161238a565b80945050606087015192506080870151915060a087015190509295509295509295565b60006001820161286b5761286b61254a565b5060010190565b6000600160ff1b82016128875761288761254a565b5060000390565b600080821280156001600160ff1b03849003851316156128b0576128b061254a565b600160ff1b83900384128116156128c9576128c961254a565b50500190565b6000826128de576128de612764565b50069056fea2646970667358221220d5e02e8925a74d65f56967de542f0efa29d6b1c62d4dcfce7e748ebfa5b24eca64736f6c634300080d0033",
  "devdoc": {
    "kind": "dev",
    "methods": {},
    "version": 1
  },
  "userdoc": {
    "errors": {
      "PRBMathSD59x18__DivInputTooSmall()": [
        {
          "notice": "Emitted when one of the inputs is MIN_SD59x18."
        }
      ],
      "PRBMathSD59x18__DivOverflow(uint256)": [
        {
          "notice": "Emitted when one of the intermediary unsigned results overflows SD59x18."
        }
      ],
      "PRBMathSD59x18__Exp2InputTooBig(int256)": [
        {
          "notice": "Emitted when the input is greater than 192."
        }
      ],
      "PRBMathSD59x18__MulInputTooSmall()": [
        {
          "notice": "Emitted when one of the inputs is MIN_SD59x18."
        }
      ],
      "PRBMathSD59x18__MulOverflow(uint256)": [
        {
          "notice": "Emitted when the intermediary absolute result overflows SD59x18."
        }
      ],
      "PRBMath__MulDivFixedPointOverflow(uint256)": [
        {
          "notice": "Emitted when the result overflows uint256."
        }
      ],
      "PRBMath__MulDivOverflow(uint256,uint256)": [
        {
          "notice": "Emitted when the result overflows uint256."
        }
      ]
    },
    "kind": "user",
    "methods": {},
    "version": 1
  },
  "storageLayout": {
    "storage": [
      {
        "astId": 3362,
        "contract": "contracts/Debond-v0/contracts/Bank.sol:Bank",
        "label": "apm",
        "offset": 0,
        "slot": "0",
        "type": "t_contract(IAPM)9252"
      },
      {
        "astId": 3365,
        "contract": "contracts/Debond-v0/contracts/Bank.sol:Bank",
        "label": "debondData",
        "offset": 0,
        "slot": "1",
        "type": "t_contract(IData)9322"
      },
      {
        "astId": 3368,
        "contract": "contracts/Debond-v0/contracts/Bank.sol:Bank",
        "label": "bond",
        "offset": 0,
        "slot": "2",
        "type": "t_contract(IDebondBond)9405"
      },
      {
        "astId": 3388,
        "contract": "contracts/Debond-v0/contracts/Bank.sol:Bank",
        "label": "DBITAddress",
        "offset": 0,
        "slot": "3",
        "type": "t_address"
      }
    ],
    "types": {
      "t_address": {
        "encoding": "inplace",
        "label": "address",
        "numberOfBytes": "20"
      },
      "t_contract(IAPM)9252": {
        "encoding": "inplace",
        "label": "contract IAPM",
        "numberOfBytes": "20"
      },
      "t_contract(IData)9322": {
        "encoding": "inplace",
        "label": "contract IData",
        "numberOfBytes": "20"
      },
      "t_contract(IDebondBond)9405": {
        "encoding": "inplace",
        "label": "contract IDebondBond",
        "numberOfBytes": "20"
      }
    }
  }
}